:020000040800F2
:10000000C0060020CD010008ED040008CD04000862
:10001000E904000887020008151A00080000000023
:10002000000000000000000000000000BD0D0008FE
:100030008B02000800000000110B0008A90E000848
:10004000E7010008E7010008E7010008E7010008F0
:10005000E7010008E7010008E7010008E7010008E0
:10006000E7010008E7010008E7010008E7010008D0
:10007000E7010008E7010008E7010008E7010008C0
:10008000E7010008E7010008E7010008E7010008B0
:10009000E7010008E7010008E7010008E7010008A0
:1000A000E7010008E7010008E7010008E701000890
:1000B000E7010008E7010008E7010008E701000880
:1000C000E7010008E7010008E7010008E701000870
:1000D000E7010008E7010008AD170008E701000884
:1000E000E7010008E7010008E7010008E701000850
:1000F000E7010008E7010008E7010008E701000840
:10010000E7010008E70100084D110008E7010008B9
:10011000E7010008E7010008E7010008E70100081F
:10012000E7010008E7010008E7010008E70100080F
:1001300000F002F800F03AF80AA090E8000C8244BF
:100140008344AAF10107DA4501D100F02FF8AFF29C
:10015000090EBAE80F0013F0010F18BFFB1A43F0A5
:1001600001031847AC2A0000CC2A0000103A24BF33
:1001700078C878C1FAD8520724BF30C830C144BF0C
:1001800004680C607047000000230024002500264E
:10019000103A28BF78C1FBD8520728BF30C148BFEA
:1001A0000B6070471FB51FBD10B510BD00F031F8D2
:1001B0001146FFF7F7FF01F045FC00F04FF803B4DC
:1001C000FFF7F2FF03BC00F057F800000948804732
:1001D00009480047FEE7FEE7FEE7FEE7FEE7FEE729
:1001E000FEE7FEE7FEE7FEE704480549054A064B41
:1001F00070470000AD0E000831010008C00000206B
:10020000C0060020C0020020C002002070477047D6
:100210007047754600F02CF8AE4605006946534617
:1002200020F00700854618B020B5FFF7DDFFBDE8D8
:1002300020404FF000064FF000074FF000084FF04D
:10024000000B21F00701AC46ACE8C009ACE8C009DE
:10025000ACE8C009ACE8C0098D46704710B504464B
:10026000AFF300802046BDE81040FFF7A8BF0000B4
:10027000004870476000002001491820ABBEFEE72F
:1002800026000200704700BFFEE7704700B587B048
:100290000121084600F0ECFC0121042000F0F8FCEC
:1002A00004208DF80F000320ADF80C008DF80E002F
:1002B00003A9364800F076F80020ADF81600ADF836
:1002C00012004FF6FF70ADF814000020ADF81000DA
:1002D0008DF8180004A94FF0804001F0D1F90121F8
:1002E000022000F0C5FC0121042000F0D1FCC02058
:1002F000ADF80C0003A9254800F054F804A92448DF
:1003000001F0BEF9684601F0B5F80020ADF8000034
:100310000A20ADF808006946400701F055F80420AE
:10032000ADF800006946000701F04EF80020ADF876
:1003300000006946164801F047F80420ADF80000B7
:100340006946134801F040F800231A4603214FF094
:10035000804001F004F800231A4603210C4800F005
:10036000FEFF01221146900701F08DF800214FF0A9
:10037000804001F056F90121880700F0D5FF0121E6
:10038000034800F0D1FF07B000BD000000080140A5
:10039000000400400146002901DD0A4600E04A420F
:1003A000104670472DE9F041024600250026002046
:1003B00000230024002791F803C00CF00F0591F8EA
:1003C00003C00CF0100CBCF1000F03D091F802C078
:1003D0004CEA050591F800C0BCF1000F31D014685B
:1003E00000202BE04FF0010C0CFA00F3B1F800C034
:1003F0000CEA03069E4220D183004FF00F0C0CFA4A
:1004000003F7BC4305FA03FC4CEA040491F803C06B
:10041000BCF1280F06D14FF0010C0CFA00FCC2F819
:1004200014C00AE091F803C0BCF1480F05D14FF0A9
:10043000010C0CFA00FCC2F810C0401C0828D1D3F3
:100440001460B1F800C0BCF1FF0F34DD5468002027
:100450002EE000F1080C4FF0010808FA0CF3B1F897
:1004600000C00CEA03069E4221D183004FF00F0C1E
:100470000CFA03F7BC4305FA03FC4CEA040491F8B8
:1004800003C0BCF1280F05D100F1080C08FA0CF8E4
:10049000C2F8148091F803C0BCF1480F07D100F1F5
:1004A000080C4FF0010808FA0CF8C2F81080401C44
:1004B0000828CED35460BDE8F081416170470161E6
:1004C00070470AB1016100E04161704700BFFEE77B
:1004D00010B50A464B420468944200DD026004688D
:1004E0009C4200DA036010BD00BFFEE770470000C9
:1004F00070B5002100230F22C47804B3154C246882
:1005000004F4E064C4F5E064210AC1F10403CA40C4
:10051000447804FA03F184781440214309010E4C15
:100520000678A155047804F01F050124AC40057835
:100530006D11AD0005F1E025C5F8004109E0047832
:1005400004F01F050124AC40044D0678761145F8EF
:10055000264070BD0CED00E000E400E080E100E02A
:1005600002490143024A1160704700000000FA0589
:100570000CED00E070B500240EE00021204600F0F4
:10058000EAF8002504E0002000F087F9681CC5B2F5
:10059000802DF8DB601CC4B2082CEEDB70BD0000BF
:1005A00008B50121082000F073FB14208DF803002A
:1005B00003208DF802004020ADF8000069460A488B
:1005C000FFF7F0FE8020ADF8000069460648FFF70F
:1005D000E9FE012240210448FFF773FF0122802138
:1005E0000148FFF76EFF08BD000C014070B50546DD
:1005F000002413E08020204100EA050280210E48FB
:10060000FFF75FFF012240210B48FFF75AFF00224E
:1006100040210948FFF755FF601CC4B2082CE9DBF4
:10062000012240210448FFF74CFF002240210248EC
:10063000FFF747FF70BD0000000C014010B501221C
:1006400080210948FFF73DFF012240210648FFF7BE
:1006500038FF002280210448FFF733FF00224021A9
:100660000148FFF72EFF10BD000C014010B500221D
:1006700080210748FFF725FF012240210448FFF7AA
:1006800020FF012280210248FFF71BFF10BD000060
:10069000000C014070B5002406E0002500E06D1C50
:1006A000B5F57A7FFBD3641CB4F57A7FF5D3FFF7F9
:1006B00077FFAE2000F0E1F8D52000F0DEF88020D2
:1006C00000F0DBF8A82000F0D8F83F2000F0D5F8C3
:1006D000D32000F0D2F8002000F0CFF8402000F046
:1006E000CCF8A12000F0C9F8C82000F0C6F8DA2044
:1006F00000F0C3F8122000F0C0F8812000F0BDF82F
:10070000CF2000F0BAF8D92000F0B7F8F12000F0BF
:10071000B4F8DB2000F0B1F8302000F0AEF8A420EF
:1007200000F0ABF8A62000F0A8F88D2000F0A5F8A6
:10073000142000F0A2F8AF2000F09FF8FFF71AFF96
:1007400070BD10B50246012000E050430B1EA1F120
:100750000101FAD110BD70B505460C4645F0B00058
:1007600000F08BF8102141EA141000F086F804F034
:100770000F0000F082F870BD2DE9F04105460E46ED
:100780001746721ED206110E6A1E5206100EFFF791
:10079000E2FF002409E0A7F12001134A02EB011156
:1007A000085D00F07AF8601CC4B2082CF3DB721EFE
:1007B000D206110E6A1E012303EB4202D0B2FFF7EC
:1007C000CAFF00240BE0A7F12001074A02EB011247
:1007D00004F10801505C00F060F8601CC4B2082C01
:1007E000F1DBBDE8F08100001E2600082DE9F0478E
:1007F0008146884615461E46002D06DB2B224146C3
:100800004846FFF7B9FF2F4605E02D2241464846EE
:10081000FFF7B2FF6F42002417E0301B411E0A2091
:10082000FFF78FFFB7FBF0F00A21B0FBF1F201FBFD
:10083000120000F1300A08EB0400401CC1B252461D
:100840004846FFF799FF601CC4B2B442E5DBBDE83F
:10085000F0872DE9F04107460E461546002407E0D3
:100860002A5D3019C1B23846FFF786FF601CC4B25A
:10087000285D0028F4D1BDE8F08110B50446FFF7EB
:10088000DDFE7820FFF7B2FE0020FFF7AFFE204626
:10089000FFF7ACFEFFF7EAFE10BD10B50446FFF708
:1008A000CDFE7820FFF7A2FE4020FFF79FFE2046F6
:1008B000FFF79CFEFFF7DAFE10BD00002DE9FF5F99
:1008C00004468946A4EB09003149086031480068B4
:1008D000096808442F4908600846006840F6B831A6
:1008E000884201DB084608E02A4800682A49884215
:1008F00001DA084601E027480068264908602449D3
:100900000968264A1268881A01F030FD8346244897
:100910000168584601F042FD824601F07DFC074621
:10092000204A214B01F05AFA05460E461948006844
:1009300001F01CFD83461D480168584601F02EFD5C
:1009400080461348006801F011FD8346184801688D
:10095000584601F023FD8246414601F089FC0746D6
:1009600001F05AFC2A463346CDE9000101F000F9B6
:10097000CDE9020101F0B0F90E49086004480068B1
:10098000064908600B48006804B0BDE8F09F00000D
:10099000540000205800002048F4FFFF5C000020B5
:1009A000400000207B14AE47E17A843F3C000020E9
:1009B00038000020500000202DE9FC5F04468946E5
:1009C000A4EB090000B2454908804548B0F9000091
:1009D00001F0B1F905464FF06632424B01F0FEF9E5
:1009E000074688463D48B0F9000001F0A4F90546E5
:1009F0004FF033323C4B01F0F1F982463A46434620
:100A000001F0B6F8CDE9000101F066F900B237490E
:100A100008800846B0F90000314908803348B0F931
:100A2000000001F088F9324A324BCDE9000101F0B3
:100A3000D5F905460E463048006801F0EDFB8246C8
:100A40002A46334601F094F8074601F05FF82A4938
:100A500008600846006801F0DFFB07460022274BCC
:100A600001F0BAFA02D80020244910E022480068B8
:100A700001F0D2FB07460022214B01F073F902D2AC
:100A800000201F4903E01C48006801F0C5FB054633
:100A900001F03CF8184908600846016819480068E8
:100AA00001F07CFC07461148B0F9000001F05EFC43
:100AB000804615480168404601F070FC06463946FC
:100AC00001F0D6FB054601F035FC00B20F49088065
:100AD0000846B0F90000BDE8FC9F00004600002079
:100AE0004A0000206666E63F3333D33F48000020CB
:100AF0007B14AE47E17A843F4C000020000049405F
:100B0000000049C0340000203000002044000020D4
:100B10007047000030B589B005460C4601A800F0CA
:100B200076FD0121C80200F0B3F80121042000F095
:100B3000AFF818208DF817004001ADF8140003201D
:100B40008DF8160005A92248FFF72CFC214800F07B
:100B5000A3FC06A800F0E6FD0020ADF81E00ADF8ED
:100B60001A00681E80B2ADF81C00601E80B2ADF89D
:100B7000180000208DF8200006A9164800F080FD1E
:100B80006020ADF804000020ADF80C000120ADF8A5
:100B9000060001A90F4800F085FC01A90D4800F0EE
:100BA000D7FC01210B4800F0CBFB0821094800F0DD
:100BB000C5FC0821074800F01DFD0121054800F093
:100BC000A1FB0121034800F0AFFB09B030BD0000DC
:100BD00000080140002C014001B50098002808DB06
:100BE00008210E48FFF76BFC04210C48FFF765FC59
:100BF00007E004210948FFF762FC08210748FFF7D6
:100C00005CFC0098FFF7C6FB009041F6583168463F
:100C1000FFF75EFC02490098088008BD00180140FB
:100C2000342C014001B50098002808DB20210E4833
:100C3000FFF745FC40210C48FFF73FFC07E040214F
:100C40000948FFF73CFC20210748FFF736FC0098D5
:100C5000FFF7A0FB009041F658316846FFF738FCDB
:100C600002490098088008BD00180140382C014056
:100C700029B1064AD2690243044BDA6104E0034A0F
:100C8000D2698243014BDA617047000000100240D4
:100C900029B1064A92690243044B9A6104E0034A6F
:100CA00092698243014B9A61704700000010024034
:100CB00030B500210022002400232D4D6D6805F081
:100CC0000C0121B1042905D0082923D105E0294DC3
:100CD000056022E0274D05601FE0254D6D6805F495
:100CE0007012234D6D6805F48034022505EB9242A5
:100CF0001CB9214D554305600BE01D4D6D6805F491
:100D000000351DB11C4D5543056002E0194D55439A
:100D1000056002E0174D056000BF00BF144D6D680F
:100D200005F0F0010909154D6B5C0568DD40456073
:100D30000F4D6D6805F4E061090A104D6B5C456864
:100D4000DD4085600A4D6D6805F46051C90A0B4DA0
:100D50006B5C4568DD40C560054D6D6805F440413C
:100D6000890B074D6B5CC568B5FBF3F5056130BDBC
:100D70000010024000127A0000093D00000000202F
:100D80001000002010B54FF0804000F009FB04B2C5
:100D900000214FF0804000F044FC204610BD0000D0
:100DA00010B5054800F0FCFA04B20021024800F03A
:100DB00038FC204610BD000000040040704710B50C
:100DC00000F002F810BD00000CB50020019000906A
:100DD0003348006840F480303149086000BF304833
:100DE000006800F4003000900198401C01900098C9
:100DF00018B90198B0F5A06FF1D12948006800F446
:100E0000003010B10120009001E000200090009817
:100E1000012843D12348006840F0100021490860B0
:100E20000846006820F0030008600846006840F0AB
:100E3000020008601A48406819494860084640683E
:100E400048600846406840F4806048600846406852
:100E500020F47C1048600846406840F4E810486080
:100E60000846006840F08070086000BF0C480068C9
:100E700000F000700028F9D00948406820F0030015
:100E8000074948600846406840F00200486000BFDB
:100E90000348406800F00C000828F9D10CBD0000A0
:100EA00000100240002002407047000010B51348B7
:100EB000006840F001001149086008464068104988
:100EC00008400E494860084600680E4908400B4932
:100ED00008600846006820F48020086008464068E2
:100EE00020F4FE0048604FF41F008860FFF767FFA2
:100EF0004FF000600449086010BD0000001002407F
:100F00000000FFF8FFFFF6FE08ED00E0F0B50C462C
:100F1000154600220021068C4FF6FE773E400684DF
:100F2000028B018C4FF60C7632407E1C06EA0316CB
:100F30002E433243104EB0420ED0104EB0420BD072
:100F4000B0F1804F08D00E4EB04205D00D4EB042E9
:100F500002D00D4EB04206D14FF6FD76314044F03E
:100F60000106314305E04FF6F576314044F00106C5
:100F7000314302830184F0BD002C01400034014064
:100F80000004004000080040000C0040F0B50C4692
:100F90001546002200210026078C4FF6EF7C07EA59
:100FA0000C070784028B018C4FF6FF7707EA0416C3
:100FB00040F6FF473A404FF6FF7707EA03373A43D8
:100FC0004FF6FF7707EA05273A43114FB8420ED094
:100FD000104FB8420BD0B0F1804F08D00E4FB8423E
:100FE00005D00E4FB84202D00D4FB84206D14FF691
:100FF000DF77394046F01007394305E04FF65F7759
:10100000394044F01007394302830184F0BD0000E9
:10101000002C014000340140000400400008004062
:10102000000C0040F0B50C461546002200210026B9
:10103000078C4FF6FF6C07EA0C070784828B018C44
:101040004FF6FF7707EA04264FF60C773A404FF643
:10105000FF7707EA03172F433A43114FB8420ED0E8
:10106000104FB8420BD0B0F1804F08D00E4FB842AD
:1010700005D00E4FB84202D00D4FB84206D14FF600
:10108000FF57394046F48077394305E04FF2FF5768
:10109000394044F48077394382830184F0BD0000F5
:1010A000002C0140003401400004004000080040D2
:1010B000000C0040F0B50C46154600220021002629
:1010C000078C4EF6FF7C07EA0C070784828B018CA5
:1010D0004FF6FF7707EA043640F6FF473A404FF6EF
:1010E000FF7707EA05273A434FF6FF7707EA03370A
:1010F0003A43114FB8420ED0104FB8420BD0B0F166
:10110000804F08D00E4FB84205D00E4FB84202D0E3
:101110000D4FB84206D14DF6FF77394046F480575F
:10112000394305E047F6FF57394044F480573943C7
:1011300082830184F0BD0000002C01400034014096
:101140000004004000080040000C00402DE9FE4F64
:101150000121614800F027F901287DD1FFF712FE37
:1011600004465E480088204400B25C490880FFF7CE
:1011700017FEC0F100095A480088484400B2584997
:10118000088058495848006801F008F9009001F0BB
:1011900043F80746554A564B00F020FE054600F03E
:1011A000B5FC82464F495048006801F0F7F80090BE
:1011B00001F032F807464D4A4D4B00F00FFE054650
:1011C00000F0A4FC83464B4909684FF4C36201FB5D
:1011D00002F04249B1F90010FFF770FB4042029063
:1011E000444909684FF4C36201FB02F03C49B1F97C
:1011F0000010FFF763FB40420190504601F09AF85F
:101200000546294602A8FFF763F9584601F092F80F
:101210000546294601A8FFF75BF905232246092167
:101220000220FFF7E3FA05234A4609210120FFF7D0
:10123000DDFA3148007801281FD02E49096801EBFA
:10124000811101EB4101254AB2F90020A2EBC10056
:10125000FFF7A0F81E2800E03BE00EDB25490968F7
:1012600001EB811101EB41011D4AB2F90020A2EB13
:10127000C100FFF78FF81E2807DA00201F490880F9
:10128000091D08801E4908601EE021B2029800B2C4
:10129000FFF792FB0290052309210420029AFFF731
:1012A000A5FA0298FFF798FC0FFA89F1019800B2AD
:1012B000FFF782FB0190052309210320019AFFF724
:1012C00095FA0198FFF7AEFC0121034800F029F8D8
:1012D00000BFBDE8FE8F0000000C0040260000208B
:1012E000280000200000C3441C0000207B14AE47EF
:1012F000E17A843F2000002024000020342C0140AB
:101300002C00002021B1028842F08002028004E01B
:1013100002884FF67F731A4002807047CA430282E8
:101320007047CA430282704721B1028842F001022D
:10133000028004E002884FF6FE731A400280704774
:1013400031B1B0F8442042F40042A0F8442005E056
:10135000B0F84420C2F30E02A0F844207047F0B564
:101360000C4615461E460021002200230189028BEF
:10137000038C4FF6F877394021434FF6FC473A404B
:1013800040F201173A434FF6DD773B404FF6FF77C7
:1013900007EA06172F433B43018102830384F0BD14
:1013A0000146888C704730B5024600200023002497
:1013B000158A05EA0103958905EA010413B10CB108
:1013C000012000E0002030BD70B505460C462448E1
:1013D00085420ED0234885420BD0B5F1804F08D00E
:1013E0002148854205D02148854202D020488542C7
:1013F00000D100E000BF208850B92389A28861880D
:101400002846FFF783FDE188284600F00CF925E027
:10141000208804280AD12389A28861882846FFF7FA
:10142000B5FDE188284600F007F917E02088082874
:101430000AD12389A28861882846FFF7F3FDE18855
:10144000284600F006F909E02389A2886188284629
:10145000FFF730FEE188284600F004F970BD000077
:10146000002C01400034014000040040000800400E
:10147000000C004000210180418001218180002179
:10148000C180018170471AB183890B43838102E0D7
:1014900083898B438381704701894FF6F87211402D
:1014A0000181704770B5002400220023058C4FF69F
:1014B000FE7635400584028C8388048B4FF68F7549
:1014C0002C40B51E2C400D882C43751E2A400D89DA
:1014D0002A434D882A43144DA8420BD0134DA842ED
:1014E00008D0134DA84205D0124DA84202D0124D8B
:1014F000A84213D14FF6F7752A404D892A434FF67B
:10150000FB752A408D882A434FF6FF652B404FF626
:10151000FF552B408D892B43CD892B43838004833A
:10152000CD888586028470BD002C014000340140C6
:101530000040014000440140004801400A460021AB
:10154000018B4FF6F7731940114301837047000078
:1015500070B5002400220023058C4FF6EF7635404D
:101560000584028C8388048B48F6FF752C404FF667
:10157000FF452C400D884FF6FF7606EA05252C43E3
:101580004FF6DF752A400D8906EA05152A434D8876
:1015900006EA05152A43154DA84202D0144DA8426B
:1015A0001DD14FF67F752A404D894FF6FF7606EA2A
:1015B00005152A434FF6BF752A408D8806EA0515A2
:1015C0002A434FF6FF352B404FF2FF752B408D8994
:1015D00006EA85052B43CD8906EA85052B438380E2
:1015E0000483CD880587028470BD0000002C014073
:1015F000003401400A460021018B4FF2FF7319406D
:101600004FF6FF7303EA0223194301837047002159
:10161000018041808180C180018141818181C181BE
:10162000704781847047028B4FF6F3731A40028330
:10163000028B0A4302837047028B4FF2FF331A403A
:101640000283028B4FF6FF7303EA01231A430283DE
:101650007047828B4FF6F3731A408283828B0A4362
:1016600082837047828B4FF2FF331A408283828BD2
:101670004FF6FF7303EA01231A4382837047000089
:10168000002202881D4B98420ED01D4B98420BD071
:10169000B0F1804F08D01B4B984205D01A4B9842AE
:1016A00002D01A4B984204D14FF68F731A404B88E0
:1016B0001A43174B984207D0164B984204D04FF666
:1016C000FF431A40CB881A4302808B8883850B889E
:1016D00003850A4B98420BD0094B984208D00E4B19
:1016E000984205D00D4B984202D00D4B984201D143
:1016F0000B7A03860123838270470000002C01408F
:10170000003401400004004000080040000C00408C
:10171000001000400014004000400140004401401F
:10172000004801404FF6FF71818000210180C18097
:1017300041800172704700001FB501210820FFF7AA
:1017400097FA1948FFF7A8FE0020ADF80A00ADF897
:1017500006006320ADF8080041F61F40ADF8040014
:1017600000208DF80C0001A90F48FFF789FF012127
:101770000D48FFF7D3FD012211460B48FFF783FE0A
:1017800032208DF8000001208DF8030004208DF830
:10179000010000208DF802006846FEF7A9FE012135
:1017A0000148FFF7C1FD1FBD000C004010B540F21D
:1017B0002551044800F073F818B12021014800F0C9
:1017C00059F810BD0044004010B586B00446012110
:1017D0004804FFF74DFA01210520FFF759FA1820B8
:1017E0008DF817000420ADF8140003208DF81600C2
:1017F00005A91E48FEF7D6FD48208DF817000820E1
:10180000ADF8140003208DF8160005A91748FEF75F
:10181000C9FD01940020ADF810000C20ADF80E00B9
:101820000020ADF80C00ADF80A00ADF8080001A9E1
:101830000F4800F083F8012240F225510C4800F0D7
:1018400058F826208DF8000001208DF803000420B0
:101850008DF8010000208DF802006846FEF748FE72
:101860000121034800F00FF806B010BD0008014048
:101870000044004001F40072B2F5007F00D100BFC7
:10188000CA430280704721B1828942F400528281AA
:1018900004E082894DF6FF731A408281704770B56B
:1018A0000246002400230025002040F66A16B142BB
:1018B00000D100BFC1F3421501F01F03012606FA53
:1018C00003F3012D02D19689334006E0022D02D1A7
:1018D000168A334001E0968A33400C12012606FA3C
:1018E00004F41688344013B10CB1012000E000204C
:1018F00070BDF0B50346002400260025002040F608
:101900006A17B94200D100BF1846C1F3421401F072
:101910001F06012707FA06F5012C01D10C3004E05F
:10192000022C01D1103000E014301AB107682F43A7
:10193000076002E00768AF430760F0BD2DE9F0479C
:1019400086B005460E460024A24600BFA1460027E9
:10195000B08900B100BF2F462C8A4CF6FF700440BE
:10196000F08804432C82AC894EF6F3100440B08812
:1019700031890843718908430443AC81AC8A4FF62E
:10198000FF400440B0890443AC8201A8FFF790F9FE
:101990001F48874202D1DDF810A001E0DDF80CA05D
:1019A000A88900F4004040B10AEBCA0000EB0A101D
:1019B00031684900B0FBF1F807E00AEBCA0000EB20
:1019C0000A1031688900B0FBF1F86420B8FBF0F030
:1019D00004012009642101FB1089A88900F400405A
:1019E00040B1322000EBC900B0FBF1F000F007007D
:1019F000044308E0322000EB09106421B0FBF1F051
:101A000000F00F0004432C8106B0BDE8F087000011
:101A10000038014000BFFEE708B501218020FFF734
:101A200037F948208DF803002A20ADF80000032084
:101A30008DF8020069460248FEF7B4FC08BD0000BC
:101A4000001C01404FF44070FEF78AFDFEF722FEB5
:101A5000FFF772FE01214FF4E150FFF75BF800F051
:101A60003BF8FEF713FC4FF4E130FFF7ADFEFFF754
:101A7000D3FF0EA201210846FEF7EBFE0DA20121C5
:101A80000220FEF7E6FE0DA201210320FEF7E1FE93
:101A90000CA201210420FEF7DCFE0C480C49086072
:101AA00005200C49086000BFFEE700007265616414
:101AB0005F6C3A00726561645F723A006F75745FC3
:101AC0006C3A00006F75745F723A0000000070415C
:101AD0001C0000202000002008B501214020FFF755
:101AE000D7F810208DF803007C20ADF8000003200B
:101AF0008DF8020069460448FEF754FC10210248A4
:101B0000FEF7DDFC08BD00000018014021F0004296
:101B1000A2F16052B2F5801F01F0004328BFD2F15C
:101B20007F6C0BD95FEA001C43EAC20242EB5070A3
:101B300018BF704728BF20F001007047B2F5801F22
:101B4000BCBF184670474FEA410C1CF5001F02D27B
:101B5000084600F0EABC70B500F0EAF90000008920
:101B6000FFF7F6BF4FF00040A0F58000704700007F
:101B700010B591EA030F48BF83F0004300F16A8279
:101B8000841A71EB030C05D2121943EB0C03001BF2
:101B900061EB0C01DFF824E14FEA1154A4EB135C74
:101BA0001EEA430F18BF9EEA445F73D023EA0E0378
:101BB000DCF1200E21EA045143F4801332D322FADF
:101BC0000CFE10EB0E0023FA0CFE41EB0E01CCF1E3
:101BD000200E03FA0EFE10EB0E0051F10001B1F5DC
:101BE000801FCCF1200E32D201EB045112FA0EF21A
:101BF000BDE8104058BF7047401C38BF5FEA420242
:101C000018BF7047002814BF20F0010041F1000107
:101C10004FEA410313F5001F38BF7047A1F1C041DF
:101C200000F0D4B9012A43EB0302ACF1200CDCF143
:101C30001F0E32BF4FF0000E23FA0CF310EB03001F
:101C400041EB0451B4EB115FD0D0A1EB045101F58D
:101C5000801149085FEA300001EB04510ED350F1C6
:101C6000000038BF12FA0EFE08D1BDE81040C9E7E7
:101C7000401C38BF5FEA4202CAD1C3E7BDE810404A
:101C80004FEA410313F5001F38BF7047A1F1C0416F
:101C900000F09CB99EEA445F08D011EA5E0FBDE8EF
:101CA000104004BF01F0004100207047BDE8104023
:101CB00070B500F03DF900BF64FBBE3E0000E0FFE0
:101CC000491058BFC1F140415B1058BFC3F14043B8
:101CD0008B42EFF3008070474FEA41034FEA5353C2
:101CE000A3F58063D3F11E03C8BFD3F1210C0CDD33
:101CF0004FF0004242EAC12242EA505232FA03FC5B
:101D00008CEAE17CACEBE1707047102BC4BF002083
:101D1000704703F5787CBCF1FF3F04D06FF00042C0
:101D200082EA2100704770B500F002F949922480E0
:101D300000207047F2E710F0004248BF4042B0FA7E
:101D400080F310FA03F10AD0C3F11D0303F5806399
:101D50004FEA415002EB035202EBD12170474FF0A2
:101D60000000704751EA030C17D41CF5801F58BFC0
:101D7000BCF5801F00F10680994218BF704708BF6C
:101D80009042704707D711F5801F58BF13F5801F89
:101D900019D499427047894270471CF5801F08D5B5
:101DA000BCF5801FF7D58B4218BF704708BF824231
:101DB00070474FF4001C1CEB410F38BF1CEB430F66
:101DC00001D28B42704770B500F0B2F892244900FE
:101DD0004FF000514FF08053FFF772BFDFF848C15A
:101DE00070B51CEA111E1EBF1CEA13159EEA0C0FEB
:101DF00095EA0C0F00F06F8081EA030423EA4C138C
:101E00004EEAD47E21EA4C1141F4801143F4801350
:101E1000AE44A1FB024CA0FB0365AEF17F7E3619F8
:101E200055EB0C05A1FB034C4CF10003A0FB021C7D
:101E300016EB0C06654153F10003094218BF46F04A
:101E4000010613F4007F0BD14FEA03314FEA05304E
:101E5000340341EA155140EA16506FF003020AE0DC
:101E60004FEAC3214FEAC520F40241EA555140EA46
:101E700056506FF0020202EB2E4201EB025585EA4A
:101E8000CE710AD05FEA440C18BF24F0004450F130
:101E9000000041F1000120EAD47040F2FE7C62456E
:101EA00000D270BDA84214BF4FF080444FF04044B0
:101EB000002E08BF0024BEF1806FA8BFA1F1C04171
:101EC000BDE8704080F282804FF0000001F1C04117
:101ED00001F0004170479EEA0C0F0CEA131518BF81
:101EE00095EA0C0F06D04FF0000081EA030E0EF0C9
:101EF000004170BD00F01CF88900013E00F007B8F9
:101F000000F009B84FEA430C5FEA5C5C08D081EA54
:101F1000030100F05BB84FEA410C5FEA5C5CF6D16C
:101F20004FF00000014970470000FF070000F87FF4
:101F30000EF1020E2EF0030E5EF8046B364205D44D
:101F4000012A43EB030515F5001F12D8012841EBC8
:101F5000010C1CF5001F0CD80ED14FEAD17C15F5F1
:101F6000001F0CEB4C0C0CF1020C08BF4CEBD37CAB
:101F700004E04FF0080C01E04FEAD37C0CEB4C0579
:101F800026FA05F606F00706B6F1040C06D20EEBAB
:101F9000860CBDE870404CF0010C6047DFE80CF0A7
:101FA000090B02024FF000414FF00000A1F50021A3
:101FB00070BD19461046012851EB010418BFD4F535
:101FC000001484BF002001F0004170BD0808A0F596
:101FD00000114FEA3101704753EA010C17D41CF588
:101FE000801F58BFBCF5801F00F106808B4218BFD0
:101FF000704708BF8242704707D713F5801F58BF4C
:1020000011F5801F19D48B4270479B4270471CF515
:10201000801F08D5BCF5801FF7D5994218BF7047BF
:1020200008BF904270474FF4001C1CEB430F38BFB1
:102030001CEB410F01D2994270470FB40CBC03BC9A
:10204000FFF7C1BE10B591EA030F48BF83F000430C
:102050003FF596AD841A71EB030C07D212198CF080
:10206000004C43EB0C03001B61EB0C01DFF8A4E117
:102070004FEA1154A4EB135C1EEA430F18BF9EEA0B
:10208000445F00F0B08023EA6E03524221EA04511B
:10209000C3EB6E0338BF5B1EDCF1200E25D322FAA2
:1020A0000CFE10EB0E0043FA0CFE41EB0E01CCF1DE
:1020B000200E03FA0EFE10EB0E0051F10001CCF1E0
:1020C000200E29D412FA0EF201EB0451BDE81040A3
:1020D00058BF7047401C1CBFB2F1004F704700282A
:1020E0000CBF491C20F00100704712EB020E43EBBD
:1020F000030218BF4FF0010E4EEA4202ACF1200C71
:10210000DCF11E0E54D943FA0CFE10EB0E0051F117
:10211000FF31CCF11E0ED5D50EF1010E12FA0EFED6
:10212000404141EB010101EB445C5FEA5C5C10D98A
:1021300010EBDE7001EB045138BFBEF1004FBDE87B
:10214000104018BF704700280CBF491C20F0010048
:10215000704730D24FEAD42C11F5001124F40064FA
:102160001BD0B1FA81F20B3AA41AA41ED2F12003BB
:10217000914030FA03F31943904001EBCC71002CED
:1021800001EB0451BDE81040A8BF704701F1C04108
:102190004FF0000001F000417047B0FA80F310FAF0
:1021A00003F100D110BDE41A173C4805C90AE4E761
:1021B00001EB045110BD491001EB0451BDE8104082
:1021C0004FEA300002E04FF0000170474A0008BFBC
:1021D0000042F8D0B2F5001F28BF704701F000415F
:1021E0004FF0000070479EEA445F07D011EA5E0F8F
:1021F000BDE8104004BF002100207047BDE810403A
:1022000070B5FFF795FE00BF40DFF63E83F000415A
:10221000104670470000E0FF43004FEAD30C4FEA3E
:102220003C0C43401FBF40070CF1605113F0FE4FC0
:1022300070471CF0006F03D100200CF00041704784
:102240000CF0004343EA507010B540EACC0000F0B7
:1022500026F900BF000000924FEA0001FFF7B6BE6A
:102260004FF000414FF00000A1F500217047000041
:1022700090EA010F48BF81F0004100F16281421AEB
:102280003CBF801A89184FEAD0524FF07F4C1CEAAD
:10229000410FA2EBD15318BF9CEA026F00F03B80C4
:1022A0004FF0004C4CEA00204CEA012121FA03FCDB
:1022B00010EB0C0C1ED202F1FF325FEA1C2040EB47
:1022C000C25038BF70471CF07F0F4FEA400C18BF58
:1022D000BCF17F4F38BF7047C3F12003994008BF5E
:1022E00020F00100BCF17F4F38BF7047A0F1C04023
:1022F00000F01BB94FEA3C00000A40EBC25028BF77
:102300001CF0FF0F4FEA400CE6D018BFBCF17F4F26
:1023100038BF7047EAE79CEA026F05D010EA5C0F0D
:1023200008BF00F00040704710B500F0B8F800BFDB
:1023300064FBBE3E41000B0ED3F19E0208D950F45F
:1023400000034FEA032323FA02F048BF40427047DC
:1023500010B500F0A4F800BF499224800020704717
:102360006FF0004282EA20007047000010F0004148
:1023700048BF4042B0FA80F310FA03F2C3F19D0364
:102380000BD051EAC35101EB1220530638BF7047FE
:1023900000F1010008BF20F0010070474FF47F0CEE
:1023A0001CEAD0121EBF1CEAD11392EA0C0F93EA6A
:1023B0000C0F00F0478090EA010F48BF42F4807292
:1023C0004FF0004C4CEA00204CEA012102EB0302E2
:1023D000A0FB0113A2F50002002918BF43F001037E
:1023E0005B0028BF4FEA330342EB22425FEA132C23
:1023F0004CEBC2502EBFBCEB436FB2F57C0F704765
:102400004FEA036CBCF1004F08BF20F00100B2F5A9
:102410007C0F38BF70470BD582F0FF0212F5803F6A
:10242000C8BF704700F1C040D8BF00F000407047FF
:1024300000F5000C5FEA4C0C48BF7047B0F1C0409B
:1024400000F073B890EA010F0CEAD11348BF42F4D0
:102450008072624538BF634504D280EA010000F013
:102460000040704710B500F01AF800BF8900013E27
:1024700000F007B800F009B85FEA410C5FEA1C6C95
:1024800008D080EA010000F050B85FEA400C5FEA33
:102490001C6CF6D14FF00040A0F5800070470EF1A3
:1024A000020E2EF0030E5EF8044B244204D44FEAD1
:1024B0004102B2F17F4F11D84FEA4003B3F17F4F91
:1024C0000CD80ED14FEAD07CB2F17F4F0CEB4C0C04
:1024D0000CF1020C08BF4CEBD17C04E04FF0080C6F
:1024E00001E04FEAD17C0CEB4C0324FA03F404F036
:1024F0000704B4F1040C06D20EEB840CBDE81040C6
:102500004CF0010C6047DFE80CF0070802024FF0C6
:102510000040A0F5800010BD0846420018BFD2F16F
:10252000807288BF00F0004010BDFF2141EAD0500A
:10253000C005704790EA010F48BF81F000413FF5A8
:102540009EAE421A04D882F00042A0EB0200114471
:102550004FEAD0524FF07F4C1CEA410FA2EBD1530F
:1025600018BF9CEA026F4AD04FF0004C4CEA0020A2
:102570004CEA012121FA03FCB0EB0C0C0FD412F051
:10258000FE0F36D05FEA4C001DD5001240EBC25062
:1025900038BF70471CF03F0F18BF70470BE0A2F127
:1025A00001025FEA1C2040EBC25038BF70471CF0AC
:1025B0007F0F18BF7047C3F12003994014BF401E1E
:1025C00020F00100704780084FEA122308BF7047CF
:1025D000B0FA80FCA2EB0C02CCF1280C60FA0CF0F3
:1025E00093EA122F04BF00EBC25070474FEAC3704A
:1025F0007047130A5FEADC1008BF7047F6E79CEAF1
:10260000026F04D010EA5C0F08BF0020704710B5BD
:10261000FFF745FF40DFF63E81F0004070470000C5
:1026200000000000000000000000000000000000AA
:1026300000F800000000000000333000000000102F
:102640000C06100C0600000000000000000040C056
:102650007840C0784000043F04043F040400007048
:1026600088FC08300000001820FF211E0000F00840
:10267000F000E018000000211C031E211E0000F0E5
:102680000888700000001E2123241927211010162D
:102690000E0000000000000000000000000000002C
:1026A00000E01804020000000007182040000002AB
:1026B0000418E0000000004020180700000040401F
:1026C00080F0804040000202010F01020200000081
:1026D00000F0000000000101011F010101000000E5
:1026E00000000000000080B070000000000000004A
:1026F00000000000000000010101010101010000D3
:102700000000000000000030300000000000000069
:10271000000080601804006018060100000000E05E
:1027200010080810E000000F102020100F0000100B
:1027300010F8000000000020203F20200000007062
:10274000080808887000003028242221300000305A
:102750000888884830000018202020110E00000052
:10276000C02010F8000000070424243F240000F8D3
:102770000888880808000019212020110E0000E0B8
:10278000108888180000000F112020110E0000385A
:102790000808C83808000000003F00000000007072
:1027A000880808887000001C222121221C0000E0FB
:1027B00010080810E0000000312222110F00000074
:1027C00000C0C00000000000003030000000000029
:1027D0000080000000000000806000000000000099
:1027E0008040201008000001020408102000404032
:1027F0004040404040000404040404040400000875
:102800001020408000000020100804020100007029
:1028100048080808F0000000003036010000C03011
:10282000C828E810E0000718272423140B00000034
:10283000C038E0000000203C23020227382008F8BE
:10284000888888700000203F202020110E00C030B2
:10285000080808083800071820202010080008F889
:1028600008080810E000203F202020100F0008F882
:102870008888E8081000203F20202320180008F84E
:102880008888E8081000203F200003000000C030C6
:1028900008080838000007182020221E020008F847
:1028A00008000008F808203F210101213F2000080E
:1028B00008F8080800000020203F20200000000049
:1028C0000808F8080800C08080807F00000008F831
:1028D00088C028180800203F20012638200008F86A
:1028E000080000000000203F20202020300008F8D1
:1028F000F800F8F80800203F003F003F200008F8EB
:1029000030C00008F808203F200007183F00E01002
:1029100008080810E0000F10202020100F0008F811
:1029200008080808F000203F210101010000E01024
:1029300008080810E0000F18242438504F0008F849
:10294000888888887000203F2000030C30200070A9
:102950008808080838000038202121221C001808A7
:1029600008F8080818000000203F2000000008F8C0
:1029700008000008F808001F202020201F00087809
:10298000880000C83808000007380E010000F80869
:1029900000F80008F800033C0700073C0300081893
:1029A00068808068180820302C03032C30200838F9
:1029B000C800C83808000000203F200000001008B0
:1029C0000808C838080020382621202018000000F8
:1029D00000FE020202000000007F40404000000CA8
:1029E00030C000000000000000010638C0000002F6
:1029F0000202FE000000004040407F000000000096
:102A000004020202040000000000000000000000B8
:102A100000000000000080808080808080800002B4
:102A200002040000000000000000000000000000A0
:102A30008080808000000019242222223F2008F894
:102A4000008080000000003F112020110E000000D7
:102A5000008080800000000E112020201100000066
:102A600000808088F800000E112020103F20000018
:102A7000808080800000001F22222222130000801C
:102A800080F0888888180020203F20200000000067
:102A9000808080808000006B94949493600008F89C
:102AA000008080800000203F210000203F20008027
:102AB0009898000000000020203F20200000000027
:102AC00000809898000000C08080807F000008F897
:102AD000000080808000203F24022D30200000086C
:102AE00008F8000000000020203F20200000808027
:102AF000808080808000203F20003F20003F808039
:102B0000008080800000203F210000203F20000046
:102B1000808080800000001F202020201F008080F7
:102B200000808000000080FFA12020110E00000026
:102B3000008080808000000E112020A0FF80808017
:102B400080008080800020203F21200001000000C4
:102B50008080808080000033242424241900008099
:102B600080E0808000000000001F202000008080A6
:102B7000000000808000001F202020103F20808067
:102B800080000080808000010E30080601008080F7
:102B90000080008080800F300C030C300F0000801C
:102BA0008000808080000020312E0E312000808047
:102BB00080000080808080818E7018060100008077
:102BC0008080808080000021302C22213000000095
:102BD0000000807C020200000000003F4040000036
:102BE0000000FF00000000000000FF0000000002E5
:102BF000027C800000000040403F00000000000612
:102C000001010202040400000000000000000000B6
:102C1000302C000800000020600000006C0100085B
:102C2000902C000860000020600600008801000869
:102C30000000000001020304010203040607080962
:102C40000204060800000000000000000000000070
:102C50000000000000000000000000000000000074
:102C600000000041CDCCCC3D0000803F0AD7233C82
:102C70000AD7233C00000000000000000000000014
:102C80000000000000000000000000000000000044
:0400000508000131BD
:00000001FF
