:020000040800F2
:100000008006002045010008072C00081F18000882
:10001000052C0008F90D0008D16D00080000000053
:10002000000000000000000000000000F92E0008A1
:10003000BB150008000000008D2C0008B13000083E
:100040005F0100085F0100085F0100085F01000810
:100050005F0100085F0100085F0100085F01000800
:100060005F0100085F0100085F0100085F010008F0
:100070005F0100085F0100085F0100085F010008E0
:100080005F0100085F0100085F0100085F010008D0
:100090005F0100085F0100085F0100085F010008C0
:1000A0005F0100085F0100085F0100085F010008B0
:1000B0005F010008CD6800085F0100085F010008CB
:1000C0005F0100085F0100085F0100085F01000890
:1000D0005F010008416C00085F0100085F01000833
:1000E0005F0100085F0100085F0100085F01000870
:1000F0005F0100085F0100085F0100085F01000860
:100100005F0100085F0100085F0100085F0100084F
:100110005F0100085F0100085F0100085F0100083F
:100120005F0100085F0100085F0100085F0100082F
:10013000DFF80CD000F0FAFB00480047A97E000869
:10014000800600200648804706480047FEE7FEE795
:10015000FEE7FEE7FEE7FEE7FEE7FEE7FEE7FEE777
:10016000093100083101000840EA01039B0703D070
:1001700009E008C9121F08C0042AFAD203E011F8E6
:10018000013B00F8013B521EF9D27047D2B201E0A8
:1001900000F8012B491EFBD270470022F6E710B58C
:1001A00013460A4604461946FFF7F0FF204610BDE5
:1001B00010B5002200E0521C835C8C5CA34201D18C
:1001C000002BF8D1D8B2E1B2401A10BD2DE9FE4F94
:1001D000804681EA0300C00F0C46009021F00041E8
:1001E00023F00045B8EB0200A94105D24046214664
:1001F00090461C460B46024623F00040104347D071
:10020000270DC7F30A00C3F30A510290401A019068
:1002100040286BDAC3F3130040F4801B0098924629
:1002200020B10023D2EB030A63EB0B0B0198594674
:10023000C0F14002504600F037FA06460D465046DF
:100240005946019A00F04FFA10EB08006141002472
:1002500087EA115284EAE7731A4340D0009A62B3E6
:10026000019A012A4FEA075215DC001B61EB0201DB
:100270004FF0004202EA0752CDE90042001C41F56E
:10028000801132462B4600F0D3FA03B0BDE8F08F60
:1002900040462146F9E7001B61EB0201001C41F5D5
:1002A000801300185B412018A2F5001747EB0301EB
:1002B00040EAD570B6196D4111E06D084FEA360677
:1002C00045EAC0754FEA0752001B61EB0201001CB2
:1002D00041F5801149084FEA30000019514132467A
:1002E0002B4603B0BDE8F04F00F093BA009801220E
:1002F00040000023D0EB020263EBE073009821463C
:100300004FEAE074B8EB000061EB0401E9E783F029
:1003100000435BE781F0004158E72DE9FE4F81EA99
:10032000030404F0004421F0004100944FF0000B5E
:1003300023F0004350EA01045ED052EA03045BD08C
:10034000C3F30A54C1F30A552C44A4F2F3340194C4
:10035000A0FB0254C1F3130141F48011C3F3130352
:1003600043F4801301FB024400FB034E840A970A06
:1003700044EA815447EA8357A4FB076802958D0A33
:1003800005FB07854FEA932C04FB0C542705029DBF
:100390004FEA065847EA1637B5EB08056EEB070C2F
:1003A000870E920E47EA811742EA8312A7FB0201E9
:1003B000B6EB0B0164EB00042B0D43EA0C335E1823
:1003C00044EB1C50DA465146E7FB0201C5F3130427
:1003D0004FEA0B3343EA14534FEA0432019C43EAD9
:1003E0000603A4F10C040294009CCDE900B400F0D3
:1003F0001FFA03B0BDE8F08F00200146F9E72DE9B0
:10040000F04D81EA030404F0004B21F0004514464E
:100410004FF0000A23F0004150EA050220D054EAD0
:1004200001021DD0C5F30A570246C5F31303C1F3F9
:100430001300C1F30A5640F4801543F48013A7EB70
:100440000608101BD64608F2FD3873EB050002D3F0
:1004500008F1010801E092185B41B8F1000F03DADE
:1004600000200146BDE8F08D00204FF480110646C3
:1004700084460EE0171B73EB050705D3121B63EBD5
:10048000050306434CEA010C49084FEA3000921874
:100490005B4150EA0107EDD152EA030012D082EA33
:1004A000040083EA0501084305D0101BAB4106D2C6
:1004B0000122002306E000224FF0004302E06FF02B
:1004C000010253101AEB06004CEB085110EB0A0026
:1004D00041EB0B01BDE8F04D00F09BB90EB5C10F2B
:1004E00080EAE0700844CA07002140F233438DE8F7
:1004F0000E000A460B4600F09BF903B000BD0EB596
:1005000040F2334102910021CDE900110A460B4629
:1005100000F08EF903B000BD00F0004220F0004072
:10052000C10DC0F3160040F400007F2901DA00205D
:100530007047962903DCC1F19601C84001E0963965
:100540008840002AF4D04042704720F00040C10D9E
:10055000C0F3160040F400007F2901DA0020704744
:10056000962903DCC1F19601C8407047963988404E
:10057000704770B5C1F30A5201F000450024C1F381
:10058000130140F2FF3341F480119A4201DA002056
:1005900070BD40F233439A42A2F2334203DC52422E
:1005A00000F091F800E090402C43F1D0404270BD43
:1005B000C1F30A5210B5C1F3130140F2FF3341F405
:1005C00080119A4201DA002010BD40F233439A4272
:1005D000A2F2334203DC524200F075F810BD9040A5
:1005E00010BD01F0004330B421F0004150EA010297
:1005F00006D00A0DA2F56072C1F31301002A02DCD5
:1006000030BC00207047440F44EAC104C100E01828
:1006100030BC00EBC25000F0C5B830B50B46014607
:1006200000202022012409E021FA02F59D4205D391
:1006300003FA02F5491B04FA02F52844151EA2F13B
:100640000102F1DC30BD2DE9F05F05460020924645
:100650009B4688460646814640241BE02846414684
:100660004746224600F02FF853465A46C01A914199
:1006700010D311461846224600F016F82D1A67EBE3
:1006800001084F4622460120002100F00DF817EB2B
:1006900000094E41201EA4F10104DFDC484631462A
:1006A0002A464346BDE8F09F202A04DB203A00FAA0
:1006B00002F1002070479140C2F1200320FA03F3B9
:1006C000194390407047202A04DB203A21FA02F0B7
:1006D0000021704721FA02F3D040C2F1200291407C
:1006E000084319467047202A06DBCB17203A41FA07
:1006F00002F043EAE07306E041FA02F3D040C2F1AF
:10070000200291400843194670470000014900F05B
:1007100003B800005002002010B500683C22B0FB76
:10072000F2F302FB1303B0FBF2F00B60B0FBF2F349
:1007300002FB1303B0FBF2F018224B60B0FBF2F3A4
:1007400002FB1303B0FBF2F0021D8B600723B2FB28
:10075000F3F403FB1422800040F2B55300F66C3032
:100760008A61B0FBF3F2B0FBF3F403FB14004432F4
:1007700080084A61C8613B2802D3920700D0401C20
:100780000022074C13460A61E25C824203D8801AB9
:100790005B1C0B61F8E7401CC860084610BD0000F8
:1007A000100E06080029A8BF7047401C490008BF6A
:1007B00020F00100704710B4B0FA80FC00FA0CF091
:1007C00050EA010404BF10BC704749B1CCF12004C9
:1007D00021FA04F411FA0CF118BF01212143084356
:1007E000A3EB0C01CB1D4FEA00614FEA102042BF82
:1007F000002010BC704700EBC35010440029A4BF78
:1008000010BC7047401C490008BF20F0010010BC1C
:10081000704710B5141E73F1000408DA401C41F152
:10082000000192185B411A4301D120F0010010BD74
:100830002DE9F04D92469B4611B1B1FA81F202E0EA
:10084000B0FA80F220329046FFF72EFF04460F46A2
:1008500040EA0A0041EA0B0153465A46084313D0C6
:10086000114653EA010019D0C8F140025046FFF783
:100870002AFF05460E46504659464246FFF714FFEA
:10088000084305D0012004E020463946BDE8F08D3C
:100890000020054346EAE0762C4337430A98630577
:1008A000E40AA0EB08000022FD0A44EA47540A309B
:1008B00002D500200146E9E7010510196941DDE98B
:1008C000084500196941BDE8F04DA2E7C1F30A529D
:1008D000C1F3130140F2FF3341F480119A4202DA6E
:1008E00000200146704740F233439A42A2F233425D
:1008F00002DC5242FFF7E7BEFFF7D6BE30B5041E5A
:1009000071F1000404DB4FF00044404264EB01014C
:10091000141E73F1000405DB1C464FF000435242E5
:1009200063EB0403994208BF904230BD064C074D6B
:1009300006E0E06840F0010394E8070098471034AF
:10094000AC42F6D3FFF7F8FB1C0E06083C0E060877
:1009500070B521F0004303430CD0C1F30A550024C5
:10096000D5EB040564EB0403D617AD1AB34102DBE3
:100970000020014670BD201841EB025170BD0000FF
:1009800010B586B00121042002F0A4F900248DF8EE
:1009900017402020ADF8140003208DF8160005A99B
:1009A000184800F0DBFE0121880202F093F94FF4B1
:1009B000004002F06DF94FF46020CDE902048DF89B
:1009C000054000948DF8044001200F4C8DF8100074
:1009D0006946204600F0ACF80121204600F05AF8A4
:1009E000204600F003F9204600F09BF80128FAD0D9
:1009F000204600F00AF9204600F082F80128FAD0DB
:100A000006B010BD000801400028014070B51A4C26
:100A1000052301221946204600F0AEF801212046A8
:100A200000F0E9F80221204600F074F80028F9D01F
:100A3000204600F06CF8114D0146288010A006F009
:100A4000C9F9052301220B21204600F095F8012168
:100A5000204600F0D0F80221204600F05BF8002884
:100A6000F9D0204600F053F86880BDE87040014698
:100A700006A006F0AFB90000002801406C0000207D
:100A8000696C6C753D25640D0A0000006D713D2593
:100A9000640D0A000029816802D041F0010101E0E3
:100AA00021F00101816070470D4910B5884202D1E3
:100AB000012144150AE00B49884202D101210415A5
:100AC00004E0094988420AD10121CC03204602F002
:100AD0000DF92046BDE81040002102F007B910BD15
:100AE0000024014000280140003C014000298168A9
:100AF00002D041F4801101E021F48011816070473F
:100B0000014600208968490700D501207047C06C64
:100B100080B270470246002012680A4200D00120CD
:100B20007047014600208968090700D501207047F9
:100B300010B542680E4B0C791A400B6842EA042249
:100B40001343436083680B4A1340D1E902422243B6
:100B50004C7943EA44031A438260C26A097C22F456
:100B60007002491EC9B242EA0151C16210BD0000C3
:100B7000FFFEF0FFFDF7F1FF70B5072409290AD940
:100B8000C568A1F10A0606EB4606B440A543B3408A
:100B90001D43C56007E0056901EB4106B440A5436C
:100BA000B3401D4305611F23072A09D2446B521E1F
:100BB00002EB820293409C4391400C43446370BD1E
:100BC0000D2A09D2046BD21F02EB820293409C4390
:100BD00091400C43046370BDC46A0D3A02EB82027B
:100BE00093409C4391400C43C46270BD816841F0C6
:100BF0000801816070470029816802D041F4A0019A
:100C000001E021F4A00181607047816841F0040196
:100C10008160704730B587B001214FF4017002F058
:100C200059F84FF4404002F033F80220ADF81400B8
:100C300000248DF8174005A91B4800F08FFD1B4DBF
:100C40002846FFF731FF4FF40020CDE902040120D0
:100C50008DF804408DF8100000948DF80540694629
:100C60002846FFF765FF01212846FFF73FFF0122D5
:100C7000002311462846FFF77FFF01212846FFF792
:100C800009FF2846FFF7B2FF2C462046FFF749FF31
:100C90000028FAD12046FFF7B8FF2046FFF730FFC3
:100CA0000028FAD107B030BD0008014000240140FF
:100CB00008B50121102002F00DF810208DF8030076
:100CC0000120ADF8000003208DF8020069460248BB
:100CD00000F044FD08BD00000010014010B50120E7
:100CE00002F010F8BDE81040002002F00BB8000040
:100CF00070B53F4E01220421304600F08BFD0122E9
:100D00000821304600F086FD01221021304600F017
:100D100081FD01222021304600F07CFD354C6068C9
:100D200010B904F11000606020780121002500282E
:100D3000E0684FF48C7200F10100E06011D0904245
:100D400006DDE560A068401EA06001D525706170D9
:100D500060680068062838D2DFE800F00D18212A04
:100D600021189042F4DDE560A068401CA06090422C
:100D7000EEDB2170ECE7A068E168C0F58C7088427A
:100D800001DA012200E0002204211BE0A068E168F2
:100D9000C0F58C70884228DA0122082112E0A06890
:100DA000E168C0F58C7088421DDA0122102109E04B
:100DB000A068E168C0F58C70884201DA012200E089
:100DC00000222021304600F025FD6078002809D05F
:100DD000606806220168491C91FBF2F302FB1311C3
:100DE0000160657070BD0022E0E70022D5E70000D9
:100DF0000018014000000020FEE700002DE9F04F40
:100E0000C41700EB94708410C81701EB9070851024
:100E1000D01702EB90708710FC48002385B0018941
:100E20004FF0010B9A461E2905D1A0F808A0C17801
:100E300009B980F803B001780A2901D180F800A02F
:100E4000F24906780C3101F1140C21F8164001F139
:100E500028022CF8165022F816708678DFF8B09326
:100E6000092E0BD20289761C09EB420129F81240A7
:100E7000A1F84A50A1F89470867066E0B1F900407C
:100E8000B1F90250B1F906602C44B1F9045035446F
:100E90002C44B1F908502C44B1F90A502C44B1F952
:100EA0000C502C44B1F90E502C44B1F91050B1F94A
:100EB00012102C440C440A2194FBF1F6058909EB2D
:100EC000450429F81560BCF90060BCF90270BCF952
:100ED00006803E44BCF9047047443E44BCF90870A7
:100EE0003E44BCF90A703E44BCF90C703E44BCF967
:100EF0000E703E44BCF910703E44BCF912703E4482
:100F000096FBF1F6A4F84A60B2F90050B2F902601B
:100F1000B2F906703544B2F904603E443544B2F982
:100F200008603544B2F90A603544B2F90C603544C2
:100F3000B2F90E603544B2F91060B2F912203544AE
:100F40002A4492FBF1F1A4F89410B048C07801282B
:100F50007ED1AE48B9F93E104A460089814213D08D
:100F6000B2F9424084420FD0B2F9884084420BD09B
:100F7000B2F98C40844207D0B2F9D240844203D007
:100F8000B2F9D640844263D1CCB20494B2F9427033
:100F9000C846FCB20394B2F988608142F4B202946C
:100FA000B2F98C50ECB20194B2F9D24004F0FF0CCB
:100FB000CDF800C0B9F9D62002F0FF0E03D1DFF85A
:100FC00054C2A8F83CC0C446874203D14FF400582D
:100FD000ACF84080864203D1DFF83882ACF88680D6
:100FE000854203D14FF40058ACF88A80844203D183
:100FF000DFF82082ACF8D080824203D14FF4005851
:10100000ACF8D480E146814208D139F91380B9F9AE
:101010003CC0E04502DBA9F83C800493874208D13C
:1010200039F91380B9F940C0E04502DCA9F84080E5
:10103000039386420AD109EB4308B9F986C0B8F98F
:101040004A80E04502DBA9F886800293854200E0F1
:101050003BE00AD109EB4308B9F98AC0B8F94A80E4
:10106000E04502DCA9F88A80019384420AD109EBA9
:101070004308B9F9D0C0B8F99480E04502DBA9F87B
:10108000D0800093CC4682420AD10CEB4308B9F9D8
:10109000D4C0B8F99480E04502DCA9F8D4809E461B
:1010A0005B1CDBB21E2BAED30499A9F83E1003994A
:1010B000A9F842100299A9F888100199A9F88C1092
:1010C0000099A9F8D210A9F8D6E05049B9F93C30F6
:1010D0004C46088939F910209A4201DBA287E08743
:1010E00034F91020B4F940309A4202DCA4F84020D0
:1010F000E08704EB4002B4F98650B2F94A30AB42C3
:1011000003DBA4F88630A4F88800B2F94A30B4F9B9
:101110008A50AB4203DCA4F88A30A4F88C00B2F900
:101120009430B4F9D050AB4203DBA4F8D030A4F82B
:10113000D200B2F99410B4F9D420914203DCA4F89F
:10114000D410A4F8D600B4F93C00B4F9408000EB08
:10115000080101EBD17141F34F02A4F84420B4F926
:101160008670B4F98A9002EB400C07EB090101EBA1
:10117000D171032041F34F03A4F88E30B4F9D0604D
:10118000B4F9D4509CFBF0FC711901EBD17141F31F
:101190004F0103EB470701EB460697FBF0F796FB81
:1011A000F0F602EB480292FBF0F2A4F8D810A4F893
:1011B00046C0A4F89070A4F8DA60A4F8482003EBC5
:1011C000490292FBF0F201EB450191FBF0F0A4F82B
:1011D0009220A4F8DC000E4800F0CCF90B4901285D
:1011E000087104D0022817D003283ED124E00889D2
:1011F000B4F9462034F91000904203DD4A780AB968
:1012000081F801B0B4F9482025E00000A0000020DA
:101210007001002000E0FFFF0889B4F9902004EB82
:101220004000B0F94A00904203DD4A780AB981F8DB
:1012300001B0B4F992200EE00889B4F9DA2004EB89
:101240004000B0F99400904203DD4A780AB981F871
:1012500001B0B4F9DC20904207DA4878012804D1C3
:1012600081F801A04889401C48810889401C0881F8
:101270000878401C08704889C88005B0BDE8F08F28
:10128000014800F067B900007001002038B504463D
:101290000121080201F01EFD4FF40060ADF80000CE
:1012A00003208DF80200012C02D0022C02D004E0B1
:1012B000102000E004208DF803006946014800F08A
:1012C0004DFA38BD002001402DE9F0470120FFF71D
:1012D000DDFF01225B4ED5022946304600F09AFA26
:1012E00000222946304600F095FA142000F0AFF9AC
:1012F00001222946304600F08DFA2946304600F09A
:101300007EFA0220FFF7C2FF06E0641CE4B201206F
:1013100000F0A8F9642C31D22946304600F06FFA6B
:101320000128F2D0002406E0641CE4B2012000F0A1
:1013300099F9642C22D22946304600F060FA002840
:10134000F2D000273C464FF00109DFF8FC8006E0B0
:101350007F1CFFB2012000F085F9642F0ED22946D0
:10136000304600F04CFA0128F2D0002709E07F1C3B
:10137000FFB2012000F076F9642F02D30020BDE80F
:10138000F0872946304600F03AFA0028EFD00027CF
:101390001E2000F067F92946304600F030FA012897
:1013A00005D02946304600F02AFA80B11EE0E01749
:1013B00004EB507008EBE00120F00700201A0A78D7
:1013C000C0F1070309FA03F002430A700EE0E017C8
:1013D00004EB507108EBE10021F00701611A02787B
:1013E000C1F1070309FA03F18A430270641C282C37
:1013F000B5DB98F8002098F8011098F802505318BF
:1014000098F8031098F804006C182344834217D10D
:101410000D4E084608363270FFF771F800220B4B6C
:10142000FEF7EDFF07460C462846FFF768F83A46F8
:101430002346FEF7CBFEFFF7D4F8706002209EE74C
:1014400001209CE7002001405C00002000002440B7
:101450002DE9F0478CB000240794089409942046A5
:101460000A9400F071FA4FF689464FF47A65E2B2B9
:101470003346A021782000F00BFD604200EB800095
:1014800005EB800000F0EEF8641CC82CEFDB0024B4
:10149000E2B20023A021782000F0FAFC604200EBC9
:1014A000800005EB800000F0DDF8641CC82CEFDB49
:1014B000DFF898A001240AAD09AE08AF0DF11C08B1
:1014C0004FF0020904EB8400401FCDE9020800211F
:1014D0001F480497CDE90010CDE905650A4653463B
:1014E000A021782006F097FCCDF800900A9883B2EE
:1014F000099882B2089881B2079880B200F006FB82
:10150000642000F0A4F8641C0C2CDBDD00244FF6F2
:10151000FF75E2B22B46A021782000F0B9FC6420D0
:1015200000F095F8641C062CF3DB0024E2B20023E3
:10153000A021782000F0ACFC642000F088F8641C46
:10154000052CF3DB0CB0BDE8F0870000000059402B
:1015500000C05C40064981874A42A0F84020A0F8BC
:101560008610A0F88A20A0F8D010A0F8D4207047E8
:1015700000E0FFFF818FB0F84020891A0BB2B0F86D
:101580008610B0F88A20891A0AB2B0F8D010B0F8E4
:10159000D400081A01B2934204DD8B4207DD01201A
:1015A000194605E08A4202DD0220114600E00320D0
:1015B000B1F57A7F00DC00207047704700BF00BFA4
:1015C00000BF00BF00BF00BF00BF00BF00BF00BF23
:1015D00000BF00BF00BF00BF00BF00BF00BF00BF13
:1015E00000BF00BF00BF00BF00BF00BF00BF00BF03
:1015F00000BF00BF00BF00BF00BF00BF00BF00BFF3
:1016000000BF00BF00BF00BF00BF00BF00BF00BFE2
:1016100000BF00BF00BF00BF00BF00BF00BF00BFD2
:1016200000BF00BF00BF00BF00BF00BF00BF00BFC2
:1016300000BF00BF00BF00BF00BF00BF00BF00BFB2
:1016400000BF00BF00BF00BF00BF00BF704700B5B4
:1016500002464FF47A7302E0184600F003F8521E77
:10166000FAD200BD00B501E0FFF7A8FF401EFBD293
:1016700000BD00008000A0F1C0400029016802D038
:1016800041F0010101E0024A114001607047000091
:10169000FEFF0F0010B5D0E901121143D0E903237A
:1016A0001A4311434269114382691143C2691143CC
:1016B000026A1143426A1143826A1143C26A1143AA
:1016C000026B114302689200A2F1C042116081686E
:1016D000082907D101688900A1F1C0410A6842F0D8
:1016E00040020A60416BD1E9002342EA03128B6891
:1016F0008C891B0243EA04431A430B8A42EA0352D1
:101700000B7D896942EA03620A4301688900A1F1FD
:10171000C0414A60C16AB1F5804F08D000686FF0DF
:1017200070418000A0F1C040C0F8041110BD816B71
:10173000D1E9002342EA03128B680C8A1B0243EAB8
:1017400004531A430B7D896942EA036200680A4325
:101750008000A0F1C040C0F8042110BDF0B5CA78E7
:10176000002502F00F03D20601D58A7813430A78C8
:101770004FF00F0E12F0FF0F4FF001021CD0046863
:101780000F8802FA05F63740B74211D14FEA850CAF
:101790000EFA0CF724EA070703FA0CF43C43CF785F
:1017A000282F02D0482F02D002E0466100E00661F7
:1017B0006D1C082DE4D304600C88FF2C1ED94468EE
:1017C0005FF0000606F1080702FA07F50F882F40C0
:1017D000AF420FD14FEA860C0EFA0CF7BC4303FA66
:1017E0000CF73C43CF78282F00D14561CF78482FA4
:1017F00000D10561761C082EE4D34460F0BD02469A
:10180000002092680A4200D0012070474161704771
:10181000016170470AB10161704741617047FEE79D
:101820002DE9F8434FF00008264EDFF89490444627
:10183000351D6F46CDF8008034B1012C0BD0022C41
:1018400010D0032C1BD114E001211F48FFF7D7FF54
:101850008DF8000013E010214846FFF7D0FF8DF807
:1018600001000CE020214846FFF7C9FF8DF8020077
:1018700005E040214846FFF7C2FF8DF80300385DC0
:10188000315D884209D0295D491CC9B22955052915
:1018900002D3305505F8048030B1641CE4B2042C46
:1018A000CAD30020BDE8F88314B1641CE0B2F9E7A4
:1018B00028780A2801D30520F4E70120F2E7000088
:1018C000001001404C0000200008014010B501212B
:1018D0000C48FFF794FF0C49012807D04A68002004
:1018E000B2F57A7F05D34860052010BD4868401CDA
:1018F00005E0B2F5FA7F02D84860032010BD4860C9
:10190000002010BD000801401400002008B501218E
:10191000442001F0DFF904208DF803000120ADF828
:10192000000003208DF8020069460548FFF716FF06
:101930007020ADF8000069460248FFF70FFF08BDB0
:1019400000080140001001402DE9F043174C81468A
:101950000025208866884643A088A0F5D041043938
:1019600002D1A079012807D00021084600F046FCEA
:1019700000F030FF0E4814E00020A0712A27678194
:101980004FF02B08A4F80C80014600F037FC012032
:10199000A071A4F80A80A781EAE700BFA0F8009030
:1019A0006D1CB542FAD3BDE8F08300000C010020A5
:1019B0000008006C2DE9F04F53492A242B25898813
:1019C00045F2105A4FF4305B4FF4285E4FF44876DE
:1019D0004FF0F00C49F241394FF4A07349F28647B9
:1019E0004FF4F07218B348484FF00108494580F8A9
:1019F00006800380A0F802C014D0B94212D0A1F52D
:101A0000A04CBCF5447C0DD0A1F5D04CBCF1040C2D
:101A100050D0514552D1A0F808B0A0F80AE02C02ED
:101A200084816DE02C2606814481858151E0364811
:101A30004FF00008494580F80680A0F800C04380B8
:101A400015D0B94213D0A1F5D04CBCF1040C0ED086
:101A5000A1F5A04CBCF5447C09D0514518D1A0F8A3
:101A600008B0A0F80AE04FF42C5181811FE02C2629
:101A700006814481A1F5D0448581043C05D0A1F5BF
:101A8000A644103C01D0B9422FD1038042802CE003
:101A9000A1F5C853633B06D0222101812021418159
:101AA0002121818121E02C210181458184810280D5
:101AB00046801AE02C260681458109E0A1F5C85C24
:101AC000BCF1630C16D022240481212444812024FB
:101AD0008481A1F5D044043C05D0A1F5A644103C76
:101AE00001D0B94201D102804380BDE8F04F00200F
:101AF00000F07EBA4FF02C0CA0F808C0448185811C
:101B000006804280E5E700000C0100202DE9FE4F31
:101B1000161A4FF000085D1A834647468A464FF072
:101B2000FF30002E02DD4FF0010102E003D14FF043
:101B30000001019102E0C6F100060190002D02DDD6
:101B40004FF0010002E003D14FF00000009002E0EE
:101B5000C5F100050090AE4201DD344600E02C46A0
:101B6000601C4FF00009029021E000BF1FFA8AF1CB
:101B70001FFA8BF000F066F90C981FFA8AF1C2B2D6
:101B80001FFA8BF04FF6FF7300F082F9B0442F4438
:101B9000A04503DD0199A8EB04088B44A74202DDB0
:101BA00000993F1B8A4409F101001FFA80F902994C
:101BB0008945DBDDBDE8FE8F2DE9FE4F161ACDE924
:101BC00000104FF000085D1A47464FF0FF30002E1E
:101BD00002DD4FF0010102E003D14FF000018B461E
:101BE00002E08346C6F10006002D02DD4FF0010041
:101BF00002E003D14FF00000824602E08246C5F1C8
:101C00000005AE4201DD344600E02C46601C4FF07A
:101C10000009029018E0009881B2019880B200F0AB
:101C20001FF9B0442F44A04504DD0198A8EB040837
:101C300058440190A74203DD00983F1B5044009098
:101C400009F101001FFA80F902998945E3DDBDE839
:101C5000FE8F2DE9FE4F161ACDE900104FF0000857
:101C60005D1A47464FF0FF30002E02DD4FF00101B4
:101C700002E003D14FF000018B4602E08346C6F13B
:101C80000006002D02DD4FF0010002E003D14FF00D
:101C90000000824602E08246C5F10005AE4201DD49
:101CA000344600E02C46601C4FF00009029018E01A
:101CB000009881B2019880B200F0DEF8B0442F4461
:101CC000A04504DD0198A8EB040858440190A74200
:101CD00003DD00983F1B5044009009F101001FFAFA
:101CE00080F902998945E3DDBDE8FE8F2DE9FE4FBD
:101CF000161A4FF000085D1A834647468A464FF091
:101D0000FF30002E02DD4FF0010102E003D14FF061
:101D10000001019102E0C6F100060190002D02DDF4
:101D20004FF0010002E003D14FF00000009002E00C
:101D3000C5F100050090AE4201DD344600E02C46BE
:101D4000601C4FF00009029021E000BF1FFA8AF1E9
:101D50001FFA8BF000F076F80C981FFA8AF1C2B2E5
:101D60001FFA8BF045F2AA2300F092F8B0442F44FA
:101D7000A04503DD0199A8EB04088B44A74202DDCE
:101D800000993F1B8A4409F101001FFA80F902996A
:101D90008945DBDDBDE8FE8F2DE9FE4F161A4FF0B9
:101DA00000085D1A834647468A464FF0FF30002EF2
:101DB00002DD4FF0010102E003D14FF0000101917B
:101DC00002E0C6F100060190002D02DD4FF0010097
:101DD00002E003D14FF00000009002E0C5F10005E1
:101DE0000090AE4201DD344600E02C46601C4FF00E
:101DF0000009029021E000BF1FFA8AF11FFA8BF060
:101E000000F020F80C981FFA8AF1C2B21FFA8BF08A
:101E10004FF6894300F03CF8B0442F44A04503DD61
:101E20000199A8EB04088B44A74202DD00993F1BEF
:101E30008A4409F101001FFA80F902998945DBDD26
:101E4000BDE8FE8F00B500F0D9F900F0C3FC0248F0
:101E500002490088088000BD560000200008006C80
:101E600000B500F0CBF900F0B5FC02494FF4784022
:101E7000088000BD0008006C00B500F0BFF900F05C
:101E8000A9FC02490020088000BD00000008006C89
:101E90002DE9FF4F804600251446032082B00F46EF
:101EA000A0EB440651E0381B81B208EB050A019013
:101EB0001FFA8AF0059A00F04DF8781B009081B265
:101EC00008EB04091FFA89F0059A00F043F807EBC4
:101ED000050B1FFA8BF11FFA89F0059A00F03AF80A
:101EE00007EB04091FFA89F11FFA8AF0059A00F03E
:101EF00031F8A8EB050A1FFA89F11FFA8AF0059A52
:101F000000F028F8A8EB04091FFA8BF11FFA89F0FA
:101F1000059A00F01FF80198059A81B21FFA8AF01D
:101F200000F018F80098059A81B21FFA89F000F0C5
:101F300011F86D1C002E03DA06EB8506B61D04E0D1
:101F4000281B06EB8006641E0A36A542ABDD06B0F0
:101F5000BDE8F08F10B5144600F050F900F03AFCDF
:101F60000148048010BD00000008006C02460120FA
:101F700000E05043491EC9B2FBD27047034808B580
:101F80000088ADF80000BDF8000008BD0008006C36
:101F900010B500F013FC0520FFF764FBBDE810400E
:101FA000FFF7ECBF10B50246BE2000F007FC05208D
:101FB00000F0F8FB1046FEF7A2FA4FF066320B4B2A
:101FC000FEF7ABF9FEF7F4FA80B200F0EBFB01206C
:101FD00000F0E8FBFF2000F0E5FB002000F0E2FB52
:101FE000BDE81040002000F0DDBB00006666044044
:101FF000F0B5814C00232146A279898846F6040772
:1020000041F66316012A01D02AB11DE0B9421BD066
:10201000B14202D118E0B14216D1082814D2DFE84B
:1020200000F00406080A0C0E101206200CE007202F
:102030000AE0042008E0052006E0012004E000207A
:1020400002E0032000E00220A1F5134C45F210321B
:1020500045F21055BCF1410C0CD0A1F5144CBCF16B
:10206000860C07D0B94205D0914203D0A94201D0D5
:10207000B1427BD1082812D2DFE800F01104060833
:102080000A0C0E1080230AE0402308E0C02306E07B
:10209000202304E0602302E0A02300E0E023A94223
:1020A00002D14FF4585000E03620914205D0A942A9
:1020B00003D0B14201D043F00803B94201D143F04B
:1020C0000203194600F090FBA288B2420AD098069B
:1020D0002088618802D5884202D303E0884201D972
:1020E000218060806089AA4241D100F067FB002016
:1020F00000F058FB6089401C80B200F05FFB0020BC
:1021000000F050FB6089801C80B200F057FB2088F3
:10211000401EC0F30F2000F045FB6089C01C80B258
:1021200000F04CFB2078401EC0B200F03BFBA089C1
:1021300000F044FB002000F035FBA089401C80B279
:1021400000F03CFB002000F02DFBA089801C80B239
:1021500000F034FB6088401EC0F30F2000F022FB2B
:10216000A089C01C80B200F029FB22E028E000F02A
:1021700025FB002000F016FB002000F013FB208858
:10218000401EC0F30F2000F00DFB2078401EC0B2AF
:1021900000F008FBA08900F011FB002000F002FB1A
:1021A000002000F0FFFA6088401EC0F30F2000F00E
:1021B000F9FAA078BDE8F040401EC0B200F0F2BAD3
:1021C000082812D2DFE800F0040608110A0C0E10ED
:1021D00030230AE0102308E0202306E0382304E03F
:1021E000282302E0182300E00823BDE8F040032084
:1021F00043F4805100F0F8BA0C0100202DE9F043BF
:10220000DFF85C810C4602464FEA1129B8F8040059
:102210004146150A4B89A0F51346413E1BD0A0F557
:10222000A641103917D0A0F51441863918D041467F
:10223000A0F5D0470E888979B61A761E043F24D0BF
:10224000A0F5C857633F35D0A0F5AA47103F5CD032
:10225000012978D078E0184600F0B0FA28461BE053
:10226000184600F0ABFA284600F09CFAD0B200F015
:1022700099FAB8F80000401EC0F30F2000F092FA5F
:1022800098F80000401EC0B224E0012900D1B2B28B
:10229000184600F093FA100A00F084FAD0B200F069
:1022A00081FAB8F80C0000F089FA484600F07AFA92
:1022B000E0B226E00029D3D1B2B2184600F07EFA8F
:1022C000002000F06FFA002000F06CFA100A00F015
:1022D00069FAD0B200F066FAB8F80C0000F06EFAB5
:1022E000484600F05FFAE0B200F05CFAB8F802008D
:1022F000401EC0F30F2000F055FA98F80200401E6F
:10230000C0B2BDE8F04300F04DBA184600F056FAEE
:10231000284600F047FAB8F80A00401C80B200F0E6
:102320004DFAD0B200F03EFAB8F80C0000F046FAD0
:10233000484600F037FAB8F80C00401C80B200F0B4
:102340003DFAB5E7FFE7B2B21146184600F04CFA85
:10235000B8F80C002146BDE8F04300F045BA000093
:102360000C0100202DE9FF4F0C46DDE90D068A46E1
:10237000710700D0012101EBD601720851432038CA
:10238000C0B201F0FF090025DFF894B00D9042E0E3
:102390000C2E10D0102E13D0182E3ED10D9821499E
:1023A00000EBC00001EB80004FF00008475D3806ED
:1023B0000BD5039A0CE00D981B4900EB4000F1E7A8
:1023C0001A490D9801EB0010EEE70F9820B9029A18
:1023D00021460098FFF7BEFD7806070E641CBBF887
:1023E0000200A4B2A04218D9A4EB0A00B04209D15D
:1023F00000985446401C80B20090BBF80010814207
:102400000BD906E008F1010000F0FF08B8F1080F51
:10241000CDD36D1CEDB24D45BAD3BDE8FF8F0000A2
:102420000C010020C4950008608B0008D48F0008C0
:102430002DE9FF4F90469B4604460026814600EB5F
:10244000080A0D9F17E0002511E03888019942BA6B
:102450002046FFF77FFD641CA4B2A24504D8019872
:102460004C46401C80B201906D1CADB2BF1C45456E
:10247000EBD3761CB6B25E45E5D3BDE8FF8F2DE900
:10248000FE4F044600F0FF0A10190D46DDE90C96D8
:102490001FFA80F8581987B24FF0000B13E044453B
:1024A00003D305EB090154468DB2BD4210D28DE82D
:1024B000010A0022294620460E9BFFF753FF04EB3A
:1024C000590084B2761C3078A0F120015E29E6D94B
:1024D000BDE8FE8F2DE9FF4F84B0044611A8884661
:1024E00090E8200AE0B20390101980B2069003EB46
:1024F000080080B20790F9E00699A02875D98C42AF
:1025000004D308EB0501039C1FFA81F8079A904554
:102510006CD20C2D04D0102D41D0182D67D0C7E0FF
:10252000764A002101EB810303EBC10312F813602B
:1025300086422FD102EB430300935E7899F8013075
:102540009E4227D100270098002600EB47004088D4
:1025500090FA90FA0AFA06F0000406D508EB070094
:1025600081B2A01980B2149A09E0BBF1000F08D122
:1025700008EB0700624A81B2A01980B25288FFF7C7
:10258000E9FC761CF6B2AE42E4D37F1CFFB2AF4248
:10259000D9D38DE0491C89B23229C3D388E0594A86
:1025A00000214FF4FA7600BF01EB011312F813700B
:1025B000874232D102EB430300935F7899F80130F0
:1025C0009F422AD100270098002600EB4700408850
:1025D00090FA90FA0AFA06F0000409D508EB070011
:1025E00081B2A01980B2149A0CE066E083E019E091
:1025F000BBF1000F08D108EB0700414A81B2A019D6
:1026000080B25288FFF7A6FC761CF6B2AE42E1D348
:102610007F1CFFB2AF42D6D34AE0491C89B2B14217
:10262000C2D345E0384A002101EB810303EB41139B
:1026300012F81360864237D102EB430300935E78B1
:1026400099F801309E422FD15FF00007009807EB08
:10265000470108448178C2780904007941EA0221DF
:1026600041EA000A5FF000060AFA06F0000206D509
:1026700008EB070081B2A01980B2149A09E0BBF1FF
:10268000000F08D108EB07001D4A81B2A01980B2E3
:102690005288FFF75FFC761CF6B2AE42E4D37F1C93
:1026A000FFB2AF42D2D303E0491C89B23229BBD377
:1026B000601984B209F1020017E08C4204D308EBE0
:1026C0000501039C1FFA81F8079A904513D28DE803
:1026D00021080B484146149B42882046FFF742FEE2
:1026E00004EB550084B209F10100814699F800001D
:1026F00000287FF401AF08B0BDE8F08F20A30008E8
:102700005600002034A800089CEA00082DE9FF4F7D
:1027100083B04FF00009DDE9108B1E4682464C461F
:102720000BF001054FEA58072CE0301B401EC1B2E8
:102730000A20FFF71BFC0599B1FBF0F00A21B0FB62
:10274000F1F201FB1200B9F1000F05D1711E8C42AC
:1027500002DA68B14FF001093030C0B2CDE90008AB
:1027600007FB04A0029580B24FF6FF73002204E03D
:102770005FEA0B600BD530210AE00499FFF7F2FD08
:10278000641CE4B2B442D0D307B0BDE8F08F20217E
:1027900007FB04A0CDE9001880B24FF6FF730022BA
:1027A0000295EAE701B5BDF80000ADF80000BDF8FC
:1027B00000000149088008BD0008006C01B5BDF8A3
:1027C0000000ADF80000BDF800000149088008BD18
:1027D000FE07006C0248034900890880704700002A
:1027E0000C010020FE07006C024A1080901C018042
:1027F00070470000FE07006C38B50121402000F052
:1028000069FA10208DF803003C20ADF80000032089
:102810000D4C8DF8020069462046FEF79FFF01220D
:1028200004212046FEF7F6FF012208212046FEF78C
:10283000F1FF012210212046FEF7ECFF01222021AA
:102840002046FEF7E7FF38BD0018014038B50121EA
:10285000102000F03FFA4020ADF8000010208DF865
:1028600003000320084C8DF8020069462046FEF75D
:1028700075FF8020ADF8000014208DF80300694634
:102880002046FEF76BFF38BD001001407CB51446B2
:102890000D460646062269463B2000F052F9002804
:1028A0000BD1BDF8001049BA3180BDF8021049BA09
:1028B0002980BDF8041049BA21807CBD2DE9F04182
:1028C0001F4D0746002680212846FEF7A1FF002461
:1028D0000A20FEF7C7FE40212846FEF799FF700642
:1028E000060E80212846FEF78AFF10B146F0010649
:1028F00001E026F001060A20FEF7B4FE402128463A
:10290000FEF784FF641CE4B2082CE1D34FF0800191
:10291000284697B1FEF77CFF0A20FEF7A3FE402170
:102920002846FEF775FF0A20FEF79CFE4021284648
:10293000FEF76CFF3046BDE8F081FEF767FFEBE77E
:10294000001001402DE9F0410024204D07460126EA
:10295000C4F1070106FA01F038424FF08001284621
:1029600002D0FEF755FF01E0FEF750FF0A20FEF708
:1029700079FE40212846FEF74BFF0A20FEF772FE43
:1029800040212846FEF742FF641CE4B2082CDFD346
:1029900080212846FEF73CFF0A20FEF763FE402117
:1029A0002846FEF735FF80212846FEF728FF08B1AC
:1029B000012400E000240A20FEF754FE40212846AE
:1029C000FEF724FF2046BDE8F08100000010014022
:1029D00010B50E4C80212046FEF71AFF0420FEF7AA
:1029E00041FE40212046FEF713FF0420FEF73AFE89
:1029F00080212046FEF70AFF0420FEF733FE204622
:102A0000BDE810404021FEF701BF0000001001406A
:102A100010B50C4C80212046FEF7F8FE0420FEF78E
:102A200021FE40212046FEF7F3FE0420FEF71AFEA9
:102A300080212046FEF7ECFEBDE810400420FEF7A2
:102A400011BE00000010014010B5FFF7FFFE80210D
:102A50006B2000F064F84FF49670FEF7F8FD00214B
:102A60006B2000F05CF8032000F098F8002000F0E4
:102A700090F8322000F0AFF80021382000F04FF835
:102A800000216A2000F04BF80021232000F047F8D5
:102A90008021372000F043F8752000F029F80F4C12
:102AA00001460A4620700EA004F094F920786828A8
:102AB00001D0012010BD01216B2000F030F8002171
:102AC0006C2000F02CF8322000F085F8142000F083
:102AD0006AF8FEF7D5FB002010BD0000EE000020D4
:102AE0007265733A2578202025640D0A00000000E5
:102AF00010B50446FFF76CFFD020FFF723FF2046F8
:102B0000FFF720FFFFF764FFD120FFF71BFF012035
:102B1000FFF7D4FE0446FFF77BFF204610BD70B5DB
:102B20000D460446FFF754FFD020FFF70BFF204669
:102B3000FFF708FF2846FFF705FFBDE87040FFF7E5
:102B400067BF70B515460E460446FFF741FFD0201B
:102B5000FFF7F8FE2046FFF7F5FEFFF739FFD1201B
:102B6000FFF7F0FE2C4608E0012C0CD00020FFF708
:102B7000A5FE291B641E7054E4B2002CF4D1FFF7AB
:102B800047FF002070BD0120FFF798FE6D1E7055B5
:102B9000F5E7C006010E1C20FFF7C1BFC006010EFD
:102BA0001B20FFF7BCBFBC2801D3012110E0622825
:102BB00001D302210CE02A2801D3032108E01428C4
:102BC00001D3042104E00A2801D3052100E00621F5
:102BD0001A20FFF7A4BF10B504464FF47A70844260
:102BE00001D9044602E0042C00D20424B0FBF4F026
:102BF000401EC1B21920FFF792FF6008BDE81040E7
:102C0000FFF7D1BFFEE7704770B50F23C478017896
:102C10000122F4B1144C2468457804F4E064C4F54E
:102C2000E064240AC4F10406E3408478B5401C4003
:102C30002C4301F1E021230181F80034007800F0F9
:102C40001F018A404009800000F1E020C0F8002107
:102C500070BD01F01F0082404809800000F1E020B3
:102C6000C0F8802170BD00000CED00E0024908436F
:102C700002490860704700000000FA050CED00E012
:102C8000014908627047000000000E4270470000D2
:102C9000034A516821F440410143516070470000EC
:102CA00000100240044A0029516901D0014300E0AC
:102CB000814351617047000000100240044A00291E
:102CC000D16901D0014300E08143D1617047000028
:102CD00000100240044A0029916901D0014300E03C
:102CE000814391617047000000100240044A0029AE
:102CF000D16801D0014300E08143D16070470000FA
:102D00000010024001490860704700004004424240
:102D100030B51F494A6812F00C031E4A03D0042B39
:102D200001D0082B21D002604A680F231A4C03EA15
:102D30001212A35C0268DA4042604B68072505EA7C
:102D40001323E35C22FA03F383604B6805EAD32381
:102D5000E35CDA40C2604968032303EA9131231F30
:102D6000595CB2FBF1F1016130BD4A684B6802F475
:102D700070124FF0020413F4803F04EB924202D031
:102D80004B689B0301D5054B00E0024B5A43CAE751
:102D90000010024000127A00F300002000093D00FC
:102DA0000246002053090949012B0BD0022B0BD0FE
:102DB000D1F8241002F01F02012393400B4200D0EF
:102DC000012070470968F5E7096AF3E7001002403F
:102DD0000649002281F8202081F82020012802D015
:102DE000042802D1052081F820007047001002401D
:102DF00001490860704700003C04424202490A6AE7
:102E000002430A62704700000010024010B5012121
:102E10004FF0C050FFF752FF0120FFF731FFFDF7E1
:102E20005DFF0120FFF7D4FF4120FFF7B9FF002825
:102E3000FAD04FF48070FFF7E1FF0120FFF7D8FFD1
:102E400000F04EF800F044F80121084600F024F8A4
:102E500000F03EF847F6FF7000F02AF8BDE8104099
:102E600000F036B80248018841F010010180704737
:102E7000042800400248018821F0100101807047B9
:102E800004280040034800880249091F098840EAD5
:102E9000014070471C280040044A0029118801D0D5
:102EA000014300E08143118070470000002800408A
:102EB00000B50246FFF7D6FF0449C2F3034008807D
:102EC000081D02805DF804EBFFF7D4BF082800401E
:102ED000024801888906FCD570470000042800409C
:102EE0000448018821F00801018001880907FCD508
:102EF0007047000004280040704700002DE9FC41A5
:102F000000241820CDE90004144D0323D2211420FD
:102F10002A68FFF7FBFB124E308880B200F090F871
:102F200010A0316803F056FF114E3078012813D1FC
:102F30001027CDE900740323F2213C202A68FFF713
:102F4000E5FB0C48CDE90074026803234FF483715C
:102F50003C20FFF7DBFB3470BDE8FC8190000020D3
:102F6000940000205369676E616C3D25640D0A0072
:102F7000710000207400002010B5FDF74BFE00F03A
:102F8000EBF8472140F2CF7003F04CFD0121BDE882
:102F900010400220FFF792BE0CB500212648019197
:102FA0000091026842F4803202604FF4A06302682C
:102FB00002F400320092019A521C0192009A12B956
:102FC000019A9A42F3D10268920333D5012100910C
:102FD0001A490A6842F010020A600A6822F00302E5
:102FE0000A600A6842F002020A6041684160416872
:102FF0004160416841F480614160416821F47C1185
:103000004160416841F4E8114160016841F080711C
:10301000016001688901FCD5416821F0030141602C
:10302000416841F0020141604168C1F38101022918
:10303000FAD10CBD00910CBD0010024000200240EE
:10304000194810B50068194CC0EB0011C1EBC01055
:10305000C11700EB9150C0F38F20C0F19E0020807B
:10306000E088E62808D2401C80B2E080AF23024608
:103070002821FEF7EEFD01E00A20E0800A22D42399
:1030800000211046FEF7E5FD2188E088FEF7E8FE06
:1030900023886380E088A188401E82B280B2FEF758
:1030A0008BFD2088A08010BD940000209800002097
:1030B00010B5144C606B401C6063A068401CA0609D
:1030C000E068401CE0602069401C20616069401C91
:1030D0006061A069401CA061206A401C2062606A97
:1030E000401C6062E069401CE061E06A401CE062F4
:1030F000A06A401CA062206B401C2063FEF7E6FB28
:10310000207010BD140000200F4810B5016841F078
:103110000101016041680D4A1140416001680C4A9B
:1031200011400160016821F480210160416821F4AF
:10313000FE0141604FF41F018160FFF72DFF05493B
:103140004FF00060086010BD001002400000FFF862
:10315000FFFFF6FE08ED00E02DE9F04FA1B00121E0
:1031600000250C0220461695FFF79CFD01214FF427
:10317000B470FFF7AFFD0126ADF87C6010278DF825
:103180007F7003208DF87E001FA9FE48FEF7E6FA47
:103190004CF23370ADF87C0018208DF87F000320CE
:1031A0008DF87E001FA9F848FEF7D8FA4FF6807018
:1031B000ADF87C0018208DF87F0003208DF87E008C
:1031C0001FA9F248FEF7CAFA41F20100ADF87C00EF
:1031D00018208DF87F0003208DF87E001FA9EC4891
:1031E000FEF7BCFA0F20CDE91050139512951495F7
:1031F000159503201895CDE9195006201E95CDE9A7
:1032000000051B951C95CDE902571D9504952001DD
:10321000CDE90850069505958000CDE90A5007953F
:103220000FA8CDE90C5018A8CDE90E066846FEF7A8
:1032300031FA01210620FEF71DFA3220FEF707FAC7
:1032400001210020FFF7D0FA3220FEF700FA00201B
:10325000FEF79EFECF4F4FF0204B4FF6FF7AB8801F
:1032600049F2413545F2103645F2105241F66318E5
:1032700046F60409FF2807D3504505D0B0F5134F93
:1032800002D0B0F5144F77D1D320FFF797FAFEF7AD
:1032900075FEB880FEF772FEB880FEF76FFE0AEA90
:1032A0000020B880FEF76AFEB9880843B880A842BB
:1032B00062D0A0F5144186395ED0BF20FFF77EFAB8
:1032C000FEF75CFEB880FEF759FEB880FEF756FEAA
:1032D000B880FEF753FE0AEA0020B880FEF74EFEE3
:1032E000B9880843B880484546D0D420FFF766FA2D
:1032F000FEF744FEB880FEF741FEB880FEF73EFEC2
:103300000AEA0020B880FEF739FEB9880843B88081
:10331000B04231D04FF45A40FFF750FAFEF72EFE7C
:10332000B8804FF45B40FFF749FAFEF727FE0AEA40
:103330000020B8804FF45C40FFF740FAFEF71EFE15
:10334000B9880843B880B0F5004F39D0904213D007
:10335000A120FFF733FAFEF711FEB880FEF70EFE4C
:103360000AEA0020B880FEF709FEB9880843A0F5F4
:10337000AE41B880613920D080B2A84205D0B042B9
:1033800003D0904201D040451CD1DBF81C115846B7
:1033900021F00F01CBF81C11DBF81C1121F4706136
:1033A000CBF81C11DBF81C1141F00301CBF81C1108
:1033B000DBF81C1141F4007121E0A7F80480E4E778
:1033C000BA80E2E7484503D0A0F54541053918D158
:1033D000DBF81C11584621F00F01CBF81C11DBF86B
:1033E0001C1121F47061CBF81C11DBF81C1141F0A9
:1033F0000A01CBF81C11DBF81C1141F44061C0F844
:103400001C11B888A8427CD1CF20FFF7D7F9002043
:10341000FFF7C8F9C120FFF7C5F93020FFF7C2F95F
:10342000ED20FFF7CBF96420FFF7BCF90320FFF78D
:10343000B9F91220FFF7B6F98120FFF7B3F9E820B8
:10344000FFF7BCF98520FFF7ADF91020FFF7AAF9C7
:103450007A20FFF7A7F9CB20FFF7B0F93920FFF763
:10346000A1F92C20FFF79EF90020FFF79BF93420EB
:10347000FFF798F90220FFF795F9F720FFF79EF97B
:103480002020FFF78FF9EA20FFF798F90020FFF7D7
:1034900089F90020FFF786F9C020FFF78FF91B207C
:1034A000FFF780F9C120FFF789F90120FFF77AF9CA
:1034B000C520FFF783F93020FFF774F93020FFF7BC
:1034C00071F9C720FFF77AF9B720FFF76BF93620BB
:1034D000FFF774F94820FFF765F93A20FFF76EF916
:1034E0005520FFF75FF9B120FFF768F90020FFF7DB
:1034F00059F91A20FFF756F9B620FFF75FF90A20AD
:1035000000E098E0FFF74EF9A220FFF74BF9F22018
:10351000FFF754F90020FFF745F92620FFF74EF991
:103520000120FFF73FF9E020FFF748F90F20FFF7F0
:1035300039F92A20FFF736F92820FFF733F9082058
:10354000FFF730F90E20FFF72DF90820FFF72AF9D1
:103550005420FFF727F9A920FFF724F94320FFF7AC
:1035600021F90A20FFF71EF90F20FFF71BF90020B1
:10357000FFF718F90020FFF715F90020FFF712F9FF
:10358000002009E0000C0140001401400018014037
:10359000002001400C010020FFF704F9E120FFF7B3
:1035A0000DF90020FFF7FEF81520FFF7FBF81720B4
:1035B000FFF7F8F80720FFF7F5F81120FFF7F2F80A
:1035C0000620FFF7EFF82B20FFF7ECF85620FFF767
:1035D000E9F83C20FFF7E6F80520FFF7E3F81020B4
:1035E000FFF7E0F80F20FFF7DDF83F20FFF7DAF8EC
:1035F0003F20FFF7D7F80F20FFF7D4F82B20FFF775
:10360000DDF80020FFF7CEF80020FFF7CBF801200F
:10361000FFF7C8F83F20FFF7C5F82A20FFF7CEF8DC
:103620000020FFF7BFF80020FFF7BCF80020FFF7ED
:10363000B9F8EF2063E1A0F5144186397ED0484502
:103640007DD11120FFF7BAF81420FEF700F8D02042
:10365000FFF7B4F80720FFF7A5F84220FFF7A2F81C
:103660001D20FFF79FF8D120FFF7A8F80020FFF7F3
:1036700099F81A20FFF796F80920FFF793F8D2205F
:10368000FFF79CF80120FFF78DF82220FFF78AF85A
:10369000C020FFF793F81020FFF784F83B20FFF7D6
:1036A00081F80020FFF77EF80220FFF77BF8112059
:1036B000FFF778F8C520FFF781F80320FFF772F8CD
:1036C000C820FFF77BF80020FFF76CF82520FFF7F4
:1036D00069F82120FFF766F80520FFF763F800205E
:1036E000FFF760F80A20FFF75DF86520FFF75AF84A
:1036F0002520FFF757F87720FFF754F85020FFF701
:1037000051F80F20FFF74EF80020FFF74BF8F82094
:10371000FFF754F80120FFF745F8FE20FFF74EF8B9
:103720000020FFF73FF80220FFF73CF82020FFF7CA
:1037300045F83620FFF742F8082001E027E0E9E0ED
:10374000FFF730F83A20FFF739F85520FFF72AF84D
:103750002B20FFF733F80020FFF724F80020FFF7B5
:1037600021F80120FFF71EF83F20FFF71BF82A2061
:10377000FFF724F80020FFF715F80020FFF712F8F4
:103780000120FFF70FF8DF20FFF70CF8BCE0F22074
:10379000FFF714F81820FFF705F8A320FFF702F849
:1037A0001220FEF7FFFF0220FEF7FCFFB220FEF71B
:1037B000F9FF1220FEF7F6FFFF20FEF7F3FF1020BF
:1037C000FEF7F0FF0020FEF7EDFFF820FEF7F6FF12
:1037D0002120FEF7E7FF0420FEF7E4FFF920FEF7C3
:1037E000EDFF0020FEF7DEFF0820FEF7DBFF3620AE
:1037F000FEF7E4FF0820FEF7D5FF3A20FEF7DEFFD4
:103800000520FEF7CFFFB420FEF7D8FF0120FEF71A
:10381000C9FFB620FEF7D2FF0220FEF7C3FF222029
:10382000FEF7C0FFC120FEF7C9FF4120FEF7BAFF37
:10383000C520FEF7C3FF0020FEF7B4FF0720FEF708
:10384000B1FFE020FEF7BAFF0F20FEF7ABFF1F200D
:10385000FEF7A8FF1C20FEF7A5FF0C20FEF7A2FF35
:103860000F20FEF79FFF0820FEF79CFF4820FEF781
:1038700099FF9820FEF796FF3720FEF793FF0A2066
:10388000FEF790FF1320FEF78DFF0420FEF78AFF5E
:103890001120FEF787FF0D20FEF784FF0020FEF7C2
:1038A00081FFE120FEF78AFF0F20FEF77BFF322029
:1038B000FEF778FF2E20FEF775FF0B20FEF772FF54
:1038C0000D20FEF76FFF0520FEF76CFF4720FEF787
:1038D00069FF7520FEF766FF3720FEF763FF0620BD
:1038E000FEF760FF1020FEF75DFF0320FEF75AFF92
:1038F0002420FEF757FF2020FEF754FF0020FEF79C
:1039000051FF1120FEF75AFF7820FDF7A0FE292075
:1039100001F0FBBEB0427CD1ED20FEF74FFF01204D
:10392000FEF740FFFE20FEF73DFFEE20FEF746FFCC
:10393000DE20FEF737FF2120FEF734FFF120FEF7EF
:103940003DFF0120FEF72EFFDF20FEF737FF10209E
:10395000FEF728FFC420FEF731FF8F20FEF722FF7D
:10396000C620FEF72BFF0020FEF71CFFE220FEF72B
:1039700019FFE220FEF716FFE220FEF713FFBF203B
:10398000FEF71CFFAA20FEF70DFFB020FEF716FF82
:103990000D20FEF707FF0020FEF704FF0D20FEF7C5
:1039A00001FF0020FEF7FEFE1120FEF7FBFE0020C7
:1039B000FEF7F8FE1920FEF7F5FE0020FEF7F2FEF6
:1039C0002120FEF7EFFE0020FEF7ECFE2D20FEF793
:1039D000E9FE0020FEF7E6FE3D20FEF7E3FE0020B4
:1039E000FEF7E0FE5D20FEF7DDFE0020FEF7DAFECA
:1039F0005D20FEF7D7FE0020FEF7D4FEB120FEF7D3
:103A0000DDFE8020FEF7CEFE0020FEF7CBFE8B20F1
:103A100000E0FCE3FEF7C6FE0020FEF7C3FE9620A2
:103A2000FEF7C0FE0020FEF7BDFEB220FEF7C6FE88
:103A30000020FEF7B7FE0020FEF7B4FE0220FEF7DE
:103A4000B1FE0020FEF7AEFE0320FEF7ABFE002025
:103A5000FEF7A8FEB320FEF7B1FE0020FEF7A2FE9F
:103A60000020FEF79FFE0020FEF79CFE0020FEF7E0
:103A700099FE0020FEF796FE0020FEF793FE002040
:103A8000FEF790FE0020FEF78DFE0020FEF78AFE76
:103A90000020FEF787FE0020FEF784FE0020FEF7E0
:103AA00081FE0020FEF77EFE0020FEF77BFE002058
:103AB000FEF778FE0020FEF775FE0020FEF772FE8E
:103AC0000020FEF76FFE0020FEF76CFE0020FEF7E0
:103AD00069FE0020FEF766FE0020FEF763FE002070
:103AE000FEF760FE0020FEF75DFEB420FEF766FEE6
:103AF0008B20FEF757FE0020FEF754FE9620FEF7BF
:103B000051FE0020FEF74EFEA120FEF74BFE0020E6
:103B1000FEF748FEB520FEF751FE0220FEF742FEFA
:103B20000020FEF73FFE0320FEF73CFE0020FEF7DC
:103B300039FE0420FEF736FE0020FEF733FEB620E5
:103B4000FEF73CFE0020FEF72DFE0020FEF72AFEC9
:103B5000B720FEF733FE0020FEF724FE0020FEF71C
:103B600021FE3F20FEF71EFE0020FEF71BFE5E201A
:103B7000FEF718FE0020FEF715FE6420FEF712FE89
:103B80000020FEF70FFE8C20FEF70CFE0020FEF753
:103B900009FEAC20FEF706FE0020FEF703FEDC2047
:103BA000FEF700FE0020FEF7FDFD7020FEF7FAFD97
:103BB0000020FEF7F7FD9020FEF7F4FD0020FEF751
:103BC000F1FDEB20FEF7EEFD0020FEF7EBFDDC2023
:103BD000FEF7E8FD0020FEF7E5FDB820FEF7EEFD5C
:103BE0000020FEF7DFFD0020FEF7DCFD0020FEF7E1
:103BF000D9FD0020FEF7D6FD0020FEF7D3FD002002
:103C0000FEF7D0FD0020FEF7CDFD0020FEF7CAFD37
:103C1000BA20FEF7D3FD2420FEF7C4FD0020FEF7F6
:103C2000C1FD0020FEF7BEFD0020FEF7BBFDC12058
:103C3000FEF7C4FD2020FEF7B5FD0020FEF7B2FD23
:103C40005420FEF7AFFD0020FEF7ACFDFF20FEF78D
:103C5000A9FD0020FEF7A6FDC220FEF7AFFD0A2059
:103C6000FEF7A0FD0020FEF79DFD0420FEF79AFD63
:103C70000020FEF797FDC320FEF7A0FD3C20FEF7D5
:103C800091FD0020FEF78EFD3A20FEF78BFD00200F
:103C9000FEF788FD3920FEF785FD0020FEF782FD46
:103CA0003720FEF77FFD0020FEF77CFD3C20FEF76D
:103CB00079FD0020FEF776FD3620FEF773FD00202B
:103CC000FEF770FD3220FEF76DFD0020FEF76AFD65
:103CD0002F20FEF767FD0020FEF764FD2C20FEF785
:103CE00061FD0020FEF75EFD2920FEF75BFD002050
:103CF000FEF758FD2620FEF755FD0020FEF752FD89
:103D00002420FEF74FFD0020FEF74CFD2420FEF797
:103D100049FD0020FEF746FD2320FEF743FD00206D
:103D2000FEF740FD3C20FEF73DFD0020FEF73AFD8A
:103D30003620FEF737FD0020FEF734FD3220FEF777
:103D400031FD0020FEF72EFD2F20FEF72BFD002079
:103D5000FEF728FD2C20FEF725FD0020FEF722FDB2
:103D60002920FEF71FFD0020FEF71CFD2620FEF790
:103D700019FD0020FEF716FD2420FEF713FD00209C
:103D8000FEF710FD2420FEF70DFD0020FEF70AFDD2
:103D90002320FEF707FD0020FEF704FDC420FEF7F8
:103DA0000DFD6220FEF7FEFC0020FEF7FBFC052067
:103DB000FEF7F8FC0020FEF7F5FC8420FEF7F2FC8D
:103DC0000020FEF7EFFCF020FEF7ECFC0020FEF7F1
:103DD000E9FC1820FEF7E6FC0020FEF7E3FCA42037
:103DE000FEF7E0FC0020FEF7DDFC1820FEF7DAFC11
:103DF0000020FEF7D7FC5020FEF7D4FC0020FEF791
:103E0000D1FC0C20FEF7CEFC0020FEF7CBFC1720E7
:103E1000FEF7C8FC0020FEF7C5FC9520FEF7C2FCAB
:103E20000020FEF7BFFCF320FEF7BCFC0020FEF7ED
:103E3000B9FCE620FEF7B6FC0020FEF7B3FCC52077
:103E4000FEF7BCFC3220FEF7ADFC0020FEF7AAFC1A
:103E50004420FEF7A7FC0020FEF7A4FC6520FEF737
:103E6000A1FC0020FEF79EFC7620FEF79BFC0020C4
:103E7000FEF798FC8820FEF795FC0020FEF792FCE8
:103E8000C620FEF79BFC2020FEF78CFC0020FEF7EE
:103E900089FC1720FEF786FC0020FEF783FC01203A
:103EA000FEF780FC0020FEF77DFCC720FEF786FCB5
:103EB0000020FEF777FC0020FEF774FC0020FEF7E0
:103EC00071FC0020FEF76EFCC820FEF777FC002096
:103ED000FEF768FC0020FEF765FC0020FEF762FCA0
:103EE0000020FEF75FFCC920FEF768FC0020FEF70B
:103EF00059FC0020FEF756FC0020FEF753FC002082
:103F0000FEF750FC0020FEF74DFC0020FEF74AFCB7
:103F10000020FEF747FC0020FEF744FC0020FEF7DF
:103F200041FC0020FEF73EFC0020FEF73BFC002099
:103F3000FEF738FC0020FEF735FC0020FEF732FCCF
:103F40000020FEF72FFC0020FEF72CFCE020FEF7FF
:103F500035FC1620FEF726FC0020FEF723FC1C2073
:103F6000FEF720FC0020FEF71DFC2120FEF71AFCC6
:103F70000020FEF717FC3620FEF714FC0020FEF7A9
:103F800011FC4620FEF70EFC0020FEF70BFC522031
:103F9000FEF708FC0020FEF705FC6420FEF702FC9B
:103FA0000020FEF7FFFB7A20FEF7FCFB0020FEF767
:103FB000F9FB8B20FEF7F6FB0020FEF7F3FB9920C0
:103FC000FEF7F0FB0020FEF7EDFBA820FEF7EAFB72
:103FD0000020FEF7E7FBB920FEF7E4FB0020FEF728
:103FE000E1FBC420FEF7DEFB0020FEF7DBFBCA206E
:103FF000FEF7D8FB0020FEF7D5FBD220FEF7D2FB60
:104000000020FEF7CFFBD920FEF7CCFB0020FEF707
:10401000C9FBE020FEF7C6FB0020FEF7C3FBF32040
:10402000FEF7C0FB0020FEF7BDFBE120FEF7C6FB5C
:104030001620FEF7B7FB0020FEF7B4FB1C20FEF7AE
:10404000B1FB0020FEF7AEFB2220FEF7ABFB002009
:10405000FEF7A8FB3620FEF7A5FB0020FEF7A2FB2B
:104060004520FEF79FFB0020FEF79CFB5220FEF749
:1040700099FB0020FEF796FB6420FEF793FB0020DF
:10408000FEF790FB7A20FEF78DFB0020FEF78AFBFF
:104090008B20FEF787FB0020FEF784FB9920FEF7BC
:1040A00081FB0020FEF77EFBA820FEF77BFB0020B3
:1040B000FEF778FBB920FEF775FB0020FEF772FBD8
:1040C000C420FEF76FFB0020FEF76CFBCA20FEF752
:1040D00069FB0020FEF766FBD220FEF763FB0020A1
:1040E000FEF760FBD820FEF75DFB0020FEF75AFBD1
:1040F000E020FEF757FB0020FEF754FBF320FEF70D
:1041000051FB0020FEF74EFBE220FEF757FB052097
:10411000FEF748FB0020FEF745FB0B20FEF742FBB5
:104120000020FEF73FFB1B20FEF73CFB0020FEF7C4
:1041300039FB3420FEF736FB0020FEF733FB44202A
:10414000FEF730FB0020FEF72DFB4F20FEF72AFB89
:104150000020FEF727FB6120FEF724FB0020FEF77E
:1041600021FB7920FEF71EFB0020FEF71BFB8820B9
:10417000FEF718FB0020FEF715FB9720FEF712FB59
:104180000020FEF70FFBA620FEF70CFB0020FEF739
:1041900009FBB720FEF706FB0020FEF703FBC22059
:1041A000FEF700FB0020FEF7FDFAC720FEF7FAFA43
:1041B0000020FEF7F7FAD120FEF7F4FA0020FEF710
:1041C000F1FAD620FEF7EEFA0020FEF7EBFADD203A
:1041D000FEF7E8FA0020FEF7E5FAF320FEF7E2FA30
:1041E0000020FEF7DFFAE320FEF7E8FA0520FEF7ED
:1041F000D9FA0020FEF7D6FA0A20FEF7D3FA0020FB
:10420000FEF7D0FA1C20FEF7CDFA002000E0FDE218
:10421000FEF7C8FA3320FEF7C5FA0020FEF7C2FA0F
:104220004420FEF7BFFA0020FEF7BCFA5020FEF74C
:10423000B9FA0020FEF7B6FA6220FEF7B3FA0020C2
:10424000FEF7B0FA7820FEF7ADFA0020FEF7AAFAE2
:104250008820FEF7A7FA0020FEF7A4FA9720FEF7C1
:10426000A1FA0020FEF79EFAA620FEF79BFA002096
:10427000FEF798FAB720FEF795FA0020FEF792FABB
:10428000C220FEF78FFA0020FEF78CFAC720FEF757
:1042900089FA0020FEF786FAD120FEF783FA002083
:1042A000FEF780FAD520FEF77DFA0020FEF77AFAB5
:1042B000DD20FEF777FA0020FEF774FAF320FEF710
:1042C00071FA0020FEF76EFAE420FEF777FA01207B
:1042D000FEF768FA0020FEF765FA0120FEF762FAA1
:1042E0000020FEF75FFA0220FEF75CFA0020FEF7DE
:1042F00059FA2A20FEF756FA0020FEF753FA3C201E
:10430000FEF750FA0020FEF74DFA4B20FEF74AFA6E
:104310000020FEF747FA5D20FEF744FA0020FEF782
:1043200041FA7420FEF73EFA0020FEF73BFA8420A3
:10433000FEF738FA0020FEF735FA9320FEF732FA3E
:104340000020FEF72FFAA220FEF72CFA0020FEF73D
:1043500029FAB320FEF726FA0020FEF723FABE2042
:10436000FEF720FA0020FEF71DFAC420FEF71AFA25
:104370000020FEF717FACD20FEF714FA0020FEF712
:1043800011FAD320FEF70EFA0020FEF70BFADD201B
:10439000FEF708FA0020FEF705FAF320FEF702FA0E
:1043A0000020FEF7FFF9E520FEF708FA0020FEF7EF
:1043B000F9F90020FEF7F6F90020FEF7F3F90020E6
:1043C000FEF7F0F90220FEF7EDF90020FEF7EAF91A
:1043D0002920FEF7E7F90020FEF7E4F93C20FEF77C
:1043E000E1F90020FEF7DEF94B20FEF7DBF90020B3
:1043F000FEF7D8F95D20FEF7D5F90020FEF7D2F9D7
:104400007420FEF7CFF90020FEF7CCF98420FEF7E8
:10441000C9F90020FEF7C6F99320FEF7C3F9002082
:10442000FEF7C0F9A220FEF7BDF90020FEF7BAF9A9
:10443000B320FEF7B7F90020FEF7B4F9BE20FEF76F
:10444000B1F90020FEF7AEF9C420FEF7ABF9002069
:10445000FEF7A8F9CD20FEF7A5F90020FEF7A2F996
:10446000D320FEF79FF90020FEF79CF9DC20FEF731
:1044700099F90020FEF796F9F320FEF793F9002052
:10448000FEF790F9E620FEF799F91120FEF78AF978
:104490000020FEF787F93420FEF784F90020FEF7AC
:1044A00081F95620FEF77EF90020FEF77BF9762091
:1044B000FEF778F90020FEF775F97720FEF772F91C
:1044C0000020FEF76FF96620FEF76CF90020FEF77A
:1044D00069F98820FEF766F90020FEF763F9992054
:1044E000FEF760F90020FEF75DF9BB20FEF75AF9F0
:1044F0000020FEF757F99920FEF754F90020FEF747
:1045000051F96620FEF74EF90020FEF74BF95520D1
:10451000FEF748F90020FEF745F95520FEF742F96D
:104520000020FEF73FF94520FEF73CF90020FEF79A
:1045300039F94320FEF736F90020FEF733F944201D
:10454000FEF730F90020FEF72DF9E720FEF736F9E7
:104550003220FEF727F90020FEF724F95520FEF758
:1045600021F90020FEF71EF97620FEF71BF9002046
:10457000FEF718F96620FEF715F90020FEF712F98C
:104580006720FEF70FF90020FEF70CF96720FEF711
:1045900009F90020FEF706F98720FEF703F900204D
:1045A000FEF700F99920FEF7FDF80020FEF7FAF873
:1045B000BB20FEF7F7F80020FEF7F4F89920FEF78D
:1045C000F1F80020FEF7EEF87720FEF7EBF8002078
:1045D000FEF7E8F84420FEF7E5F80020FEF7E2F8E1
:1045E0005620FEF7DFF80020FEF7DCF82320FEF768
:1045F000D9F80020FEF7D6F83320FEF7D3F80020D4
:10460000FEF7D0F84520FEF7CDF80020FEF7CAF8F7
:10461000E820FEF7D3F80020FEF7C4F80020FEF7EC
:10462000C1F89920FEF7BEF80020FEF7BBF88720FE
:10463000FEF7B8F80020FEF7B5F88820FEF7B2F8CC
:104640000020FEF7AFF87720FEF7ACF80020FEF769
:10465000A9F86620FEF7A6F80020FEF7A3F8882048
:10466000FEF7A0F80020FEF79DF8AA20FEF79AF8C2
:104670000020FEF797F8BB20FEF794F80020FEF725
:1046800091F89920FEF78EF80020FEF78BF866204F
:10469000FEF788F80020FEF785F85520FEF782F82F
:1046A0000020FEF77FF85520FEF77CF80020FEF78B
:1046B00079F84420FEF776F80020FEF773F84420DE
:1046C000FEF770F80020FEF76DF85520FEF76AF847
:1046D0000020FEF767F8E920FEF770F8AA20FEF741
:1046E00061F80020FEF75EF80020FEF75BF800207E
:1046F000FEF758F80020FEF761F8AA20FEF752F8FE
:10470000CF20FEF75BF80020FEF74CF80020FEF704
:1047100049F80020FEF746F80020FEF743F8002095
:10472000FEF740F80020FEF73DF80020FEF73AF8CB
:104730000020FEF737F80020FEF734F80020FEF7DF
:1047400031F80020FEF72EF80020FEF72BF80020AD
:10475000FEF728F80020FEF725F80020FEF722F8E3
:104760000020FEF71FF80020FEF71CF8F020FEF7EF
:1047700025F80020FEF716F85020FEF713F8002069
:10478000FEF710F80020FEF70DF80020FEF70AF8FB
:10479000F320FEF713F80020FEF704F8F920FEF7E7
:1047A0000DF80620FDF7FEFF1020FDF7FBFF292086
:1047B000FDF7F8FF0020FDF7F5FF3A20FDF7FEFFBB
:1047C0005520FDF7EFFF1120FDF7F8FF6420FCF7FF
:1047D0003EFF2920FDF7F2FF3520FDF7EFFF002017
:1047E000FDF7E0FF5120FDF7E9FFFF20FDF7DAFFBD
:1047F0005320FDF7E3FF2C20FDF7D4FF5520FDF7F4
:10480000DDFF8220FDF7CEFF2C20FCE390427DD11E
:104810004FF4704355211846FDF7E6FF4FF20104AF
:10482000AA212046FDF7E0FF651C52212846FDF72E
:10483000DBFFA61C08213046FDF7D6FFE71C01214F
:104840003846FDF7D1FF0D214FF43040FDF7CCFF86
:104850000D214BF20100FDF7C7FF0D214BF20200C5
:10486000FDF7C2FF4FF4364834214046FDF7BCFF48
:1048700034214BF20160FDF7B7FF34214BF20260A7
:10488000FDF7B2FF4FF431490D214846FDF7ACFF6B
:104890004BF2011B0D215846FDF7A6FF0D214BF2EF
:1048A0000210FDF7A1FF34214FF43740FDF79CFFC4
:1048B00034214BF20170FDF797FF34214BF2027067
:1048C000FDF792FF00214FF43240FDF78DFF0021EC
:1048D0004BF20120FDF788FF00214BF20220FDF78B
:1048E00083FF24214FF43840FDF77EFF24214BF64F
:1048F0000100FDF779FF24214BF60200FDF774FF5C
:1049000001214FF43F40FDF76FFF00E0FEE30F2170
:104910004FF43340FDF768FF0F214BF20130FDF7F4
:1049200063FF0F214BF20230FDF75EFF34214FF49D
:104930003940FDF759FF34214BF60110FDF754FFC4
:1049400034214BF60210FDF74FFF08214FF435409C
:10495000FDF74AFF08214BF20150FDF745FF082102
:104960004BF20250FDF740FF03214FF44240FDF7A8
:104970003BFF24214FF43A40FDF736FF24214BF64C
:104980000120FDF731FF24214BF60220FDF72CFF1B
:1049900000214FF43C40FDF727FF78214BF6014002
:1049A000FDF722FF00214BF60240FDF71DFF00211D
:1049B0004FF43D40FDF718FF78214BF60150FDF70D
:1049C00013FF00214BF60250FDF70EFF00214FF4BC
:1049D0003E40FDF709FF64214BF60160FDF704FF3F
:1049E00000214FF45140FDF7FFFE33214DF201103D
:1049F000FDF7FAFE00214DF20210FDF7F5FE34211D
:104A00004DF20310FDF7F0FE00214DF20410FDF70A
:104A1000EBFE3A214DF20510FDF7E6FE00214DF2C6
:104A20000610FDF7E1FE4A214DF20710FDF7DCFE0E
:104A300000214DF20810FDF7D7FE5C214DF2091060
:104A4000FDF7D2FE00214DF20A10FDF7CDFE8121C7
:104A50004DF20B10FDF7C8FE00214DF20C10FDF7D2
:104A6000C3FEA6214DF20D10FDF7BEFE00214DF252
:104A70000E10FDF7B9FEE5214DF20F10FDF7B4FE63
:104A800001214DF21010FDF7AFFE13214DF2111070
:104A9000FDF7AAFE01214DF21210FDF7A5FE5421EB
:104AA0004DF21310FDF7A0FE01214DF21410FDF799
:104AB0009BFE82214DF21510FDF796FE01214DF26D
:104AC0001610FDF791FECA214DF21710FDF78CFE6E
:104AD00002214DF21810FDF787FE00214DF219104A
:104AE000FDF782FE02214DF21A10FDF77DFE012135
:104AF0004DF21B10FDF778FE02214DF21C10FDF760
:104B000073FE34214DF21D10FDF76EFE02214DF2B1
:104B10001E10FDF769FE67214DF21F10FDF764FEC0
:104B200002214DF22010FDF75FFE84214DF221108D
:104B3000FDF75AFE02214DF22210FDF755FEA42189
:104B40004DF22310FDF750FE02214DF22410FDF727
:104B50004BFEB7214DF22510FDF746FE02214DF226
:104B60002610FDF741FECF214DF22710FDF73CFE48
:104B700002214DF22810FDF737FEDE214DF22910FB
:104B8000FDF732FE02214DF22A10FDF72DFEF22133
:104B90004DF22B10FDF728FE02214DF22C10FDF7EF
:104BA00023FEFE214DF22D10FDF71EFE03214DF2D6
:104BB0002E10FDF719FE10214DF22F10FDF714FEF7
:104BC00003214DF23010FDF70FFE33214DF231106D
:104BD000FDF70AFE03214DF23210FDF705FE6D21AF
:104BE0004DF23310FDF700FE00214FF45240FDF767
:104BF000FBFD33214DF20120FDF7F6FD00214DF2C2
:104C00000220FDF7F1FD34214DF20320FDF7ECFD0C
:104C100000214DF20420FDF7E7FD3A214DF2052079
:104C2000FDF7E2FD00214DF20620FDF7DDFD4A21F2
:104C30004DF20720FDF7D8FD00214DF20820FDF7C9
:104C4000D3FD5C214DF20920FDF7CEFD00214DF290
:104C50000A20FDF7C9FD81214DF20B20FDF7C4FDAF
:104C600000214DF20C20FDF7BFFDA6214DF20D20D5
:104C7000FDF7BAFD00214DF20E20FDF7B5FDE5214F
:104C80004DF20F20FDF7B0FD01214DF21020FDF790
:104C9000ABFD13214DF21120FDF7A6FD01214DF2D0
:104CA0001220FDF7A1FD54214DF21320FDF79CFDCC
:104CB00001214DF21420FDF797FD82214DF21520C0
:104CC000FDF792FD01214DF21620FDF78DFDCA2161
:104CD0004DF21720FDF788FD02214DF21820FDF757
:104CE00083FD00214DF21920FDF77EFD02214DF2DA
:104CF0001A20FDF779FD01214DF21B20FDF774FD0F
:104D000002214DF21C20FDF76FFD34214DF21D20D4
:104D1000FDF76AFD02214DF21E20FDF765FD6721BA
:104D20004DF21F20FDF760FD02214DF22020FDF71E
:104D30005BFD84214DF22120FDF756FD02214DF24D
:104D40002220FDF751FDA4214DF22320FDF74CFD5B
:104D500002214DF22420FDF747FDB7214DF2252019
:104D6000FDF742FD02214DF22620FDF73DFDCF214A
:104D70004DF22720FDF738FD02214DF22820FDF7E6
:104D800033FDDE214DF22920FDF72EFD02214DF2EB
:104D90002A20FDF729FDF2214DF22B20FDF724FDFD
:104DA00002214DF22C20FDF71FFDFE214DF22D209A
:104DB000FDF71AFD03214DF22E20FDF715FD102100
:104DC0004DF22F20FDF710FD03214DF23020FDF7AD
:104DD0000BFD33214DF23120FDF706FD03214DF28D
:104DE0003220FDF701FD6D214DF23320FDF7FCFC73
:104DF00000214FF45340FDF7F7FC33214DF2013011
:104E0000FDF7F2FC00214DF20230FDF7EDFC3421FC
:104E10004DF20330FDF7E8FC00214DF20430FDF7C0
:104E2000E3FC3A214DF20530FDF7DEFC00214DF2A6
:104E30000630FDF7D9FC4A214DF20730FDF7D4FCCE
:104E400000214DF20830FDF7CFFC5C214DF2093016
:104E5000FDF7CAFC00214DF20A30FDF7C5FC8121A7
:104E60004DF20B30FDF7C0FC00214DF20C30FDF788
:104E7000BBFCA6214DF20D30FDF7B6FC00214DF232
:104E80000E30FDF7B1FCE5214DF20F30FDF7ACFC23
:104E900001214DF21030FDF7A7FC13214DF2113026
:104EA000FDF7A2FC01214DF21230FDF79DFC5421CB
:104EB0004DF21330FDF798FC01214DF21430FDF74F
:104EC00093FC82214DF21530FDF78EFC01214DF24D
:104ED0001630FDF789FCCA214DF21730FDF784FC2E
:104EE00002214DF21830FDF77FFC00214DF2193000
:104EF000FDF77AFC02214DF21A30FDF775FC012115
:104F00004DF21B30FDF770FC02214DF21C30FDF715
:104F10006BFC34214DF21D30FDF766FC02214DF291
:104F20001E30FDF761FC67214DF21F30FDF75CFC80
:104F300002214DF22030FDF757FC84214DF2213043
:104F4000FDF752FC02214DF22230FDF74DFCA42169
:104F50004DF22330FDF748FC02214DF22430FDF7DD
:104F600043FCB7214DF22530FDF73EFC02214DF206
:104F70002630FDF739FCCF214DF22730FDF734FC08
:104F800002214DF22830FDF72FFCDE214DF22930B1
:104F9000FDF72AFC02214DF22A30FDF725FCF22113
:104FA0004DF22B30FDF720FC02214DF22C30FDF7A5
:104FB0001BFCFE214DF22D30FDF716FC03214DF2B6
:104FC0002E30FDF711FC10214DF22F30FDF70CFCB7
:104FD00003214DF23030FDF707FC33214DF2313023
:104FE000FDF702FC03214DF23230FDF7FDFB6D2190
:104FF0004DF23330FDF7F8FB00214FF45440FDF73C
:10500000F3FB332100E080E34DF20140FDF7ECFBC0
:1050100000214DF20240FDF7E7FB34214DF2034041
:10502000FDF7E2FB00214DF20440FDF7DDFB3A21E4
:105030004DF20540FDF7D8FB00214DF20640FDF78B
:10504000D3FB4A214DF20740FDF7CEFB00214DF284
:105050000840FDF7C9FB5C214DF20940FDF7C4FB98
:1050600000214DF20A40FDF7BFFB81214DF20B40BC
:10507000FDF7BAFB00214DF20C40FDF7B5FBA62170
:105080004DF20D40FDF7B0FB00214DF20E40FDF753
:10509000ABFBE5214DF20F40FDF7A6FB01214DF2E0
:1050A0001040FDF7A1FB13214DF21140FDF79CFBD1
:1050B00001214DF21240FDF797FB54214DF21340B0
:1050C000FDF792FB01214DF21440FDF78DFB82218B
:1050D0004DF21540FDF788FB01214DF21640FDF71A
:1050E00083FBCA214DF21740FDF77EFB02214DF2F2
:1050F0001840FDF779FB00214DF21940FDF774FBD4
:1051000002214DF21A40FDF76FFB00E000E30121A0
:105110004DF21B40FDF768FB02214DF21C40FDF7EC
:1051200063FB34214DF21D40FDF75EFB02214DF281
:105130001E40FDF759FB67214DF21F40FDF754FB60
:1051400002214DF22040FDF74FFB84214DF221401A
:10515000FDF74AFB02214DF22240FDF745FBA42159
:105160004DF22340FDF740FB02214DF22440FDF7B4
:105170003BFBB7214DF22540FDF736FB02214DF2F6
:105180002640FDF731FBCF214DF22740FDF72CFBE8
:1051900002214DF22840FDF727FBDE214DF2294088
:1051A000FDF722FB02214DF22A40FDF71DFBF22103
:1051B0004DF22B40FDF718FB02214DF22C40FDF77C
:1051C00013FBFE214DF22D40FDF70EFB03214DF2A6
:1051D0002E40FDF709FB10214DF22F40FDF704FB97
:1051E00003214DF23040FDF7FFFA33214DF23140FB
:1051F000FDF7FAFA03214DF23240FDF7F5FA6D2181
:105200004DF23340FDF7F0FA00214FF45540FDF721
:10521000EBFA33214DF20150FDF7E6FA00214DF291
:105220000250FDF7E1FA34214DF20350FDF7DCFAAC
:1052300000214DF20450FDF7D7FA3A214DF2055006
:10524000FDF7D2FA00214DF20650FDF7CDFA4A21C2
:105250004DF20750FDF7C8FA00214DF20850FDF756
:10526000C3FA5C214DF20950FDF7BEFA00214DF260
:105270000A50FDF7B9FA81214DF20B50FDF7B4FA4F
:1052800000214DF20C50FDF7AFFAA6214DF20D5062
:10529000FDF7AAFA00214DF20E50FDF7A5FAE5211F
:1052A0004DF20F50FDF7A0FA01214DF21050FDF71D
:1052B0009BFA13214DF21150FDF796FA01214DF2A0
:1052C0001250FDF791FA54214DF21350FDF78CFA6C
:1052D00001214DF21450FDF787FA82214DF215504D
:1052E000FDF782FA01214DF21650FDF77DFACA2131
:1052F0004DF21750FDF778FA02214DF21850FDF7E4
:1053000073FA00214DF21950FDF76EFA02214DF2A9
:105310001A50FDF769FA01214DF21B50FDF764FAAE
:1053200002214DF21C50FDF75FFA34214DF21D5061
:10533000FDF75AFA02214DF21E50FDF755FA67218A
:105340004DF21F50FDF750FA02214DF22050FDF7AB
:105350004BFA84214DF22150FDF746FA02214DF21D
:105360002250FDF741FAA4214DF22350FDF73CFAFB
:1053700002214DF22450FDF737FAB7214DF22550A6
:10538000FDF732FA02214DF22650FDF72DFACF211A
:105390004DF22750FDF728FA02214DF22850FDF773
:1053A00023FADE214DF22950FDF71EFA02214DF2BB
:1053B0002A50FDF719FAF2214DF22B50FDF714FA9D
:1053C00002214DF22C50FDF70FFAFE214DF22D5027
:1053D000FDF70AFA03214DF22E50FDF705FA1021D0
:1053E0004DF22F50FDF700FA03214DF23050FDF73A
:1053F000FBF933214DF23150FDF7F6F903214DF25F
:105400003250FDF7F1F96D214DF23350FDF7ECF913
:1054100000214FF45640FDF7E7F933214DF20160CA
:10542000FDF7E2F900214DF20260FDF7DDF93421CC
:105430004DF20360FDF7D8F900214DF20460FDF74D
:10544000D3F93A214DF20560FDF7CEF900214DF276
:105450000660FDF7C9F94A214DF20760FDF7C4F96E
:1054600000214DF20860FDF7BFF95C214DF20960A3
:10547000FDF7BAF900214DF20A60FDF7B5F9812177
:105480004DF20B60FDF7B0F900214DF20C60FDF715
:10549000ABF9A6214DF20D60FDF7A6F900214DF202
:1054A0000E60FDF7A1F9E5214DF20F60FDF79CF9C3
:1054B00001214DF21060FDF797F913214DF21160B3
:1054C000FDF792F901214DF21260FDF78DF954219B
:1054D0004DF21360FDF788F901214DF21460FDF7DC
:1054E00083F982214DF21560FDF77EF901214DF21D
:1054F0001660FDF779F9CA214DF21760FDF774F9CE
:1055000002214DF21860FDF76FF900214DF219608C
:10551000FDF76AF902214DF21A60FDF765F90121E4
:105520004DF21B60FDF760F902214DF21C60FDF7A2
:105530005BF934214DF21D60FDF756F902214DF261
:105540001E60FDF751F967214DF21F60FDF74CF920
:1055500002214DF22060FDF747F984214DF22160D0
:10556000FDF742F902214DF22260FDF73DF9A42139
:105570004DF22360FDF738F902214DF22460FDF76A
:1055800033F9B7214DF22560FDF72EF902214DF2D6
:105590002660FDF729F9CF214DF22760FDF724F9A8
:1055A00002214DF22860FDF71FF9DE214DF229603E
:1055B000FDF71AF902214DF22A60FDF715F9F221E3
:1055C0004DF22B60FDF710F902214DF22C60FDF732
:1055D0000BF9FE214DF22D60FDF706F903214DF286
:1055E0002E60FDF701F910214DF22F60FDF7FCF858
:1055F00003214DF23060FDF7F7F833214DF23160B1
:10560000FDF7F2F803214DF23260FDF7EDF86D2160
:105610004DF23360FDF7E8F855211846FDF7E4F840
:10562000AA212046FDF7E0F852212846FDF7DCF8D4
:1056300008213046FDF7D8F800213846FDF7D4F8A8
:10564000CC214846FDF7D0F800215846FDF7CCF8AC
:1056500005214046FDF7C8F870214FF43740FDF7AB
:10566000C3F870214BF20170FDF7BEF801214FF431
:105670003840FDF7B9F803214BF60100FDF7B4F807
:1056800003214BF60200FDF7AFF803214BF60300B0
:10569000FDF7AAF802214FF43C40FDF7A5F80021E0
:1056A0004BF60140FDF7A0F800214BF60240FDF754
:1056B0009BF8D0214FF44940FDF796F802214CF6B3
:1056C0000110FDF791F850214CF60210FDF78CF80F
:1056D00050214CF60310FDF787F850214CF60410CA
:1056E000FDF782F800214FF45450FDF77DF8552165
:1056F0004FF46850FDF778F84FF48850FDF75EF8E6
:105700007820FBF7AFFF4FF42450FDF757F8F8E08F
:10571000A0F513414FF4E06740F2022940F23F1632
:105720004FF4274B25397CD0FD1DA0F513412839B6
:1057300078D0A0F513414FF4887B203973D0A0F5C1
:105740001341313970D0A0F5A84108396DD0A0F5CA
:10575000A8514FF4407B053968D0A0F53541053993
:1057600065D0A0F5454105397DD0A0F58A41313994
:105770007AD0A0F58A41353977D04045C7D1E220AB
:10578000FDF71CF81D20FDF70DF80220FDF70AF8C3
:105790000420FDF707F86420FBF764FFE020FDF725
:1057A0000DF80120FCF7FEFF0A20FBF750FFE02078
:1057B000FDF704F80320FCF7F5FF0C20FBF747FF8B
:1057C0000120FCF7FBFF0A20FBF741FFE620FCF776
:1057D000F5FF2F20FCF7E6FFFF20FCF7E3FFFF209B
:1057E000FCF7E0FFB020FCF7E9FF2020FCF7DAFF30
:1057F0000020FCF7D7FF0020FCF7D4FFEF20FCF7D8
:10580000D1FF0120FCF7CEFF3046FCF7CBFF002094
:10581000FCF7C8FFB420FCF7D1FF0120FCF7C2FF62
:1058200006E07BE045E100E2A8E27CE3FEE3FEE384
:1058300040F2EF10FCF7B6FF0020FCF7B3FF2E207C
:10584000FCF7B0FF0020FCF7ADFF0020FCF7AAFF3B
:105850000020FCF7A7FF0020FCF7A4FFB620FCF710
:10586000ADFF012002E0FDE3FDE3FDE3FCF79AFF5D
:105870004FF4B670FCF796FF0020FCF793FF17205B
:10588000FCF790FF1520FCF78DFF0020FCF78AFF46
:105890000020FCF787FFF020FCF790FF0320FCF7C7
:1058A00081FF2920FCF78AFFD020FCF787FF00202A
:1058B000FCF778FFBE20FCF781FF0520FCF772FFA4
:1058C000FE20FCF76FFF0120FCF76CFF0020FCF7C7
:1058D00069FF0020FCF766FF0020FCF763FFB8209B
:1058E000FCF76CFF0320FCF75DFF0120FCF75AFF7B
:1058F000BA20FCF763FF0120FCF754FF6420FCF79B
:1059000051FB0020FCF756F80121FE48FBF780FF11
:105910005046FCF719F821B0BDE8F08F47F6F001CA
:10592000E520FCF761FF21460120FCF75DFF3946C9
:105930000220FCF759FF41F230010320FCF754FF2D
:1059400000210420FCF750FF49460820FCF74CFFDB
:1059500000210920FCF748FF00210A20FCF744FF42
:1059600000210C20FCF740FF00210D20FCF73CFF3C
:1059700000210F20FCF738FF00211020FCF734FF36
:1059800007211120FCF730FF00211220FCF72CFF2B
:1059900000211320FCF728FF00210720FCF724FF3B
:1059A00041F290611020FCF71FFF40F227211120E7
:1059B000FCF71AFF9D211220FCF716FF4FF4C85187
:1059C0001320FCF711FF25212920FCF70DFF0D21E5
:1059D0002B20FCF709FF07213020FCF705FF40F2E0
:1059E00003313120FCF700FF03213220FCF7FCFEDD
:1059F00040F206213520FCF7F7FE08213620FCF79F
:105A0000F3FE40F206413720FCF7EEFE4FF4417101
:105A10003820FCF7E9FE07213920FCF7E5FE40F2CB
:105A200002613C20FCF7E0FE08213D20FCF7DCFE93
:105A300000215020FCF7D8FEEF215120FCF7D4FEC6
:105A400000215220FCF7D0FE31465320FCF7CCFE5B
:105A500059466020FCF7C8FE01216120FCF7C4FE16
:105A600000216A20FCF7C0FE00218020FCF7BCFE6C
:105A700000218120FCF7B8FE00218220FCF7B4FE53
:105A800000218320FCF7B0FE00218420FCF7ACFE4F
:105A900000218520FCF7A8FE10219020FCF7A4FE31
:105AA0004FF4C0619220FCF79FFE40F233110720B3
:105AB000FEE341F28F01EC20FCF796FE41F2342127
:105AC000EF20FCF791FE21460120FCF78DFE3946C0
:105AD0000220FCF789FE41F230010320FCF784FE2E
