:020000040800F2
:1000000060060020B1010008A504000835040008BE
:10001000A10400086B02000845060008000000006B
:10002000000000000000000000000000F5040008CF
:100030006F02000800000000A7040008E1050008A6
:10004000CB010008CB010008CB010008CB01000860
:10005000CB010008CB010008CB010008CB01000850
:10006000CB010008CB010008CB010008CB01000840
:10007000CB010008CB010008CB010008CB01000830
:10008000CB010008CB010008CB010008CB01000820
:10009000CB010008CB010008CB010008CB01000810
:1000A000CB010008CB010008CB010008CB01000800
:1000B000CB010008CB010008CB010008CB010008F0
:1000C000CB010008CB010008CB010008CB010008E0
:1000D000CB010008CB010008CB010008CB010008D0
:1000E000CB010008CB010008CB010008CB010008C0
:1000F000CB010008CB010008CB010008CB010008B0
:10010000CB010008CB010008CB010008CB0100089F
:10011000CB010008CB010008CB010008CB0100088F
:10012000CB010008CB010008CB010008CB0100087F
:1001300000F002F800F02CF80AA090E8000C8244CD
:100140008344AAF10107DA4501D100F021F8AFF2AA
:10015000090EBAE80F0013F0010F18BFFB1A43F0A5
:1001600001031847700700008007000000230024E7
:1001700000250026103A28BF78C1FBD8520728BFB7
:1001800030C148BF0B6070471FB51FBD10B510BD13
:1001900000F031F81146FFF7F7FF00F06DFB00F0BB
:1001A0004FF803B4FFF7F2FF03BC00F057F800006C
:1001B0000948804709480047FEE7FEE7FEE7FEE7FB
:1001C000FEE7FEE7FEE7FEE7FEE7FEE70448054937
:1001D000054A064B70470000E5050008310100089C
:1001E0006000002060060020600200206002002005
:1001F000704770477047754600F02CF8AE46050012
:100200006946534620F00700854618B020B5FFF731
:10021000DDFFBDE820404FF000064FF000074FF033
:1002200000084FF0000B21F00701AC46ACE8C00914
:10023000ACE8C009ACE8C009ACE8C0098D4670471D
:1002400010B50446AFF300802046BDE81040FFF72C
:10025000A8BF000000487047000000200149182096
:10026000ABBEFEE726000200704700BFFEE7704706
:1002700000BF00BF00BF00BF00BF00BF00BF00BF86
:1002800000BF00BF00BF00BF00BF00BF00BF00BF76
:1002900000BF00BF00BF00BF00BF00BF00BF00BF66
:1002A00000BF00BF00BF00BF00BF00BF00BF00BF56
:1002B00000BF00BF00BF00BF00BF00BF00BF00BF46
:1002C00000BF00BF00BF00BF00BF00BF00BF00BF36
:1002D00000BF00BF00BF00BF00BF00BF00BF00BF26
:1002E00000BF00BF00BF00BF00BF00BF00BF00BF16
:1002F00000BF00BF00BF00BF00BF00BF00BF00BF06
:10030000704700B501E0FFF7B3FF011EA0F1010047
:10031000F9D100BD2DE9F04102460025002600205C
:1003200000230024002791F803C00CF00F0591F87A
:1003300003C00CF0100CBCF1000F03D091F802C008
:100340004CEA050591F800C0BCF1000F31D01468EB
:1003500000202BE04FF0010C0CFA00F3B1F800C0C4
:100360000CEA03069E4220D183004FF00F0C0CFADA
:1003700003F7BC4305FA03FC4CEA040491F803C0FC
:10038000BCF1280F06D14FF0010C0CFA00FCC2F8AA
:1003900014C00AE091F803C0BCF1480F05D14FF03A
:1003A000010C0CFA00FCC2F810C0401C0828D1D384
:1003B0001460B1F800C0BCF1FF0F34DD54680020B8
:1003C0002EE000F1080C4FF0010808FA0CF3B1F828
:1003D00000C00CEA03069E4221D183004FF00F0CAF
:1003E0000CFA03F7BC4305FA03FC4CEA040491F849
:1003F00003C0BCF1280F05D100F1080C08FA0CF875
:10040000C2F8148091F803C0BCF1480F07D100F185
:10041000080C4FF0010808FA0CF8C2F81080401CD4
:100420000828CED35460BDE8F0810AB1016100E034
:100430004161704700BFFEE708B50121442000F08C
:1004400033F804208DF803000120ADF800000320EC
:100450008DF8020069460548FFF75CFF7020ADF893
:10046000000069460248FFF755FF08BD000801403B
:100470000010014008B50121402000F015F81020BF
:100480008DF803003C20ADF8000003208DF8020039
:1004900069460248FFF73EFF08BD00000018014012
:1004A00000BFFEE77047704729B1064A92690243D0
:1004B000044B9A6104E0034A92698243014B9A61BA
:1004C000704700000010024008B501210420FFF72A
:1004D000EBFF10208DF803004FF4E070ADF8000042
:1004E00003208DF8020069460148FFF713FF08BD9D
:1004F00000080140704710B500F002F810BD000080
:100500000CB50020019000903348006840F4803022
:100510003149086000BF3048006800F400300090A6
:100520000198401C0190009818B90198B0F5A06F8F
:10053000F1D12948006800F4003010B1012000908A
:1005400001E0002000900098012843D12348006872
:1005500040F01000214908600846006820F00300C0
:1005600008600846006840F0020008601A484068C9
:10057000194948600846406848600846406840F4A9
:10058000806048600846406820F47C104860084657
:10059000406840F4E81048600846006840F0807009
:1005A000086000BF0C48006800F000700028F9D017
:1005B0000948406820F00300074948600846406841
:1005C00040F00200486000BF0348406800F00C00A3
:1005D0000828F9D10CBD00000010024000200240A4
:1005E0007047000010B51348006840F00100114941
:1005F000086008464068104908400E4948600846AF
:1006000000680E4908400B4908600846006820F45D
:10061000802008600846406820F4FE0048604FF4DF
:100620001F008860FFF767FF4FF000600449086013
:1006300010BD0000001002400000FFF8FFFFF6FEB2
:1006400008ED00E000BFFEE72DE9F041054600247B
:1006500000260027062D32D2DFE805F03103326193
:1006600090BF002411E0002204218148FFF7DDFE45
:100670002046FFF746FE012204217D48FFF7D5FE04
:10068000C4F57A70FFF73DFE641CB4F57A7FEADBAF
:100690004FF47A7411E0002204217548FFF7C5FE7B
:1006A0002046FFF72EFE012204217148FFF7BDFE10
:1006B000C4F57A70FFF725FE641E002CEBDCD3E056
:1006C000002411E0002208216948FFF7AEFE204611
:1006D000FFF717FE012208216548FFF7A6FEC4F5C3
:1006E0007A70FFF70EFE641CB4F57A7FEADB4FF4F4
:1006F0007A7411E0002208215D48FFF796FE20463B
:10070000FFF7FFFD012208215948FFF78EFEC4F5CF
:100710007A70FFF7F6FD641E002CEBDCA4E00024E9
:1007200011E0002210215248FFF77FFE2046FFF71C
:10073000E8FD012210214E48FFF777FEC4F57A70DC
:10074000FFF7DFFD641CB4F57A7FEADB4FF47A74BF
:1007500011E0002210214648FFF767FE2046FFF710
:10076000D0FD012210214248FFF75FFEC4F57A70E8
:10077000FFF7C7FD641E002CEBDC75E0002411E0E0
:10078000002220213A48FFF750FE2046FFF7B9FD2E
:10079000012220213648FFF748FEC4F57A70FFF7A2
:1007A000B0FD641CB4F57A7FEADB4FF47A7411E093
:1007B000002220212E48FFF738FE2046FFF7A1FD3A
:1007C000012220212A48FFF730FEC4F57A70FFF796
:1007D00098FD641E002CEBDC46E0002411E00022B2
:1007E00040212448FFF721FE2046FFF78AFD012221
:1007F00040212048FFF719FEC4F57A70FFF781FD0C
:10080000641CB4F57A7FEADB002712E000224FF483
:1008100080711848FFF709FE2046FFF772FD01229C
:1008200011021448FFF701FEC4F57A70FFF769FD65
:100830007F1CB7F57A7FE9DB002611E000228021DA
:100840000C48FFF7F2FD2046FFF75BFD01228021F7
:100850000848FFF7EAFDC4F57A70FFF752FD761CF1
:10086000B6F57A7FEADB00BF00BFBDE8F08100008B
:100870000018014000080140FFF7FCFDFFF724FECF
:10088000FFF7DAFD012240211148FFF7CEFD0122DA
:1008900080210F48FFF7C9FD012211020C48FFF724
:1008A000C4FD00BF002280210948FFF7BEFD0EE015
:1008B0000120FFF7C9FE0220FFF7C6FE0320FFF765
:1008C000C3FE0420FFF7C0FE0520FFF7BDFEEFE7E3
:1008D00000080140E4080008000000206006000055
:0408E0006C0100089F
:0400000508000131BD
:00000001FF
