:020000040800F2
:100000000005002045010008650600087505000888
:10001000610600083D0400083110000800000000DF
:10002000000000000000000000000000B909000806
:100030004104000800000000E5060008A50A0008C9
:100040005F0100085F0100085F0100085F01000810
:100050005F0100085F0100085F0100085F01000800
:100060005F0100085F0100085F0100085F010008F0
:100070005F0100085F0100085F0100085F010008E0
:100080005F0100085F0100085F0100085F010008D0
:100090005F0100085F0100085F0100085F010008C0
:1000A0005F0100085F0100085F0100085F010008B0
:1000B0005F010008850B00085F0100085F01000870
:1000C0005F0100085F0100085F0100085F01000890
:1000D0005F010008710E00085F0100085F01000861
:1000E0005F0100085F0100085F0100085F01000870
:1000F0005F0100085F0100085F0100085F01000860
:100100005F0100085F0100085F0100085F0100084F
:100110005F0100085F0100085F0100085F0100083F
:100120005F0100085F0100085F0100085F0100082F
:10013000DFF80CD000F076F80048004755100008B2
:10014000000500200648804706480047FEE7FEE716
:10015000FEE7FEE7FEE7FEE7FEE7FEE7FEE7FEE777
:10016000250B00083101000840EA01039B0703D07A
:1001700009E008C9121F08C0042AFAD203E011F8E6
:10018000013B00F8013B521EF9D27047014900F0D3
:1001900003B80000D000002010B500683C22B0FB7E
:1001A000F2F302FB1303B0FBF2F00B60B0FBF2F3CF
:1001B00002FB1303B0FBF2F018224B60B0FBF2F32A
:1001C00002FB1303B0FBF2F0021D8B600723B2FBAE
:1001D000F3F403FB1422800040F2B55300F66C30B8
:1001E0008A61B0FBF3F2B0FBF3F403FB140044327A
:1001F00080084A61C8613B2802D3920700D0401CA6
:100200000022074C13460A61E25C824203D8801A3E
:100210005B1C0B61F8E7401CC860084610BD00007D
:10022000D4110008064C074D06E0E06840F00103D9
:1002300094E8070098471034AC42F6D3FFF77CFFF0
:10024000E01100080012000800B587B00121042069
:1002500000F066FA00208DF81B002020ADF8180091
:1002600003208DF81A0006A91A4800F0EAF80121C7
:10027000880200F055FA4FF4004000F035FA0020F3
:100280008DF8090004904FF4602003900020019045
:1002900001208DF8140000208DF8080001A90E48F7
:1002A00000F040F801210C4800F018F80A4800F06E
:1002B00061F800BF084800F02AF80128FAD0064883
:1002C00000F05DF800BF044800F013F80128FAD0F0
:1002D00007B000BD000801400028014021B182683C
:1002E00042F00102826003E0826822F00102826033
:1002F0007047014600208A6802F004020AB101201A
:1003000000E0002070470146C86C80B2704701468B
:1003100000208A6802F008020AB1012000E00020F3
:100320007047000030B502460020002350680F4C93
:1003300020400D790C6844EA052420435060906801
:100340000B4C2040D1E902542C434D7944EA45043A
:1003500020439060D06A20F470000C7C641EE4B2EC
:10036000234340EA0350D06230BD0000FFFEF0FF9F
:10037000FDF7F1FF816841F00801816070478168F5
:1003800041F004018160704710B5012000F0D8F9F8
:10039000002000F0D5F910BD10B524480078C8B988
:1003A00023480068401C2249086008460068B0F5F0
:1003B0008C7F27DD002008601E480068401C1D4916
:1003C000086008460068B0F58C7F1BDB01201749E8
:1003D000087017E016480068401C15490860084678
:1003E0000068B0F58C7F0DDD0020086011480068C2
:1003F000401E1049086008460068002802DA002004
:100400000A4908700B480068C0F58C7008490968F3
:10041000884205DA01220821074800F0A6F804E026
:1004200000220821044800F0A0F810BD00000020C0
:1004300008000020040000200018014000BFFEE773
:1004400070472DE9F04102460025002600200023D8
:100450000024002791F803C00CF00F0591F803C0A9
:100460000CF0100CBCF1000F03D091F802C04CEA64
:10047000050591F800C0BCF1000F31D014680020D0
:100480002BE04FF0010C0CFA00F3B1F800C00CEABD
:1004900003069E4220D183004FF00F0C0CFA03F7A5
:1004A000BC4305FA03FC4CEA040491F803C0BCF118
:1004B000280F06D14FF0010C0CFA00FCC2F814C052
:1004C0000AE091F803C0BCF1480F05D14FF0010CD0
:1004D0000CFA00FCC2F810C0401C0828D1D31460EC
:1004E000B1F800C0BCF1FF0F34DD546800202EE0ED
:1004F00000F1080C4FF0010808FA0CF3B1F800C045
:100500000CEA03069E4221D183004FF00F0C0CFA37
:1005100003F7BC4305FA03FC4CEA040491F803C05A
:10052000BCF1280F05D100F1080C08FA0CF8C2F84C
:10053000148091F803C0BCF1480F07D100F1080CFA
:100540004FF0010808FA0CF8C2F81080401C082887
:10055000CED35460BDE8F0810246002093680B4082
:100560000BB1012000E0002070470AB1016100E0FA
:100570004161704700BFFEE708B50121442000F04B
:10058000CFF804208DF803000120ADF8000003200F
:100590008DF8020069460548FFF753FF7020ADF85B
:1005A000000069460248FFF74CFF08BD0008014003
:1005B0000010014010B501211248FFF7CDFF0128BE
:1005C00006D111480068401C0F490860002010BD8A
:1005D0000D480068B0F57A7F04D300200A4908600E
:1005E0000520F4E708480068B0F5FA7F04D8002039
:1005F000054908600320EAE700200349086000BFBE
:10060000E5E70000000801403400002008B50121A2
:10061000402000F085F810208DF803003C20ADF854
:10062000000003208DF8020069460C48FFF709FF1F
:10063000012204210948FFF798FF012208210748F9
:10064000FFF793FF012210210448FFF78EFF0122DC
:1006500020210248FFF789FF08BD00000018014073
:1006600000BFFEE77047000070B5002100230F2295
:10067000C47804B3154C246804F4E064C4F5E06461
:10068000210AC1F10403CA40447804FA03F18478D2
:100690001440214309010E4C0678A155047804F05A
:1006A0001F050124AC4005786D11AD0005F1E02572
:1006B000C5F8004109E0047804F01F050124AC40AE
:1006C000044D0678761145F8264070BD0CED00E02B
:1006D00000E400E080E100E00149086270470000AA
:1006E00000000E427047000001460020034A506897
:1006F00020F4404008435060704700000010024062
:1007000029B1064AD2690243044BDA6104E0034A84
:10071000D2698243014BDA61704700000010024049
:1007200029B1064A92690243044B9A6104E0034AE4
:1007300092698243014B9A617047000000100240A9
:1007400001490860704700004004424230B5002172
:100750000022002400232D4D6D6805F00C0121B10D
:10076000042905D0082923D105E0294D056022E0A0
:10077000274D05601FE0254D6D6805F47012234D6F
:100780006D6805F48034022505EB92421CB9214DB9
:10079000554305600BE01D4D6D6805F400351DB136
:1007A0001C4D5543056002E0194D5543056002E0BC
:1007B000174D056000BF00BF144D6D6805F0F001D6
:1007C0000909154D6B5C0568DD4045600F4D6D688E
:1007D00005F4E061090A104D6B5C4568DD408560F9
:1007E0000A4D6D6805F46051C90A0B4D6B5C456894
:1007F000DD40C560054D6D6805F44041890B074D2E
:100800006B5CC568B5FBF3F5056130BD00100240B7
:1008100000127A0000093D006600002076000020EA
:1008200010B501460022002300204A11012A02D1FE
:10083000094C236806E0022A02D1074C236A01E032
:10084000054C636A01F01F02012494401C400CB166
:10085000012000E0002010BD0010024000210B4AE2
:1008600011700A4A203A82F82010012802D0042888
:1008700008D103E00121054A117004E00521034A73
:10088000117000E000BF00BF704700002010024060
:1008900001490860704700003C0442420249096A6D
:1008A0000143014A116270470010024010B5012156
:1008B0004FF0C050FFF724FF0120FFF70DFFFFF7B7
:1008C00063FD0120FFF7CAFF00BF4120FFF7A8FF2B
:1008D0000028FAD04FF48070FFF7E0FF0120FFF707
:1008E000D7FF00F057F800F04BF80121084600F060
:1008F00027F800F045F847F6FF7000F031F800F0F7
:100900003FF810BD0348008840F0100001490880FE
:100910007047000004280040034800884FF6EF713C
:10092000084001490880704704280040002103481E
:100930000188001F008841EA004070471C280040E1
:1009400029B1064A12880243044B1A8004E0034A84
:1009500012888243014B1A80704700000028004033
:1009600000B50246FFF7CEFFC2F3034003490880FB
:10097000091D0A80FFF7D0FF00BD000008280040D5
:1009800000BF0348008800F020000028F9D070471D
:1009900004280040074800884FF6F77108400549D1
:1009A000088000BF0348008800F008000028F9D044
:1009B0007047000004280040704710B500F002F8AE
:1009C00010BD00000CB50020019000903348006875
:1009D00040F480303149086000BF3048006800F4BE
:1009E000003000900198401C0190009818B90198BF
:1009F000B0F5A06FF1D12948006800F4003010B1C3
:100A00000120009001E0002000900098012843D1CF
:100A10002348006840F0100021490860084600683B
:100A200020F0030008600846006840F002000860FB
:100A30001A484068194948600846406848600846B6
:100A4000406840F4806048600846406820F47C10AC
:100A500048600846406840F4E8104860084600686E
:100A600040F08070086000BF0C48006800F0007023
:100A70000028F9D00948406820F003000749486081
:100A80000846406840F00200486000BF03484068E4
:100A900000F00C000828F9D10CBD00000010024045
:100AA0000020024010B516480068401C1449086038
:100AB00014480068401C1349086013480068401C33
:100AC0001149086011480068401C1049086010482E
:100AD0000068401C0E4908600E480068401C0D4923
:100AE00008600D480068401C0B4908600B4800680E
:100AF000401C0A490860FFF75DFD0949087010BDF8
:100B00000C00002014000020180000201C00002011
:100B1000200000202C0000203000002028000020B1
:100B20001000002010B51348006840F00100114982
:100B3000086008464068104908400E494860084669
:100B400000680E4908400B4908600846006820F418
:100B5000802008600846406820F4FE0048604FF49A
:100B60001F008860FFF729FF4FF00060044908600C
:100B700010BD0000001002400000FFF8FFFFF6FE6D
:100B800008ED00E02DE9F04100260121744800F055
:100B90000AF900287CD07348FFF7B5FB0746C01759
:100BA00007EB907080107049086070480068801CE6
:100BB0006E490860084600886D490988401A85B268
:100BC000694800686B490968884212DA6A48006817
:100BD000052190FBF1F000EB4000A84209DA6248E1
:100BE000006866490968884203DA5F48006863491B
:100BF00008605D4800685F490968884209DD5A4815
:100C000000685F490968884203DD574800685C490D
:100C10000860C82D63DD5448006856490968884259
:100C20005DDD58480078002859D1534800680521F7
:100C300090FBF1F000EB4000A84250DA012051494E
:100C400008704A4800684A490968401A4A490860D9
:100C500046480068464908604B48007868B1002063
:100C600049490870002406E043480068474941F8B4
:100C70002400601CC4B2092CF6DD4548007840B160
:100C800000204349087001203F490870BDE8F08109
:100C900060E000240CE03D49601C51F8200041F860
:100CA0002400084630F82400304486B2601CC4B2E8
:100CB000082CF0DD30480068344948620846808CD2
:100CC000304486B20A2096FBF0F086B24EF66020E1
:100CD00090FBF6F02F49086001202F490870224848
:100CE00000682449096888421EDA264800780128ED
:100CF0001AD1002023490870214800681F4909685B
:100D0000401A26490860086800EBD0711B4A126837
:100D100002EB6101174A116010460068184908602B
:100D2000104600681549086040F6C410854211DD80
:100D30004FF400700F490860114908600F490860BE
:100D40000A4800680A49086001201149087000201B
:100D50000D4908700121024800F022F800BF95E714
:100D60000004004000240140400000204C0000200E
:100D7000500000205C0000204400002058000020AB
:100D8000540000204800002065000020A80000203A
:100D9000640000203C00002049000020600000208A
:100DA000CA430282704730B5024600200023002467
:100DB000158A05EA0103958905EA010413B10CB10E
:100DC000012000E0002030BD10B586B004460121AE
:100DD0000420FFF7A5FC18208DF817004FF40070D1
:100DE000ADF8140003208DF8160005A91E48FFF782
:100DF00028FB04208DF817000002ADF8140005A9A7
:100E00001948FFF71EFB01218803FFF789FC0194B5
:100E10000020ADF810000C20ADF80E000020ADF859
:100E20000C00ADF80A00ADF8080001A90F4800F069
:100E300093F801210D4800F033F8012240F22551CA
:100E40000A4800F063F825208DF8000001208DF895
:100E5000030000208DF801008DF802006846FFF7BE
:100E600003FC06B010BD000000080140003801403E
:100E700010B540F22551084800F01EF8012809D1AC
:100E80000548001D00880549087008460078024999
:100E9000091D088010BD0000003801403800002006
:100EA00021B1828942F40052828104E082894DF6A8
:100EB000FF731A408281704770B5024600240023F8
:100EC0000025002040F66A16B14200D100BFC1F3F0
:100ED000421501F01F03012606FA03F3012D02D18A
:100EE0009689334006E0022D02D1168A334001E094
:100EF000968A33400C12012606FA04F41688344010
:100F000013B10CB1012000E0002070BDF0B5034624
:100F1000002400260025002040F66A17B94200D1BF
:100F200000BF1846C1F3421401F01F06012707FA5B
:100F300006F5012C01D10C3004E0022C01D1103057
:100F400000E014301AB107682F43076002E0076819
:100F5000AF430760F0BD00002DE9F04786B00546BD
:100F60000E460024A24600BFA1460027B08900B16A
:100F700000BF2F462C8A4CF6FF700440F0880443D3
:100F80002C82AC894EF6F3100440B08831890843B6
:100F9000718908430443AC81AC8A4FF6FF4004409A
:100FA000B0890443AC8201A8FFF7D0FB1F488742F9
:100FB00002D1DDF810A001E0DDF80CA0A88900F452
:100FC000004040B10AEBCA0000EB0A10316849004A
:100FD000B0FBF1F807E00AEBCA0000EB0A10316839
:100FE0008900B0FBF1F86420B8FBF0F0040120099F
:100FF000642101FB1089A88900F4004040B132202F
:1010000000EBC900B0FBF1F000F00700044308E07A
:10101000322000EB09106421B0FBF1F000F00F006A
:1010200004432C8106B0BDE8F08700000038014081
:1010300000BFFEE702E008C8121F08C1002AFAD16B
:1010400070477047002001E001C1121F002AFBD148
:101050007047000008B5FFF7D9FAFFF78DFAFFF7E0
:10106000F3F8FFF723FC4FF4E130FFF7ADFE4FF448
:101070003471481EB0F1807F00D31DE0481E4FF050
:10108000E022506150170F22002804DB13071F0EC7
:10109000494B1F5408E013074FEA136C474B00F00D
:1010A0000F073F1F03F807C000BF00204FF0E022EA
:1010B00090610720106100BF0020009000240025EF
:1010C000002678E0FFF768F9FFF730FC00906846EB
:1010D000FFF75CF807462C2239463948FFF744F8F9
:1010E000384800684CF25031884208D336480068CE
:1010F00080F0040034490860002032490860334819
:101100000068A0420DD365B95EB9002210212E48B7
:101110000C38FFF72AFA00202C4908602C49086097
:101120000125C4F57A702A490968884214D8012D2E
:1011300012D18EB90122102123480C38FFF715FA7D
:10114000002023490860214908600025B4F57A7F12
:1011500001DB00240126641C1C480068A0420ED359
:101160006DB9012E0BD10122102117480C38FFF761
:10117000FCF9002015490860154908600125C4F5EF
:101180007A7013490968884215D8012D13D1012EB0
:1011900011D1641C002210210B480C38FFF7E5F92F
:1011A00000200B490860094908600025B4F57A7FE2
:1011B00001DB0024002685E700E400E018ED00E0F4
:1011C0007C0000200C0000200C1801402C000020A6
:1011D000300000201F1D1F1E1F1E1F1F1E1F1E1F51
:1011E00000120008000000207C00000034100008FD
:1011F0007C1200087C0000208404000044100008D9
:1012000000000000000000000000000000000000DE
:1012100000000000000000000000000000000000CE
:1012200000000000000000000000000000000000BE
:1012300000000000000000000000000000000000AE
:101240000000000058020000000000000000000044
:101250000000000000020000000200000002000088
:10126000640000000100000000000102030401020C
:0C12700003040607080902040608000039
:0400000508000131BD
:00000001FF
