:020000040800F2
:100000002005002045010008511700084D0C00088C
:100010004D1700083D080008695B0008000000005B
:10002000000000000000000000000000F91A0008B5
:100030003D09000800000000D1170008E51B00087A
:100040005F0100085F0100085F0100085F01000810
:100050005F0100085F0100085F0100085F01000800
:100060005F0100085F0100085F0100085F010008F0
:100070005F0100085F0100085F0100085F010008E0
:100080005F0100085F0100085F0100085F010008D0
:100090005F0100085F0100085F0100085F010008C0
:1000A0005F0100085F0100085F0100085F010008B0
:1000B0005F010008BD5600085F0100085F010008ED
:1000C0005F0100085F0100085F0100085F01000890
:1000D0005F010008A95900085F0100085F010008DE
:1000E0005F0100085F0100085F0100085F01000870
:1000F0005F0100085F0100085F0100085F01000860
:100100005F0100085F0100085F0100085F0100084F
:100110005F0100085F0100085F0100085F0100083F
:100120005F0100085F0100085F0100085F0100082F
:10013000DFF80CD000F0E4FA0048004759630008EB
:10014000200500200648804706480047FEE7FEE7F6
:10015000FEE7FEE7FEE7FEE7FEE7FEE7FEE7FEE777
:10016000811C00083101000840EA01039B0703D00D
:1001700009E008C9121F08C0042AFAD203E011F8E6
:10018000013B00F8013B521EF9D270472DE9FE4FAA
:10019000804681EA0300C00F0C46009021F0004128
:1001A00023F00045B8EB0200A94105D240462146A4
:1001B00090461C460B46024623F00040104347D0B1
:1001C000270DC7F30A00C3F30A510290401A0190A9
:1001D00040286BDAC3F3130040F4801B009892466A
:1001E00020B10023D2EB030A63EB0B0B01985946B5
:1001F000C0F14002504600F0A7F906460D465046B1
:100200005946019A00F0BFF910EB08006141002443
:1002100087EA115284EAE7731A4340D0009A62B326
:10022000019A012A4FEA075215DC001B61EB02011B
:100230004FF0004202EA0752CDE90042001C41F5AE
:10024000801132462B4600F00CFA03B0BDE8F08F67
:1002500040462146F9E7001B61EB0201001C41F515
:10026000801300185B412018A2F5001747EB03012B
:1002700040EAD570B6196D4111E06D084FEA3606B7
:1002800045EAC0754FEA0752001B61EB0201001CF2
:1002900041F5801149084FEA3000001951413246BA
:1002A0002B4603B0BDE8F04F00F0CCB90098012216
:1002B00040000023D0EB020263EBE073009821467C
:1002C0004FEAE074B8EB000061EB0401E9E783F06A
:1002D00000435BE781F0004158E72DE9FE4F81EADA
:1002E000030404F0004421F0004100944FF0000B9F
:1002F00023F0004350EA01045ED052EA03045BD0CD
:10030000C3F30A54C1F30A552C44A4F2F334019404
:10031000A0FB0254C1F3130141F48011C3F3130392
:1003200043F4801301FB024400FB034E840A970A46
:1003300044EA815447EA8357A4FB076802958D0A73
:1003400005FB07854FEA932C04FB0C542705029DFF
:100350004FEA065847EA1637B5EB08056EEB070C6F
:10036000870E920E47EA811742EA8312A7FB020129
:10037000B6EB0B0164EB00042B0D43EA0C335E1863
:1003800044EB1C50DA465146E7FB0201C5F3130467
:100390004FEA0B3343EA14534FEA0432019C43EA19
:1003A0000603A4F10C040294009CCDE900B400F013
:1003B00058F903B0BDE8F08F00200146F9E72DE9B8
:1003C000F04D81EA030404F0004B21F0004514468F
:1003D0004FF0000A23F0004150EA050220D054EA11
:1003E00001021DD0C5F30A570246C5F31303C1F33A
:1003F0001300C1F30A5640F4801543F48013A7EBB1
:100400000608101BD64608F2FD3873EB050002D330
:1004100008F1010801E092185B41B8F1000F03DA1E
:1004200000200146BDE8F08D00204FF48011064603
:1004300084460EE0171B73EB050705D3121B63EB15
:10044000050306434CEA010C49084FEA30009218B4
:100450005B4150EA0107EDD152EA030012D082EA73
:10046000040083EA0501084305D0101BAB4106D206
:100470000122002306E000224FF0004302E06FF06B
:10048000010253101AEB06004CEB085110EB0A0066
:1004900041EB0B01BDE8F04D00F0D4B80EB5C10F33
:1004A00080EAE0700844CA07002140F233438DE837
:1004B0000E000A460B4600F0D4F803B000BD0EB59E
:1004C00040F2334102910021CDE900110A460B466A
:1004D00000F0C7F803B000BD70B5C1F30A5201F0D7
:1004E00000450024C1F3130140F2FF3341F48011B1
:1004F0009A4201DA002070BD40F233439A42A2F2E0
:10050000334203DC524200F02EF800E090402C43CE
:10051000F1D0404270BDC1F30A5210B5C1F31301CE
:1005200040F2FF3341F480119A4201DA002010BDFD
:1005300040F233439A42A2F2334203DC524200F0CB
:1005400012F810BD904010BD202A04DB203A00FABA
:1005500002F1002070479140C2F1200320FA03F31A
:10056000194390407047202A04DB203A21FA02F018
:100570000021704721FA02F3D040C2F120029140DD
:10058000084319467047202A06DBCB17203A41FA68
:1005900002F043EAE07306E041FA02F3D040C2F110
:1005A000200291400843194670470000014900F0BD
:1005B00003B80000F000002010B500683C22B0FB3A
:1005C000F2F302FB1303B0FBF2F00B60B0FBF2F3AB
:1005D00002FB1303B0FBF2F018224B60B0FBF2F306
:1005E00002FB1303B0FBF2F0021D8B600723B2FB8A
:1005F000F3F403FB1422800040F2B55300F66C3094
:100600008A61B0FBF3F2B0FBF3F403FB1400443255
:1006100080084A61C8613B2802D3920700D0401C81
:100620000022074C13460A61E25C824203D8801A1A
:100630005B1C0B61F8E7401CC860084610BD000059
:1006400018C1020810B5141E73F1000408DA401C2A
:1006500041F1000192185B411A4301D120F00100E1
:1006600010BD2DE9F04D92469B4611B1B1FA81F2D1
:1006700002E0B0FA80F220329046FFF765FF0446B0
:100680000F4640EA0A0041EA0B0153465A46084326
:1006900013D0114653EA010019D0C8F14002504668
:1006A000FFF761FF05460E46504659464246FFF7A2
:1006B0004BFF084305D0012004E020463946BDE841
:1006C000F08D0020054346EAE0762C4337430A9834
:1006D0006305E40AA0EB08000022FD0A44EA47543F
:1006E0000A3002D500200146E9E7010510196941E9
:1006F000DDE9084500196941BDE8F04DA2E70000B9
:10070000064C074D06E0E06840F0010394E807005E
:1007100098471034AC42F6D3FFF70EFD24C102080F
:1007200044C1020870B521F0004303430CD0C1F36B
:100730000A550024D5EB040564EB0403D617AD1A63
:10074000B34102DB0020014670BD201841EB02518D
:1007500070BD0146C86C80B27047000008B5012129
:10076000102001F057F810208DF803000120ADF89B
:10077000000003208DF802006946024800F0CBF922
:1007800008BD00000010014010B5012001F052F832
:10079000002001F04FF810BD10B524480078C8B90A
:1007A00023480068401C2249086008460068B0F5EC
:1007B0008C7F27DD002008601E480068401C1D4912
:1007C000086008460068B0F58C7F1BDB01201749E4
:1007D000087017E016480068401C15490860084674
:1007E0000068B0F58C7F0DDD0020086011480068BE
:1007F000401E1049086008460068002802DA002000
:100800000A4908700B480068C0F58C7008490968EF
:10081000884205DA01220821074800F012FA04E0B4
:1008200000220821044800F00CFA10BD000000204E
:1008300008000020040000200018014000BFFEE76F
:1008400030B58BB0002400200A90099008900790E2
:1008500000F02AFA00BF0FE0E2B24FF68943A02170
:10086000782000F0C1FB04EB84014FF47A62A2EB24
:10087000810000F0B9F8641C8E2CEDDB00240EE042
:10088000E2B20023A021782000F0AEFB04EB84014B
:100890004FF47A62A2EB810000F0A6F8641C872C6A
:1008A000EEDB012425E007A808A909AA0AABCDE9D7
:1008B0000332CDE9051004EB8400401F00210290B3
:1008C0001C480A461C4BCDE90010A021782005F0F9
:1008D000E5FC02200090079DABB2089DAAB2099DDD
:1008E000A9B20A9DA8B200F00FFB642000F070F8D6
:1008F000641C0C2CD7DD00240AE0E2B24FF6FF7333
:10090000A021782000F070FB642000F061F8641CE6
:10091000062CF2DB002409E0E2B20023A0217820BB
:1009200000F062FB642000F053F8641C052CF3DB3C
:100930000BB030BD00C05C4000005940704700BFA4
:1009400000BF00BF00BF00BF00BF00BF00BF00BFAF
:1009500000BF00BF00BF00BF00BF00BF00BF00BF9F
:1009600000BF00BF00BF00BF00BF00BF00BF00BF8F
:1009700000BF00BF00BF00BF00BF00BF00BF00BF7F
:1009800000BF00BF00BF00BF00BF00BF00BF00BF6F
:1009900000BF00BF00BF00BF00BF00BF00BF00BF5F
:1009A00000BF00BF00BF00BF00BF00BF00BF00BF4F
:1009B00000BF00BF00BF00BF00BF00BF00BF00BF3F
:1009C00000BF00BF00BF00BF00BF00BF00BF704737
:1009D00000B5034603E04FF47A7000F005F8181EE6
:1009E000A3F10103F7D100BD00B501E0FFF7A7FFB8
:1009F000011EA0F10100F9D100BD000051B182003B
:100A0000A2F1C042126842F001038200A2F1C0428A
:100A1000136009E08200A2F1C0421268034B1A4041
:100A20008300A3F1C0431A6070470000FEFF0F006F
:100A3000D0E901121143C2681143026911434269AE
:100A4000114382691143C2691143026A1143426A28
:100A50001143826A1143C26A1143026B1143026857
:100A60009200A2F1C0421160816808290BD101688F
:100A70008900A1F1C041096841F040020168890084
:100A8000A1F1C0410A60416B0968426B526841EABA
:100A90000211426B926841EA0221426B928941EA5B
:100AA0000241426B128A41EA0251426B127D41EAD5
:100AB0000261426B926911430268521C9200A2F1DA
:100AC000C0421160C16AB1F5804F1BD1816B0968CA
:100AD000826B526841EA0211826B926841EA0221FC
:100AE000826B128A41EA0251826B127D41EA0261F5
:100AF000826B9269114302689200A2F1C042C2F86F
:100B0000041107E06FF0704201688900A1F1C04153
:100B1000C1F8042170472DE9F04102460025002666
:100B2000002000230024002791F803C00CF00F05DB
:100B300091F803C00CF0100CBCF1000F03D091F839
:100B400002C04CEA050591F800C0BCF1000F31D09D
:100B5000146800202BE04FF0010C0CFA00F3B1F800
:100B600000C00CEA03069E4220D183004FF00F0C18
:100B70000CFA03F7BC4305FA03FC4CEA040491F8B1
:100B800003C0BCF1280F06D14FF0010C0CFA00FC99
:100B9000C2F814C00AE091F803C0BCF1480F05D1B7
:100BA0004FF0010C0CFA00FCC2F810C0401C0828E1
:100BB000D1D31460B1F800C0BCF1FF0F34DD54682C
:100BC00000202EE000F1080C4FF0010808FA0CF3A9
:100BD000B1F800C00CEA03069E4221D183004FF019
:100BE0000F0C0CFA03F7BC4305FA03FC4CEA0404AF
:100BF00091F803C0BCF1280F05D100F1080C08FAE8
:100C00000CF8C2F8148091F803C0BCF1480F07D16A
:100C100000F1080C4FF0010808FA0CF8C2F8108037
:100C2000401C0828CED35460BDE8F0810246002065
:100C300093680B400BB1012000E000207047016178
:100C400070470AB1016100E04161704700BFFEE7F3
:100C500010B501211248FFF7E9FF012806D111481C
:100C60000068401C0F490860002010BD0D48006856
:100C7000B0F57A7F04D300200A4908600520F4E724
:100C800008480068B0F5FA7F04D8002005490860DC
:100C90000320EAE700200349086000BFE5E7000001
:100CA000000801403C00002070B5044600261748AB
:100CB0000588408845431548808846F604018842E7
:100CC00016D112488079012812D100200F4988716D
:100CD0002A2048812B2088810021084600F0A6FBAD
:100CE00001200A4988712B2048812A20888103E04D
:100CF0000021084600F09AFB00F0ECFC002602E020
:100D000003480480761CAE42FAD370BD8C000020EC
:100D10000008006C10B50446002C73D17949887125
:100D2000F02008804FF4A07048800846808849F27F
:100D30004131884211D07348808849F28641884207
:100D40000BD07048808846F60401884205D06D4873
:100D5000808845F21031884220D12C2069490881D1
:100D60002A2048812B2088810846808846F6040185
:100D700088420BD06348808845F21031884205D004
:100D80006048808849F28641884206D14FF4A070BD
:100D90005C4908804FF4F0704880AEE05948808884
:100DA00045F21051884210D14FF430505549088116
:100DB0004FF4285048814FF42C5088814FF4F07044
:100DC00008804FF44870488097E04E48808841F68C
:100DD000631188420DD12C204A4908812B2048817B
:100DE0002A2088814FF4F07008804FF448704880C2
:100DF00083E02220434908812020488121208881E6
:100E00007BE0FFE701203F4988714FF4A070088024
:100E1000F02048800846808849F2413188420BD052
:100E20003848808849F28641884205D03548808814
:100E300045F21031884207D12C20324908812A20FE
:100E400048812B2088813FE02E48808846F60401A7
:100E5000884207D12C202B4908812B2048812A2049
:100E6000888131E02748808845F21051884210D1AE
:100E70004FF43050234908814FF4285048814FF4F3
:100E80002C5088814FF4487008804FF4F0704880EF
:100E90001AE01C48808841F6631188420DD12C204D
:100EA000184908812A2048812B2088814FF44870F6
:100EB00008804FF4F070488006E022201149088134
:100EC00021204881202088810E48808846F6040130
:100ED00088420BD00B48808845F21031884205D0FB
:100EE0000848808849F28641884206D14FF4F07064
:100EF000044908804FF4A0704880002000F01AF9DF
:100F000010BD00008C0000202DE9FF4F83B081460A
:100F10000020029083460598A0EB090504990698E5
:100F2000461ACDF8049004980090002D01DD0127A9
:100F300005E00DB9002702E04FF0FF376D42002EAB
:100F400002DD4FF0010806E016B94FF0000802E09C
:100F50004FF0FF387642B54201DD2C4600E03446C2
:100F60004FF0000A27E0009A91B2019A90B200F087
:100F700029F8109BDAB2009B99B2019B98B24FF608
:100F8000FF7300F031F8029828440290B3440298AD
:100F9000A04205DD0298001B0290019838440190A0
:100FA000A34504DDABEB040B0098404400900AF12C
:100FB00001001FFA80FA601C8245D4DD07B0BDE84D
:100FC000F08F000030B504460D462946204600F05B
:100FD0002DFA00F07FFB024800880249088030BDEE
:100FE000420000200008006C2DE9F04706460F463D
:100FF00090469A46002445460320A0EB480944E069
:101000007A1B91B2321990B2524600F043F83A1B63
:1010100091B2721990B2524600F03CF83A1991B26E
:10102000721990B2524600F035F87A1991B232191D
:1010300090B2524600F02EF87A1991B2321B90B25B
:10104000524600F027F83A1991B2721B90B25246FC
:1010500000F020F87A1B91B2321B90B2524600F099
:1010600019F83A1B91B2721B90B2524600F012F876
:10107000641CB9F1000F03DAA000801D814404E074
:10108000601B80000A3081446D1EAC42B8DDBDE8B3
:10109000F087000070B505460E46144631462846D6
:1010A00000F0C4F900F016FB0148048070BD000098
:1010B0000008006C08B5034800880090BDF80000E7
:1010C00008BD00000008006C10B50446204600F082
:1010D000F5FA0520FFF788FCFFF7ECFF10BD0000D4
:1010E0002DE9F0470446BE2000F0E8FA052000F0A4
:1010F000D9FA2046FFF7E3F907464FF066320C4B6A
:10110000FFF7EBF80546FFF706FA1FFA80F94846A5
:1011100000F0C8FA012000F0C5FAFF2000F0C2FA82
:10112000002000F0BFFA002000F0BCFABDE8F08714
:1011300066660440F0B5054600240027BA48807969
:1011400001280BD1B848808846F60401884205D0B2
:10115000B548808841F66311884208D1B248807949
:10116000F0B9B148808841F66311884218D1082D42
:1011700015D2DFE805F00406080A0C0E1012062549
:101180000DE007250BE0042509E0052507E0012512
:1011900005E0002503E0032501E0022500BF00BFB4
:1011A000A148808849F2413188421DD09E488088FC
:1011B00049F28641884217D09B48808846F6040150
:1011C000884211D09848808845F2103188420BD06F
:1011D0009548808845F21051884205D09248808811
:1011E00041F6631188427DD1082D1CD2DFE805F05D
:1011F0000406090C0F12151800BF14E044F0800417
:1012000011E044F040040EE044F0C0040BE044F070
:10121000200408E044F0600405E044F0A00402E08B
:1012200044F0E00400BF00BF7F48808845F21051C1
:10123000884202D14FF4585700E036277A48808818
:1012400045F2103188420DD07748808845F2105120
:10125000884207D07448808841F66311884201D0E3
:1012600044F008047048808846F60401884201D1A1
:1012700044F002042146384600F036FA6A48808875
:1012800041F6631188421DD004F0200068B1664821
:10129000008865494988884214DA6348068840888E
:1012A00061490880084646800CE05F4800885E4936
:1012B0004988884206DD5C48068840885A4908808B
:1012C000084646805848808845F21051884254D1DB
:1012D0005549488900F0F2F9002000F0E3F952493D
:1012E000498900E078E0491C88B200F0E7F9002065
:1012F00000F0D8F94C494989891C88B200F0DEF920
:1013000049490988491EC1F30F2000F0CBF946492D
:101310004989C91C88B200F0D1F943490978491EAE
:10132000C8B200F0BFF94049888900F0C7F9002031
:1013300000F0B8F93C498989491C88B200F0BEF92F
:10134000002000F0AFF938498989891C88B200F083
:10135000B5F935494988491EC1F30F2000F0A2F9BB
:1013600031498989C91C88B200F0A8F92E498978C9
:10137000491EC8B200F096F955E02B49488900F0A3
:101380009DF9002000F08EF9002000F08BF926492D
:101390000988491EC1F30F2000F084F92249097819
:1013A000491EC8B200F07EF91F49888900F086F90D
:1013B000002000F077F9002000F074F91A494988FC
:1013C000491EC1F30F2000F06DF917498978491EB5
:1013D000C8B200F067F926E0082D1CD2DFE805F05E
:1013E00004070A0D0F12151844F0300413E044F0FE
:1013F000100410E044F020040DE000BF0BE044F0C6
:10140000380408E044F0280405E044F0180402E041
:1014100044F0080400BF00BF032744F48054214671
:10142000384600F061F9F0BD8C00002030B504466C
:101430000D468148808849F24131884205D07E4876
:10144000808845F21031884214D17B49488900F0E8
:1014500035F9201200F026F9E0B200F023F97649C0
:10146000888900F02BF9281200F01CF9E8B200F08E
:1014700019F9E0E07048808849F2864188422ED10F
:101480006D49488900F01AF9201200F00BF9E0B21A
:1014900000F008F968490988491EC1F30F2000F0DF
:1014A00001F965490978491EC8B200F0FBF86249A4
:1014B000888900F003F9281200F0F4F8E8B200F08F
:1014C000F1F85D494988491EC1F30F2000F0EAF8A0
:1014D00059498978491EC8B200F0E4F8ABE0564893
:1014E000808846F6040188421DD15348807901283E
:1014F00004D151480088401E001B84B24E494889DF
:1015000000F0DCF8201200F0CDF8E0B200F0CAF8EC
:101510004949888900F0D2F8281200F0C3F8E8B2EF
:1015200000F0C0F887E04448808841F663118842A3
:1015300047D141488079A8B93F480088401E001B28
:1015400084B23D49488900F0B9F8002000F0AAF8BB
:10155000002000F0A7F8201200F0A4F8E0B200F09C
:10156000A1F816E03449488900F0A8F8201200F0EC
:1015700099F8E0B200F096F82F490988491EC1F3A6
:101580000F2000F08FF82C490978491EC8B200F0EE
:1015900089F82949888900F091F8281200F082F82A
:1015A000E8B200F07FF824494988491EC1F30F20B2
:1015B00000F078F820498978491EC8B200F072F826
:1015C00039E01D48808845F21051884220D11A49DF
:1015D000488900F073F8201200F064F81649498930
:1015E000491C88B200F06AF8E0B200F05BF81249DA
:1015F000888900F063F8281200F054F80E498989B0
:10160000491C88B200F05AF8E8B200F04BF812E03A
:1016100009488079012804D107480088401E001B32
:1016200084B205494889214600F05EF8024988895C
:10163000294600F059F830BD8C0000202DE9F84F04
:1016400004460F46154698460A9E4FF00009CA46C2
:10165000A3460020009000BF20E04FF0000917E0F3
:101660007078317840EA0120009039462046009A8F
:10167000FFF710FD601C84B20BEB0500A04202DCFA
:101680005C46781C87B2B61C09F101001FFA80F98C
:10169000A945E5DB0AF101001FFA80FAC245DCDB4F
:1016A000BDE8F88F01B5BDF800000090BDF800005E
:1016B0000149088008BD00000008006C01B5BDF8B4
:1016C00000000090BDF800000149088008BD00003E
:1016D000FE07006C0248008902490880704700003C
:1016E0008C000020FE07006C024A1080921C1180C2
:1016F00070470000FE07006C08B50121402000F093
:1017000089F810208DF803003C20ADF8000003207C
:101710008DF8020069460C48FFF7FDF9012204210B
:101720000948FFF78EFA012208210748FFF789FAD6
:10173000012210210448FFF784FA012220210248E7
:10174000FFF77FFA08BD00000018014000BFFEE768
:101750007047000070B5002100230F22C47804B345
:10176000154C246804F4E064C4F5E064210AC1F176
:101770000403CA40447804FA03F1847814402143F6
:1017800009010E4C0678A155047804F01F050124C8
:10179000AC4005786D11AD0005F1E025C5F80041BC
:1017A00009E0047804F01F050124AC40044D0678DC
:1017B000761145F8264070BD0CED00E000E400E035
:1017C00080E100E0014908627047000000000E421D
:1017D0007047000029B1064A52690243044B5A611E
:1017E00004E0034A52698243014B5A61704700008A
:1017F0000010024029B1064AD2690243044BDA6163
:1018000004E0034AD2698243014BDA617047000069
:101810000010024029B1064A92690243044B9A61C2
:1018200004E0034A92698243014B9A6170470000C9
:101830000010024001490860704700004004424225
:1018400030B500210022002400232D4D6D6805F0E5
:101850000C0121B1042905D0082923D105E0294D27
:10186000056022E0274D05601FE0254D6D6805F4F9
:101870007012234D6D6805F48034022505EB924209
:101880001CB9214D554305600BE01D4D6D6805F4F5
:1018900000351DB11C4D5543056002E0194D5543FF
:1018A000056002E0174D056000BF00BF144D6D6874
:1018B00005F0F0010909154D6B5C0568DD404560D8
:1018C0000F4D6D6805F4E061090A104D6B5C4568C9
:1018D000DD4085600A4D6D6805F46051C90A0B4D05
:1018E0006B5C4568DD40C560054D6D6805F44041A1
:1018F000890B074D6B5CC568B5FBF3F5056130BD21
:101900000010024000127A0000093D007200002021
:101910008200002010B501460022002300204A1159
:10192000012A02D1094C236806E0022A02D1074CA1
:10193000236A01E0054C636A01F01F020124944010
:101940001C400CB1012000E0002010BD001002403E
:1019500000210B4A11700A4A203A82F8201001280F
:1019600002D0042808D103E00121054A117004E0E7
:101970000521034A117000E000BF00BF704700005E
:101980002010024001490860704700003C044242B8
:101990000249096A0143014A11627047001002407E
:1019A00008B501210420FFF735FF10208DF8030052
:1019B0004FF4E070ADF8000003208DF80200694696
:1019C0000948FFF7A8F8012240210748FFF739F935
:1019D000012280210448FFF734F901221102024854
:1019E000FFF72FF908BD00000008014010B50121E4
:1019F0004FF0C050FFF7FEFE0120FFF7E3FEFEF7B9
:101A0000C3FE0120FFF7A4FF00BF4120FFF782FFC4
:101A10000028FAD04FF48070FFF7BAFF0120FFF7DB
:101A2000B1FF00F057F800F04BF80121084600F034
:101A300027F800F045F847F6FF7000F031F800F0A5
:101A40003FF810BD0348008840F0100001490880AD
:101A50007047000004280040034800884FF6EF71EB
:101A600008400149088070470428004000210348CD
:101A70000188001F008841EA004070471C28004090
:101A800029B1064A12880243044B1A8004E0034A33
:101A900012888243014B1A807047000000280040E2
:101AA00000B50246FFF7CEFFC2F3034003490880AA
:101AB000091D0A80FFF7D0FF00BD00000828004084
:101AC00000BF0348008800F020000028F9D07047CC
:101AD00004280040074800884FF6F7710840054980
:101AE000088000BF0348008800F008000028F9D0F3
:101AF0007047000004280040704710B500F002F85D
:101B000010BD00000CB50020019000903348006823
:101B100040F480303149086000BF3048006800F46C
:101B2000003000900198401C0190009818B901986D
:101B3000B0F5A06FF1D12948006800F4003010B171
:101B40000120009001E0002000900098012843D17E
:101B50002348006840F010002149086008460068EA
:101B600020F0030008600846006840F002000860AA
:101B70001A48406819494860084640684860084665
:101B8000406840F4806048600846406820F47C105B
:101B900048600846406840F4E8104860084600681D
:101BA00040F08070086000BF0C48006800F00070D2
:101BB0000028F9D00948406820F003000749486030
:101BC0000846406840F00200486000BF0348406893
:101BD00000F00C000828F9D10CBD000000100240F4
:101BE0000020024010B51B480068401C19490860DD
:101BF00019480068401C1849086018480068401CD3
:101C00001649086016480068401C154908601548C8
:101C10000068401C1349086013480068401C1249C2
:101C2000086012480068401C1049086010480068AD
:101C3000401C0F4908600F480068401C0D490860AF
:101C40000D480068401C0C490860FFF701F80B497B
:101C5000087010BD0C0000201400002018000020A7
:101C60001C000020200000202C000020300000205C
:101C70002800002038000020340000201000002040
:101C800010B51348006840F001001149086008468B
:101C90004068104908400E494860084600680E49EF
:101CA00008400B4908600846006820F4802008605E
:101CB0000846406820F4FE0048604FF41F0088602A
:101CC000FFF71BFF4FF000600449086010BD0000E3
:101CD000001002400000FFF8FFFFF6FE08ED00E0F4
:101CE00000B59FB000201E9001210802FFF772FD91
:101CF00001214FF4B470FFF78DFD0120ADF87400A1
:101D000010208DF8770003208DF876001DA9FE487D
:101D1000FEF701FF4CF23370ADF8740018208DF817
:101D2000770003208DF876001DA9F848FEF7F3FE32
:101D30004FF68070ADF8740018208DF877000320FE
:101D40008DF876001DA9F248FEF7E5FE41F201008C
:101D5000ADF8740018208DF8770003208DF8760018
:101D60001DA9EC48FEF7D7FE01200790002008903F
:101D70000F20099000200A900B900C900D9000907D
:101D8000019003200290002003900490059006909B
:101D900006200E9000200F9010901020119000202F
:101DA000129014901390159016904FF48050179045
:101DB000002018904FF48040199000201A9007A836
:101DC0001B90CDF870D00EA8FEF732FE0121062040
:101DD000FEF714FE3220FEF7FBFD01210020FFF785
:101DE00083FC3220FEF7F4FD0020FFF76DF9CA49AD
:101DF000888008468088FF280FDB084680884FF6D9
:101E0000FF71884209D0C4488088B0F5134F04D0D0
:101E1000C1488088B0F5144F7ED1D320FFF74EFC27
:101E2000FFF748F9BC498880FFF744F9BA49888030
:101E3000FFF740F9B8498880084680884FF6FF715F
:101E400001EA0020B4498880FFF734F9B249898853
:101E50000843B14988800846808849F24131884268
:101E60005AD0AD48808849F286418842F8D0BF20D8
:101E7000FFF724FCFFF71EF9A7498880FFF71AF93E
:101E8000A5498880FFF716F9A3498880FFF712F962
:101E9000A1498880084680884FF6FF7101EA00203A
:101EA0009D498880FFF706F99B49898808439A492C
:101EB00088800846808846F6040188427AD0D4207B
:101EC000FFF7FCFBFFF7F6F893498880FFF7F2F87D
:101ED00091498880FFF7EEF88F498880084680880E
:101EE0004FF6FF7101EA00208B498880FFF7E2F886
:101EF000894989880843884988800846808845F24E
:101F00001031884256D04FF45A40FFF7D7FBFFF705
:101F1000D1F88149888000E04CE04FF45B40FFF746
:101F2000CDFBFFF7C7F87C498880084680884FF6CC
:101F3000FF7101EA0020784988804FF45C40FFF788
:101F4000BDFBFFF7B7F87449898808437249888058
:101F500008468088B0F5004F02D145F210508880C5
:101F60006D48808845F21051884223D0A120FFF7A8
:101F7000A5FBFFF79FF868498880FFF79BF8664943
:101F80008880084680884FF6FF7101EA0020624988
:101F90008880FFF78FF86049898808435E49888008
:101FA0000846808845F26171884203D141F663108A
:101FB000594988805848808849F24131884211D077
:101FC0005548808845F2103188420BD052488088AD
:101FD00045F21051884205D04F48808841F6631180
:101FE00088421DD14D48006820F00F004FF020417D
:101FF000C1F81C010846D0F81C0120F47060C1F83B
:102000001C010846D0F81C0140F00300C1F81C0177
:102010000846D0F81C0140F40070C1F81C0128E00B
:102020003D48808846F60401884205D03A488088B9
:102030004CF2055188421CD13848006820F00F004E
:102040004FF02041C1F81C010846D0F81C0120F4D3
:102050007060C1F81C010846D0F81C0140F00A006D
:10206000C1F81C010846D0F81C0140F44060C1F8DA
:102070001C012948808849F2413188427ED1CF2015
:10208000FFF71CFB0020FFF70DFBC120FFF70AFB49
:102090003020FFF707FBED20FFF710FB6420FFF770
:1020A00001FB0320FFF7FEFA1220FFF7FBFA812065
:1020B000FFF7F8FAE820FFF701FB8520FFF7F2FAB7
:1020C0001020FFF7EFFA7A20FFF7ECFACB20FFF7AA
:1020D000F5FA3920FFF7E6FA2C20FFF7E3FA0020A3
:1020E000FFF7E0FA3420FFF7DDFA0220FFF7DAFA13
:1020F000F720FFF7E3FA2020FFF7D4FAEA20FFF7F2
:10210000DDFA00200CE00000000C0140001401404A
:1021100000180140002001408C0000201C0100A09C
:10212000FFF7C0FA0020FFF7BDFAC020FFF7C6FA9C
:102130001B20FFF7B7FAC120FFF7C0FA0120FFF715
:10214000B1FAC520FFF7BAFA3020FFF7ABFA30201A
:10215000FFF7A8FAC720FFF7B1FAB720FFF7A2FAF6
:102160003620FFF7ABFA4820FFF79CFA3A20FFF73A
:10217000A5FA5520FFF796FAB12000E0A5E0FFF799
:102180009DFA0020FFF78EFA1A20FFF78BFAB6208F
:10219000FFF794FA0A20FFF785FAA220FFF782FAE8
:1021A000F220FFF78BFA0020FFF77CFA2620FFF7DA
:1021B00085FA0120FFF776FAE020FFF77FFA0F207B
:1021C000FFF770FA2A20FFF76DFA2820FFF76AFA66
:1021D0000820FFF767FA0E20FFF764FA0820FFF7E0
:1021E00061FA5420FFF75EFAA920FFF75BFA43205B
:1021F000FFF758FA0A20FFF755FA0F20FFF752FAB7
:102200000020FFF74FFA0020FFF74CFA0020FFF7FD
:1022100049FA0020FFF746FAE120FFF74FFA0020C5
:10222000FFF740FA1520FFF73DFA1720FFF73AFABB
:102230000720FFF737FA1120FFF734FA0620FFF7DF
:1022400031FA2B20FFF72EFA5620FFF72BFA3C200D
:10225000FFF728FA0520FFF725FA1020FFF722FAEA
:102260000F20FFF71FFA3F20FFF71CFA3F20FFF770
:1022700019FA0F20FFF716FA2B20FFF71FFA00209C
:10228000FFF710FA0020FFF70DFA0120FFF70AFA16
:102290003F20FFF707FA2A20FFF710FA0020FFF788
:1022A00001FA0020FFF7FEF90020FFF7FBF9EF200D
:1022B000FFF7F8F91120FFF701FA7820FEF788FB05
:1022C0002920FFF7FBF903F0E8B9FE48808849F2BE
:1022D000864188427ED1F220FFF7F0F91820FFF7FF
:1022E000E1F9A320FFF7DEF91220FFF7DBF9022066
:1022F000FFF7D8F9B220FFF7D5F91220FFF7D2F98E
:10230000FF20FFF7CFF91020FFF7CCF90020FFF7EF
:10231000C9F9F820FFF7D2F92120FFF7C3F904200B
:10232000FFF7C0F9F920FFF7C9F90020FFF7BAF964
:102330000820FFF7B7F93620FFF7C0F90820FFF7AC
:10234000B1F93A20FFF7BAF90520FFF7ABF9B4204D
:10235000FFF7B4F90120FFF7A5F9B620FFF7AEF9B2
:102360000220FFF79FF92220FFF79CF9C120FFF719
:10237000A5F94120FFF796F9C520FFF79FF9002046
:10238000FFF790F90720FFF78DF9E020FFF796F9A6
:102390000F20FFF787F91F20FFF784F91C20FFF7B4
:1023A00081F90C20FFF77EF90F20FFF77BF9082059
:1023B000FFF778F94820FFF775F99820FFF772F9D1
:1023C0003720FFF76FF90A20FFF76CF91320FFF7AA
:1023D00069F900E045E00420FFF764F91120FFF7F8
:1023E00061F90D20FFF75EF90020FFF75BF9E120AE
:1023F000FFF764F90F20FFF755F93220FFF752F984
:102400002E20FFF74FF90B20FFF74CF90D20FFF7B7
:1024100049F90520FFF746F94720FFF743F97520F2
:10242000FFF740F93720FFF73DF90620FFF73AF9AB
:102430001020FFF737F90320FFF734F92420FFF7C6
:1024400031F92020FFF72EF90020FFF72BF911209A
:10245000FFF734F97820FEF7BBFA2920FFF72EF9B1
:1024600031E79848808846F6040188427ED11120E1
:10247000FFF724F91420FEF7ABFAD020FFF71EF97E
:102480000720FFF70FF94220FFF70CF91D20FFF797
:1024900009F9D120FFF712F90020FFF703F91A20FC
:1024A000FFF700F90920FFF7FDF8D220FFF706F942
:1024B0000120FFF7F7F82220FFF7F4F8C020FFF71C
:1024C000FDF81020FFF7EEF83B20FFF7EBF80020B7
:1024D000FFF7E8F80220FFF7E5F81120FFF7E2F830
:1024E000C520FFF7EBF80320FFF7DCF8C820FFF763
:1024F000E5F80020FFF7D6F82520FFF7D3F82120D4
:10250000FFF7D0F80520FFF7CDF80020FFF7CAF855
:102510000A20FFF7C7F86520FFF7C4F82520FFF76A
:10252000C1F87720FFF7BEF85020FFF7BBF80F2067
:10253000FFF7B8F80020FFF7B5F8F820FFF7BEF86E
:102540000120FFF7AFF8FE20FFF7B8F80020FFF7F3
:10255000A9F80220FFF7A6F82020FFF7AFF83620F1
:10256000FFF7ACF80820FFF79DF800E02AE03A20DA
:10257000FFF7A4F85520FFF795F82B20FFF79EF8FA
:102580000020FFF78FF80020FFF78CF80120FFF7FD
:1025900089F83F20FFF786F82A20FFF78FF8002000
:1025A000FFF780F80020FFF77DF80120FFF77AF8A9
:1025B000DF20FFF777F87820FEF70AFA2920FFF7E7
:1025C0007DF880E63F48808845F21031884240F02F
:1025D0007C87ED20FFF772F80120FFF763F8FE20FB
:1025E000FFF760F8EE20FFF769F8DE20FFF75AF8F2
:1025F0002120FFF757F8F120FFF760F80120FFF7DF
:1026000051F8DF20FFF75AF81020FFF74BF8C420ED
:10261000FFF754F88F20FFF745F8C620FFF74EF874
:102620000020FFF73FF8E220FFF73CF8E220FFF739
:1026300039F8E220FFF736F8BF20FFF73FF8AA206D
:10264000FFF730F8B020FFF739F80D20FFF72AF830
:102650000020FFF727F80D20FFF724F80020FFF7F0
:1026600021F81120FFF71EF80020FFF71BF81920B2
:10267000FFF718F80020FFF715F82120FFF712F8F0
:102680000020FFF70FF82D20FFF70CF80020FFF7D0
:1026900009F83D20FFF706F80020FFF703F85D205A
:1026A000FFF700F80020FEF7FDFF5D20FEF7FAFFC0
:1026B0000020FEF7F7FFB120FFF700F88020FEF7BB
:1026C000F1FF01E08C0000200020FEF7EBFF8B20E3
:1026D000FEF7E8FF0020FEF7E5FF9620FEF7E2FF99
:1026E0000020FEF7DFFFB220FEF7E8FF0020FEF734
:1026F000D9FF0020FEF7D6FF0220FEF7D3FF00200F
:10270000FEF7D0FF0320FEF7CDFF0020FEF7CAFF43
:10271000B320FEF7D3FF0020FEF7C4FF0020FEF732
:10272000C1FF0020FEF7BEFF0020FEF7BBFF002028
:10273000FEF7B8FF0020FEF7B5FF0020FEF7B2FF5E
:102740000020FEF7AFFF0020FEF7ACFF0020FEF7F1
:10275000A9FF0020FEF7A6FF0020FEF7A3FF002040
:10276000FEF7A0FF0020FEF79DFF0020FEF79AFF76
:102770000020FEF797FF0020FEF794FF0020FEF7F1
:1027800091FF0020FEF78EFF0020FEF78BFF002058
:10279000FEF788FF0020FEF785FF0020FEF782FF8E
:1027A0000020FEF77FFFB420FEF788FF8B20FEF7A6
:1027B00079FF0020FEF776FF9620FEF773FF0020DA
:1027C000FEF770FFA120FEF76DFF0020FEF76AFF05
:1027D000B520FEF773FF0220FEF764FF0020FEF72E
:1027E00061FF0320FEF75EFF0020FEF75BFF042081
:1027F000FEF758FF0020FEF755FFB620FEF75EFFFC
:102800000020FEF74FFF0020FEF74CFFB720FEF739
:1028100055FF0020FEF746FF0020FEF743FF3F2054
:10282000FEF740FF0020FEF73DFF5E20FEF73AFF77
:102830000020FEF737FF6420FEF734FF0020FEF78C
:1028400031FF8C20FEF72EFF0020FEF72BFFAC207F
:10285000FEF728FF0020FEF725FFDC20FEF722FF11
:102860000020FEF71FFF7020FEF71CFF0020FEF780
:1028700019FF9020FEF716FF0020FEF713FFEB2054
:10288000FEF710FF0020FEF70DFFDC20FEF70AFF29
:102890000020FEF707FFB820FEF710FF0020FEF72C
:1028A00001FF0020FEF7FEFE0020FEF7FBFE0020E9
:1028B000FEF7F8FE0020FEF7F5FE0020FEF7F2FE20
:1028C0000020FEF7EFFE0020FEF7ECFEBA20FEF738
:1028D000F5FE2420FEF7E6FE0020FEF7E3FE0020D2
:1028E000FEF7E0FE0020FEF7DDFEC120FEF7E6FE6B
:1028F0002020FEF7D7FE0020FEF7D4FE5420FEF77E
:10290000D1FE0020FEF7CEFEFF20FEF7CBFE00201A
:10291000FEF7C8FEC220FEF7D1FE0A20FEF7C2FE77
:102920000020FEF7BFFE0420FEF7BCFE0020FEF7ED
:10293000B9FEC320FEF7C2FE3C20FEF7B3FE002026
:10294000FEF7B0FE3A20FEF7ADFE0020FEF7AAFE2D
:102950003920FEF7A7FE0020FEF7A4FE3720FEF781
:10296000A1FE0020FEF79EFE3C20FEF79BFE00200D
:10297000FEF798FE3620FEF795FE0020FEF792FE49
:102980003220FEF78FFE0020FEF78CFE2F20FEF790
:1029900089FE0020FEF786FE2C20FEF783FE002035
:1029A000FEF780FE2920FEF77DFE0020FEF77AFE6E
:1029B0002620FEF777FE0020FEF774FE2420FEF7A7
:1029C00071FE0020FEF76EFE2420FEF76BFE002055
:1029D000FEF768FE2320FEF765FE0020FEF762FE8C
:1029E0003C20FEF75FFE0020FEF75CFE3620FEF77F
:1029F00059FE0020FEF756FE3220FEF753FE00205F
:102A0000FEF750FE2F20FEF74DFE0020FEF74AFE97
:102A10002C20FEF747FE0020FEF744FE2920FEF79B
:102A200041FE0020FEF73EFE2620FEF73BFE002082
:102A3000FEF738FE2420FEF735FE0020FEF732FEBA
:102A40002420FEF72FFE0020FEF72CFE2320FEF7A9
:102A500029FE0020FEF726FEC420FEF72FFE62208E
:102A6000FEF720FE0020FEF71DFE0520FEF71AFEF1
:102A70000020FEF717FE8420FEF714FE0020FEF76C
:102A800011FEF020FEF70EFE0020FEF70BFE1820D0
:102A9000FEF708FE0020FEF705FEA420FEF702FE6A
:102AA0000020FEF7FFFD1820FEF7FCFD0020FEF7DA
:102AB000F9FD5020FEF7F6FD0020FEF7F3FD0C2097
:102AC000FEF7F0FD0020FEF7EDFD1720FEF7EAFD12
:102AD0000020FEF7E7FD9520FEF7E4FD0020FEF75D
:102AE000E1FDF320FEF7DEFD0020FEF7DBFDE62032
:102AF000FEF7D8FD0020FEF7D5FDC520FEF7DEFD70
:102B00003220FEF7CFFD0020FEF7CCFD4420FEF77B
:102B1000C9FD0020FEF7C6FD6520FEF7C3FD0020BD
:102B2000FEF7C0FD7620FEF7BDFD0020FEF7BAFDE2
:102B30008820FEF7B7FD0020FEF7B4FDC620FEF7A3
:102B4000BDFD2020FEF7AEFD0020FEF7ABFD1720F7
:102B5000FEF7A8FD0020FEF7A5FD0120FEF7A2FD6F
:102B60000020FEF79FFDC720FEF7A8FD0020FEF71E
:102B700099FD0020FEF796FD0020FEF793FD002052
:102B8000FEF790FDC820FEF799FD0020FEF78AFDB4
:102B90000020FEF787FD0020FEF784FD0020FEF7F1
:102BA00081FDC920FEF78AFD0020FEF77BFD002095
:102BB000FEF778FD0020FEF775FD0020FEF772FDA0
:102BC0000020FEF76FFD0020FEF76CFD0020FEF7F1
:102BD00069FD0020FEF766FD0020FEF763FD002082
:102BE000FEF760FD0020FEF75DFD0020FEF75AFDB8
:102BF0000020FEF757FD0020FEF754FD0020FEF7F1
:102C000051FD0020FEF74EFDE020FEF757FD162097
:102C1000FEF748FD0020FEF745FD1C20FEF742FDB3
:102C20000020FEF73FFD2120FEF73CFD0020FEF7CF
:102C300039FD3620FEF736FD0020FEF733FD462035
:102C4000FEF730FD0020FEF72DFD5220FEF72AFD95
:102C50000020FEF727FD6420FEF724FD0020FEF78C
:102C600021FD7A20FEF71EFD0020FEF71BFD8B20C4
:102C7000FEF718FD0020FEF715FD9920FEF712FD66
:102C80000020FEF70FFDA820FEF70CFD0020FEF748
:102C900009FDB920FEF706FD0020FEF703FDC42064
:102CA000FEF700FD0020FEF7FDFCCA20FEF7FAFC4F
:102CB0000020FEF7F7FCD220FEF7F4FC0020FEF720
:102CC000F1FCD920FEF7EEFC0020FEF7EBFCE02043
:102CD000FEF7E8FC0020FEF7E5FCF320FEF7E2FC3F
:102CE0000020FEF7DFFCE120FEF7E8FC1620FEF7EF
:102CF000D9FC0020FEF7D6FC1C20FEF7D3FC0020F8
:102D0000FEF7D0FC2220FEF7CDFC0020FEF7CAFC27
:102D10003620FEF7C7FC0020FEF7C4FC4520FEF776
:102D2000C1FC0020FEF7BEFC5220FEF7BBFC0020D9
:102D3000FEF7B8FC6420FEF7B5FC0020FEF7B2FCFD
:102D40007A20FEF7AFFC0020FEF7ACFC8B20FEF7EC
:102D5000A9FC0020FEF7A6FC9920FEF7A3FC0020AA
:102D6000FEF7A0FCA820FEF79DFC0020FEF79AFCD1
:102D7000B920FEF797FC0020FEF794FCC420FEF774
:102D800091FC0020FEF78EFCCA20FEF78BFC002091
:102D9000FEF788FCD220FEF785FC0020FEF782FCBF
:102DA000D820FEF77FFC0020FEF77CFCE020FEF739
:102DB00079FC0020FEF776FCF320FEF773FC002080
:102DC000FEF770FCE220FEF779FC0520FEF76AFCB6
:102DD0000020FEF767FC0B20FEF764FC0020FEF7E6
:102DE00061FC1B20FEF75EFC0020FEF75BFC34203C
:102DF000FEF758FC0020FEF755FC4420FEF752FC7D
:102E00000020FEF74FFC4F20FEF74CFC0020FEF7A1
:102E100049FC6120FEF746FC0020FEF743FC7920C8
:102E2000FEF740FC0020FEF73DFC8820FEF73AFC50
:102E30000020FEF737FC9720FEF734FC0020FEF759
:102E400031FCA620FEF72EFC0020FEF72BFCB7205D
:102E5000FEF728FC0020FEF725FCC220FEF722FC2E
:102E60000020FEF71FFCC720FEF71CFC0020FEF729
:102E700019FCD120FEF716FC0020FEF713FCD6202B
:102E8000FEF710FC0020FEF70DFCDD20FEF70AFC2B
:102E90000020FEF707FCF320FEF704FC0020FEF7FD
:102EA00001FCE320FEF70AFC0520FEF7FBFB0020F7
:102EB000FEF7F8FB0A20FEF7F5FB0020FEF7F2FB19
:102EC0001C20FEF7EFFB0020FEF7ECFB3320FEF7A3
:102ED000E9FB0020FEF7E6FB4420FEF7E3FB0020C1
:102EE000FEF7E0FB5020FEF7DDFB0020FEF7DAFBEB
:102EF0006220FEF7D7FB0020FEF7D4FB7820FEF718
:102F0000D1FB0020FEF7CEFB8820FEF7CBFB002094
:102F1000FEF7C8FB9720FEF7C5FB0020FEF7C2FBBB
:102F2000A620FEF7BFFB0020FEF7BCFBB720FEF794
:102F3000B9FB0020FEF7B6FBC220FEF7B3FB002072
:102F4000FEF7B0FBC720FEF7ADFB0020FEF7AAFBA3
:102F5000D120FEF7A7FB0020FEF7A4FBD520FEF74B
:102F6000A1FB0020FEF79EFBDD20FEF79BFB00206F
:102F7000FEF798FBF320FEF795FB0020FEF792FB8F
:102F8000E420FEF79BFB0120FEF78CFB0020FEF700
:102F900089FB0120FEF786FB0020FEF783FB022061
:102FA000FEF780FB0020FEF77DFB2A20FEF77AFB70
:102FB0000020FEF777FB3C20FEF774FB0020FEF7B5
:102FC00071FB4B20FEF76EFB0020FEF76BFB5D20D4
:102FD000FEF768FB0020FEF765FB7420FEF762FB3E
:102FE0000020FEF75FFB8420FEF75CFB0020FEF76D
:102FF00059FB9320FEF756FB0020FEF753FBA2205F
:10300000FEF750FB0020FEF74DFBB320FEF74AFB16
:103010000020FEF747FBBE20FEF744FB0020FEF732
:1030200041FBC420FEF73EFB0020FEF73BFBCD201A
:10303000FEF738FB0020FEF735FBD320FEF732FB0E
:103040000020FEF72FFBDD20FEF72CFB0020FEF713
:1030500029FBF320FEF726FB0020FEF723FBE520EB
:10306000FEF72CFB0020FEF71DFB0020FEF71AFBED
:103070000020FEF717FB0020FEF714FB0220FEF7EE
:1030800011FB0020FEF70EFB2920FEF70BFB0020B2
:10309000FEF708FB3C20FEF705FB0020FEF702FBD5
:1030A0004B20FEF7FFFA0020FEF7FCFA5D20FEF74A
:1030B000F9FA0020FEF7F6FA7420FEF7F3FA002082
:1030C000FEF7F0FA8420FEF7EDFA0020FEF7EAFAA8
:1030D0009320FEF7E7FA0020FEF7E4FAA220FEF7BD
:1030E000E1FA0020FEF7DEFAB320FEF7DBFA00205B
:1030F000FEF7D8FABE20FEF7D5FA0020FEF7D2FA86
:10310000C420FEF7CFFA0020FEF7CCFACD20FEF760
:10311000C9FA0020FEF7C6FAD320FEF7C3FA002052
:10312000FEF7C0FADC20FEF7BDFA0020FEF7BAFA7F
:10313000F320FEF7B7FA0020FEF7B4FAE620FEF718
:10314000BDFA1120FEF7AEFA0020FEF7ABFA3420EC
:10315000FEF7A8FA0020FEF7A5FA5620FEF7A2FA1D
:103160000020FEF79FFA7620FEF79CFA0020FEF77B
:1031700099FA7720FEF796FA0020FEF793FA662078
:10318000FEF790FA0020FEF78DFA8820FEF78AFA03
:103190000020FEF787FA9920FEF784FA0020FEF758
:1031A00081FABB20FEF77EFA0020FEF77BFA992019
:1031B000FEF778FA0020FEF775FA6620FEF772FA3D
:1031C0000020FEF76FFA5520FEF76CFA0020FEF79C
:1031D00069FA5520FEF766FA0020FEF763FA4520EB
:1031E000FEF760FA0020FEF75DFA4320FEF75AFA78
:1031F0000020FEF757FA4420FEF754FA0020FEF7AD
:1032000051FAE720FEF75AFA3220FEF74BFA002077
:10321000FEF748FA5520FEF745FA0020FEF742FA7D
:103220007620FEF73FFA0020FEF73CFA6620FEF714
:1032300039FA0020FEF736FA6720FEF733FA00204D
:10324000FEF730FA6720FEF72DFA0020FEF72AFA83
:103250008720FEF727FA0020FEF724FA9920FEF7D0
:1032600021FA0020FEF71EFABB20FEF71BFA002011
:10327000FEF718FA9920FEF715FA0020FEF712FA69
:103280007720FEF70FFA0020FEF70CFA4420FEF735
:1032900009FA0020FEF706FA5620FEF703FA00208E
:1032A000FEF700FA2320FEF7FDF90020FEF7FAF9F9
:1032B0003320FEF7F7F90020FEF7F4F94520FEF77A
:1032C000F1F90020FEF7EEF9E820FEF7F7F900200B
:1032D000FEF7E8F90020FEF7E5F99920FEF7E2F99C
:1032E0000020FEF7DFF98720FEF7DCF90020FEF76B
:1032F000D9F98820FEF7D6F90020FEF7D3F9772018
:10330000FEF7D0F90020FEF7CDF96620FEF7CAF9E6
:103310000020FEF7C7F98820FEF7C4F90020FEF769
:10332000C1F9AA20FEF7BEF90020FEF7BBF9BB20C9
:10333000FEF7B8F90020FEF7B5F99920FEF7B2F9CB
:103340000020FEF7AFF96620FEF7ACF90020FEF78B
:10335000A9F95520FEF7A6F90020FEF7A3F955209C
:10336000FEF7A0F90020FEF79DF94420FEF79AF938
:103370000020FEF797F94420FEF794F90020FEF7AD
:1033800091F95520FEF78EF90020FEF78BF9E92020
:10339000FEF794F9AA20FEF785F90020FEF782F9DE
:1033A0000020FEF77FF90020FEF77CF90020FEF7F1
:1033B00085F9AA20FEF776F9CF20FEF77FF90020E5
:1033C000FEF770F90020FEF76DF90020FEF76AF9AC
:1033D0000020FEF767F90020FEF764F90020FEF7F1
:1033E00061F90020FEF75EF90020FEF75BF900208E
:1033F000FEF758F90020FEF755F90020FEF752F9C4
:103400000020FEF74FF90020FEF74CF90020FEF7F0
:1034100049F90020FEF746F90020FEF743F90020A5
:10342000FEF740F9F020FEF749F90020FEF73AF9DF
:103430005020FEF737F90020FEF734F90020FEF7A0
:1034400031F90020FEF72EF9F320FEF737F90020BE
:10345000FEF728F9F920FEF731F90620FEF722F9E8
:103460001020FEF71FF92920FEF71CF90020FEF7B7
:1034700019F93A20FEF722F95520FEF713F9112029
:10348000FEF71CF96420FDF7A3FA2920FEF716F9D0
:103490003520FEF713F90020FEF704F95120FEF75E
:1034A0000DF9FF20FEF7FEF85320FEF707F92C2058
:1034B000FEF7F8F85520FEF701F98220FEF7F2F842
:1034C0002C20FEF7FBF802F0E8B8FE48808845F2B1
:1034D000105188427ED155214FF47040FEF704F917
:1034E000AA214FF20100FEF7FFF852214FF202002D
:1034F000FEF7FAF808214FF20300FEF7F5F8012174
:103500004FF20400FEF7F0F80D214FF43040FEF7C3
:10351000EBF80D214BF20100FEF7E6F80D214BF21E
:103520000200FEF7E1F834214FF43640FEF7DCF8F4
:1035300034214BF20160FEF7D7F834214BF20260E0
:10354000FEF7D2F80D214FF43140FEF7CDF80D21F2
:103550004BF20110FEF7C8F80D214BF20210FEF7F6
:10356000C3F834214FF43740FEF7BEF834214BF254
:103570000170FEF7B9F834214BF20270FEF7B4F88F
:1035800000214FF43240FEF7AFF800214BF201204A
:10359000FEF7AAF800214BF20220FEF7A5F824213D
:1035A0004FF43840FEF7A0F824214BF60100FEF757
:1035B0009BF824214BF60200FEF796F801214FF408
:1035C0003F40FEF791F80F214FF43340FEF78CF89F
:1035D0000F2100E0FEE34BF20130FEF785F80F21EA
:1035E0004BF20230FEF780F834214FF43940FEF7F9
:1035F0007BF834214BF60110FEF776F834214BF6B8
:103600000210FEF771F808214FF43540FEF76CF810
:1036100008214BF20150FEF767F808214BF20250E7
:10362000FEF762F803214FF44240FEF75DF82421D3
:103630004FF43A40FEF758F824214BF60120FEF7EC
:1036400053F824214BF60220FEF74EF800214FF4E8
:103650003C40FEF749F878214BF60140FEF744F86C
:1036600000214BF60240FEF73FF800214FF43D40A9
:10367000FEF73AF878214BF60150FEF735F80021B5
:103680004BF60250FEF730F800214FF43E40FEF7B3
:103690002BF864214BF60160FEF726F800214FF469
:1036A0005140FEF721F833214DF20110FEF71CF8CE
:1036B00000214DF20210FEF717F834214DF20310ED
:1036C000FEF712F800214DF20410FEF70DF83A2132
:1036D0004DF20510FEF708F800214DF20610FEF736
:1036E00003F84A214DF20710FDF7FEFF00214DF2CD
:1036F0000810FDF7F9FF5C214DF20910FDF7F4FF0A
:1037000000214DF20A10FDF7EFFF81214DF20B1061
:10371000FDF7EAFF00214DF20C10FDF7E5FFA621B1
:103720004DF20D10FDF7E0FF00214DF20E10FDF7F8
:10373000DBFFE5214DF20F10FDF7D6FF01214DF221
:103740001010FDF7D1FF13214DF21110FDF7CCFF42
:1037500001214DF21210FDF7C7FF54214DF2131055
:10376000FDF7C2FF01214DF21410FDF7BDFF8221CC
:103770004DF21510FDF7B8FF01214DF21610FDF7BF
:10378000B3FFCA214DF21710FDF7AEFF02214DF233
:103790001810FDF7A9FF00214DF21910FDF7A4FF45
:1037A00002214DF21A10FDF79FFF01214DF21B106F
:1037B000FDF79AFF02214DF21C10FDF795FF342111
:1037C0004DF21D10FDF790FF02214DF21E10FDF786
:1037D0008BFF67214DF21F10FDF786FF02214DF28E
:1037E0002010FDF781FF84214DF22110FDF77CFFB1
:1037F00002214DF22210FDF777FFA4214DF2231094
:10380000FDF772FF02214DF22410FDF76DFFB72185
:103810004DF22510FDF768FF02214DF22610FDF74D
:1038200063FFCF214DF22710FDF75EFF02214DF21D
:103830002810FDF759FFDE214DF22910FDF754FF46
:1038400002214DF22A10FDF74FFFF2214DF22B100D
:10385000FDF74AFF02214DF22C10FDF745FFFE2136
:103860004DF22D10FDF740FF03214DF22E10FDF714
:103870003BFF10214DF22F10FDF736FF03214DF2D3
:103880003010FDF731FF33214DF23110FDF72CFFE1
:1038900003214DF23210FDF727FF6D214DF2331059
:1038A000FDF722FF00214FF45240FDF71DFF3321A9
:1038B0004DF20120FDF718FF00214DF20220FDF727
:1038C00013FF01E08C00002034214DF20320FDF7AE
:1038D0000BFF00214DF20420FDF706FF3A214DF2C7
:1038E0000520FDF701FF00214DF20620FDF7FCFE4B
:1038F0004A214DF20720FDF7F7FE00214DF2082086
:10390000FDF7F2FE5C214DF20920FDF7EDFE0021EE
:103910004DF20A20FDF7E8FE81214DF20B20FDF764
:10392000E3FE00214DF20C20FDF7DEFEA6214DF254
:103930000D20FDF7D9FE00214DF20E20FDF7D4FE3B
:10394000E5214DF20F20FDF7CFFE01214DF21020B1
:10395000FDF7CAFE13214DF21120FDF7C5FE01212E
:103960004DF21220FDF7C0FE54214DF21320FDF759
:10397000BBFE01214DF21420FDF7B6FE82214DF26F
:103980001520FDF7B1FE01214DF21620FDF7ACFE2A
:10399000CA214DF21720FDF7A7FE02214DF2182093
:1039A000FDF7A2FE00214DF21920FDF79DFE022138
:1039B0004DF21A20FDF798FE01214DF21B20FDF774
:1039C00093FE02214DF21C20FDF78EFE34214DF2B4
:1039D0001D20FDF789FE02214DF21E20FDF784FE19
:1039E00067214DF21F20FDF77FFE02214DF22020BE
:1039F000FDF77AFE84214DF22120FDF775FE0221AC
:103A00004DF22220FDF770FEA4214DF22320FDF798
:103A10006BFE02214DF22420FDF766FEB7214DF228
:103A20002520FDF761FE02214DF22620FDF75CFE08
:103A3000CF214DF22720FDF757FE02214DF228201D
:103A4000FDF752FEDE214DF22920FDF74DFE022149
:103A50004DF22A20FDF748FEF2214DF22B20FDF712
:103A600043FE02214DF22C20FDF73EFEFE214DF2D9
:103A70002D20FDF739FE03214DF22E20FDF734FEF7
:103A800010214DF22F20FDF72FFE03214DF23020A3
:103A9000FDF72AFE33214DF23120FDF725FE0321EB
:103AA0004DF23220FDF720FE6D214DF23320FDF75F
:103AB0001BFE00214FF45340FDF716FE33214DF25B
:103AC0000130FDF711FE00214DF20230FDF70CFE32
:103AD00034214DF20330FDF707FE00214DF2043092
:103AE000FDF702FE3A214DF20530FDF7FDFD002104
:103AF0004DF20630FDF7F8FD4A214DF20730FDF793
:103B0000F3FD00214DF20830FDF7EEFD5C214DF292
:103B10000930FDF7E9FD00214DF20A30FDF7E4FD23
:103B200081214DF20B30FDF7DFFD00214DF20C300D
:103B3000FDF7DAFDA6214DF20D30FDF7D5FD002190
:103B40004DF20E30FDF7D0FDE5214DF20F30FDF7BF
:103B5000CBFD01214DF21030FDF7C6FD13214DF2D2
:103B60001130FDF7C1FD01214DF21230FDF7BCFD12
:103B700054214DF21330FDF7B7FD01214DF2143001
:103B8000FDF7B2FD82214DF21530FDF7ADFD0121AB
:103B90004DF21630FDF7A8FDCA214DF21730FDF7A2
:103BA000A3FD02214DF21830FDF79EFD00214DF2DC
:103BB0001930FDF799FD02214DF21A30FDF794FD01
:103BC00001214DF21B30FDF78FFD02214DF21C301B
:103BD000FDF78AFD34214DF21D30FDF785FD0221F0
:103BE0004DF21E30FDF780FD67214DF21F30FDF7CD
:103BF0007BFD02214DF22030FDF776FD84214DF250
:103C00002130FDF771FD02214DF22230FDF76CFDF0
:103C1000A4214DF22330FDF767FD02214DF224303F
:103C2000FDF762FDB7214DF22530FDF75DFD022164
:103C30004DF22630FDF758FDCF214DF22730FDF72C
:103C400053FD02214DF22830FDF74EFDDE214DF2ED
:103C50002930FDF749FD02214DF22A30FDF744FDE0
:103C6000F2214DF22B30FDF73FFD02214DF22C30B9
:103C7000FDF73AFDFE214DF22D30FDF735FD032114
:103C80004DF22E30FDF730FD10214DF22F30FDF7B3
:103C90002BFD03214DF23030FDF726FD33214DF28F
:103CA0003130FDF721FD03214DF23230FDF71CFDCF
:103CB0006D214DF23330FDF717FD00214FF45440D4
:103CC000FDF712FD33214DF20140FDF70DFD0021FE
:103CD0004DF20240FDF708FD34214DF20340FDF79F
:103CE00003FD00214DF20440FDF7FEFC3A214DF2A8
:103CF0000540FDF7F9FC00214DF20640FDF7F4FC0C
:103D00004A214DF20740FDF7EFFC00214DF208403B
:103D1000FDF7EAFC5C214DF20940FDF7E5FC0021CE
:103D20004DF20A40FDF7E0FC81214DF20B40FDF71A
:103D3000DBFC00214DF20C40FDF7D6FCA6214DF234
:103D40000D40FDF7D1FC00214DF20E40FDF7CCFCFB
:103D5000E5214DF20F40FDF7C7FC01214DF2104067
:103D6000FDF7C2FC13214DF21140FDF7BDFC01210E
:103D70004DF21240FDF7B8FC54214DF21340FDF70F
:103D8000B3FC01214DF21440FDF7AEFC82214DF24F
:103D90001540FDF7A9FC01214DF21640FDF7A4FCEA
:103DA000CA214DF21740FDF79FFC02214DF2184049
:103DB000FDF79AFC00214DF21940FDF795FC022118
:103DC0004DF21A40FDF790FC01214DF21B40FDF72A
:103DD0008BFC00E004E302214DF21C40FDF784FC63
:103DE00034214DF21D40FDF77FFC02214DF21E40B3
:103DF000FDF77AFC67214DF21F40FDF775FC0221AB
:103E00004DF22040FDF770FC84214DF22140FDF77A
:103E10006BFC02214DF22240FDF766FCA4214DF21D
:103E20002340FDF761FC02214DF22440FDF75CFCCC
:103E3000B7214DF22540FDF757FC02214DF22640F7
:103E4000FDF752FCCF214DF22740FDF74DFC02213A
:103E50004DF22840FDF748FCDE214DF22940FDF7E8
:103E600043FC02214DF22A40FDF73EFCF2214DF2C7
:103E70002B40FDF739FC02214DF22C40FDF734FCBC
:103E8000FE214DF22D40FDF72FFC03214DF22E4077
:103E9000FDF72AFC10214DF22F40FDF725FC0321F0
:103EA0004DF23040FDF720FC33214DF23140FDF75B
:103EB0001BFC03214DF23240FDF716FC6D214DF243
:103EC0003340FDF711FC00214FF45540FDF70CFC89
:103ED00033214DF20150FDF707FC00214DF2025055
:103EE000FDF702FC34214DF20350FDF7FDFB0021EC
:103EF0004DF20450FDF7F8FB3A214DF20550FDF765
:103F0000F3FB00214DF20650FDF7EEFB4A214DF286
:103F10000750FDF7E9FB00214DF20850FDF7E4FBE7
:103F20005C214DF20950FDF7DFFB00214DF20A50F4
:103F3000FDF7DAFB81214DF20B50FDF7D5FB002197
:103F40004DF20C50FDF7D0FBA6214DF20D50FDF7C0
:103F5000CBFB00214DF20E50FDF7C6FBE5214DF2E3
:103F60000F50FDF7C1FB01214DF21050FDF7BCFBD6
:103F700013214DF21150FDF7B7FB01214DF2125004
:103F8000FDF7B2FB54214DF21350FDF7ADFB0121BB
:103F90004DF21450FDF7A8FB82214DF21550FDF7AC
:103FA000A3FB01214DF21650FDF79EFBCA214DF2F5
:103FB0001750FDF799FB02214DF21850FDF794FBC5
:103FC00000214DF21950FDF78FFB02214DF21A50DE
:103FD000FDF78AFB01214DF21B50FDF785FB022105
:103FE0004DF21C50FDF780FB34214DF21D50FDF7C2
:103FF0007BFB02214DF21E50FDF776FB67214DF24F
:104000001F50FDF771FB02214DF22050FDF76CFBB4
:1040100084214DF22150FDF767FB02214DF2225021
:10402000FDF762FBA4214DF22350FDF75DFB022159
:104030004DF22450FDF758FBB7214DF22550FDF706
:1040400053FB02214DF22650FDF74EFBCF214DF2DE
:104050002750FDF749FB02214DF22850FDF744FBA4
:10406000DE214DF22950FDF73FFB02214DF22A508F
:10407000FDF73AFBF2214DF22B50FDF735FB022103
:104080004DF22C50FDF730FBFE214DF22D50FDF787
:104090002BFB03214DF22E50FDF726FB10214DF294
:1040A0002F50FDF721FB03214DF23050FDF71CFB93
:1040B00033214DF23150FDF717FB03214DF2325001
:1040C000FDF712FB6D214DF23350FDF70DFB002182
:1040D0004FF45640FDF708FB33214DF20160FDF728
:1040E00003FB00214DF20260FDF7FEFA34214DF290
:1040F0000360FDF7F9FA00214DF20460FDF7F4FAD0
:104100003A214DF20560FDF7EFFA00214DF206600D
:10411000FDF7EAFA4A214DF20760FDF7E5FA0021C2
:104120004DF20860FDF7E0FA5C214DF20960FDF701
:10413000DBFA00214DF20A60FDF7D6FA81214DF23B
:104140000B60FDF7D1FA00214DF20C60FDF7CCFABF
:10415000A6214DF20D60FDF7C7FA00214DF20E6069
:10416000FDF7C2FAE5214DF20F60FDF7BDFA01211E
:104170004DF21060FDF7B8FA13214DF21160FDF712
:10418000B3FA01214DF21260FDF7AEFA54214DF25F
:104190001360FDF7A9FA01214DF21460FDF7A4FAAE
:1041A00082214DF21560FDF79FFA01214DF2166054
:1041B000FDF79AFACA214DF21760FDF795FA022130
:1041C0004DF21860FDF790FA00214DF21960FDF7ED
:1041D0008BFA02214DF21A60FDF786FA01214DF2A9
:1041E0001B60FDF781FA02214DF21C60FDF77CFA9D
:1041F00034214DF21D60FDF777FA02214DF21E6069
:10420000FDF772FA67214DF21F60FDF76DFA02218A
:104210004DF22060FDF768FA84214DF22160FDF730
:1042200063FA02214DF22260FDF75EFAA4214DF2FD
:104230002360FDF759FA02214DF22460FDF754FA8C
:10424000B7214DF22560FDF74FFA02214DF22660AD
:10425000FDF74AFACF214DF22760FDF745FA02211A
:104260004DF22860FDF740FADE214DF22960FDF79E
:104270003BFA02214DF22A60FDF736FAF2214DF2A7
:104280002B60FDF731FA02214DF22C60FDF72CFA7C
:10429000FE214DF22D60FDF727FA03214DF22E602D
:1042A000FDF722FA10214DF22F60FDF71DFA0321D0
:1042B0004DF23060FDF718FA33214DF23160FDF711
:1042C00013FA03214DF23260FDF70EFA6D214DF223
:1042D0003360FDF709FA55214FF47040FDF704FAF9
:1042E000AA214FF20100FDF7FFF952214FF202001F
:1042F000FDF7FAF908214FF20300FDF7F5F9002167
:104300004FF20400FDF7F0F9CC214FF43140FDF7F6
:10431000EBF900214BF20110FDF7E6F905214FF40E
:104320003640FDF7E1F970214FF43740FDF7DCF935
:1043300070214BF20170FDF7D7F901214FF438409D
:10434000FDF7D2F903214BF60100FDF7CDF903216A
:104350004BF60200FDF7C8F903214BF60300FDF709
:10436000C3F902214FF43C40FDF7BEF900214BF6A2
:104370000140FDF7B9F900214BF60240FDF7B4F911
:10438000D0214FF44940FDF7AFF902214CF601105E
:10439000FDF7AAF950214CF60210FDF7A5F95021BE
:1043A0004CF60310FDF7A0F950214CF60410FDF770
:1043B0009BF900214FF45450FDF796F955214FF425
:1043C0006850FDF791F94FF48850FDF777F97820A0
:1043D000FCF70AFB4FF42450FDF770F901F05DB9CA
:1043E000FE48808849F2253188427DD147F6F001A8
:1043F000E520FDF779F94FF480710120FDF774F99C
:104400004FF4E0610220FDF76FF941F23001032023
:10441000FDF76AF900210420FDF766F940F2022158
:104420000820FDF761F900210920FDF75DF9002161
:104430000A20FDF759F900210C20FDF755F900215C
:104440000D20FDF751F900210F20FDF74DF9002156
:104450001020FDF749F907211120FDF745F900214A
:104460001220FDF741F900211320FDF73DF900214D
:104470000720FDF739F941F290611020FDF734F97A
:1044800040F227211120FDF72FF99D211220FDF781
:104490002BF94FF4C8511320FDF726F925212920C7
:1044A000FDF722F90D212B20FDF71EF90721302001
:1044B000FDF71AF940F203313120FDF715F9032118
:1044C0003220FDF711F940F206213520FDF70CF9F5
:1044D00008213620FDF708F940F206413720FDF7A4
:1044E00003F94FF4417100E058E03820FDF7FCF883
:1044F00007213920FDF7F8F840F202613C20FDF772
:10450000F3F808213D20FDF7EFF800215020FDF7DA
:10451000EBF8EF215120FDF7E7F800215220FDF7DD
:10452000E3F840F23F115320FDF7DEF84FF4274146
:104530006020FDF7D9F801216120FDF7D5F80021B1
:104540006A20FDF7D1F800218020FDF7CDF8002189
:104550008120FDF7C9F800218220FDF7C5F8002170
:104560008320FDF7C1F800218420FDF7BDF800216C
:104570008520FDF7B9F810219020FDF7B5F84FF42C
:10458000C0619220FDF7B0F840F233110720FDF72B
:10459000ABF822210020FDF7A7F81FE78F4880889D
:1045A00049F2283188427DD141F28F01EC20FDF79C
:1045B0009BF841F23421EF20FDF796F84FF480711B
:1045C0000120FDF791F84FF4E0610220FDF78CF82F
:1045D00041F230010320FDF787F800210420FDF7A8
:1045E00083F840F202210820FDF77EF8002109201F
:1045F000FDF77AF800210A20FDF776F801210C205A
:10460000FDF772F800210D20FDF76EF800210F2054
:10461000FDF76AF800211020FDF766F80721112048
:10462000FDF762F800211220FDF75EF8002113204B
:10463000FDF75AF801210720FDF756F83220FCF764
:10464000C7F941F290411020FDF74EF840F22721C2
:104650001120FDF749F83220FCF7BAF98A2112201F
:10466000FDF742F83220FCF7B3F94FF4D051132094
:10467000FDF73AF806212920FDF736F80D212B2009
:10468000FDF732F83220FCF7A3F900212020FDF7D6
:104690002BF800212120FDF727F83220FCF798F9AC
:1046A000002100E075E03020FDF71EF840F20461C3
:1046B0003120FDF719F840F205313220FDF714F8EA
:1046C00000213520FDF710F840F609413620FDF7AE
:1046D0000BF84FF401713720FDF706F840F2013175
:1046E0003820FDF701F840F207713920FCF7FCFF94
:1046F00000213C20FCF7F8FF40F60A213D20FCF7A2
:10470000F3FF3220FCF764F900215020FCF7ECFFA6
:10471000EF215120FCF7E8FF00215220FCF7E4FFD5
:1047200040F23F115320FCF7DFFF4FF42741602098
:10473000FCF7DAFF01216120FCF7D6FF00216A2097
:10474000FCF7D2FF00218020FCF7CEFF0021812062
:10475000FCF7CAFF00218220FCF7C6FF002183205E
:10476000FCF7C2FF00218420FCF7BEFF002185205A
:10477000FCF7BAFF10219020FCF7B6FF4FF4C061A0
:104780009220FCF7B1FF40F233110720FCF7ACFF99
:1047900024E61248808849F2203188427ED10021E7
:1047A0000846FCF7A1FF4FF480710120FCF79CFF45
:1047B0004FF4E0610220FCF797FF41F23001032043
:1047C000FCF792FF00210420FCF78EFF40F202214B
:1047D0000820FCF789FF0021092001E08C0000205F
:1047E000FCF782FF00210A20FCF77EFF01210C204C
:1047F000FCF77AFF00210D20FCF776FF00210F2047
:10480000FCF772FF3220FCF7E3F840F201110720B9
:10481000FCF76AFF3220FCF7DBF84FF486511020DA
:10482000FCF762FF07211120FCF75EFF4FF488714F
:104830001220FCF759FF4FF430611320FCF754FFAE
:1048400000212920FCF750FF44F210012B20FCF737
:104850004BFF00215020FCF747FFEF215120FCF7D0
:1048600043FF00215220FCF73FFF40F23F1153204D
:10487000FCF73AFF4FF41C516020FCF735FF012193
:104880006120FCF731FF00216A20FCF72DFF002199
:104890008020FCF729FF0021812000E030E0FCF7B8
:1048A00023FF00218220FCF71FFF00218320FCF75B
:1048B0001BFF00218420FCF717FF00218520FCF757
:1048C00013FF10219020FCF70FFF00219220FCF72E
:1048D0000BFF01219320FCF707FF4FF4887195200F
:1048E000FCF702FF00219720FCF7FEFE0021982034
:1048F000FCF7FAFE40F273110720FCF7F5FE6DE5B8
:10490000FE48808849F2313188427DD141F214015C
:10491000E720FCF7E9FE4FF480710120FCF7E4FE8C
:104920004FF400710220FCF7DFFE41F23801032052
:10493000FCF7DAFE40F202210820FCF7D5FE002148
:104940000920FCF7D1FE00210A20FCF7CDFE002152
:104950000C20FCF7C9FE00210D20FCF7C5FE00214C
:104960000F20FCF7C1FE00211020FCF7BDFE07213F
:104970001120FCF7B9FE00211220FCF7B5FE002142
:104980001320FCF7B1FEC820FCF722F841F2906139
:104990001020FCF7A9FE40F227211120FCF7A4FE0D
:1049A0003220FCF715F80C211220FCF79DFE322076
:1049B000FCF70EF84FF400611320FCF795FE11216F
:1049C0002920FCF791FE0B212B20FCF78DFE3220D5
:1049D000FBF7FEFF00212020FCF786FE40F23F118E
:1049E0002120FCF781FE00213020FCF77DFE4FF4F2
:1049F00083713120FCF778FE00213220FCF774FE31
:104A00004FF40171352000E064E0FCF76DFE41F2E7
:104A10000A613620FCF768FE40F207713720FCF788
:104A200063FE4FF483713820FCF75EFE40F207719D
:104A30003920FCF759FE40F202413C20FCF754FEBD
:104A400040F60F413D20FCF74FFE00215020FCF7BF
:104A50004BFEEF215120FCF747FE00215220FCF7CE
:104A600043FE40F23F115320FCF73EFE4FF41C5131
:104A70006020FCF739FE01216120FCF735FE0021A2
:104A80006A20FCF731FE00218020FCF72DFE00217A
:104A90008120FCF729FE00218220FCF725FE002161
:104AA0008320FCF721FE00218420FCF71DFE00215D
:104AB0008520FCF719FE10219020FCF715FE4FF41D
:104AC000C0619220FCF710FE40F233110720FCF782
:104AD0000BFE83E48948808845F2084188427DD1F5
:104AE0004FF480710120FCF7FFFD4FF4E0610220DC
:104AF000FCF7FAFD41F230010320FCF7F5FD00213F
:104B00000420FCF7F1FD40F207210820FCF7ECFD42
:104B100000210920FCF7E8FD00210A20FCF7E4FD54
:104B200000210C20FCF7E0FD00210D20FCF7DCFD4E
:104B300000210F20FCF7D8FD1420FBF749FF41F2BC
:104B4000B0611020FCF7D0FD01211120FCF7CCFD55
:104B500001211720FCF7C8FD4FF49C711220FCF7CF
:104B6000C3FD4FF400611320FCF7BEFD092129208D
:104B7000FCF7BAFD09212A20FCF7B6FD0021A4208C
:104B8000FCF7B2FD00215020FCF7AEFDEF215120D3
:104B9000FCF7AAFD00215220FCF7A6FD40F23F11D0
:104BA0005320FCF7A1FD4FF41C516020FCF79CFD45
:104BB00001216120FCF798FD00216A20FCF794FD9B
:104BC00000218020FCF790FD00218120FCF78CFD66
:104BD00000218220FCF788FD002100E024E08320F2
:104BE000FCF782FD00218420FCF77EFD002185205A
:104BF000FCF77AFD13219020FCF776FD002192202E
:104C0000FCF772FD03219320FCF76EFD4FF48871D1
:104C10009520FCF769FD40F273110720FCF764FD55
:104C20003220FBF7D5FEB8E43448808841F20551C4
:104C300088427DD100210720FCF756FD3220FBF78A
:104C4000C7FE4FF48E711220FCF74EFD0121A42007
:104C5000FCF74AFD0F210820FCF746FD08210A2039
:104C6000FCF742FD08210D20FCF73EFD40F20771E4
:104C70003020FCF739FD07213120FCF735FD40F2EB
:104C800003613220FCF730FD4FF4E0613320FCF784
:104C90002BFD40F202213420FCF726FD02213520B5
:104CA000FCF722FD41F60F713620FCF71DFD40F2A6
:104CB00007713720FCF718FD00213820FCF714FDA0
:104CC00000213920FCF710FD40F207713A20FCF773
:104CD0000BFD00213B20FCF707FD07213C20FCF7E2
:104CE00003FD00213D20FCF7FFFC3220FBF770FEA6
:104CF00001210720FCF7F8FC012101E08C000020D5
:104D00001720FCF7F1FC3220FBF762FE4FF4BD5197
:104D10001020FCF7E9FC40F217211120FCF7E4FC1D
:104D20004FF48F711220FCF7DFFC4FF4706100E04C
:104D300098E01320FCF7D8FC00212A20FCF7D4FCD3
:104D40000A212920FCF7D0FC4FF49F711220FCF7B8
:104D5000CBFC00215020FCF7C7FCEF215120FCF7D1
:104D6000C3FC00215220FCF7BFFC40F23F1153204E
:104D7000FCF7BAFC4FF41C516020FCF7B5FC012194
:104D80006120FCF7B1FC00216A20FCF7ADFC00219A
:104D90008020FCF7A9FC00218120FCF7A5FC002164
:104DA0008220FCF7A1FC00218320FCF79DFC002160
:104DB0008420FCF799FC00218520FCF795FC132149
:104DC0009020FCF791FC4FF440719220FCF78CFC92
:104DD00005219320FCF788FC00219520FCF784FC3A
:104DE00000219720FCF780FC00219820FCF77CFC38
:104DF0004FF480710120FCF777FC4FF4E061022052
:104E0000FCF772FC41F238010320FCF76DFC002135
:104E10000420FCF769FC00210C20FCF765FC002154
:104E20000F20FCF761FC00212020FCF75DFC002135
:104E30002120FCF759FC21210720FCF755FC142008
:104E4000FBF7C6FD61210720FCF74EFC1420FBF7A1
:104E5000BFFD40F273110720FCF746FC1420FBF75E
:104E6000B7FD95E4FE4880884BF2055188427CD11D
:104E700000210846FCF738FC00210846FCF734FC0A
:104E800000210846FCF730FC00210846FCF72CFC0A
:104E90000121A420FCF728FC1420FBF799FD4FF416
:104EA0001C516020FCF720FC40F202210820FCF796
:104EB0001BFC4FF405713020FCF716FC43F2157112
:104EC0003120FCF711FC40F204613220FCF70CFCAD
:104ED00040F616613320FCF707FC42F21121342022
:104EE000FCF702FC4FF4A8513520FCF7FDFB48F21B
:104EF00007513620FCF7F8FB41F207413720FCF759
:104F0000F3FB41F203413820FCF7EEFB202139206E
:104F1000FCF7EAFB1A219020FCF7E6FB00211020A9
:104F2000FCF7E2FB07211120FCF7DEFB0021122039
:104F3000FCF7DAFB00211320FCF7D6FB1420FBF76B
:104F400047FD4FF4E6611020FCF7CEFB40F237112D
:104F50001120FCF7C9FB1420FBF73AFD4FF4DC717C
:104F60001220FCF7C1FB142000E085E0FBF730FDC8
:104F70004FF470611320FCF7B7FB80212A20FCF767
:104F8000B3FB48212920FCF7AFFB1420FBF720FDE1
:104F90004FF480710120FCF7A7FB4FF4E061022081
:104FA000FCF7A2FB41F238010320FCF79DFB40F225
:104FB00002210820FCF798FB00210A20FCF794FB53
:104FC00000210C20FCF790FB00210D20FCF78CFB4E
:104FD00030210E20FCF788FB00215020FCF784FBD9
:104FE000EF215120FCF780FB00215220FCF77CFBD5
:104FF00040F23F115320FCF777FB4FF41C51602027
:10500000FCF772FB01216120FCF76EFB00216A2096
:10501000FCF76AFB11219020FCF766FB4FF4C0619E
:105020009220FCF761FB40F202419320FCF75CFB0D
:1050300002219420FCF758FB1420FBF7C9FC012146
:105040000720FCF751FB1420FBF7C2FC612107206D
:10505000FCF74AFB40F273110720FCF745FB0021E7
:105060002020FCF741FB00212120FCF73DFB222101
:105070000020FCF739FB10E3794880884CF2055199
:1050800088427CD100210846FCF72EFB002108460F
:10509000FCF72AFB1420FBF79BFC00210846FCF7D9
:1050A00023FB00210846FCF71FFB00210846FCF704
:1050B0001BFB00210846FCF717FB0121A420FCF78D
:1050C00013FB1420FBF784FC4FF41C516020FCF709
:1050D0000BFB40F606010820FCF706FB40F20371CB
:1050E0003020FCF701FB01213120FCF7FDFA0421FF
:1050F0003220FCF7F9FA4FF481713320FCF7F4FA0F
:105100004FF440713420FCF7EFFA40F203113520E0
:10511000FCF7EAFA1F213620FCF7E6FA40F20371A9
:105120003720FCF7E1FA01213820FCF7DDFA0421F1
:105130003920FCF7D9FA15219020FCF7D5FA4FF465
:1051400082611020FCF7D0FA40F247211120FCF7D1
:10515000CBFA4FF4DE711220FCF7C6FA4FF460610F
:105160001320FCF7C1FA7820FBF732FC4FF4807172
:105170000120FCF7B9FA4FF40071022000E052E080
:10518000FCF7B2FA41F230010320FCF7ADFA082136
:105190000A20FCF7A9FA00210C20FCF7A5FA20212F
:1051A0000E20FCF7A1FA00210F20FCF79DFA002148
:1051B0002020FCF799FA00212120FCF795FA3D21E7
:1051C0002A20FCF791FA1420FBF702FC2D2129205C
:1051D000FCF78AFA00215020FCF786FA4DF2EF0125
:1051E0005120FCF781FA00215220FCF77DFA40F2B1
:1051F0003F115320FCF778FA00216120FCF774FA84
:1052000000216A20FCF770FA4FF440719220FCF7FD
:105210006BFA05219320FCF767FA4FF480710720A1
:10522000FCF762FA39E20E48808844F23151884234
:105230007ED101210020FCF757FA0A20FBF7C8FBBA
:1052400041F228611020FCF74FFA0E211220FCF7E2
:105250004BFA40F639211320FCF746FA0A2001E008
:105260008C000020FBF7B4FB40211120FCF73CFA36
:1052700050211520FCF738FA0A20FBF7A9FB1E2164
:105280001220FCF731FA0A20FBF7A2FB4FF4B151D0
:105290001020FCF729FA42F639211320FCF724FAF2
:1052A0000A20FBF795FB4FF480710120FCF71CFAF4
:1052B0004FF440710220FCF717FA41F23801032045
:1052C000FCF712FA40F202210820FCF70DFA08213F
:1052D0000A20FCF709FA00213020FCF705FA40F219
:1052E00002413120FCF700FA4FF483713220FCF7C1
:1052F000FBF940F203513320FCF7F6F94FF48271C9
:105300003420FCF7F1F940F201313520FCF7ECF9DB
:1053100040F207713620FCF7E7F940F205313720FB
:10532000FCF7E2F94FF402713820FCF7DDF900E0F8
:105330003EE040F60B713920FCF7D6F902214120FE
:10534000FCF7D2F94FF41C516020FCF7CDF9012194
:105350006120FCF7C9F94FF404719020FCF7C4F9FF
:105360004FF485719220FCF7BFF904219320FCF7DC
:10537000BBF94FF48071A020FCF7B6F9012107209A
:10538000FCF7B2F921210720FCF7AEF92321072011
:10539000FCF7AAF933210720FCF7A6F940F23311F4
:1053A0000720FCF7A1F90021A020FCF79DF974E18A
:1053B000C048808844F2355188427CD13021152084
:1053C000FCF792F910219A20FCF78EF92021112088
:1053D000FCF78AF943F228411020FCF785F90221F5
:1053E0001220FCF781F941F238011320FCF77CF917
:1053F0002820FBF7EDFA12210846FCF775F9282062
:10540000FBF7E6FA43F220411020FCF76DF943F276
:1054100038011320FCF768F94620FBF7D9FA002180
:105420003020FCF761F940F202413120FCF75CF9D1
:1054300040F207313220FCF757F94FF44171332025
:10544000FCF752F904213420FCF74EF940F20141F7
:105450003520FCF749F940F207713620FCF744F992
:1054600040F205313720FCF73FF94FF4C261382094
:10547000FCF73AF94FF4C2613920FCF735F94FF4E3
:1054800080710120FCF730F94FF440710220FCF7E5
:105490002BF941F230010320FCF726F940F6080110
:1054A0000820FCF721F908210A20FCF71DF94FF428
:1054B0001C51602000E033E0FCF716F90121612067
:1054C000FCF712F94FF49F719020FCF70DF94FF49F
:1054D00080719220FCF708F94FF480719320FCF75B
:1054E00003F94FF44051A020FCF7FEF81021A3204F
:1054F000FCF7FAF801210720FCF7F6F82121072034
:10550000FCF7F2F823210720FCF7EEF833210720FF
:10551000FCF7EAF840F233110720FCF7E5F8BCE0AD
:105520006448808841F663118842F8D1E220FCF794
:10553000C5F81D20FCF7B6F80220FCF7B3F80420EC
:10554000FCF7B0F86420FBF74FFAE020FCF7B6F860
:105550000120FCF7A7F80A20FBF73AFAE020FCF755
:10556000ADF80320FCF79EF80C20FBF731FA012080
:10557000FCF7A4F80A20FBF72BFAE620FCF79EF8CC
:105580002F20FCF78FF8FF20FCF78CF8FF20FCF7AA
:1055900089F8B020FCF792F82020FCF783F800206F
:1055A000FCF780F80020FCF77DF8EF20FCF77AF894
:1055B0000120FCF777F840F23F10FCF773F8002069
:1055C000FCF770F8B420FCF779F80120FCF76AF8D2
:1055D00040F2EF10FCF766F80020FCF763F82E208D
:1055E000FCF760F80020FCF75DF80020FCF75AF8A3
:1055F0000020FCF757F80020FCF754F8B620FCF721
:105600005DF80120FCF74EF84FF4B670FCF74AF84D
:105610000020FCF747F81720FCF744F81520FCF7AA
:1056200041F80020FCF73EF80020FCF73BF8F020A2
:10563000FCF744F80320FCF735F82920FCF73EF886
:10564000D020FCF73BF80020FCF72CF8BE20FCF73C
:1056500035F80520FCF726F8FE20FCF723F801209A
:10566000FCF720F80020FCF71DF80020FCF71AF8E2
:105670000020FCF717F8B820FCF720F80320FCF70F
:1056800011F80120FCF70EF8BA20FCF717F80120FA
:10569000FCF708F86420FBF723FD0020FBF73AFB3A
:1056A00001210548FBF7CBFA4FF6FF70FBF7FCFA38
:1056B0001FB000BD8C000020000C01402DE9F0411E
:1056C00000260121744800F00AF900287CD07348B4
:1056D000FBF73FF80746C01707EB90708010704942
:1056E000086070480068801C6E49086008460088A1
:1056F0006D490988401A85B2694800686B49096894
:10570000884212DA6A480068052190FBF1F000EB4C
:105710004000A84209DA6248006866490968884280
:1057200003DA5F480068634908605D4800685F49C4
:105730000968884209DD5A4800685F49096888425B
:1057400003DD574800685C490860C82D63DD544894
:1057500000685649096888425DDD5848007800288D
:1057600059D153480068052190FBF1F000EB40004F
:10577000A84250DA0120514908704A4800684A4955
:105780000968401A4A490860464800684649086066
:105790004B48007868B1002049490870002406E0B1
:1057A00043480068474941F82400601CC4B2092CF2
:1057B000F6DD4548007840B10020434908700120DB
:1057C0003F490870BDE8F08160E000240CE03D49ED
:1057D000601C51F8200041F82400084630F82400ED
:1057E000304486B2601CC4B2082CF0DD304800683A
:1057F000344948620846808C304486B20A2096FBC1
:10580000F0F086B24EF6602090FBF6F02F4908606B
:1058100001202F49087022480068244909688842FD
:105820001EDA2648007801281AD100202349087082
:10583000214800681F490968401A2649086008681D
:1058400000EBD0711B4A126802EB6101174A11602C
:10585000104600681849086010460068154908603D
:1058600040F6C410854211DD4FF400700F49086006
:10587000114908600F4908600A4800680A49086031
:1058800001201149087000200D49087001210248CB
:1058900000F022F800BF95E700040040002401401A
:1058A0004C000020580000205C0000206800002010
:1058B0005000002064000020600000205400002000
:1058C00071000020C8000020700000204800002067
:1058D000550000206C000020CA430282704730B59A
:1058E0000246002000230024158A05EA0103958959
:1058F00005EA010413B10CB1012000E0002030BD25
:1059000010B586B0044601210420FBF783FF182060
:105910008DF817004FF40070ADF8140003208DF8D7
:10592000160005A91E48FBF7F6F804208DF81700AD
:105930000002ADF8140005A91948FBF7ECF80121A5
:105940008803FBF767FF01940020ADF810000C20DE
:10595000ADF80E000020ADF80C00ADF80A00ADF86F
:10596000080001A90F4800F093F801210D4800F04C
:1059700033F8012240F225510A4800F063F825204F
:105980008DF8000001208DF8030000208DF8010043
:105990008DF802006846FBF7DDFE06B010BD000082
:1059A000000801400038014010B540F22551084878
:1059B00000F01EF8012809D10548001D008805499E
:1059C0000870084600780249091D088010BD0000D3
:1059D000003801404000002021B1828942F4005289
:1059E000828104E082894DF6FF731A4082817047FC
:1059F00070B50246002400230025002040F66A16F8
:105A0000B14200D100BFC1F3421501F01F030126CE
:105A100006FA03F3012D02D19689334006E0022DE8
:105A200002D1168A334001E0968A33400C120126D7
:105A300006FA04F41688344013B10CB1012000E0DA
:105A4000002070BDF0B5034600240026002500208C
:105A500040F66A17B94200D100BF1846C1F342149C
:105A600001F01F06012707FA06F5012C01D10C30C1
:105A700004E0022C01D1103000E014301AB10768A4
:105A80002F43076002E00768AF430760F0BD0000E6
:105A90002DE9F04786B005460E460024A24600BF19
:105AA000A1460027B08900B100BF2F462C8A4CF6D2
:105AB000FF700440F08804432C82AC894EF6F3104A
:105AC0000440B08831890843718908430443AC819C
:105AD000AC8A4FF6FF400440B0890443AC8201A871
