:020000040800F2
:1000000080060020CD0100084105000851040008C9
:100010003D050008190300089909000800000000C8
:10002000000000000000000000000000650600085D
:100030001D030008000000004305000851070008E8
:10004000E7010008E7010008E7010008E7010008F0
:10005000E7010008E7010008E7010008E7010008E0
:10006000E7010008E7010008E7010008E7010008D0
:10007000E7010008E7010008E7010008E7010008C0
:10008000E7010008E7010008E7010008E7010008B0
:10009000E7010008E7010008E7010008E7010008A0
:1000A000E7010008E7010008E7010008E701000890
:1000B000E7010008E7010008E7010008E701000880
:1000C000E7010008E7010008E7010008E701000870
:1000D000E7010008E7010008E7010008E701000860
:1000E000E7010008E7010008E7010008E701000850
:1000F000E7010008E7010008E7010008E701000840
:10010000E7010008E7010008E7010008E70100082F
:10011000E7010008E7010008E7010008E70100081F
:10012000E7010008E7010008E7010008E70100080F
:1001300000F002F800F03AF80AA090E8000C8244BF
:100140008344AAF10107DA4501D100F02FF8AFF29C
:10015000090EBAE80F0013F0010F18BFFB1A43F0A5
:10016000010318471809000038090000103A24BF9D
:1001700078C878C1FAD8520724BF30C830C144BF0C
:1001800004680C607047000000230024002500264E
:10019000103A28BF78C1FBD8520728BF30C148BFEA
:1001A0000B6070471FB51FBD10B510BD00F063F8A0
:1001B0001146FFF7F7FF00F0F1FB00F081F803B400
:1001C000FFF7F2FF03BC00F089F800000948804700
:1001D00009480047FEE7FEE7FEE7FEE7FEE7FEE729
:1001E000FEE7FEE7FEE7FEE704480549054A064B41
:1001F00070470000710700083101000880000020EE
:1002000080060020800200208002002010B5203AE5
:10021000C0F00B80B1E81850203AA0E81850B1E8BF
:100220001850A0E81850BFF4F5AF5FEA027C24BF75
:10023000B1E81850A0E8185044BF18C918C0BDE86C
:1002400010405FEA827C24BF51F8043B40F8043B35
:1002500008BF7047D20728BF31F8023B48BF11F8EA
:10026000012B28BF20F8023B48BF00F8012B704744
:10027000704770477047754600F02CF8AE46050091
:100280006946534620F00700854618B020B5FFF7B1
:10029000ABFFBDE820404FF000064FF000074FF0E5
:1002A00000084FF0000B21F00701AC46ACE8C00994
:1002B000ACE8C009ACE8C009ACE8C0098D4670479D
:1002C00010B50446AFF300802046BDE81040FFF7AC
:1002D00076BF000000487047200000200149182028
:1002E000ABBEFEE7260002007047000008B5012102
:1002F000102000F027F910208DF803000120ADF840
:10030000000003208DF802006946024800F007F85B
:1003100008BD00000010014000BFFEE770472DE956
:10032000F04102460025002600200023002400277B
:1003300091F803C00CF00F0591F803C00CF0100CFD
:10034000BCF1000F03D091F802C04CEA050591F80A
:1003500000C0BCF1000F31D0146800202BE04FF03A
:10036000010C0CFA00F3B1F800C00CEA03069E423F
:1003700020D183004FF00F0C0CFA03F7BC4305FAB1
:1003800003FC4CEA040491F803C0BCF1280F06D129
:100390004FF0010C0CFA00FCC2F814C00AE091F80E
:1003A00003C0BCF1480F05D14FF0010C0CFA00FC62
:1003B000C2F810C0401C0828D1D31460B1F800C0A6
:1003C000BCF1FF0F34DD546800202EE000F1080C72
:1003D0004FF0010808FA0CF3B1F800C00CEA03066C
:1003E0009E4221D183004FF00F0C0CFA03F7BC435F
:1003F00005FA03FC4CEA040491F803C0BCF1280F91
:1004000005D100F1080C08FA0CF8C2F8148091F834
:1004100003C0BCF1480F07D100F1080C4FF00108F0
:1004200008FA0CF8C2F81080401C0828CED354609B
:10043000BDE8F0810246002093680B400BB101201B
:1004400000E0002070470AB1016100E0416170479F
:1004500000BFFEE708B50121442000F073F8042036
:100460008DF803000120ADF8000003208DF8020094
:1004700069460548FFF753FF7020ADF80000694654
:100480000248FFF74CFF08BD000801400010014082
:1004900010B501211248FFF7CDFF012806D1114800
:1004A0000068401C0F490860002010BD0D4800681E
:1004B000B0F57A7F04D300200A4908600520F4E7EC
:1004C00008480068B0F5FA7F04D8002005490860A4
:1004D0000320EAE700200349086000BFE5E70000C9
:1004E000000801400800002008B50121402000F06C
:1004F00029F810208DF803003C20ADF800000320FF
:100500008DF8020069460C48FFF709FF012204211B
:100510000948FFF798FF012208210748FFF793FFDA
:10052000012210210448FFF78EFF012220210248FA
:10053000FFF789FF08BD00000018014000BFFEE77B
:100540007047704729B1064A92690243044B9A6189
:1005500004E0034A92698243014B9A6170470000AC
:100560000010024030B500210022002400232D4D50
:100570006D6805F00C0121B1042905D0082923D1AB
:1005800005E0294D056022E0274D05601FE0254D5F
:100590006D6805F47012234D6D6805F480340225F2
:1005A00005EB92421CB9214D554305600BE01D4DF2
:1005B0006D6805F400351DB11C4D5543056002E022
:1005C000194D5543056002E0174D056000BF00BF9F
:1005D000144D6D6805F0F0010909154D6B5C056857
:1005E000DD4045600F4D6D6805F4E061090A104D6E
:1005F0006B5C4568DD4085600A4D6D6805F46051AF
:10060000C90A0B4D6B5C4568DD40C560054D6D68E2
:1006100005F44041890B074D6B5CC568B5FBF3F5EC
:10062000056130BD0010024000127A0000093D0053
:100630000C0000201C00002008B501210420FFF759
:1006400081FF10208DF803004FF4E070ADF800003A
:1006500003208DF8020069460148FFF760FE08BDDF
:1006600000080140704710B500F002F810BD00000E
:100670000CB50020019000903348006840F48030B1
:100680003149086000BF3048006800F40030009035
:100690000198401C0190009818B90198B0F5A06F1E
:1006A000F1D12948006800F4003010B10120009019
:1006B00001E0002000900098012843D12348006801
:1006C00040F01000214908600846006820F003004F
:1006D00008600846006840F0020008601A48406858
:1006E000194948600846406848600846406840F438
:1006F000806048600846406820F47C1048600846E6
:10070000406840F4E81048600846006840F0807097
:10071000086000BF0C48006800F000700028F9D0A5
:100720000948406820F003000749486008464068CF
:1007300040F00200486000BF0348406800F00C0031
:100740000828F9D10CBD0000001002400020024032
:1007500010B505480068401C03490860FFF798FE83
:100760000249087010BD00000000002004000020B5
:1007700010B51348006840F00100114908600846B0
:100780004068104908400E494860084600680E4914
:1007900008400B4908600846006820F48020086083
:1007A0000846406820F4FE0048604FF41F0088604F
:1007B000FFF759FF4FF000600449086010BD0000CA
:1007C000001002400000FFF8FFFFF6FE08ED00E019
:1007D00010B586B0044601210420FFF7B3FE1820AF
:1007E0008DF817004FF40070ADF8140003208DF859
:1007F000160005A91448FFF792FD04208DF8170094
:100800000002ADF8140005A90F48FFF788FD01218B
:100810008803FFF797FE01940020ADF810000C202C
:10082000ADF80E000020ADF80C00ADF80A00ADF8F0
:10083000080001A9054800F03FF80121034800F035
:1008400022F806B010BD0000000801400038014049
:1008500010B5044600BF4021044800F020F80028ED
:10086000F9D02146014800F093F810BD003801404E
:1008700010B5044603E02078FFF7EAFF641C2078F7
:100880000028F8D110BD21B1828942F40052828142
:1008900004E082894DF6FF731A4082817047024658
:1008A0000020B1F5007F00D100BF13880B400BB1D1
:1008B000012000E0002070472DE9F04786B0054692
:1008C0000E460024A24600BFA1460027B08900B111
:1008D00000BF2F462C8A4CF6FF700440F08804437A
:1008E0002C82AC894EF6F3100440B088318908435D
:1008F000718908430443AC81AC8A4FF6FF40044041
:10090000B0890443AC8201A8FFF72CFE1F48874240
:1009100002D1DDF810A001E0DDF80CA0A88900F4F8
:10092000004040B10AEBCA0000EB0A1031684900F0
:10093000B0FBF1F807E00AEBCA0000EB0A103168DF
:100940008900B0FBF1F86420B8FBF0F00401200945
:10095000642101FB1089A88900F4004040B13220D5
:1009600000EBC900B0FBF1F000F00700044308E021
:10097000322000EB09106421B0FBF1F000F00F0011
:1009800004432C8106B0BDE8F08700000038014028
:10099000C1F308028280704700BFFEE786B0FFF710
:1009A000A3FDFFF749FEFFF755FDFFF79FFC274921
:1009B000481EB0F1807F00D31BE0481E4FF0E022BC
:1009C000506150170F22002804DB13071C0E204B28
:1009D0001C5406E013071D0E1E4B00F00F04241FCD
:1009E0001D5500BF00204FF0E022906107201061EC
:1009F00000BF4FF4E130FFF7EBFE01224021164823
:100A0000FFF721FD012280211348FFF71CFD012281
:100A100011021148FFF717FD00BF14220F4901A86A
:100A2000FFF7F4FB10E00E480068B0F5FA7F0BD337
:100A30000C48006880F004000A490860002008495A
:100A4000086001A8FFF714FFEDE70000401901005E
:100A500000E400E018ED00E000080140680A00082A
:100A6000000000200C18014068656C6C6F20776FE7
:100A7000726C64210D0A0000000000009C0A00084E
:100A800000000020200000006C010008BC0A0008E3
:100A9000200000206006000088010008000000001F
:100AA000000000000000000000000000010203043C
:0C0AB000010203040607080902040608FE
:0400000508000131BD
:00000001FF
