:020000040800F2
:100000003804002045010008DD140008F906000846
:10001000D9140008E503000845540008000000005A
:10002000000000000000000000000000951600081D
:10003000E9030008000000005115000881170008BE
:100040005F0100085F0100085F0100085F01000810
:100050005F0100085F0100085F0100085F01000800
:100060005F0100085F0100085F0100085F010008F0
:100070005F0100085F0100085F0100085F010008E0
:100080005F0100085F0100085F0100085F010008D0
:100090005F0100085F0100085F0100085F010008C0
:1000A0005F0100085F0100085F0100085F010008B0
:1000B0005F0100085F0100085F0100085F010008A0
:1000C0005F0100085F0100085F0100085F01000890
:1000D0005F010008855200085F0100085F01000809
:1000E0005F0100085F0100085F0100085F01000870
:1000F0005F0100085F0100085F0100085F01000860
:100100005F0100085F0100085F0100085F0100084F
:100110005F0100085F0100085F0100085F0100083F
:100120005F0100085F0100085F0100085F0100082F
:10013000DFF80CD000F01EF90048004769540008B1
:10014000380400200648804706480047FEE7FEE7DF
:10015000FEE7FEE7FEE7FEE7FEE7FEE7FEE7FEE777
:10016000A1170008310100082DE9FE4F81EA0304C0
:1001700004F0004421F0004100944FF0000B23F004
:10018000004350EA01045ED052EA03045BD0C3F39B
:100190000A54C1F30A552C44A4F2F3340194A0FB91
:1001A0000254C1F3130141F48011C3F3130343F468
:1001B000801301FB024400FB034E840A970A44EAC1
:1001C000815447EA8357A4FB076802958D0A05FB13
:1001D00007854FEA932C04FB0C542705029D4FEA38
:1001E000065847EA1637B5EB08056EEB070C870E85
:1001F000920E47EA811742EA8312A7FB0201B6EB8F
:100200000B0164EB00042B0D43EA0C335E1844EB46
:100210001C50DA465146E7FB0201C5F313044FEACE
:100220000B3343EA14534FEA0432019C43EA0603BA
:10023000A4F10C040294009CCDE900B400F04BF84A
:1002400003B0BDE8F08F00200146F9E70EB540F29B
:10025000334102910021CDE900110A460B4600F01E
:100260003AF803B000BDC1F30A5210B5C1F313014F
:1002700040F2FF3341F480119A4201DA002010BDB0
:1002800040F233439A42A2F2334203DC524200F07E
:1002900003F810BD904010BD202A04DB203A21FA5B
:1002A00002F00021704721FA02F3D040C2F120028F
:1002B000914008431946704710B5141E73F10004AD
:1002C00008DA401C41F1000192185B411A4301D148
:1002D00020F0010010BD2DE9F04D92469B4611B172
:1002E000B1FA81F202E0B0FA80F22032904600F0DA
:1002F00053F804460F4640EA0A0041EA0B01534610
:100300005A46084313D0114653EA010019D0C8F1E8
:1003100040025046FFF7C0FF05460E46504659467C
:10032000424600F039F8084305D0012004E0204699
:100330003946BDE8F08D0020054346EAE0762C43BF
:1003400037430A986305E40AA0EB08000022FD0A7F
:1003500044EA47540A3002D500200146E9E7010586
:1003600010196941DDE9084500196941BDE8F04D02
:10037000A2E70000064C074D06E0E06840F00103EC
:1003800094E8070098471034AC42F6D3FFF7D4FE48
:100390005873010878730108202A04DB203A00FA18
:1003A00002F1002070479140C2F1200320FA03F3CC
:1003B000194390407047000008B50121102001F05A
:1003C000D9F810208DF803000120ADF800000320BB
:1003D0008DF802006946024800F0F3F808BD0000FD
:1003E0000010014000BFFEE7704700BF00BF00BF24
:1003F00000BF00BF00BF00BF00BF00BF00BF00BF05
:1004000000BF00BF00BF00BF00BF00BF00BF00BFF4
:1004100000BF00BF00BF00BF00BF00BF00BF00BFE4
:1004200000BF00BF00BF00BF00BF00BF00BF00BFD4
:1004300000BF00BF00BF00BF00BF00BF00BF00BFC4
:1004400000BF00BF00BF00BF00BF00BF00BF00BFB4
:1004500000BF00BF00BF00BF00BF00BF00BF00BFA4
:1004600000BF00BF00BF00BF00BF00BF00BF00BF94
:1004700000BF00BF00BF00BF00BF704700B503460C
:1004800003E04FF47A7000F005F8181EA3F10103A1
:10049000F7D100BD00B501E0FFF7A7FF011EA0F1F5
:1004A0000100F9D100BD000051B18200A2F1C042AB
:1004B000126842F001038200A2F1C042136009E019
:1004C0008200A2F1C0421268034B1A408300A3F1DC
:1004D000C0431A6070470000FEFF0F00D0E9011210
:1004E0001143C26811430269114342691143826991
:1004F0001143C2691143026A1143426A1143826A7D
:100500001143C26A1143026B114302689200A2F1C7
:10051000C0421160816808290BD101688900A1F1EE
:10052000C041096841F0400201688900A1F1C04161
:100530000A60416B0968426B526841EA0211426BE2
:10054000926841EA0221426B928941EA0241426B80
:10055000128A41EA0251426B127D41EA0261426B0A
:10056000926911430268521C9200A2F1C0421160CC
:10057000C16AB1F5804F1BD1816B0968826B5268EB
:1005800041EA0211826B926841EA0221826B128A6F
:1005900041EA0251826B127D41EA0261826B9269EB
:1005A000114302689200A2F1C042C2F8041107E0B0
:1005B0006FF0704201688900A1F1C041C1F80421C7
:1005C00070472DE9F0410246002500260020002357
:1005D0000024002791F803C00CF00F0591F803C028
:1005E0000CF0100CBCF1000F03D091F802C04CEAE3
:1005F000050591F800C0BCF1000F31D0146800204F
:100600002BE04FF0010C0CFA00F3B1F800C00CEA3B
:1006100003069E4220D183004FF00F0C0CFA03F723
:10062000BC4305FA03FC4CEA040491F803C0BCF196
:10063000280F06D14FF0010C0CFA00FCC2F814C0D0
:100640000AE091F803C0BCF1480F05D14FF0010C4E
:100650000CFA00FCC2F810C0401C0828D1D314606A
:10066000B1F800C0BCF1FF0F34DD546800202EE06B
:1006700000F1080C4FF0010808FA0CF3B1F800C0C3
:100680000CEA03069E4221D183004FF00F0C0CFAB6
:1006900003F7BC4305FA03FC4CEA040491F803C0D9
:1006A000BCF1280F05D100F1080C08FA0CF8C2F8CB
:1006B000148091F803C0BCF1480F07D100F1080C79
:1006C0004FF0010808FA0CF8C2F81080401C082806
:1006D000CED35460BDE8F0810246002093680B4001
:1006E0000BB1012000E000207047016170470AB1A2
:1006F000016100E04161704700BFFEE708B50121DC
:10070000442000F037FF04208DF803000120ADF8ED
:10071000000003208DF8020069460548FFF751FFED
:100720007020ADF8000069460248FFF74AFF08BD97
:10073000000801400010014010B501211248FFF7E8
:10074000CBFF012806D111480068401C0F49086002
:10075000002010BD0D480068B0F57A7F04D300205A
:100760000A4908600520F4E708480068B0F5FA7FF8
:1007700004D80020054908600320EAE70020034967
:10078000086000BFE5E70000000801400800002005
:1007900070B504460026174805884088454315482B
:1007A000808846F60401884216D1124880790128D3
:1007B00012D100200F4988712A2048812B2088817E
:1007C0000021084600F0E0FA01200A4988712B2038
:1007D00048812A20888103E00021084600F0D4FAED
:1007E00000F03EFE002602E003480480761CAE4284
:1007F000FAD370BD280000200008006C10B5044634
:10080000002C73D179498871F02008804FF4A070D2
:1008100048800846808849F24131884211D07348A7
:10082000808849F2864188420BD07048808846F61D
:100830000401884205D06D48808845F21031884215
:1008400020D12C20694908812A2048812B208881C9
:100850000846808846F6040188420BD063488088A9
:1008600045F21031884205D06048808849F28641BF
:10087000884206D14FF4A0705C4908804FF4F070B4
:100880004880AEE05948808845F21051884210D126
:100890004FF43050554908814FF4285048814FF4A7
:1008A0002C5088814FF4F07008804FF448704880D5
:1008B00097E04E48808841F6631188420DD12C2084
:1008C0004A4908812B2048812A2088814FF4F07002
:1008D00008804FF44870488083E022204349088113
:1008E00020204881212088817BE0FFE701203F49CB
:1008F00088714FF4A0700880F020488008468088F6
:1009000049F2413188420BD03848808849F286410B
:10091000884205D03548808845F21031884207D199
:100920002C20324908812A2048812B2088813FE0F1
:100930002E48808846F60401884207D12C202B4996
:1009400008812B2048812A20888131E0274880882F
:1009500045F21051884210D14FF43050234908819C
:100960004FF4285048814FF42C5088814FF4487040
:1009700008804FF4F07048801AE01C48808841F6E7
:10098000631188420DD12C20184908812A20488102
:100990002B2088814FF4487008804FF4F070488015
:1009A00006E02220114908812120488120208881E9
:1009B0000E48808846F6040188420BD00B48808898
:1009C00045F21031884205D00848808849F28641B6
:1009D000884206D14FF4F070044908804FF4A070AB
:1009E0004880002000F054F810BD000028000020CE
:1009F00070B505460E4614463146284600F0C4F947
:100A000000F02EFD0148048070BD00000008006C5D
:100A100008B5034800880090BDF8000008BD00003C
:100A20000008006C10B50446204600F00DFD0520BE
:100A3000FFF730FDFFF7ECFF10BD00002DE9F04798
:100A40000446BE2000F000FD052000F0F1FC204629
:100A5000FFF7FCFB07464FF066320C4BFFF784FBB9
:100A60000546FFF700FC1FFA80F9484600F0E0FC5D
:100A7000012000F0DDFCFF2000F0DAFC002000F097
:100A8000D7FC002000F0D4FCBDE8F0876666044087
:100A9000F0B5054600240027BA48807901280BD11B
:100AA000B848808846F60401884205D0B548808859
:100AB00041F66311884208D1B2488079F0B9B14853
:100AC000808841F66311884218D1082D15D2DFE8DD
:100AD00005F00406080A0C0E101206250DE0072585
:100AE0000BE0042509E0052507E0012505E00025C8
:100AF00003E0032501E0022500BF00BFA148808874
:100B000049F2413188421DD09E48808849F2864191
:100B1000884217D09B48808846F60401884211D04D
:100B20009848808845F2103188420BD095488088DB
:100B300045F21051884205D09248808841F66311F1
:100B400088427DD1082D1CD2DFE805F00406090C8F
:100B50000F12151800BF14E044F0800411E044F0B7
:100B600040040EE044F0C0040BE044F0200408E030
:100B700044F0600405E044F0A00402E044F0E00426
:100B800000BF00BF7F48808845F21051884202D1E3
:100B90004FF4585700E036277A48808845F21031E4
:100BA00088420DD07748808845F21051884207D09E
:100BB0007448808841F66311884201D044F00804EB
:100BC0007048808846F60401884201D144F002044E
:100BD0002146384600F04EFC6A48808841F6631191
:100BE00088421DD004F0200068B16648008865493D
:100BF0004988884214DA6348068840886149088039
:100C0000084646800CE05F4800885E494988884273
:100C100006DD5C48068840885A49088008464680B8
:100C20005848808845F21051884254D15549488926
:100C300000F00AFC002000F0FBFB5249498900E06B
:100C400078E0491C88B200F0FFFB002000F0F0FBC8
:100C50004C494989891C88B200F0F6FB494909884A
:100C6000491EC1F30F2000F0E3FB46494989C91C26
:100C700088B200F0E9FB43490978491EC8B200F088
:100C8000D7FB4049888900F0DFFB002000F0D0FB53
:100C90003C498989491C88B200F0D6FB002000F04D
:100CA000C7FB38498989891C88B200F0CDFB3549DA
:100CB0004988491EC1F30F2000F0BAFB31498989E8
:100CC000C91C88B200F0C0FB2E498978491EC8B201
:100CD00000F0AEFB55E02B49488900F0B5FB002041
:100CE00000F0A6FB002000F0A3FB26490988491E5E
:100CF000C1F30F2000F09CFB22490978491EC8B2BD
:100D000000F096FB1F49888900F09EFB002000F050
:100D10008FFB002000F08CFB1A494988491EC1F363
:100D20000F2000F085FB17498978491EC8B200F0F2
:100D30007FFB26E0082D1CD2DFE805F004070A0D32
:100D40000F12151844F0300413E044F0100410E0C2
:100D500044F020040DE000BF0BE044F0380408E04C
:100D600044F0280405E044F0180402E044F00804CC
:100D700000BF00BF032744F480542146384600F0EA
:100D800079FBF0BD2800002030B504460D468148AF
:100D9000808849F24131884205D07E48808845F2FA
:100DA0001031884214D17B49488900F04DFB201254
:100DB00000F03EFBE0B200F03BFB7649888900F092
:100DC00043FB281200F034FBE8B200F031FBE0E016
:100DD0007048808849F2864188422ED16D49488901
:100DE00000F032FB201200F023FBE0B200F020FB09
:100DF00068490988491EC1F30F2000F019FB6549B5
:100E00000978491EC8B200F013FB6249888900F0D6
:100E10001BFB281200F00CFBE8B200F009FB5D4957
:100E20004988491EC1F30F2000F002FB5949897817
:100E3000491EC8B200F0FCFAABE05648808846F67E
:100E4000040188421DD153488079012804D15148BA
:100E50000088401E001B84B24E49488900F0F4FA15
:100E6000201200F0E5FAE0B200F0E2FA4949888980
:100E700000F0EAFA281200F0DBFAE8B200F0D8FA43
:100E800087E04448808841F66311884247D1414851
:100E90008079A8B93F480088401E001B84B23D49B4
:100EA000488900F0D1FA002000F0C2FA002000F0DA
:100EB000BFFA201200F0BCFAE0B200F0B9FA16E076
:100EC0003449488900F0C0FA201200F0B1FAE0B2CB
:100ED00000F0AEFA2F490988491EC1F30F2000F037
:100EE000A7FA2C490978491EC8B200F0A1FA29498D
:100EF000888900F0A9FA281200F09AFAE8B200F006
:100F000097FA24494988491EC1F30F2000F090FA4E
:100F100020498978491EC8B200F08AFA39E01D4894
:100F2000808845F21051884220D11A49488900F042
:100F30008BFA201200F07CFA16494989491C88B2C4
:100F400000F082FAE0B200F073FA1249888900F0EA
:100F50007BFA281200F06CFA0E498989491C88B284
:100F600000F072FAE8B200F063FA12E00948807902
:100F7000012804D107480088401E001B84B205499F
:100F80004889214600F076FA02498889294600F00E
:100F900071FA30BD280000202DE9FF4F81B0804656
:100FA0000E46DDE90E74B3462046E31704EB537397
:100FB000DB1021464FEAE47C04EB5C7C4FEAEC0C4E
:100FC000A4EBCC0CBCF1000F02D04FF0010C01E0FF
:100FD0004FF0000C6344224604EBD27C4FEA6C0CC9
:100FE00003FB0CF3DBB20093A7F12000C7B200258E
:100FF00055E00C2C07D107EB47002B4901EB800093
:1010000010F8059014E0102C05D1284800EB0710CB
:1010100010F805900CE0182C07D107EBC700244905
:1010200001EB800010F8059002E005B0BDE8F08FFC
:101030004FF0000A2DE009F0800028B1314640460B
:10104000049AFFF7D5FC06E0109820B931464046D7
:10105000039AFFF7CDFC4FEA49604FEA1069701C14
:1010600086B214484088B04200DCDEE7A6EB0B00F5
:10107000A0420AD15E4608F101001FFA80F80D482F
:101080000088404500DCD0E706E00AF1010000F0EE
:10109000FF0ABAF1080FCEDB00BF681CC5B200988A
:1010A0008542A6DB00BFC0E7E0550008545A00089F
:1010B00044600008280000202DE9F84F04460F4640
:1010C000154698460A9E4FF00009CA46A3460020DE
:1010D000009000BF20E04FF0000917E070783178F1
:1010E00040EA0120009039462046009AFFF780FC34
:1010F000601C84B20BEB0500A04202DC5C46781C4D
:1011000087B2B61C09F101001FFA80F9A945E5DB99
:101110000AF101001FFA80FAC245DCDBBDE8F88F56
:101120002DE9FF4F84B080468946DDE9117A08F049
:10113000FF0003900698404480B206900798484408
:1011400080B2079062E19AF80000A0286FDD06984F
:10115000804505DBDDF80C8009EB07001FFA80F9FC
:101160000798814500DB56E10C2F5CD1002557E044
:1011700005EB850000EBC500A94911F810009AF8AD
:10118000001088424AD105EB850000EBC500A44958
:1011900001EB400040789AF8011088423ED10024CB
:1011A00039E005EB850000EBC5009D4901EB4000EF
:1011B000801C6100491C415C05EB850000EBC5000B
:1011C000974A02EB4000801C10F8140041EA002B03
:1011D00000261CE00BFA06F000F4004048B109EBD1
:1011E000040291B208EB060290B2149AFFF700FCD9
:1011F0000BE0139848B909EB040291B208EB060220
:1012000090B2884A1288FFF7F3FB701CC6B2BE4248
:10121000E0DB601CC4B2BC42C3DB03E0681C85B2E7
:10122000322DA5DBC8E0102F56D1002550E0CAE0D2
:1012300005EB05107C4911F810009AF8001088425F
:1012400044D105EB0510784901EB400040789AF84D
:10125000011088423AD1002435E005EB05107249AF
:1012600001EB4000801C6100491C415C05EB05104E
:101270006D4A02EB4000801C10F8140041EA002B7C
:1012800000261CE00BFA06F000F4004048B109EB20
:10129000040291B208EB060290B2149AFFF7A8FB81
:1012A0000BE0139848B909EB040291B208EB06026F
:1012B00090B25C4A1288FFF79BFB701CC6B2BE421C
:1012C000E0DB601CC4B2BC42C7DB04E0681C85B232
:1012D000B5F5FA7FACDB6FE0182F6DD1002568E023
:1012E00005EB850000EB4510504911F810009AF805
:1012F000001088425BD105EB850000EB45104B499F
:1013000001EB400040789AF8011088424FD1002448
:101310004AE005EB850000EB4510444901EB400035
:10132000801C04EB4401405C020405EB850000EBEB
:1013300045103E4901EB4001891C04EB4400401C70
:10134000085C42EA002005EB850101EB4511374AB4
:1013500002EB4101891C04EB4402921C895C40EAC7
:10136000010B00261CE00BFA06F000F4000048B167
:1013700009EB040291B208EB060290B2149AFFF74F
:1013800037FB0BE0139848B909EB040291B208EB64
:10139000060290B2234A1288FFF72AFB701CC6B2DD
:1013A000BE42E0DB601CC4B2BC42B2DB03E0681C9E
:1013B00085B2322D94DB00BF08EB07001FFA80F8DE
:1013C0000AF1020A22E00698804505DBDDF80C8070
:1013D00009EB07001FFA80F90798814500DB1AE046
:1013E0009AF800101398CDE9001702900D48028872
:1013F00049464046149BFFF7CFFD384607EBD071B6
:1014000008EB61011FFA81F80AF1010A9AF800005D
:1014100000287FF498AE00BF08B0BDE8F08F000050
:10142000A06D000810000020B47200081CB5000870
:1014300001B5BDF800000090BDF80000014908802A
:1014400008BD00000008006C01B5BDF80000009068
:10145000BDF800000149088008BD0000FE07006CCF
:1014600002480089024908807047000028000020D7
:10147000FE07006C024A1080921C11807047000029
:10148000FE07006C08B50121402000F073F8102021
:101490008DF803003C20ADF8000003208DF8020019
:1014A00069460C48FFF78DF8012204210948FFF72F
:1014B0001EF9012208210748FFF719F9012210211E
:1014C0000448FFF714F9012220210248FFF70FF921
:1014D00008BD00000018014000BFFEE77047000093
:1014E00070B5002100230F22C47804B3154C246882
:1014F00004F4E064C4F5E064210AC1F10403CA40C5
:10150000447804FA03F184781440214309010E4C15
:101510000678A155047804F01F050124AC40057835
:101520006D11AD0005F1E025C5F8004109E0047832
:1015300004F01F050124AC40044D0678761145F8EF
:10154000264070BD0CED00E000E400E080E100E02A
:101550007047000029B1064A52690243044B5A61A0
:1015600004E0034A52698243014B5A61704700000C
:101570000010024029B1064A92690243044B9A6165
:1015800004E0034A92698243014B9A61704700006C
:101590000010024030B500210022002400232D4D10
:1015A0006D6805F00C0121B1042905D0082923D16B
:1015B00005E0294D056022E0274D05601FE0254D1F
:1015C0006D6805F47012234D6D6805F480340225B2
:1015D00005EB92421CB9214D554305600BE01D4DB2
:1015E0006D6805F400351DB11C4D5543056002E0E2
:1015F000194D5543056002E0174D056000BF00BF5F
:10160000144D6D6805F0F0010909154D6B5C056816
:10161000DD4045600F4D6D6805F4E061090A104D2D
:101620006B5C4568DD4085600A4D6D6805F460516E
:10163000C90A0B4D6B5C4568DD40C560054D6D68A2
:1016400005F44041890B074D6B5CC568B5FBF3F5AC
:10165000056130BD0010024000127A0000093D0013
:10166000120000202200002008B501210420FFF70D
:1016700081FF10208DF803004FF4E070ADF80000FA
:1016800003208DF8020069460148FEF79AFF08BD65
:1016900000080140704710B500F002F810BD0000CE
:1016A0000CB50020019000903348006840F4803071
:1016B0003149086000BF3048006800F400300090F5
:1016C0000198401C0190009818B90198B0F5A06FDE
:1016D000F1D12948006800F4003010B101200090D9
:1016E00001E0002000900098012843D123480068C1
:1016F00040F01000214908600846006820F003000F
:1017000008600846006840F0020008601A48406817
:10171000194948600846406848600846406840F4F7
:10172000806048600846406820F47C1048600846A5
:10173000406840F4E81048600846006840F0807057
:10174000086000BF0C48006800F000700028F9D065
:101750000948406820F0030007494860084640688F
:1017600040F00200486000BF0348406800F00C00F1
:101770000828F9D10CBD00000010024000200240F2
:1017800010B505480068401C03490860FEF7D4FF07
:101790000249087010BD0000000000200400002075
:1017A00010B51348006840F0010011490860084670
:1017B0004068104908400E494860084600680E49D4
:1017C00008400B4908600846006820F48020086043
:1017D0000846406820F4FE0048604FF41F0088600F
:1017E000FFF759FF4FF000600449086010BD00008A
:1017F000001002400000FFF8FFFFF6FE08ED00E0D9
:1018000000B59FB000201E9001210802FFF7A2FE44
:1018100001214FF4B470FFF7ADFE0120ADF8740064
:1018200010208DF8770003208DF876001DA9FE4862
:10183000FEF7C7FE4CF23370ADF8740018208DF837
:10184000770003208DF876001DA9F848FEF7B9FE51
:101850004FF68070ADF8740018208DF877000320E3
:101860008DF876001DA9F248FEF7ABFE41F20100AB
:10187000ADF8740018208DF8770003208DF87600FD
:101880001DA9EC48FEF79DFE01200790002008905E
:101890000F20099000200A900B900C900D90009062
:1018A0000190032002900020039004900590069080
:1018B00006200E9000200F90109010201190002014
:1018C000129014901390159016904FF4805017902A
:1018D000002018904FF48040199000201A9007A81B
:1018E0001B90CDF870D00EA8FEF7F8FD0121062060
:1018F000FEF7DAFD3220FEF7C1FD01210020FFF7DF
:10190000B9FD3220FEF7BAFD0020FFF78BF8CA4977
:10191000888008468088FF280FDB084680884FF6BD
:10192000FF71884209D0C4488088B0F5134F04D0B5
:10193000C1488088B0F5144F7ED1D320FFF784FDD5
:10194000FFF766F8BC498880FFF762F8BA498880DB
:10195000FFF75EF8B8498880084680884FF6FF7127
:1019600001EA0020B4498880FFF752F8B24989881B
:101970000843B14988800846808849F2413188424D
:101980005AD0AD48808849F286418842F8D0BF20BD
:10199000FFF75AFDFFF73CF8A7498880FFF738F8B2
:1019A000A5498880FFF734F8A3498880FFF730F80D
:1019B000A1498880084680884FF6FF7101EA00201F
:1019C0009D498880FFF724F89B49898808439A49F4
:1019D00088800846808846F6040188427AD0D42060
:1019E000FFF732FDFFF714F893498880FFF710F8EE
:1019F00091498880FFF70CF88F49888008468088D5
:101A00004FF6FF7101EA00208B498880FFF700F84C
:101A1000894989880843884988800846808845F232
:101A20001031884256D04FF45A40FFF70DFDFEF7B3
:101A3000EFFF8149888000E04CE04FF45B40FFF706
:101A400003FDFEF7E5FF7C498880084680884FF655
:101A5000FF7101EA0020784988804FF45C40FFF76D
:101A6000F3FCFEF7D5FF74498988084372498880E2
:101A700008468088B0F5004F02D145F210508880AA
:101A80006D48808845F21051884223D0A120FFF78D
:101A9000DBFCFEF7BDFF68498880FEF7B9FF6649A9
:101AA0008880084680884FF6FF7101EA002062496D
:101AB0008880FEF7ADFF6049898808435E498880C9
:101AC0000846808845F26171884203D141F663106F
:101AD000594988805848808849F24131884211D05C
:101AE0005548808845F2103188420BD05248808892
:101AF00045F21051884205D04F48808841F6631165
:101B000088421DD14D48006820F00F004FF0204161
:101B1000C1F81C010846D0F81C0120F47060C1F81F
:101B20001C010846D0F81C0140F00300C1F81C015C
:101B30000846D0F81C0140F40070C1F81C0128E0F0
:101B40003D48808846F60401884205D03A4880889E
:101B50004CF2055188421CD13848006820F00F0033
:101B60004FF02041C1F81C010846D0F81C0120F4B8
:101B70007060C1F81C010846D0F81C0140F00A0052
:101B8000C1F81C010846D0F81C0140F44060C1F8BF
:101B90001C012948808849F2413188427ED1CF20FA
:101BA000FFF752FC0020FFF743FCC120FFF740FC89
:101BB0003020FFF73DFCED20FFF746FC6420FFF7E7
:101BC00037FC0320FFF734FC1220FFF731FC8120A3
:101BD000FFF72EFCE820FFF737FC8520FFF728FCF5
:101BE0001020FFF725FC7A20FFF722FCCB20FFF71F
:101BF0002BFC3920FFF71CFC2C20FFF719FC0020E0
:101C0000FFF716FC3420FFF713FC0220FFF710FC4F
:101C1000F720FFF719FC2020FFF70AFCEA20FFF766
:101C200013FC00200CE00000000C014000140140F7
:101C30000018014000200140280000201C0100A0E5
:101C4000FFF7F6FB0020FFF7F3FBC020FFF7FCFBDC
:101C50001B20FFF7EDFBC120FFF7F6FB0120FFF78C
:101C6000E7FBC520FFF7F0FB3020FFF7E1FB30205A
:101C7000FFF7DEFBC720FFF7E7FBB720FFF7D8FB36
:101C80003620FFF7E1FB4820FFF7D2FB3A20FFF7B1
:101C9000DBFB5520FFF7CCFBB12000E0A5E0FFF710
:101CA000D3FB0020FFF7C4FB1A20FFF7C1FBB620CF
:101CB000FFF7CAFB0A20FFF7BBFBA220FFF7B8FB28
:101CC000F220FFF7C1FB0020FFF7B2FB2620FFF751
:101CD000BBFB0120FFF7ACFBE020FFF7B5FB0F20BB
:101CE000FFF7A6FB2A20FFF7A3FB2820FFF7A0FBA6
:101CF0000820FFF79DFB0E20FFF79AFB0820FFF757
:101D000097FB5420FFF794FBA920FFF791FB43209A
:101D1000FFF78EFB0A20FFF78BFB0F20FFF788FBF6
:101D20000020FFF785FB0020FFF782FB0020FFF774
:101D30007FFB0020FFF77CFBE120FFF785FB002005
:101D4000FFF776FB1520FFF773FB1720FFF770FBFB
:101D50000720FFF76DFB1120FFF76AFB0620FFF756
:101D600067FB2B20FFF764FB5620FFF761FB3C204D
:101D7000FFF75EFB0520FFF75BFB1020FFF758FB2A
:101D80000F20FFF755FB3F20FFF752FB3F20FFF7E7
:101D90004FFB0F20FFF74CFB2B20FFF755FB0020DC
:101DA000FFF746FB0020FFF743FB0120FFF740FB56
:101DB0003F20FFF73DFB2A20FFF746FB0020FFF7FF
:101DC00037FB0020FFF734FB0020FFF731FBEF204B
:101DD000FFF72EFB1120FFF737FB7820FEF74EFBB5
:101DE0002920FFF731FB03F0E8B9FE48808849F26B
:101DF000864188427ED1F220FFF726FB1820FFF7AC
:101E000017FBA320FFF714FB1220FFF711FB0220A2
:101E1000FFF70EFBB220FFF70BFB1220FFF708FBCA
:101E2000FF20FFF705FB1020FFF702FB0020FFF764
:101E3000FFFAF820FFF708FB2120FFF7F9FA04204A
:101E4000FFF7F6FAF920FFF7FFFA0020FFF7F0FAA4
:101E50000820FFF7EDFA3620FFF7F6FA0820FFF723
:101E6000E7FA3A20FFF7F0FA0520FFF7E1FAB4208D
:101E7000FFF7EAFA0120FFF7DBFAB620FFF7E4FAF2
:101E80000220FFF7D5FA2220FFF7D2FAC120FFF790
:101E9000DBFA4120FFF7CCFAC520FFF7D5FA002086
:101EA000FFF7C6FA0720FFF7C3FAE020FFF7CCFAE6
:101EB0000F20FFF7BDFA1F20FFF7BAFA1C20FFF72B
:101EC000B7FA0C20FFF7B4FA0F20FFF7B1FA082099
:101ED000FFF7AEFA4820FFF7ABFA9820FFF7A8FA11
:101EE0003720FFF7A5FA0A20FFF7A2FA1320FFF721
:101EF0009FFA00E045E00420FFF79AFA1120FFF76F
:101F000097FA0D20FFF794FA0020FFF791FAE120ED
:101F1000FFF79AFA0F20FFF78BFA3220FFF788FAC3
:101F20002E20FFF785FA0B20FFF782FA0D20FFF72E
:101F30007FFA0520FFF77CFA4720FFF779FA752032
:101F4000FFF776FA3720FFF773FA0620FFF770FAEB
:101F50001020FFF76DFA0320FFF76AFA2420FFF73D
:101F600067FA2020FFF764FA0020FFF761FA1120DA
:101F7000FFF76AFA7820FEF781FA2920FFF764FA62
:101F800031E79848808846F6040188427ED11120C6
:101F9000FFF75AFA1420FEF771FAD020FFF754FA2F
:101FA0000720FFF745FA4220FFF742FA1D20FFF70E
:101FB0003FFAD120FFF748FA0020FFF739FA1A203C
:101FC000FFF736FA0920FFF733FAD220FFF73CFA81
:101FD0000120FFF72DFA2220FFF72AFAC020FFF791
:101FE00033FA1020FFF724FA3B20FFF721FA0020F4
:101FF000FFF71EFA0220FFF71BFA1120FFF718FA6D
:10200000C520FFF721FA0320FFF712FAC820FFF7D7
:102010001BFA0020FFF70CFA2520FFF709FA212010
:10202000FFF706FA0520FFF703FA0020FFF700FA92
:102030000A20FFF7FDF96520FFF7FAF92520FFF7E1
:10204000F7F97720FFF7F4F95020FFF7F1F90F20A7
:10205000FFF7EEF90020FFF7EBF9F820FFF7F4F9AE
:102060000120FFF7E5F9FE20FFF7EEF90020FFF76A
:10207000DFF90220FFF7DCF92020FFF7E5F9362031
:10208000FFF7E2F90820FFF7D3F900E02AE03A2051
:10209000FFF7DAF95520FFF7CBF92B20FFF7D4F93A
:1020A0000020FFF7C5F90020FFF7C2F90120FFF774
:1020B000BFF93F20FFF7BCF92A20FFF7C5F9002040
:1020C000FFF7B6F90020FFF7B3F90120FFF7B0F9E9
:1020D000DF20FFF7ADF97820FEF7D0F92920FFF7D0
:1020E000B3F980E63F48808845F21031884240F0DD
:1020F0007C87ED20FFF7A8F90120FFF799F9FE2072
:10210000FFF796F9EE20FFF79FF9DE20FFF790F931
:102110002120FFF78DF9F120FFF796F90120FFF755
:1021200087F9DF20FFF790F91020FFF781F9C4202D
:10213000FFF78AF98F20FFF77BF9C620FFF784F9B4
:102140000020FFF775F9E220FFF772F9E220FFF7B0
:102150006FF9E220FFF76CF9BF20FFF775F9AA20AD
:10216000FFF766F9B020FFF76FF90D20FFF760F970
:102170000020FFF75DF90D20FFF75AF90020FFF767
:1021800057F91120FFF754F90020FFF751F91920F2
:10219000FFF74EF90020FFF74BF92120FFF748F930
:1021A0000020FFF745F92D20FFF742F90020FFF747
:1021B0003FF93D20FFF73CF90020FFF739F95D209A
:1021C000FFF736F90020FFF733F95D20FFF730F90C
:1021D0000020FFF72DF9B120FFF736F98020FFF737
:1021E00027F901E0280000200020FFF721F98B20CB
:1021F000FFF71EF90020FFF71BF99620FFF718F9EB
:102200000020FFF715F9B220FFF71EF90020FFF7B5
:102210000FF90020FFF70CF90220FFF709F9002061
:10222000FFF706F90320FFF703F90020FFF700F995
:10223000B320FFF709F90020FFF7FAF80020FFF7B5
:10224000F7F80020FFF7F4F80020FFF7F1F800207E
:10225000FFF7EEF80020FFF7EBF80020FFF7E8F8B3
:102260000020FFF7E5F80020FFF7E2F80020FFF775
:10227000DFF80020FFF7DCF80020FFF7D9F8002096
:10228000FFF7D6F80020FFF7D3F80020FFF7D0F8CB
:102290000020FFF7CDF80020FFF7CAF80020FFF775
:1022A000C7F80020FFF7C4F80020FFF7C1F80020AE
:1022B000FFF7BEF80020FFF7BBF80020FFF7B8F8E3
:1022C0000020FFF7B5F8B420FFF7BEF88B20FFF72A
:1022D000AFF80020FFF7ACF89620FFF7A9F8002030
:1022E000FFF7A6F8A120FFF7A3F80020FFF7A0F85A
:1022F000B520FFF7A9F80220FFF79AF80020FFF7B2
:1023000097F80320FFF794F80020FFF791F80420D6
:10231000FFF78EF80020FFF78BF8B620FFF794F850
:102320000020FFF785F80020FFF782F8B720FFF7BD
:102330008BF80020FFF77CF80020FFF779F83F20AA
:10234000FFF776F80020FFF773F85E20FFF770F8CC
:102350000020FFF76DF86420FFF76AF80020FFF710
:1023600067F88C20FFF764F80020FFF761F8AC20D5
:10237000FFF75EF80020FFF75BF8DC20FFF758F866
:102380000020FFF755F87020FFF752F80020FFF704
:102390004FF89020FFF74CF80020FFF749F8EB20AA
:1023A000FFF746F80020FFF743F8DC20FFF740F87E
:1023B0000020FFF73DF8B820FFF746F80020FFF7B0
:1023C00037F80020FFF734F80020FFF731F800203D
:1023D000FFF72EF80020FFF72BF80020FFF728F872
:1023E0000020FFF725F80020FFF722F8BA20FFF7BA
:1023F0002BF82420FFF71CF80020FFF719F8002025
:10240000FFF716F80020FFF713F8C120FFF71CF8BC
:102410002020FFF70DF80020FFF70AF85420FFF7FF
:1024200007F80020FFF704F8FF20FFF701F800206D
:10243000FEF7FEFFC220FFF707F80A20FEF7F8FFBD
:102440000020FEF7F5FF0420FEF7F2FF0020FEF764
:10245000EFFFC320FEF7F8FF3C20FEF7E9FF002066
:10246000FEF7E6FF3A20FEF7E3FF0020FEF7E0FF6D
:102470003920FEF7DDFF0020FEF7DAFF3720FEF7F8
:10248000D7FF0020FEF7D4FF3C20FEF7D1FF00204D
:10249000FEF7CEFF3620FEF7CBFF0020FEF7C8FF89
:1024A0003220FEF7C5FF0020FEF7C2FF2F20FEF707
:1024B000BFFF0020FEF7BCFF2C20FEF7B9FF002075
:1024C000FEF7B6FF2920FEF7B3FF0020FEF7B0FFAE
:1024D0002620FEF7ADFF0020FEF7AAFF2420FEF71E
:1024E000A7FF0020FEF7A4FF2420FEF7A1FF002095
:1024F000FEF79EFF2320FEF79BFF0020FEF798FFCC
:102500003C20FEF795FF0020FEF792FF3620FEF7F5
:102510008FFF0020FEF78CFF3220FEF789FF00209E
:10252000FEF786FF2F20FEF783FF0020FEF780FFD7
:102530002C20FEF77DFF0020FEF77AFF2920FEF712
:1025400077FF0020FEF774FF2620FEF771FF0020C2
:10255000FEF76EFF2420FEF76BFF0020FEF768FFFA
:102560002420FEF765FF0020FEF762FF2320FEF720
:102570005FFF0020FEF75CFFC420FEF765FF6220CE
:10258000FEF756FF0020FEF753FF0520FEF750FF31
:102590000020FEF74DFF8420FEF74AFF0020FEF7E3
:1025A00047FFF020FEF744FF0020FEF741FF182010
:1025B000FEF73EFF0020FEF73BFFA420FEF738FFAA
:1025C0000020FEF735FF1820FEF732FF0020FEF74F
:1025D0002FFF5020FEF72CFF0020FEF729FF0C20D4
:1025E000FEF726FF0020FEF723FF1720FEF720FF4F
:1025F0000020FEF71DFF9520FEF71AFF0020FEF7D2
:1026000017FFF320FEF714FF0020FEF711FFE6206E
:10261000FEF70EFF0020FEF70BFFC520FEF714FFAC
:102620003220FEF705FF0020FEF702FF4420FEF7F0
:10263000FFFE0020FEF7FCFE6520FEF7F9FE0020FD
:10264000FEF7F6FE7620FEF7F3FE0020FEF7F0FE22
:102650008820FEF7EDFE0020FEF7EAFEC620FEF71A
:10266000F3FE2020FEF7E4FE0020FEF7E1FE172037
:10267000FEF7DEFE0020FEF7DBFE0120FEF7D8FEAF
:102680000020FEF7D5FEC720FEF7DEFE0020FEF795
:10269000CFFE0020FEF7CCFE0020FEF7C9FE002092
:1026A000FEF7C6FEC820FEF7CFFE0020FEF7C0FEF4
:1026B0000020FEF7BDFE0020FEF7BAFE0020FEF768
:1026C000B7FEC920FEF7C0FE0020FEF7B1FE0020D5
:1026D000FEF7AEFE0020FEF7ABFE0020FEF7A8FEE0
:1026E0000020FEF7A5FE0020FEF7A2FE0020FEF768
:1026F0009FFE0020FEF79CFE0020FEF799FE0020C2
:10270000FEF796FE0020FEF793FE0020FEF790FEF7
:102710000020FEF78DFE0020FEF78AFE0020FEF767
:1027200087FE0020FEF784FEE020FEF78DFE1620D7
:10273000FEF77EFE0020FEF77BFE1C20FEF778FEF3
:102740000020FEF775FE2120FEF772FE0020FEF746
:102750006FFE3620FEF76CFE0020FEF769FE462075
:10276000FEF766FE0020FEF763FE5220FEF760FED5
:102770000020FEF75DFE6420FEF75AFE0020FEF703
:1027800057FE7A20FEF754FE0020FEF751FE8B2004
:10279000FEF74EFE0020FEF74BFE9920FEF748FEA6
:1027A0000020FEF745FEA820FEF742FE0020FEF7BF
:1027B0003FFEB920FEF73CFE0020FEF739FEC420A4
:1027C000FEF736FE0020FEF733FECA20FEF730FE8D
:1027D0000020FEF72DFED220FEF72AFE0020FEF795
:1027E00027FED920FEF724FE0020FEF721FEE02080
:1027F000FEF71EFE0020FEF71BFEF320FEF718FE7C
:102800000020FEF715FEE120FEF71EFE1620FEF763
:102810000FFE0020FEF70CFE1C20FEF709FE002034
:10282000FEF706FE2220FEF703FE0020FEF700FE64
:102830003620FEF7FDFD0020FEF7FAFD4520FEF7ED
:10284000F7FD0020FEF7F4FD5220FEF7F1FD002019
:10285000FEF7EEFD6420FEF7EBFD0020FEF7E8FD3D
:102860007A20FEF7E5FD0020FEF7E2FD8B20FEF763
:10287000DFFD0020FEF7DCFD9920FEF7D9FD0020EA
:10288000FEF7D6FDA820FEF7D3FD0020FEF7D0FD11
:10289000B920FEF7CDFD0020FEF7CAFDC420FEF7EB
:1028A000C7FD0020FEF7C4FDCA20FEF7C1FD0020D1
:1028B000FEF7BEFDD220FEF7BBFD0020FEF7B8FDFF
:1028C000D820FEF7B5FD0020FEF7B2FDE020FEF7B0
:1028D000AFFD0020FEF7ACFDF320FEF7A9FD0020C0
:1028E000FEF7A6FDE220FEF7AFFD0520FEF7A0FDF6
:1028F0000020FEF79DFD0B20FEF79AFD0020FEF75D
:1029000097FD1B20FEF794FD0020FEF791FD34207B
:10291000FEF78EFD0020FEF78BFD4420FEF788FDBC
:102920000020FEF785FD4F20FEF782FD0020FEF718
:102930007FFD6120FEF77CFD0020FEF779FD792008
:10294000FEF776FD0020FEF773FD8820FEF770FD90
:102950000020FEF76DFD9720FEF76AFD0020FEF7D0
:1029600067FDA620FEF764FD0020FEF761FDB7209D
:10297000FEF75EFD0020FEF75BFDC220FEF758FD6E
:102980000020FEF755FDC720FEF752FD0020FEF7A0
:102990004FFDD120FEF74CFD0020FEF749FDD6206B
:1029A000FEF746FD0020FEF743FDDD20FEF740FD6B
:1029B0000020FEF73DFDF320FEF73AFD0020FEF774
:1029C00037FDE320FEF740FD0520FEF731FD002036
:1029D000FEF72EFD0A20FEF72BFD0020FEF728FD56
:1029E0001C20FEF725FD0020FEF722FD3320FEF718
:1029F0001FFD0020FEF71CFD4420FEF719FD0020FE
:102A0000FEF716FD5020FEF713FD0020FEF710FD27
:102A10006220FEF70DFD0020FEF70AFD7820FEF78C
:102A200007FD0020FEF704FD8820FEF701FD0020D1
:102A3000FEF7FEFC9720FEF7FBFC0020FEF7F8FCFB
:102A4000A620FEF7F5FC0020FEF7F2FCB720FEF70B
:102A5000EFFC0020FEF7ECFCC220FEF7E9FC0020B2
:102A6000FEF7E6FCC720FEF7E3FC0020FEF7E0FCE3
:102A7000D120FEF7DDFC0020FEF7DAFCD520FEF7C2
:102A8000D7FC0020FEF7D4FCDD20FEF7D1FC0020AF
:102A9000FEF7CEFCF320FEF7CBFC0020FEF7C8FCCF
:102AA000E420FEF7D1FC0120FEF7C2FC0020FEF777
:102AB000BFFC0120FEF7BCFC0020FEF7B9FC0220A1
:102AC000FEF7B6FC0020FEF7B3FC2A20FEF7B0FCB0
:102AD0000020FEF7ADFC3C20FEF7AAFC0020FEF72C
:102AE000A7FC4B20FEF7A4FC0020FEF7A1FC5D2014
:102AF000FEF79EFC0020FEF79BFC7420FEF798FC7E
:102B00000020FEF795FC8420FEF792FC0020FEF7E3
:102B10008FFC9320FEF78CFC0020FEF789FCA2209E
:102B2000FEF786FC0020FEF783FCB320FEF780FC56
:102B30000020FEF77DFCBE20FEF77AFC0020FEF7A9
:102B400077FCC420FEF774FC0020FEF771FCCD205A
:102B5000FEF76EFC0020FEF76BFCD320FEF768FC4E
:102B60000020FEF765FCDD20FEF762FC0020FEF78A
:102B70005FFCF320FEF75CFC0020FEF759FCE5202B
:102B8000FEF762FC0020FEF753FC0020FEF750FC2D
:102B90000020FEF74DFC0020FEF74AFC0220FEF765
:102BA00047FC0020FEF744FC2920FEF741FC0020F2
:102BB000FEF73EFC3C20FEF73BFC0020FEF738FC15
:102BC0004B20FEF735FC0020FEF732FC5D20FEF7BF
:102BD0002FFC0020FEF72CFC7420FEF729FC0020BF
:102BE000FEF726FC8420FEF723FC0020FEF720FCE5
:102BF0009320FEF71DFC0020FEF71AFCA220FEF732
:102C000017FC0020FEF714FCB320FEF711FC002097
:102C1000FEF70EFCBE20FEF70BFC0020FEF708FCC2
:102C2000C420FEF705FC0020FEF702FCCD20FEF7D5
:102C3000FFFB0020FEF7FCFBD320FEF7F9FB002092
:102C4000FEF7F6FBDC20FEF7F3FB0020FEF7F0FBBF
:102C5000F320FEF7EDFB0020FEF7EAFBE620FEF78F
:102C6000F3FB1120FEF7E4FB0020FEF7E1FB34202C
:102C7000FEF7DEFB0020FEF7DBFB5620FEF7D8FB5D
:102C80000020FEF7D5FB7620FEF7D2FB0020FEF7F2
:102C9000CFFB7720FEF7CCFB0020FEF7C9FB6620B8
:102CA000FEF7C6FB0020FEF7C3FB8820FEF7C0FB43
:102CB0000020FEF7BDFB9920FEF7BAFB0020FEF7CF
:102CC000B7FBBB20FEF7B4FB0020FEF7B1FB992059
:102CD000FEF7AEFB0020FEF7ABFB6620FEF7A8FB7D
:102CE0000020FEF7A5FB5520FEF7A2FB0020FEF713
:102CF0009FFB5520FEF79CFB0020FEF799FB45202B
:102D0000FEF796FB0020FEF793FB4320FEF790FBB7
:102D10000020FEF78DFB4420FEF78AFB0020FEF723
:102D200087FBE720FEF790FB3220FEF781FB0020B7
:102D3000FEF77EFB5520FEF77BFB0020FEF778FBBD
:102D40007620FEF775FB0020FEF772FB6620FEF78B
:102D50006FFB0020FEF76CFB6720FEF769FB00208D
:102D6000FEF766FB6720FEF763FB0020FEF760FBC3
:102D70008720FEF75DFB0020FEF75AFB9920FEF747
:102D800057FB0020FEF754FBBB20FEF751FB002051
:102D9000FEF74EFB9920FEF74BFB0020FEF748FBA9
:102DA0007720FEF745FB0020FEF742FB4420FEF7AC
:102DB0003FFB0020FEF73CFB5620FEF739FB0020CE
:102DC000FEF736FB2320FEF733FB0020FEF730FB37
:102DD0003320FEF72DFB0020FEF72AFB4520FEF7EF
:102DE00027FB0020FEF724FBE820FEF72DFB002048
:102DF000FEF71EFB0020FEF71BFB9920FEF718FBD9
:102E00000020FEF715FB8720FEF712FB0020FEF7DF
:102E10000FFB8820FEF70CFB0020FEF709FB772054
:102E2000FEF706FB0020FEF703FB6620FEF700FB23
:102E30000020FEF7FDFA8820FEF7FAFA0020FEF7E0
:102E4000F7FAAA20FEF7F4FA0020FEF7F1FABB2009
:102E5000FEF7EEFA0020FEF7EBFA9920FEF7E8FA0B
:102E60000020FEF7E5FA6620FEF7E2FA0020FEF702
:102E7000DFFA5520FEF7DCFA0020FEF7D9FA5520DC
:102E8000FEF7D6FA0020FEF7D3FA4420FEF7D0FA78
:102E90000020FEF7CDFA4420FEF7CAFA0020FEF724
:102EA000C7FA5520FEF7C4FA0020FEF7C1FAE92060
:102EB000FEF7CAFAAA20FEF7BBFA0020FEF7B8FA1E
:102EC0000020FEF7B5FA0020FEF7B2FA0020FEF768
:102ED000BBFAAA20FEF7ACFACF20FEF7B5FA002025
:102EE000FEF7A6FA0020FEF7A3FA0020FEF7A0FAEC
:102EF0000020FEF79DFA0020FEF79AFA0020FEF768
:102F000097FA0020FEF794FA0020FEF791FA0020CD
:102F1000FEF78EFA0020FEF78BFA0020FEF788FA03
:102F20000020FEF785FA0020FEF782FA0020FEF767
:102F30007FFA0020FEF77CFA0020FEF779FA0020E5
:102F4000FEF776FAF020FEF77FFA0020FEF770FA1F
:102F50005020FEF76DFA0020FEF76AFA0020FEF717
:102F600067FA0020FEF764FAF320FEF76DFA0020FE
:102F7000FEF75EFAF920FEF767FA0620FEF758FA28
:102F80001020FEF755FA2920FEF752FA0020FEF72E
:102F90004FFA3A20FEF758FA5520FEF749FA112069
:102FA000FEF752FA6420FDF769FA2920FEF74CFA81
:102FB0003520FEF749FA0020FEF73AFA5120FEF7D5
:102FC00043FAFF20FEF734FA5320FEF73DFA2C2097
:102FD000FEF72EFA5520FEF737FA8220FEF728FA80
:102FE0002C20FEF731FA02F0E8B8FE48808845F25E
:102FF000105188427ED155214FF47040FEF73AFAC5
:10300000AA214FF20100FEF735FA52214FF20200D9
:10301000FEF730FA08214FF20300FEF72BFA0121E8
:103020004FF20400FEF726FA0D214FF43040FEF770
:1030300021FA0D214BF20100FEF71CFA0D214BF293
:103040000200FEF717FA34214FF43640FEF712FA69
:1030500034214BF20160FEF70DFA34214BF202608D
:10306000FEF708FA0D214FF43140FEF703FA0D2167
:103070004BF20110FEF7FEF90D214BF20210FEF7A4
:10308000F9F934214FF43740FEF7F4F934214BF2CB
:103090000170FEF7EFF934214BF20270FEF7EAF906
:1030A00000214FF43240FEF7E5F900214BF20120F8
:1030B000FEF7E0F900214BF20220FEF7DBF92421B4
:1030C0004FF43840FEF7D6F924214BF60100FEF705
:1030D000D1F924214BF60200FEF7CCF901214FF47F
:1030E0003F40FEF7C7F90F214FF43340FEF7C2F916
:1030F0000F2100E0FEE34BF20130FEF7BBF90F2198
:103100004BF20230FEF7B6F934214FF43940FEF7A6
:10311000B1F934214BF60110FEF7ACF934214BF62E
:103120000210FEF7A7F908214FF43540FEF7A2F987
:1031300008214BF20150FEF79DF908214BF2025095
:10314000FEF798F903214FF44240FEF793F924214A
:103150004FF43A40FEF78EF924214BF60120FEF79A
:1031600089F924214BF60220FEF784F900214FF45F
:103170003C40FEF77FF978214BF60140FEF77AF9E3
:1031800000214BF60240FEF775F900214FF43D4057
:10319000FEF770F978214BF60150FEF76BF900212C
:1031A0004BF60250FEF766F900214FF43E40FEF761
:1031B00061F964214BF60160FEF75CF900214FF4E0
:1031C0005140FEF757F933214DF20110FEF752F945
:1031D00000214DF20210FEF74DF934214DF203109B
:1031E000FEF748F900214DF20410FEF743F93A21A9
:1031F0004DF20510FEF73EF900214DF20610FEF7E4
:1032000039F94A214DF20710FEF734F900214DF249
:103210000810FEF72FF95C214DF20910FEF72AF98C
:1032200000214DF20A10FEF725F981214DF20B1015
:10323000FEF720F900214DF20C10FEF71BF9A62134
:103240004DF20D10FEF716F900214DF20E10FEF7AB
:1032500011F9E5214DF20F10FEF70CF901214DF2A5
:103260001010FEF707F913214DF21110FEF702F9C5
:1032700001214DF21210FEF7FDF854214DF213100A
:10328000FEF7F8F801214DF21410FEF7F3F8822151
:103290004DF21510FEF7EEF801214DF21610FEF773
:1032A000E9F8CA214DF21710FEF7E4F802214DF2B9
:1032B0001810FEF7DFF800214DF21910FEF7DAF8CA
:1032C00002214DF21A10FEF7D5F801214DF21B1024
:1032D000FEF7D0F802214DF21C10FEF7CBF8342196
:1032E0004DF21D10FEF7C6F802214DF21E10FEF73A
:1032F000C1F867214DF21F10FEF7BCF802214DF214
:103300002010FEF7B7F884214DF22110FEF7B2F835
:1033100002214DF22210FEF7ADF8A4214DF2231048
:10332000FEF7A8F802214DF22410FEF7A3F8B7210A
:103330004DF22510FEF79EF802214DF22610FEF701
:1033400099F8CF214DF22710FEF794F802214DF2A3
:103350002810FEF78FF8DE214DF22910FEF78AF8CB
:1033600002214DF22A10FEF785F8F2214DF22B10C2
:10337000FEF780F802214DF22C10FEF77BF8FE21BB
:103380004DF22D10FEF776F803214DF22E10FEF7C8
:1033900071F810214DF22F10FEF76CF803214DF259
:1033A0003010FEF767F833214DF23110FEF762F866
:1033B00003214DF23210FEF75DF86D214DF233100E
:1033C000FEF758F800214FF45240FEF753F833212E
:1033D0004DF20120FEF74EF800214DF20220FEF7DB
:1033E00049F801E02800002034214DF20320FEF7C7
:1033F00041F800214DF20420FEF73CF83A214DF24D
:103400000520FEF737F800214DF20620FEF732F8CE
:103410004A214DF20720FEF72DF800214DF2082039
:10342000FEF728F85C214DF20920FEF723F8002171
:103430004DF20A20FEF71EF881214DF20B20FEF717
:1034400019F800214DF20C20FEF714F8A6214DF2D8
:103450000D20FEF70FF800214DF20E20FEF70AF8BE
:10346000E5214DF20F20FEF705F801214DF2102065
:10347000FEF700F813214DF21120FDF7FBFF0121AB
:103480004DF21220FDF7F6FF54214DF21320FDF707
:10349000F1FF01214DF21420FDF7ECFF82214DF2E6
:1034A0001520FDF7E7FF01214DF21620FDF7E2FFA1
:1034B000CA214DF21720FDF7DDFF02214DF2182041
:1034C000FDF7D8FF00214DF21920FDF7D3FF0221AF
:1034D0004DF21A20FDF7CEFF01214DF21B20FDF722
:1034E000C9FF02214DF21C20FDF7C4FF34214DF22B
:1034F0001D20FDF7BFFF02214DF21E20FDF7BAFF90
:1035000067214DF21F20FDF7B5FF02214DF220206B
:10351000FDF7B0FF84214DF22120FDF7ABFF022122
:103520004DF22220FDF7A6FFA4214DF22320FDF746
:10353000A1FF02214DF22420FDF79CFFB7214DF29F
:103540002520FDF797FF02214DF22620FDF792FF7F
:10355000CF214DF22720FDF78DFF02214DF22820CB
:10356000FDF788FFDE214DF22920FDF783FF0221C0
:103570004DF22A20FDF77EFFF2214DF22B20FDF7C0
:1035800079FF02214DF22C20FDF774FFFE214DF250
:103590002D20FDF76FFF03214DF22E20FDF76AFF6E
:1035A00010214DF22F20FDF765FF03214DF2302051
:1035B000FDF760FF33214DF23120FDF75BFF032162
:1035C0004DF23220FDF756FF6D214DF23320FDF70D
:1035D00051FF00214FF45340FDF74CFF33214DF2D2
:1035E0000130FDF747FF00214DF20230FDF742FFA9
:1035F00034214DF20330FDF73DFF00214DF2043040
:10360000FDF738FF3A214DF20530FDF733FF002179
:103610004DF20630FDF72EFF4A214DF20730FDF73F
:1036200029FF00214DF20830FDF724FF5C214DF207
:103630000930FDF71FFF00214DF20A30FDF71AFF98
:1036400081214DF20B30FDF715FF00214DF20C30BA
:10365000FDF710FFA6214DF20D30FDF70BFF002105
:103660004DF20E30FDF706FFE5214DF20F30FDF76C
:1036700001FF01214DF21030FDF7FCFE13214DF248
:103680001130FDF7F7FE01214DF21230FDF7F2FE89
:1036900054214DF21330FDF7EDFE01214DF21430AF
:1036A000FDF7E8FE82214DF21530FDF7E3FE012122
:1036B0004DF21630FDF7DEFECA214DF21730FDF750
:1036C000D9FE02214DF21830FDF7D4FE00214DF253
:1036D0001930FDF7CFFE02214DF21A30FDF7CAFE78
:1036E00001214DF21B30FDF7C5FE02214DF21C30C9
:1036F000FDF7C0FE34214DF21D30FDF7BBFE022167
:103700004DF21E30FDF7B6FE67214DF21F30FDF77A
:10371000B1FE02214DF22030FDF7ACFE84214DF2C6
:103720002130FDF7A7FE02214DF22230FDF7A2FE67
:10373000A4214DF22330FDF79DFE02214DF22430ED
:10374000FDF798FEB7214DF22530FDF793FE0221DB
:103750004DF22630FDF78EFECF214DF22730FDF7DA
:1037600089FE02214DF22830FDF784FEDE214DF264
:103770002930FDF77FFE02214DF22A30FDF77AFE57
:10378000F2214DF22B30FDF775FE02214DF22C3067
:10379000FDF770FEFE214DF22D30FDF76BFE03218B
:1037A0004DF22E30FDF766FE10214DF22F30FDF761
:1037B00061FE03214DF23030FDF75CFE33214DF206
:1037C0003130FDF757FE03214DF23230FDF752FE46
:1037D0006D214DF23330FDF74DFE00214FF4544082
:1037E000FDF748FE33214DF20140FDF743FE002175
:1037F0004DF20240FDF73EFE34214DF20340FDF74D
:1038000039FE00214DF20440FDF734FE3A214DF21D
:103810000540FDF72FFE00214DF20640FDF72AFE80
:103820004A214DF20740FDF725FE00214DF20840E8
:10383000FDF720FE5C214DF20940FDF71BFE002143
:103840004DF20A40FDF716FE81214DF20B40FDF7C7
:1038500011FE00214DF20C40FDF70CFEA6214DF2A9
:103860000D40FDF707FE00214DF20E40FDF702FE70
:10387000E5214DF20F40FDF7FDFD01214DF2104015
:10388000FDF7F8FD13214DF21140FDF7F3FD012185
:103890004DF21240FDF7EEFD54214DF21340FDF7BD
:1038A000E9FD01214DF21440FDF7E4FD82214DF2C6
:1038B0001540FDF7DFFD01214DF21640FDF7DAFD61
:1038C000CA214DF21740FDF7D5FD02214DF21840F7
:1038D000FDF7D0FD00214DF21940FDF7CBFD02218F
:1038E0004DF21A40FDF7C6FD01214DF21B40FDF7D8
:1038F000C1FD00E004E302214DF21C40FDF7BAFDDA
:1039000034214DF21D40FDF7B5FD02214DF21E4060
:10391000FDF7B0FD67214DF21F40FDF7ABFD022121
:103920004DF22040FDF7A6FD84214DF22140FDF728
:10393000A1FD02214DF22240FDF79CFDA4214DF294
:103940002340FDF797FD02214DF22440FDF792FD43
:10395000B7214DF22540FDF78DFD02214DF22640A5
:10396000FDF788FDCF214DF22740FDF783FD0221B1
:103970004DF22840FDF77EFDDE214DF22940FDF796
:1039800079FD02214DF22A40FDF774FDF2214DF23E
:103990002B40FDF76FFD02214DF22C40FDF76AFD33
:1039A000FE214DF22D40FDF765FD03214DF22E4025
:1039B000FDF760FD10214DF22F40FDF75BFD032167
:1039C0004DF23040FDF756FD33214DF23140FDF709
:1039D00051FD03214DF23240FDF74CFD6D214DF2BA
:1039E0003340FDF747FD00214FF45540FDF742FD00
:1039F00033214DF20150FDF73DFD00214DF2025003
:103A0000FDF738FD34214DF20350FDF733FD002161
:103A10004DF20450FDF72EFD3A214DF20550FDF711
:103A200029FD00214DF20650FDF724FD4A214DF2FB
:103A30000750FDF71FFD00214DF20850FDF71AFD5C
:103A40005C214DF20950FDF715FD00214DF20A50A1
:103A5000FDF710FD81214DF20B50FDF70BFD00210C
:103A60004DF20C50FDF706FDA6214DF20D50FDF76D
:103A700001FD00214DF20E50FDF7FCFCE5214DF259
:103A80000F50FDF7F7FC01214DF21050FDF7F2FC4D
:103A900013214DF21150FDF7EDFC01214DF21250B2
:103AA000FDF7E8FC54214DF21350FDF7E3FC012132
:103AB0004DF21450FDF7DEFC82214DF21550FDF75A
:103AC000D9FC01214DF21650FDF7D4FCCA214DF26C
:103AD0001750FDF7CFFC02214DF21850FDF7CAFC3C
:103AE00000214DF21950FDF7C5FC02214DF21A508C
:103AF000FDF7C0FC01214DF21B50FDF7BBFC02217C
:103B00004DF21C50FDF7B6FC34214DF21D50FDF76F
:103B1000B1FC02214DF21E50FDF7ACFC67214DF2C5
:103B20001F50FDF7A7FC02214DF22050FDF7A2FC2B
:103B300084214DF22150FDF79DFC02214DF22250CF
:103B4000FDF798FCA4214DF22350FDF793FC0221D0
:103B50004DF22450FDF78EFCB7214DF22550FDF7B4
:103B600089FC02214DF22650FDF784FCCF214DF255
:103B70002750FDF77FFC02214DF22850FDF77AFC1B
:103B8000DE214DF22950FDF775FC02214DF22A503D
:103B9000FDF770FCF2214DF22B50FDF76BFC02217A
:103BA0004DF22C50FDF766FCFE214DF22D50FDF735
:103BB00061FC03214DF22E50FDF75CFC10214DF20B
:103BC0002F50FDF757FC03214DF23050FDF752FC0A
:103BD00033214DF23150FDF74DFC03214DF23250AF
:103BE000FDF748FC6D214DF23350FDF743FC0021F9
:103BF0004FF45640FDF73EFC33214DF20160FDF7D6
:103C000039FC00214DF20260FDF734FC34214DF205
:103C10000360FDF72FFC00214DF20460FDF72AFC44
:103C20003A214DF20560FDF725FC00214DF20660BA
:103C3000FDF720FC4A214DF20760FDF71BFC002137
:103C40004DF20860FDF716FC5C214DF20960FDF7AE
:103C500011FC00214DF20A60FDF70CFC81214DF2B0
:103C60000B60FDF707FC00214DF20C60FDF702FC34
:103C7000A6214DF20D60FDF7FDFB00214DF20E6017
:103C8000FDF7F8FBE5214DF20F60FDF7F3FB012195
:103C90004DF21060FDF7EEFB13214DF21160FDF7C0
:103CA000E9FB01214DF21260FDF7E4FB54214DF2D6
:103CB0001360FDF7DFFB01214DF21460FDF7DAFB25
:103CC00082214DF21560FDF7D5FB01214DF2166002
:103CD000FDF7D0FBCA214DF21760FDF7CBFB0221A7
:103CE0004DF21860FDF7C6FB00214DF21960FDF79B
:103CF000C1FB02214DF21A60FDF7BCFB01214DF220
:103D00001B60FDF7B7FB02214DF21C60FDF7B2FB13
:103D100034214DF21D60FDF7ADFB02214DF21E6016
:103D2000FDF7A8FB67214DF21F60FDF7A3FB022101
:103D30004DF22060FDF79EFB84214DF22160FDF7DE
:103D400099FB02214DF22260FDF794FBA4214DF274
:103D50002360FDF78FFB02214DF22460FDF78AFB03
:103D6000B7214DF22560FDF785FB02214DF226605B
:103D7000FDF780FBCF214DF22760FDF77BFB022191
:103D80004DF22860FDF776FBDE214DF22960FDF74C
:103D900071FB02214DF22A60FDF76CFBF2214DF21E
:103DA0002B60FDF767FB02214DF22C60FDF762FBF3
:103DB000FE214DF22D60FDF75DFB03214DF22E60DB
:103DC000FDF758FB10214DF22F60FDF753FB032147
:103DD0004DF23060FDF74EFB33214DF23160FDF7BF
:103DE00049FB03214DF23260FDF744FB6D214DF29A
:103DF0003360FDF73FFB55214FF47040FDF73AFB70
:103E0000AA214FF20100FDF735FB52214FF20200CB
:103E1000FDF730FB08214FF20300FDF72BFB0021DB
:103E20004FF20400FDF726FBCC214FF43140FDF7A3
:103E300021FB00214BF20110FDF71CFB05214FF483
:103E40003640FDF717FB70214FF43740FDF712FBAA
:103E500070214BF20170FDF70DFB01214FF438404A
:103E6000FDF708FB03214BF60100FDF703FB0321DF
:103E70004BF60200FDF7FEFA03214BF60300FDF7B7
:103E8000F9FA02214FF43C40FDF7F4FA00214BF619
:103E90000140FDF7EFFA00214BF60240FDF7EAFA88
:103EA000D0214FF44940FDF7E5FA02214CF601100C
:103EB000FDF7E0FA50214CF60210FDF7DBFA502135
:103EC0004CF60310FDF7D6FA50214CF60410FDF71E
:103ED000D1FA00214FF45450FDF7CCFA55214FF49C
:103EE0006850FDF7C7FA4FF48850FDF7ADFA782017
:103EF000FCF7D0FA4FF42450FDF7A6FA01F05DB9B3
:103F0000FE48808849F2253188427DD147F6F0018C
:103F1000E520FDF7AFFA4FF480710120FDF7AAFA12
:103F20004FF4E0610220FDF7A5FA41F230010320D1
:103F3000FDF7A0FA00210420FDF79CFA40F20221CF
:103F40000820FDF797FA00210920FDF793FA0021D8
:103F50000A20FDF78FFA00210C20FDF78BFA0021D3
:103F60000D20FDF787FA00210F20FDF783FA0021CD
:103F70001020FDF77FFA07211120FDF77BFA0021C1
:103F80001220FDF777FA00211320FDF773FA0021C4
:103F90000720FDF76FFA41F290611020FDF76AFAF1
:103FA00040F227211120FDF765FA9D211220FDF72F
:103FB00061FA4FF4C8511320FDF75CFA252129203E
:103FC000FDF758FA0D212B20FDF754FA0721302078
:103FD000FDF750FA40F203313120FDF74BFA03218F
:103FE0003220FDF747FA40F206213520FDF742FA6C
:103FF00008213620FDF73EFA40F206413720FDF752
:1040000039FA4FF4417100E058E03820FDF732FAF8
:1040100007213920FDF72EFA40F202613C20FDF71E
:1040200029FA08213D20FDF725FA00215020FDF74F
:1040300021FAEF215120FDF71DFA00215220FDF752
:1040400019FA40F23F115320FDF714FA4FF42741BB
:104050006020FDF70FFA01216120FDF70BFA002126
:104060006A20FDF707FA00218020FDF703FA0021FE
:104070008120FDF7FFF900218220FDF7FBF90021E7
:104080008320FDF7F7F900218420FDF7F3F90021E3
:104090008520FDF7EFF910219020FDF7EBF94FF4A3
:1040A000C0619220FDF7E6F940F233110720FDF7D9
:1040B000E1F922210020FDF7DDF91FE78F48808814
:1040C00049F2283188427DD141F28F01EC20FDF781
:1040D000D1F941F23421EF20FDF7CCF94FF4807192
:1040E0000120FDF7C7F94FF4E0610220FDF7C2F9A6
:1040F00041F230010320FDF7BDF900210420FDF756
:10410000B9F940F202210820FDF7B4F90021092095
:10411000FDF7B0F900210A20FDF7ACF901210C20D0
:10412000FDF7A8F900210D20FDF7A4F900210F20CB
:10413000FDF7A0F900211020FDF79CF907211120BF
:10414000FDF798F900211220FDF794F900211320C2
:10415000FDF790F901210720FDF78CF93220FCF7DB
:104160008DF941F290411020FDF784F940F22721AA
:104170001120FDF77FF93220FCF780F98A21122007
:10418000FDF778F93220FCF779F94FF4D05113207C
:10419000FDF770F906212920FDF76CF90D212B2080
:1041A000FDF768F93220FCF769F900212020FDF7BE
:1041B00061F900212120FDF75DF93220FCF75EF95D
:1041C000002100E075E03020FDF754F940F2046171
:1041D0003120FDF74FF940F205313220FDF74AF961
:1041E00000213520FDF746F940F609413620FDF75C
:1041F00041F94FF401713720FDF73CF940F20131EC
:104200003820FDF737F940F207713920FDF732F910
:1042100000213C20FDF72EF940F60A213D20FDF754
:1042200029F93220FCF72AF900215020FDF722F964
:10423000EF215120FDF71EF900215220FDF71AF958
:1042400040F23F115320FDF715F94FF4274160204C
:10425000FDF710F901216120FDF70CF900216A201A
:10426000FDF708F900218020FDF704F900218120E5
:10427000FDF700F900218220FDF7FCF800218320E2
:10428000FDF7F8F800218420FDF7F4F800218520DF
:10429000FDF7F0F810219020FDF7ECF84FF4C06125
:1042A0009220FDF7E7F840F233110720FDF7E2F81E
:1042B00024E61248808849F2203188427ED10021CC
:1042C0000846FDF7D7F84FF480710120FDF7D2F8CA
:1042D0004FF4E0610220FDF7CDF841F230010320F8
:1042E000FDF7C8F800210420FDF7C4F840F20221D0
:1042F0000820FDF7BFF80021092001E02800002078
:10430000FDF7B8F800210A20FDF7B4F801210C20D0
:10431000FDF7B0F800210D20FDF7ACF800210F20CB
:10432000FDF7A8F83220FCF7A9F840F201110720A8
:10433000FDF7A0F83220FCF7A1F84FF486511020C9
:10434000FDF798F807211120FDF794F84FF48871D4
:104350001220FDF78FF84FF430611320FDF78AF833
:1043600000212920FDF786F844F210012B20FDF7EB
:1043700081F800215020FDF77DF8EF215120FDF755
:1043800079F800215220FDF775F840F23F115320D3
:10439000FDF770F84FF41C516020FDF76BF8012118
:1043A0006120FDF767F800216A20FDF763F800211E
:1043B0008020FDF75FF80021812000E030E0FDF76C
:1043C00059F800218220FDF755F800218320FDF7E0
:1043D00051F800218420FDF74DF800218520FDF7DC
:1043E00049F810219020FDF745F800219220FDF7B3
:1043F00041F801219320FDF73DF84FF48871952095
:10440000FDF738F800219720FDF734F800219820B7
:10441000FDF730F840F273110720FDF72BF86DE53A
:10442000FE48808849F2313188427DD141F2140141
:10443000E720FDF71FF84FF480710120FDF71AF80F
:104440004FF400710220FDF715F841F23801032006
:10445000FDF710F840F202210820FDF70BF80021CB
:104460000920FDF707F800210A20FDF703F80021D5
:104470000C20FCF7FFFF00210D20FCF7FBFF0021C3
:104480000F20FCF7F7FF00211020FCF7F3FF0721B6
:104490001120FCF7EFFF00211220FCF7EBFF0021B9
:1044A0001320FCF7E7FFC820FBF7E8FF41F290611B
:1044B0001020FCF7DFFF40F227211120FCF7DAFF84
:1044C0003220FBF7DBFF0C211220FCF7D3FF322058
:1044D000FBF7D4FF4FF400611320FCF7CBFF112151
:1044E0002920FCF7C7FF0B212B20FCF7C3FF32204C
:1044F000FBF7C4FF00212020FCF7BCFF40F23F1176
:104500002120FCF7B7FF00213020FCF7B3FF4FF468
:1045100083713120FCF7AEFF00213220FCF7AAFFA7
:104520004FF40171352000E064E0FCF7A3FF41F295
:104530000A613620FCF79EFF40F207713720FCF736
:1045400099FF4FF483713820FCF794FF40F2077114
:104550003920FCF78FFF40F202413C20FCF78AFF34
:1045600040F60F413D20FCF785FF00215020FCF76D
:1045700081FFEF215120FCF77DFF00215220FCF745
:1045800079FF40F23F115320FCF774FF4FF41C51A8
:104590006020FCF76FFF01216120FCF76BFF002119
:1045A0006A20FCF767FF00218020FCF763FF0021F1
:1045B0008120FCF75FFF00218220FCF75BFF0021D8
:1045C0008320FCF757FF00218420FCF753FF0021D4
:1045D0008520FCF74FFF10219020FCF74BFF4FF494
:1045E000C0619220FCF746FF40F233110720FCF730
:1045F00041FF83E48948808845F2084188427DD1A3
:104600004FF480710120FCF735FF4FF4E061022088
:10461000FCF730FF41F230010320FCF72BFF0021B3
:104620000420FCF727FF40F207210820FCF722FFB7
:1046300000210920FCF71EFF00210A20FCF71AFFC9
:1046400000210C20FCF716FF00210D20FCF712FFC3
:1046500000210F20FCF70EFF1420FBF70FFF41F2A3
:10466000B0611020FCF706FF01211120FCF702FFCA
:1046700001211720FCF7FEFE4FF49C711220FCF77D
:10468000F9FE4FF400611320FCF7F4FE0921292004
:10469000FCF7F0FE09212A20FCF7ECFE0021A42003
:1046A000FCF7E8FE00215020FCF7E4FEEF2151204A
:1046B000FCF7E0FE00215220FCF7DCFE40F23F1147
:1046C0005320FCF7D7FE4FF41C516020FCF7D2FEBC
:1046D00001216120FCF7CEFE00216A20FCF7CAFE12
:1046E00000218020FCF7C6FE00218120FCF7C2FEDD
:1046F00000218220FCF7BEFE002100E024E08320A0
:10470000FCF7B8FE00218420FCF7B4FE00218520D0
:10471000FCF7B0FE13219020FCF7ACFE00219220A4
:10472000FCF7A8FE03219320FCF7A4FE4FF4887148
:104730009520FCF79FFE40F273110720FCF79AFECC
:104740003220FBF79BFEB8E43448808841F20551E3
:1047500088427DD100210720FCF78CFE3220FBF738
:104760008DFE4FF48E711220FCF784FE0121A420EF
:10477000FCF780FE0F210820FCF77CFE08210A20B0
:10478000FCF778FE08210D20FCF774FE40F207715B
:104790003020FCF76FFE07213120FCF76BFE40F262
:1047A00003613220FCF766FE4FF4E0613320FCF732
:1047B00061FE40F202213420FCF75CFE022135202C
:1047C000FCF758FE41F60F713620FCF753FE40F21D
:1047D00007713720FCF74EFE00213820FCF74AFE17
:1047E00000213920FCF746FE40F207713A20FCF721
:1047F00041FE00213B20FCF73DFE07213C20FCF759
:1048000039FE00213D20FCF735FE3220FBF736FE55
:1048100001210720FCF72EFE012101E028000020E5
:104820001720FCF727FE3220FBF728FE4FF4BD517E
:104830001020FCF71FFE40F217211120FCF71AFE92
:104840004FF48F711220FCF715FE4FF4706100E0F9
:1048500098E01320FCF70EFE00212A20FCF70AFE48
:104860000A212920FCF706FE4FF49F711220FCF765
:1048700001FE00215020FCF7FDFDEF215120FCF747
:10488000F9FD00215220FCF7F5FD40F23F115320C5
:10489000FCF7F0FD4FF41C516020FCF7EBFD01210B
:1048A0006120FCF7E7FD00216A20FCF7E3FD002111
:1048B0008020FCF7DFFD00218120FCF7DBFD0021DB
:1048C0008220FCF7D7FD00218320FCF7D3FD0021D7
:1048D0008420FCF7CFFD00218520FCF7CBFD1321C0
:1048E0009020FCF7C7FD4FF440719220FCF7C2FD09
:1048F00005219320FCF7BEFD00219520FCF7BAFDB1
:1049000000219720FCF7B6FD00219820FCF7B2FDAE
:104910004FF480710120FCF7ADFD4FF4E0610220FF
:10492000FCF7A8FD41F238010320FCF7A3FD0021AC
:104930000420FCF79FFD00210C20FCF79BFD0021CB
:104940000F20FCF797FD00212020FCF793FD0021AC
:104950002120FCF78FFD21210720FCF78BFD14207F
:10496000FBF78CFD61210720FCF784FD1420FBF789
:1049700085FD40F273110720FCF77CFD1420FBF746
:104980007DFD95E4FE4880884BF2055188427CD13C
:1049900000210846FCF76EFD00210846FCF76AFD81
:1049A00000210846FCF766FD00210846FCF762FD81
:1049B0000121A420FCF75EFD1420FBF75FFD4FF4FE
:1049C0001C516020FCF756FD40F202210820FCF744
:1049D00051FD4FF405713020FCF74CFD43F2157189
:1049E0003120FCF747FD40F204613220FCF742FD24
:1049F00040F616613320FCF73DFD42F211213420D0
:104A0000FCF738FD4FF4A8513520FCF733FD48F290
:104A100007513620FCF72EFD41F207413720FCF705
:104A200029FD41F203413820FCF724FD20213920E3
:104A3000FCF720FD1A219020FCF71CFD002110201E
:104A4000FCF718FD07211120FCF714FD00211220AE
:104A5000FCF710FD00211320FCF70CFD1420FBF7E0
:104A60000DFD4FF4E6611020FCF704FD40F2371114
:104A70001120FCF7FFFC1420FBF700FD4FF4DC7164
:104A80001220FCF7F7FC142000E085E0FBF7F6FCB1
:104A90004FF470611320FCF7EDFC80212A20FCF715
:104AA000E9FC48212920FCF7E5FC1420FBF7E6FC93
:104AB0004FF480710120FCF7DDFC4FF4E06102202F
:104AC000FCF7D8FC41F238010320FCF7D3FC40F29C
:104AD00002210820FCF7CEFC00210A20FCF7CAFCCA
:104AE00000210C20FCF7C6FC00210D20FCF7C2FCC5
:104AF00030210E20FCF7BEFC00215020FCF7BAFC50
:104B0000EF215120FCF7B6FC00215220FCF7B2FC4B
:104B100040F23F115320FCF7ADFC4FF41C516020D4
:104B2000FCF7A8FC01216120FCF7A4FC00216A200D
:104B3000FCF7A0FC11219020FCF79CFC4FF4C06115
:104B40009220FCF797FC40F202419320FCF792FC84
:104B500002219420FCF78EFC1420FBF78FFC01212E
:104B60000720FCF787FC1420FBF788FC6121072055
:104B7000FCF780FC40F273110720FCF77BFC00215E
:104B80002020FCF777FC00212120FCF773FC222178
:104B90000020FCF76FFC10E3794880884CF2055147
:104BA00088427CD100210846FCF764FC00210846BD
:104BB000FCF760FC1420FBF761FC00210846FCF7C1
:104BC00059FC00210846FCF755FC00210846FCF77B
:104BD00051FC00210846FCF74DFC0121A420FCF704
:104BE00049FC1420FBF74AFC4FF41C516020FCF7F1
:104BF00041FC40F606010820FCF73CFC40F2037142
:104C00003020FCF737FC01213120FCF733FC042174
:104C10003220FCF72FFC4FF481713320FCF72AFC83
:104C20004FF440713420FCF725FC40F2031135208D
:104C3000FCF720FC1F213620FCF71CFC40F203711E
:104C40003720FCF717FC01213820FCF713FC042166
:104C50003920FCF70FFC15219020FCF70BFC4FF4DA
:104C600082611020FCF706FC40F247211120FCF77E
:104C700001FC4FF4DE711220FCF7FCFB4FF4606185
:104C80001320FCF7F7FB7820FBF7F8FB4FF480715B
:104C90000120FCF7EFFB4FF40071022000E052E02E
:104CA000FCF7E8FB41F230010320FCF7E3FB0821AD
:104CB0000A20FCF7DFFB00210C20FCF7DBFB2021A6
:104CC0000E20FCF7D7FB00210F20FCF7D3FB0021BF
:104CD0002020FCF7CFFB00212120FCF7CBFB3D215E
:104CE0002A20FCF7C7FB1420FBF7C8FB2D21292045
:104CF000FCF7C0FB00215020FCF7BCFB4DF2EF019C
:104D00005120FCF7B7FB00215220FCF7B3FB40F227
:104D10003F115320FCF7AEFB00216120FCF7AAFBFA
:104D200000216A20FCF7A6FB4FF440719220FCF7AB
:104D3000A1FB05219320FCF79DFB4FF48071072018
:104D4000FCF798FB39E20E48808844F231518842E2
:104D50007ED101210020FCF78DFB0A20FBF78EFBA2
:104D600041F228611020FCF785FB0E211220FCF790
:104D700081FB40F639211320FCF77CFB0A2001E07F
:104D800028000020FBF77AFB40211120FCF772FB82
:104D900050211520FCF76EFB0A20FBF76FFB1E214C
:104DA0001220FCF767FB0A20FBF768FB4FF4B151B8
:104DB0001020FCF75FFB42F639211320FCF75AFB69
:104DC0000A20FBF75BFB4FF480710120FCF752FBDC
:104DD0004FF440710220FCF74DFB41F238010320F3
:104DE000FCF748FB40F202210820FCF743FB0821B6
:104DF0000A20FCF73FFB00213020FCF73BFB40F290
:104E000002413120FCF736FB4FF483713220FCF76E
:104E100031FB40F203513320FCF72CFB4FF482713D
:104E20003420FCF727FB40F201313520FCF722FB50
:104E300040F207713620FCF71DFB40F205313720A8
:104E4000FCF718FB4FF402713820FCF713FB00E06D
:104E50003EE040F60B713920FCF70CFB02214120AB
:104E6000FCF708FB4FF41C516020FCF703FB012109
:104E70006120FCF7FFFA4FF404719020FCF7FAFA76
:104E80004FF485719220FCF7F5FA04219320FCF78A
:104E9000F1FA4FF48071A020FCF7ECFA0121072011
:104EA000FCF7E8FA21210720FCF7E4FA2321072088
:104EB000FCF7E0FA33210720FCF7DCFA40F233116B
:104EC0000720FCF7D7FA0021A020FCF7D3FA74E101
:104ED000C048808844F2355188427CD13021152069
:104EE000FCF7C8FA10219A20FCF7C4FA20211120FF
:104EF000FCF7C0FA43F228411020FCF7BBFA02216C
:104F00001220FCF7B7FA41F238011320FCF7B2FA8D
:104F10002820FBF7B3FA12210846FCF7ABFA282049
:104F2000FBF7ACFA43F220411020FCF7A3FA43F25E
:104F300038011320FCF79EFA4620FBF79FFA002168
:104F40003020FCF797FA40F202413120FCF792FA48
:104F500040F207313220FCF78DFA4FF441713320D3
:104F6000FCF788FA04213420FCF784FA40F201416E
:104F70003520FCF77FFA40F207713620FCF77AFA09
:104F800040F205313720FCF775FA4FF4C261382042
:104F9000FCF770FA4FF4C2613920FCF76BFA4FF45A
:104FA00080710120FCF766FA4FF440710220FCF793
:104FB00061FA41F230010320FCF75CFA40F6080187
:104FC0000820FCF757FA08210A20FCF753FA4FF49F
:104FD0001C51602000E033E0FCF74CFA0121612015
:104FE000FCF748FA4FF49F719020FCF743FA4FF416
:104FF00080719220FCF73EFA4FF480719320FCF709
:1050000039FA4FF44051A020FCF734FA1021A320C4
:10501000FCF730FA01210720FCF72CFA21210720A8
:10502000FCF728FA23210720FCF724FA3321072074
:10503000FCF720FA40F233110720FCF71BFABCE022
:105040006448808841F663118842F8D1E220FCF779
:10505000FBF91D20FCF7ECF90220FCF7E9F904202C
:10506000FCF7E6F96420FBF715FAE020FCF7ECF911
:105070000120FCF7DDF90A20FBF700FAE020FCF73D
:10508000E3F90320FCF7D4F90C20FBF7F7F9012032
:10509000FCF7DAF90A20FBF7F1F9E620FCF7D4F97E
:1050A0002F20FCF7C5F9FF20FCF7C2F9FF20FCF721
:1050B000BFF9B020FCF7C8F92020FCF7B9F90020AF
:1050C000FCF7B6F90020FCF7B3F9EF20FCF7B0F9D4
:1050D0000120FCF7ADF940F23F10FCF7A9F90020E0
:1050E000FCF7A6F9B420FCF7AFF90120FCF7A0F912
:1050F00040F2EF10FCF79CF90020FCF799F92E2004
:10510000FCF796F90020FCF793F90020FCF790F9E2
:105110000020FCF78DF90020FCF78AF9B620FCF797
:1051200093F90120FCF784F94FF4B670FCF780F98D
:105130000020FCF77DF91720FCF77AF91520FCF721
:1051400077F90020FCF774F90020FCF771F9F020E2
:10515000FCF77AF90320FCF76BF92920FCF774F9C6
:10516000D020FCF771F90020FCF762F9BE20FCF7B3
:105170006BF90520FCF75CF9FE20FCF759F90120DA
:10518000FCF756F90020FCF753F90020FCF750F922
:105190000020FCF74DF9B820FCF756F90320FCF786
:1051A00047F90120FCF744F9BA20FCF74DF901203A
:1051B000FCF73EF96420FBF741FC0020FBF71EFBE7
:1051C00001210548FBF791FA4FF6FF70FBF7E0FA73
:1051D0001FB000BD28000020000C014010B586B0B3
:1051E000044601210420FCF7C5F918208DF81700AA
:1051F0004FF40070ADF8140003208DF8160005A9D7
:105200001E48FBF7DEF904208DF817000002ADF808
:10521000140005A91948FBF7D4F901218803FCF70C
:10522000A9F901940020ADF810000C20ADF80E0093
:105230000020ADF80C00ADF80A00ADF8080001A997
:105240000F4800F093F801210D4800F033F80122D7
:1052500040F225510A4800F063F825208DF800003F
:1052600001208DF8030000208DF801008DF8020068
:105270006846FCF735F906B010BD00000008014093
:105280000038014010B540F22551084800F01EF8E2
:10529000012809D10548001D008805490870084605
:1052A00000780249091D088010BD00000038014047
:1052B0000C00002021B1828942F40052828104E076
:1052C00082894DF6FF731A408281704770B502469D
:1052D000002400230025002040F66A16B14200D1C8
:1052E00000BFC1F3421501F01F03012606FA03F3C4
:1052F000012D02D19689334006E0022D02D1168A93
:10530000334001E0968A33400C12012606FA04F479
:105310001688344013B10CB1012000E0002070BDAC
:10532000F0B50346002400260025002040F66A1749
:10533000B94200D100BF1846C1F3421401F01F0664
:10534000012707FA06F5012C01D10C3004E0022CEC
:1053500001D1103000E014301AB107682F43076004
:1053600002E00768AF430760F0BD00002DE9F04799
:1053700086B005460E460024A24600BFA14600277F
:10538000B08900B100BF2F462C8A4CF6FF70044054
:10539000F08804432C82AC894EF6F3100440B088A8
:1053A00031890843718908430443AC81AC8A4FF6C4
:1053B000FF400440B0890443AC8201A8FCF7EAF83E
:1053C0001F48874202D1DDF810A001E0DDF80CA0F3
:1053D000A88900F4004040B10AEBCA0000EB0A10B3
:1053E00031684900B0FBF1F807E00AEBCA0000EBB6
:1053F0000A1031688900B0FBF1F86420B8FBF0F0C6
:1054000004012009642101FB1089A88900F40040EF
:1054100040B1322000EBC900B0FBF1F000F0070012
:10542000044308E0322000EB09106421B0FBF1F0E6
:1054300000F00F0004432C8106B0BDE8F0870000A7
:105440000038014000BFFEE702E008C8121F08C193
:10545000002AFAD170477047002001E001C1121FF5
:10546000002AFBD1704700001FB5FCF70BF8FCF7D2
:10547000FBF8FBF743F9FAF79FFFFCF7C1F9444942
:10548000481EB0F1807F00D31BE0481E4FF0E022A1
:10549000506150170F22002804DB13071C0E3D4BF0
:1054A0001C5406E013071D0E3B4B00F00F04241F95
:1054B0001D5500BF00204FF0E022906107201061D1
:1054C00000BF4FF4E130FFF789FE0122402133484D
:1054D000FBF70DF9012280213048FBF708F9012282
:1054E00011022E48FBF703F900BF00202CA2102365
:1054F000CDE901200093039014234FF47A721946EA
:105500001846FBF70DFE002027A21023CDE901204D
:105510000093039014234FF47A7228211846FBF766
:10552000FFFD002023A21023CDE90120009303906A
:1055300014234FF47A723C211846FBF7F1FD40F238
:10554000CF1000211DA21023CDE90032CDE90210B9
:1055500014234FF47A7250211846FBF7E1FD1D48E1
:1055600096231A466E2100905A20FBF7A5FD0DE008
:1055700019480068B0F5FA7F08D31848006880F031
:10558000040016490860002013490860F0E7000095
:105590004019010000E400E018ED00E000080140BF
:1055A000B5DA36D7E9000000C7B6C8EBCABD32B0DD
:1055B000E0000000CDF5BCD2C0D60000D5E2B8F6C0
:1055C000CAC7C2EDCBB3D7EECFB2BBB6B5C42020AD
:1055D000A1FD000090C30008000000200C1801404D
:1055E00000000000000000000000000000000000BB
:1055F0003F4000000000000000003000400030008C
:105600004000000009000BC03D000BC03D00090038
:1056100018C024407FE0224031800000180024C0E0
:105620001B000D803240018003801C4027401C80FD
:105630000740004010006000000000000000000073
:105640000000000000001F8020404020000040209B
:1056500020401F8000000000090006001F80060097
:1056600009000000040004003F8004000400000062
:1056700000100060000000000000000004000400B2
:1056800004000400040000000000004000000000CE
:1056900000000000002001C00600380040000000AB
:1056A0001F802040204020401F800000000010404C
:1056B0003FC000400000000018C0214022402440AC
:1056C0001840000010802040244024401B8000002F
:1056D00002000D0011003FC0014000003C8024404A
:1056E00024402440238000001F8024402440344074
:1056F000038000003000200027C038002000000098
:105700001B802440244024401B8000001C0022C039
:10571000224022401F8000000000000008400000DE
:105720000000000000000000046000000000000015
:10573000000004000A001100208040400900090018
:10574000090009000900000000004040208011000D
:105750000A00040018002000234024001800000064
:105760001F802040274029401F400000004007C004
:1057700039000F0001C0004020403FC024402440B9
:105780001B8000001F80204020402040308000000F
:1057900020403FC0204020401F80000020403FC0EC
:1057A00024402E4030C0000020403FC024402E0046
:1057B000300000000F0010802040224033800200A3
:1057C00020403FC0040004003FC020402040204053
:1057D0003FC02040204000000060202020203FC02B
:1057E0002000200020403FC024400B0030C020405B
:1057F00020403FC020400040004000C03FC03C006F
:1058000003C03C003FC0000020403FC00C402300CC
:105810003FC020001F802040204020401F8000000B
:1058200020403FC024402400180000001F80214079
:10583000214020E01FA0000020403FC0244026005F
:1058400019C0004018C0244024402240318000008C
:10585000300020403FC020403000000020003F804A
:10586000004000403F80200020003E0001C00700B3
:1058700038002000380007C03C0007C03800000096
:10588000204039C0060039C02040000020003840C8
:1058900007C0384020000000304021C0264038407A
:1058A00020C00000000000007FE0402040200000F9
:1058B000000070000C000380004000000000402049
:1058C00040207FE000000000000020004000200099
:1058D0000000000000100010001000100010001068
:1058E00000000000400000000000000000000280F6
:1058F0000540054003C0004020003FC00440044074
:1059000003800000000003800440044006400000C3
:1059100000000380044024403FC00040000003809A
:105920000540054003400000000004401FC0244023
:1059300024402000000002E00550055006500420DD
:1059400020403FC00440040003C000400000044069
:1059500027C000400000000000100010041027E0E5
:105960000000000020403FC00140070004C0044088
:10597000204020403FC000400040000007C004001D
:1059800007C0040003C00000044007C00440040036
:1059900003C0004000000380044004400380000076
:1059A000041007F00450044003800000000003804E
:1059B0000440045007F00010044007C002400400F7
:1059C00004000000000006400540054004C000003F
:1059D000000004001F800440004000000400078015
:1059E0000040044007C000400400070004C00180DC
:1059F00006000400060001C0070001C00600000008
:105A0000044006C0010006C0044000000410071056
:105A100004E00180060004000000044005C00640C8
:105A2000044000000000000004007BE04020000073
:105A3000000000000000FFF0000000000000402017
:105A40007BE00400000000004000800040002000D7
:105A500020004000000000000000000000000000E6
:105A6000000000000000000000001FCC000C00003F
:105A70000000000000000800300060000800300056
:105A800060000000022003FC1E20022003FC1E20F8
:105A90000220000000000E1811043FFF10840C7853
:105AA000000000000F0010840F3800C00778188431
:105AB0000078000000780F8410C411240E9800E4D0
:105AC000008400080800680070000000000000006A
:105AD0000000000000000000000007E0181820048B
