:020000040800F2
:10000000A004002045010008ED160008010C0008BE
:10001000E9160008ED0800086D580008000000000F
:10002000000000000000000000000000611A00084D
:10003000F1080008000000006D1700084D1B0008C3
:100040005F0100085F0100085F0100085F01000810
:100050005F0100085F0100085F0100085F01000800
:100060005F0100085F0100085F0100085F010008F0
:100070005F0100085F0100085F0100085F010008E0
:100080005F0100085F0100085F0100085F010008D0
:100090005F0100085F0100085F0100085F010008C0
:1000A0005F0100085F0100085F0100085F010008B0
:1000B0005F0100085F0100085F0100085F010008A0
:1000C0005F0100085F0100085F0100085F01000890
:1000D0005F0100086D5600085F0100085F0100081D
:1000E0005F0100085F0100085F0100085F01000870
:1000F0005F0100085F0100085F0100085F01000860
:100100005F0100085F0100085F0100085F0100084F
:100110005F0100085F0100085F0100085F0100083F
:100120005F0100085F0100085F0100085F0100082F
:10013000DFF80CD000F00CFB00480047E16100083C
:10014000A00400200648804706480047FEE7FEE777
:10015000FEE7FEE7FEE7FEE7FEE7FEE7FEE7FEE777
:10016000891B00083101000840EA01039B0703D006
:1001700009E008C9121F08C0042AFAD203E011F8E6
:10018000013B00F8013B521EF9D27047D2B201E0A8
:1001900000F8012B491EFBD270470022F6E710B58C
:1001A00013460A4604461946FFF7F0FF204610BDE5
:1001B0002DE9FE4F804681EA0300C00F0C460090F7
:1001C00021F0004123F00045B8EB0200A94105D21F
:1001D0004046214690461C460B46024623F000400E
:1001E000104347D0270DC7F30A00C3F30A5102900A
:1001F000401A019040286BDAC3F3130040F4801BCF
:100200000098924620B10023D2EB030A63EB0B0B5C
:1002100001985946C0F14002504600F0BDF906462B
:100220000D4650465946019A00F0D5F910EB0800EA
:100230006141002487EA115284EAE7731A4340D0EF
:10024000009A62B3019A012A4FEA075215DC001B9B
:1002500061EB02014FF0004202EA0752CDE9004291
:10026000001C41F5801132462B4600F022FA03B003
:10027000BDE8F08F40462146F9E7001B61EB020123
:10028000001C41F5801300185B412018A2F50017EF
:1002900047EB030140EAD570B6196D4111E06D08D6
:1002A0004FEA360645EAC0754FEA0752001B61EB7C
:1002B0000201001C41F5801149084FEA3000001985
:1002C000514132462B4603B0BDE8F04F00F0E2B991
:1002D0000098012240000023D0EB020263EBE073A0
:1002E000009821464FEAE074B8EB000061EB04018E
:1002F000E9E783F000435BE781F0004158E72DE92F
:10030000FE4F81EA030404F0004421F00041009410
:100310004FF0000B23F0004350EA01045ED052EA94
:1003200003045BD0C3F30A54C1F30A552C44A4F26E
:10033000F3340194A0FB0254C1F3130141F4801182
:10034000C3F3130343F4801301FB024400FB034E89
:10035000840A970A44EA815447EA8357A4FB076852
:1003600002958D0A05FB07854FEA932C04FB0C547C
:100370002705029D4FEA065847EA1637B5EB0805F0
:100380006EEB070C870E920E47EA811742EA831242
:10039000A7FB0201B6EB0B0164EB00042B0D43EA53
:1003A0000C335E1844EB1C50DA465146E7FB020161
:1003B000C5F313044FEA0B3343EA14534FEA0432F4
:1003C000019C43EA0603A4F10C040294009CCDE9CD
:1003D00000B400F06EF903B0BDE8F08F00200146D4
:1003E000F9E72DE9F04D81EA030404F0004B21F018
:1003F000004514464FF0000A23F0004150EA050280
:1004000020D054EA01021DD0C5F30A570246C5F3B5
:100410001303C1F31300C1F30A5640F4801543F4EB
:100420008013A7EB0608101BD64608F2FD3873EBC5
:10043000050002D308F1010801E092185B41B8F110
:10044000000F03DA00200146BDE8F08D00204FF4D4
:100450008011064684460EE0171B73EB050705D393
:10046000121B63EB050306434CEA010C49084FEAF3
:10047000300092185B4150EA0107EDD152EA0300C7
:1004800012D082EA040083EA0501084305D0101B5C
:10049000AB4106D20122002306E000224FF00043C8
:1004A00002E06FF0010253101AEB06004CEB08510A
:1004B00010EB0A0041EB0B01BDE8F04D00F0EAB88B
:1004C0000EB5C10F80EAE0700844CA07002140F26F
:1004D00033438DE80E000A460B4600F0EAF803B0FD
:1004E00000BD0EB540F2334102910021CDE900116B
:1004F0000A460B4600F0DDF803B000BD70B5C1F34D
:100500000A5201F000450024C1F3130140F2FF3309
:1005100041F480119A4201DA002070BD40F2334369
:100520009A42A2F2334203DC524200F044F800E067
:1005300090402C43F1D0404270BDC1F30A5210B537
:10054000C1F3130140F2FF3341F480119A4201DA02
:10055000002010BD40F233439A42A2F2334203DC42
:10056000524200F028F810BD904010BD30B50B4647
:10057000014600202022012409E021FA02F59D42D3
:1005800005D303FA02F5491B04FA02F52844151EA7
:10059000A2F10102F1DC30BD202A04DB203A00FA8E
:1005A00002F1002070479140C2F1200320FA03F3CA
:1005B000194390407047202A04DB203A21FA02F0C8
:1005C0000021704721FA02F3D040C2F1200291408D
:1005D000084319467047202A06DBCB17203A41FA18
:1005E00002F043EAE07306E041FA02F3D040C2F1C0
:1005F000200291400843194670470000014900F06D
:1006000003B800007400002010B500683C22B0FB65
:10061000F2F302FB1303B0FBF2F00B60B0FBF2F35A
:1006200002FB1303B0FBF2F018224B60B0FBF2F3B5
:1006300002FB1303B0FBF2F0021D8B600723B2FB39
:10064000F3F403FB1422800040F2B55300F66C3043
:100650008A61B0FBF3F2B0FBF3F403FB1400443205
:1006600080084A61C8613B2802D3920700D0401C31
:100670000022074C13460A61E25C824203D8801ACA
:100680005B1C0B61F8E7401CC860084610BD000009
:1006900018BF020810B5141E73F1000408DA401CDC
:1006A00041F1000192185B411A4301D120F0010091
:1006B00010BD2DE9F04D92469B4611B1B1FA81F281
:1006C00002E0B0FA80F220329046FFF765FF044660
:1006D0000F4640EA0A0041EA0B0153465A460843D6
:1006E00013D0114653EA010019D0C8F14002504618
:1006F000FFF761FF05460E46504659464246FFF752
:100700004BFF084305D0012004E020463946BDE8F0
:10071000F08D0020054346EAE0762C4337430A98E3
:100720006305E40AA0EB08000022FD0A44EA4754EE
:100730000A3002D500200146E9E701051019694198
:10074000DDE9084500196941BDE8F04DA2E7000068
:10075000064C074D06E0E06840F0010394E807000E
:1007600098471034AC42F6D3FFF7E6FC24BF0208EA
:1007700044BF020870B521F0004303430CD0C1F31D
:100780000A550024D5EB040564EB0403D617AD1A13
:10079000B34102DB0020014670BD201841EB02513D
:1007A00070BD000000B587B00121042001F00CF8F5
:1007B00000208DF81B002020ADF8180003208DF8D4
:1007C0001A0006A91A4800F080F90121880200F0F9
:1007D000FBFF4FF4004000F0CBFF00208DF8090034
:1007E00004904FF4602003900020019001208DF8C8
:1007F000140000208DF8080001A90E4800F03CF814
:1008000001210C4800F018F80A4800F05DF800BF1C
:10081000084800F026F80128FAD0064800F059F8F8
:1008200000BF044800F013F80128FAD007B000BD5B
:10083000000801400028014021B1826842F0010215
:10084000826003E0826822F0010282607047014604
:1008500000208A6802F004020AB1012000E00020B2
:100860007047014600208A6802F008020AB10120A0
:1008700000E000207047000030B502460020002351
:1008800050680F4C20400D790C6844EA0524204341
:10089000506090680B4C2040D1E902542C434D79B4
:1008A00044EA450420439060D06A20F470000C7C38
:1008B000641EE4B2234340EA0350D06230BD00001E
:1008C000FFFEF0FFFDF7F1FF816841F00801816054
:1008D0007047816841F004018160704710B50120C4
:1008E00000F082FF002000F07FFF10BD00BFFEE798
:1008F000704700BF00BF00BF00BF00BF00BF00BF08
:1009000000BF00BF00BF00BF00BF00BF00BF00BFEF
:1009100000BF00BF00BF00BF00BF00BF00BF00BFDF
:1009200000BF00BF00BF00BF00BF00BF00BF00BFCF
:1009300000BF00BF00BF00BF00BF00BF00BF00BFBF
:1009400000BF00BF00BF00BF00BF00BF00BF00BFAF
:1009500000BF00BF00BF00BF00BF00BF00BF00BF9F
:1009600000BF00BF00BF00BF00BF00BF00BF00BF8F
:1009700000BF00BF00BF00BF00BF00BF00BF00BF7F
:1009800000BF704700B5034603E04FF47A7000F0F3
:1009900005F8181EA3F10103F7D100BD00B501E071
:1009A000FFF7A7FF011EA0F10100F9D100BD000073
:1009B00051B18200A2F1C042126842F001038200EC
:1009C000A2F1C042136009E08200A2F1C0421268A5
:1009D000034B1A408300A3F1C0431A607047000024
:1009E000FEFF0F00D0E901121143C26811430269F2
:1009F00011434269114382691143C2691143026A7A
:100A00001143426A1143826A1143C26A1143026B65
:100A1000114302689200A2F1C04211608168082966
:100A20000BD101688900A1F1C041096841F0400281
:100A300001688900A1F1C0410A60416B0968426BFD
:100A4000526841EA0211426B926841EA0221426B0C
:100A5000928941EA0241426B128A41EA0251426B99
:100A6000127D41EA0261426B926911430268521C95
:100A70009200A2F1C0421160C16AB1F5804F1BD152
:100A8000816B0968826B526841EA0211826B92683D
:100A900041EA0221826B128A41EA0251826B127D85
:100AA00041EA0261826B9269114302689200A2F1ED
:100AB000C042C2F8041107E06FF07042016889007B
:100AC000A1F1C041C1F8042170472DE9F04102466F
:100AD00000250026002000230024002791F803C0F1
:100AE0000CF00F0591F803C00CF0100CBCF1000FD6
:100AF00003D091F802C04CEA050591F800C0BCF1A2
:100B0000000F31D0146800202BE04FF0010C0CFADC
:100B100000F3B1F800C00CEA03069E4220D1830026
:100B20004FF00F0C0CFA03F7BC4305FA03FC4CEA38
:100B3000040491F803C0BCF1280F06D14FF0010C5A
:100B40000CFA00FCC2F814C00AE091F803C0BCF132
:100B5000480F05D14FF0010C0CFA00FCC2F810C090
:100B6000401C0828D1D31460B1F800C0BCF1FF0FBD
:100B700034DD546800202EE000F1080C4FF001082D
:100B800008FA0CF3B1F800C00CEA03069E4221D12A
:100B900083004FF00F0C0CFA03F7BC4305FA03FC7B
:100BA0004CEA040491F803C0BCF1280F05D100F110
:100BB000080C08FA0CF8C2F8148091F803C0BCF1D4
:100BC000480F07D100F1080C4FF0010808FA0CF8A3
:100BD000C2F81080401C0828CED35460BDE8F081D4
:100BE0000246002093680B400BB1012000E000207A
:100BF0007047016170470AB1016100E041617047CF
:100C000000BFFEE710B501211248FFF7E9FF0128F8
:100C100006D111480068401C0F490860002010BD33
:100C20000D480068B0F57A7F04D300200A490860B7
:100C30000520F4E708480068B0F5FA7F04D80020E2
:100C4000054908600320EAE700200349086000BF67
:100C5000E5E70000000801401000002070B50446E0
:100C6000002617480588408845431548808846F681
:100C70000401884216D112488079012812D100203F
:100C80000F4988712A2048812B208881002108463D
:100C900000F09AFB01200A4988712B2048812A2004
:100CA000888103E00021084600F08EFB00F0E0FCA4
:100CB000002602E003480480761CAE42FAD370BDE1
:100CC000380000200008006C10B50446002C73D1D9
:100CD00079498871F02008804FF4A0704880084658
:100CE000808849F24131884211D07348808849F2A6
:100CF000864188420BD07048808846F604018842BD
:100D000005D06D48808845F21031884220D12C20D2
:100D1000694908812A2048812B20888108468088DB
:100D200046F6040188420BD06348808845F21031B2
:100D3000884205D06048808849F28641884206D1C1
:100D40004FF4A0705C4908804FF4F0704880AEE02A
:100D50005948808845F21051884210D14FF43050E4
:100D6000554908814FF4285048814FF42C50888110
:100D70004FF4F07008804FF44870488097E04E4878
:100D8000808841F6631188420DD12C204A490881A0
:100D90002B2048812A2088814FF4F07008804FF47E
:100DA0004870488083E02220434908812020488100
:100DB000212088817BE0FFE701203F4988714FF4C3
:100DC000A0700880F02048800846808849F24131B0
:100DD00088420BD03848808849F28641884205D045
:100DE0003548808845F21031884207D12C2032499D
:100DF00008812A2048812B2088813FE02E48808866
:100E000046F60401884207D12C202B4908812B206B
:100E100048812A20888131E02748808845F2105196
:100E2000884210D14FF43050234908814FF42850A4
:100E300048814FF42C5088814FF4487008804FF45B
:100E4000F07048801AE01C48808841F6631188429F
:100E50000DD12C20184908812A2048812B20888117
:100E60004FF4487008804FF4F070488006E022206C
:100E70001149088121204881202088810E488088DE
:100E800046F6040188420BD00B48808845F21031A9
:100E9000884205D00848808849F28641884206D1B8
:100EA0004FF4F070044908804FF4A070488000208F
:100EB00000F00EF910BD0000380000202DE9FF4FB2
:100EC00083B081460020029083460598A0EB090577
:100ED00004990698461ACDF8049004980090002DC5
:100EE00001DD012705E00DB9002702E04FF0FF37D3
:100EF0006D42002E02DD4FF0010806E016B94FF0FA
:100F0000000802E04FF0FF387642B54201DD2C4682
:100F100000E034464FF0000A25E0009A91B2019AB1
:100F200090B200F027F8109BDAB2009B99B2019BB7
:100F300098B200F031F8029828440290B344029825
:100F4000A04205DD0298001B0290019838440190F0
:100F5000A34504DDABEB040B0098404400900AF17C
:100F600001001FFA80FA601C8245D6DD07B0BDE89B
:100F7000F08F000030B504460D462946204600F0AB
:100F800023FA00F075FB024800880249088030BD52
:100F9000160000200008006C2DE9F04306460F46BD
:100FA0009046002445460320A0EB48093CE07A1B0C
:100FB00091B2321990B2FFF7DDFF3A1B91B272196C
:100FC00090B2FFF7D7FF3A1991B2721990B2FFF7BA
:100FD000D1FF7A1991B2321990B2FFF7CBFF7A198B
:100FE00091B2321B90B2FFF7C5FF3A1991B2721B52
:100FF00090B2FFF7BFFF7A1B91B2321B90B2FFF79E
:10100000B9FF3A1B91B2721B90B2FFF7B3FF641C99
:10101000B9F1000F03DAA000801D814404E0601BD9
:1010200080000A3081446D1EAC42C0DDBDE8F08313
:1010300070B505460E4614463146284600F0C4F900
:1010400000F016FB0148048070BD00000008006C31
:1010500008B5034800880090BDF8000008BD0000F6
:101060000008006C10B50446204600F0F5FA052093
:10107000FFF794FCFFF7ECFF10BD00002DE9F047EF
:101080000446BE2000F0E8FA052000F0D9FA204618
:10109000FFF727FA07464FF066320C4BFFF72FF9A0
:1010A0000546FFF74AFA1FFA80F9484600F0C8FAE9
:1010B000012000F0C5FAFF2000F0C2FA002000F085
:1010C000BFFA002000F0BCFABDE8F0876666044075
:1010D000F0B5054600240027BA48807901280BD1D5
:1010E000B848808846F60401884205D0B548808813
:1010F00041F66311884208D1B2488079F0B9B1480D
:10110000808841F66311884218D1082D15D2DFE896
:1011100005F00406080A0C0E101206250DE007253E
:101120000BE0042509E0052507E0012505E0002581
:1011300003E0032501E0022500BF00BFA14880882D
:1011400049F2413188421DD09E48808849F286414B
:10115000884217D09B48808846F60401884211D007
:101160009848808845F2103188420BD09548808895
:1011700045F21051884205D09248808841F66311AB
:1011800088427DD1082D1CD2DFE805F00406090C49
:101190000F12151800BF14E044F0800411E044F071
:1011A00040040EE044F0C0040BE044F0200408E0EA
:1011B00044F0600405E044F0A00402E044F0E004E0
:1011C00000BF00BF7F48808845F21051884202D19D
:1011D0004FF4585700E036277A48808845F210319E
:1011E00088420DD07748808845F21051884207D058
:1011F0007448808841F66311884201D044F00804A5
:101200007048808846F60401884201D144F0020407
:101210002146384600F036FA6A48808841F6631164
:1012200088421DD004F0200068B1664800886549F6
:101230004988884214DA63480688408861490880F2
:10124000084646800CE05F4800885E49498888422D
:1012500006DD5C48068840885A4908800846468072
:101260005848808845F21051884254D155494889E0
:1012700000F0F2F9002000F0E3F95249498900E05A
:1012800078E0491C88B200F0E7F9002000F0D8F9B6
:101290004C494989891C88B200F0DEF9494909881E
:1012A000491EC1F30F2000F0CBF946494989C91CFA
:1012B00088B200F0D1F943490978491EC8B200F05C
:1012C000BFF94049888900F0C7F9002000F0B8F95B
:1012D0003C498989491C88B200F0BEF9002000F021
:1012E000AFF938498989891C88B200F0B5F93549C8
:1012F0004988491EC1F30F2000F0A2F931498989BC
:10130000C91C88B200F0A8F92E498978491EC8B2D4
:1013100000F096F955E02B49488900F09DF900202E
:1013200000F08EF9002000F08BF926490988491E4B
:10133000C1F30F2000F084F922490978491EC8B290
:1013400000F07EF91F49888900F086F9002000F03E
:1013500077F9002000F074F91A494988491EC1F351
:101360000F2000F06DF917498978491EC8B200F0C6
:1013700067F926E0082D1CD2DFE805F004070A0D06
:101380000F12151844F0300413E044F0100410E07C
:1013900044F020040DE000BF0BE044F0380408E006
:1013A00044F0280405E044F0180402E044F0080486
:1013B00000BF00BF032744F480542146384600F0A4
:1013C00061F9F0BD3800002030B504460D46814873
:1013D000808849F24131884205D07E48808845F2B4
:1013E0001031884214D17B49488900F035F9201228
:1013F00000F026F9E0B200F023F97649888900F080
:101400002BF9281200F01CF9E8B200F019F9E0E01D
:101410007048808849F2864188422ED16D494889BA
:1014200000F01AF9201200F00BF9E0B200F008F910
:1014300068490988491EC1F30F2000F001F9654988
:101440000978491EC8B200F0FBF86249888900F0AB
:1014500003F9281200F0F4F8E8B200F0F1F85D4961
:101460004988491EC1F30F2000F0EAF859498978EC
:10147000491EC8B200F0E4F8ABE05648808846F652
:10148000040188421DD153488079012804D1514874
:101490000088401E001B84B24E49488900F0DCF8E9
:1014A000201200F0CDF8E0B200F0CAF8494988896E
:1014B00000F0D2F8281200F0C3F8E8B200F0C0F84B
:1014C00087E04448808841F66311884247D141480B
:1014D0008079A8B93F480088401E001B84B23D496E
:1014E000488900F0B9F8002000F0AAF8002000F0C8
:1014F000A7F8201200F0A4F8E0B200F0A1F816E07E
:101500003449488900F0A8F8201200F099F8E0B2B8
:1015100000F096F82F490988491EC1F30F2000F00A
:101520008FF82C490978491EC8B200F089F829497A
:10153000888900F091F8281200F082F8E8B200F0F3
:101540007FF824494988491EC1F30F2000F078F83C
:1015500020498978491EC8B200F072F839E01D4868
:10156000808845F21051884220D11A49488900F0FC
:1015700073F8201200F064F816494989491C88B2B2
:1015800000F06AF8E0B200F05BF81249888900F0D8
:1015900063F8281200F054F80E498989491C88B272
:1015A00000F05AF8E8B200F04BF812E009488079F0
:1015B000012804D107480088401E001B84B2054959
:1015C0004889214600F05EF802498889294600F0E2
:1015D00059F830BD380000202DE9F84F04460F4679
:1015E000154698460A9E4FF00009CA46A3460020B9
:1015F000009000BF20E04FF0000917E070783178CC
:1016000040EA0120009039462046009AFFF710FD7D
:10161000601C84B20BEB0500A04202DC5C46781C27
:1016200087B2B61C09F101001FFA80F9A945E5DB74
:101630000AF101001FFA80FAC245DCDBBDE8F88F31
:1016400001B5BDF800000090BDF800000149088018
:1016500008BD00000008006C01B5BDF80000009056
:10166000BDF800000149088008BD0000FE07006CBD
:1016700002480089024908807047000038000020B5
:10168000FE07006C024A1080921C11807047000017
:10169000FE07006C08B50121402000F095F81020ED
:1016A0008DF803003C20ADF8000003208DF8020007
:1016B00069460C48FFF709FA012204210948FFF79F
:1016C0009AFA012208210748FFF795FA0122102112
:1016D0000448FFF790FA012220210248FFF78BFA15
:1016E00008BD00000018014000BFFEE77047000081
:1016F00070B5002100230F22C47804B3154C246870
:1017000004F4E064C4F5E064210AC1F10403CA40B2
:10171000447804FA03F184781440214309010E4C03
:101720000678A155047804F01F050124AC40057823
:101730006D11AD0005F1E025C5F8004109E0047820
:1017400004F01F050124AC40044D0678761145F8DD
:10175000264070BD0CED00E000E400E080E100E018
:10176000014908627047000000000E427047000007
:1017700001460020034A506820F44040084350606E
:10178000704700000010024029B1064A5269024326
:10179000044B5A6104E0034A52698243014B5A6187
:1017A000704700000010024029B1064AD269024386
:1017B000044BDA6104E0034AD2698243014BDA61E7
:1017C000704700000010024029B1064A92690243A6
:1017D000044B9A6104E0034A92698243014B9A6187
:1017E0007047000000100240014908607047000087
:1017F0004004424230B500210022002400232D4D38
:101800006D6805F00C0121B1042905D0082923D108
:1018100005E0294D056022E0274D05601FE0254DBC
:101820006D6805F47012234D6D6805F4803402254F
:1018300005EB92421CB9214D554305600BE01D4D4F
:101840006D6805F400351DB11C4D5543056002E07F
:10185000194D5543056002E0174D056000BF00BFFC
:10186000144D6D6805F0F0010909154D6B5C0568B4
:10187000DD4045600F4D6D6805F4E061090A104DCB
:101880006B5C4568DD4085600A4D6D6805F460510C
:10189000C90A0B4D6B5C4568DD40C560054D6D6840
:1018A00005F44041890B074D6B5CC568B5FBF3F54A
:1018B000056130BD0010024000127A0000093D00B1
:1018C0001A0000202A00002010B501460022002343
:1018D00000204A11012A02D1094C236806E0022A9D
:1018E00002D1074C236A01E0054C636A01F01F0234
:1018F000012494401C400CB1012000E0002010BDE8
:101900000010024000210B4A11700A4A203A82F866
:101910002010012802D0042808D103E00121054A43
:10192000117004E00521034A117000E000BF00BF00
:101930007047000020100240014908607047000015
:101940003C0442420249096A0143014A116270475C
:101950000010024010B501214FF0C050FFF724FFE6
:101960000120FFF7FDFEFEF7B9FF0120FFF7CAFFD8
:1019700000BF4120FFF7A8FF0028FAD04FF4807085
:10198000FFF7E0FF0120FFF7D7FF00F057F800F066
:101990004BF80121084600F027F800F045F847F61B
:1019A000FF7000F031F800F03FF810BD03480088E8
:1019B00040F01000014908807047000004280040F2
:1019C000034800884FF6EF710840014908807047CE
:1019D00004280040002103480188001F008841EAD4
:1019E000004070471C28004029B1064A1288024373
:1019F000044B1A8004E0034A12888243014B1A8088
:101A0000704700000028004000B50246FFF7CEFFF7
:101A1000C2F3034003490880091D0A80FFF7D0FF85
:101A200000BD00000828004000BF0348008800F007
:101A300020000028F9D0704704280040074800889B
:101A40004FF6F77108400549088000BF0348008839
:101A500000F008000028F9D070470000042800407A
:101A6000704710B500F002F810BD00000CB5002062
:101A7000019000903348006840F48030314908609C
:101A800000BF3048006800F4003000900198401C0E
:101A90000190009818B90198B0F5A06FF1D12948CC
:101AA000006800F4003010B10120009001E0002037
:101AB00000900098012843D12348006840F01000AE
:101AC000214908600846006820F0030008600846C5
:101AD000006840F0020008601A48406819494860F0
:101AE0000846406848600846406840F480604860A6
:101AF0000846406820F47C1048600846406840F47E
:101B0000E81048600846006840F08070086000BF38
:101B10000C48006800F000700028F9D009484068BF
:101B200020F00300074948600846406840F0020082
:101B3000486000BF0348406800F00C000828F9D155
:101B40000CBD0000001002400020024010B50A4801
:101B50000068401C0849086008480068401C0749A4
:101B6000086007480068401C05490860FFF74AF80C
:101B70000449087010BD000000000020080000208B
:101B80000C0000200400002010B51348006840F04D
:101B900001001149086008464068104908400E4994
:101BA0004860084600680E4908400B49086008462E
:101BB000006820F4802008600846406820F4FE0099
:101BC00048604FF41F008860FFF74BFF4FF0006044
:101BD0000449086010BD0000001002400000FFF83A
:101BE000FFFFF6FE08ED00E000B59FB000201E905C
:101BF00001210802FFF7C8FD01214FF4B470FFF77F
:101C0000E3FD0120ADF8740010208DF8770003206B
:101C10008DF876001DA9FE48FEF757FF4CF2337091
:101C2000ADF8740018208DF8770003208DF8760049
:101C30001DA9F848FEF749FF4FF68070ADF8740013
:101C400018208DF8770003208DF876001DA9F24842
:101C5000FEF73BFF41F20100ADF8740018208DF84B
:101C6000770003208DF876001DA9EC48FEF72DFFC4
:101C700001200790002008900F20099000200A9072
:101C80000B900C900D90009001900320029000208A
:101C9000039004900590069006200E9000200F906F
:101CA0001090102011900020129014901390159015
:101CB00016904FF480501790002018904FF48040F9
:101CC000199000201A9007A81B90CDF870D00EA88C
:101CD000FEF788FE01210620FEF76AFE3220FEF79D
:101CE00051FE01210020FFF7CDFC3220FEF74AFE15
:101CF0000020FFF7B7F9CA49888008468088FF2886
:101D00000FDB084680884FF6FF71884209D0C4482F
:101D10008088B0F5134F04D0C1488088B0F5144FC7
:101D20007ED1D320FFF798FCFFF792F9BC49888059
:101D3000FFF78EF9BA498880FFF78AF9B849888099
:101D4000084680884FF6FF7101EA0020B449888078
:101D5000FFF77EF9B24989880843B149888008466F
:101D6000808849F2413188425AD0AD48808849F292
:101D700086418842F8D0BF20FFF76EFCFFF768F974
:101D8000A7498880FFF764F9A5498880FFF760F9C3
:101D9000A3498880FFF75CF9A149888008468088BC
:101DA0004FF6FF7101EA00209D498880FFF750F946
:101DB0009B49898808439A4988800846808846F666
:101DC000040188427AD0D420FFF746FCFFF740F99F
:101DD00093498880FFF73CF991498880FFF738F9EB
:101DE0008F498880084680884FF6FF7101EA0020FD
:101DF0008B498880FFF72CF98949898808438849ED
:101E000088800846808845F21031884256D04FF4C9
:101E10005A40FFF721FCFFF71BF98149888000E059
:101E20004CE04FF45B40FFF717FCFFF711F97C49DA
:101E30008880084680884FF6FF7101EA00207849C3
:101E400088804FF45C40FFF707FCFFF701F9744905
:101E5000898808437249888008468088B0F5004F19
:101E600002D145F2105088806D48808845F21051AB
:101E7000884223D0A120FFF7EFFBFFF7E9F868497C
:101E80008880FFF7E5F866498880084680884FF625
:101E9000FF7101EA002062498880FFF7D9F86049A4
:101EA000898808435E4988800846808845F26171C8
:101EB000884203D141F66310594988805848808888
:101EC00049F24131884211D05548808845F210319D
:101ED00088420BD05248808845F21051884205D084
:101EE0004F48808841F6631188421DD14D480068F3
:101EF00020F00F004FF02041C1F81C010846D0F837
:101F00001C0120F47060C1F81C010846D0F81C01C7
:101F100040F00300C1F81C010846D0F81C0140F451
:101F20000070C1F81C0128E03D48808846F6040195
:101F3000884205D03A4880884CF2055188421CD12D
:101F40003848006820F00F004FF02041C1F81C0114
:101F50000846D0F81C0120F47060C1F81C01084646
:101F6000D0F81C0140F00A00C1F81C010846D0F866
:101F70001C0140F44060C1F81C012948808849F2E6
:101F8000413188427ED1CF20FFF766FB0020FFF76A
:101F900057FBC120FFF754FB3020FFF751FBED202A
:101FA000FFF75AFB6420FFF74BFB0320FFF748FBCA
:101FB0001220FFF745FB8120FFF742FBE820FFF7E7
:101FC0004BFB8520FFF73CFB1020FFF739FB7A2005
:101FD000FFF736FBCB20FFF73FFB3920FFF730FB45
:101FE0002C20FFF72DFB0020FFF72AFB3420FFF702
:101FF00027FB0220FFF724FBF720FFF72DFB202013
:10200000FFF71EFBEA20FFF727FB00200CE0000093
:10201000000C014000140140001801400020014064
:10202000380000201C0100A0FFF70AFB0020FFF78A
:1020300007FBC020FFF710FB1B20FFF701FBC120AF
:10204000FFF70AFB0120FFF7FBFAC520FFF704FBAF
:102050003020FFF7F5FA3020FFF7F2FAC720FFF73C
:10206000FBFAB720FFF7ECFA3620FFF7F5FA482025
:10207000FFF7E6FA3A20FFF7EFFA5520FFF7E0FA0C
:10208000B12000E0A5E0FFF7E7FA0020FFF7D8FA5B
:102090001A20FFF7D5FAB620FFF7DEFA0A20FFF77D
:1020A000CFFAA220FFF7CCFAF220FFF7D5FA0020F2
:1020B000FFF7C6FA2620FFF7CFFA0120FFF7C0FA94
:1020C000E020FFF7C9FA0F20FFF7BAFA2A20FFF73E
:1020D000B7FA2820FFF7B4FA0820FFF7B1FA0E206C
:1020E000FFF7AEFA0820FFF7ABFA5420FFF7A8FA83
:1020F000A920FFF7A5FA4320FFF7A2FA0A20FFF76D
:102100009FFA0F20FFF79CFA0020FFF799FA0020B2
:10211000FFF796FA0020FFF793FA0020FFF790FAF6
:10212000E120FFF799FA0020FFF78AFA1520FFF760
:1021300087FA1720FFF784FA0720FFF781FA1120AA
:10214000FFF77EFA0620FFF77BFA2B20FFF778FADD
:102150005620FFF775FA3C20FFF772FA0520FFF7CB
:102160006FFA1020FFF76CFA0F20FFF769FA3F2093
:10217000FFF766FA3F20FFF763FA0F20FFF760FAD8
:102180002B20FFF769FA0020FFF75AFA0020FFF72B
:1021900057FA0120FFF754FA3F20FFF751FA2A209F
:1021A000FFF75AFA0020FFF74BFA0020FFF748FA32
:1021B0000020FFF745FAEF20FFF742FA1120FFF762
:1021C0004BFA7820FEF7DEFB2920FFF745FA03F0F3
:1021D000E8B9FE48808849F2864188427ED1F220E3
:1021E000FFF73AFA1820FFF72BFAA320FFF728FA97
:1021F0001220FFF725FA0220FFF722FAB220FFF79C
:102200001FFA1220FFF71CFAFF20FFF719FA10201F
:10221000FFF716FA0020FFF713FAF820FFF71CFA71
:102220002120FFF70DFA0420FFF70AFAF920FFF743
:1022300013FA0020FFF704FA0820FFF701FA36200E
:10224000FFF70AFA0820FFF7FBF93A20FFF704FA34
:102250000520FFF7F5F9B420FFF7FEF90120FFF79D
:10226000EFF9B620FFF7F8F90220FFF7E9F922208D
:10227000FFF7E6F9C120FFF7EFF94120FFF7E0F99A
:10228000C520FFF7E9F90020FFF7DAF90720FFF78B
:10229000D7F9E020FFF7E0F90F20FFF7D1F91F2071
:1022A000FFF7CEF91C20FFF7CBF90C20FFF7C8F998
:1022B0000F20FFF7C5F90820FFF7C2F94820FFF704
:1022C000BFF99820FFF7BCF93720FFF7B9F90A20CA
:1022D000FFF7B6F91320FFF7B3F900E045E004205B
:1022E000FFF7AEF91120FFF7ABF90D20FFF7A8F9C2
:1022F0000020FFF7A5F9E120FFF7AEF90F20FFF767
:102300009FF93220FFF79CF92E20FFF799F90B2057
:10231000FFF796F90D20FFF793F90520FFF790F9E5
:102320004720FFF78DF97520FFF78AF93720FFF76F
:1023300087F90620FFF784F91020FFF781F90320C1
:10234000FFF77EF92420FFF77BF92020FFF778F9CB
:102350000020FFF775F91120FFF77EF97820FEF7CE
:1023600011FB2920FFF778F931E79848808846F675
:10237000040188427ED11120FFF76EF91420FEF788
:1023800001FBD020FFF768F90720FFF759F9422039
:10239000FFF756F91D20FFF753F9D120FFF75CF93D
:1023A0000020FFF74DF91A20FFF74AF90920FFF73F
:1023B00047F9D220FFF750F90120FFF741F9222019
:1023C000FFF73EF9C020FFF747F91020FFF738F973
:1023D0003B20FFF735F90020FFF732F90220FFF725
:1023E0002FF91120FFF72CF9C520FFF735F903204D
:1023F000FFF726F9C820FFF72FF90020FFF720F993
:102400002520FFF71DF92120FFF71AF90520FFF716
:1024100017F90020FFF714F90A20FFF711F96520DA
:10242000FFF70EF92520FFF70BF97720FFF708F9E2
:102430005020FFF705F90F20FFF702F90020FFF702
:10244000FFF8F820FFF708F90120FFF7F9F8FE2060
:10245000FFF702F90020FFF7F3F80220FFF7F0F88A
:102460002020FFF7F9F83620FFF7F6F80820FFF7ED
:10247000E7F800E02AE03A20FFF7EEF85520FFF7F2
:10248000DFF82B20FFF7E8F80020FFF7D9F800204D
:10249000FFF7D6F80120FFF7D3F83F20FFF7D0F879
:1024A0002A20FFF7D9F80020FFF7CAF80020FFF72D
:1024B000C7F80120FFF7C4F8DF20FFF7C1F8782044
:1024C000FEF760FA2920FFF7C7F880E63F488088CA
:1024D00045F21031884240F07C87ED20FFF7BCF8D0
:1024E0000120FFF7ADF8FE20FFF7AAF8EE20FFF776
:1024F000B3F8DE20FFF7A4F82120FFF7A1F8F120C0
:10250000FFF7AAF80120FFF79BF8DF20FFF7A4F8F8
:102510001020FFF795F8C420FFF79EF88F20FFF7F3
:102520008FF8C620FFF798F80020FFF789F8E2201F
:10253000FFF786F8E220FFF783F8E220FFF780F844
:10254000BF20FFF789F8AA20FFF77AF8B020FFF73D
:1025500083F80D20FFF774F80020FFF771F80D20C5
:10256000FFF76EF80020FFF76BF81120FFF768F80F
:102570000020FFF765F81920FFF762F80020FFF749
:102580005FF82120FFF75CF80020FFF759F82D20B5
:10259000FFF756F80020FFF753F83D20FFF750F8FB
:1025A0000020FFF74DF85D20FFF74AF80020FFF705
:1025B00047F85D20FFF744F80020FFF741F8B1200D
:1025C000FFF74AF88020FFF73BF801E038000020D1
:1025D0000020FFF735F88B20FFF732F80020FFF7D7
:1025E0002FF89620FFF72CF80020FFF729F8B220EB
:1025F000FFF732F80020FFF723F80020FFF720F85C
:102600000220FFF71DF80020FFF71AF80320FFF75C
:1026100017F80020FFF714F8B320FFF71DF800208B
:10262000FFF70EF80020FFF70BF80020FFF708F87F
:102630000020FFF705F80020FFF702F80020FEF762
:10264000FFFF0020FEF7FCFF0020FEF7F9FF00204F
:10265000FEF7F6FF0020FEF7F3FF0020FEF7F0FF85
:102660000020FEF7EDFF0020FEF7EAFF0020FEF756
:10267000E7FF0020FEF7E4FF0020FEF7E1FF002067
:10268000FEF7DEFF0020FEF7DBFF0020FEF7D8FF9D
:102690000020FEF7D5FF0020FEF7D2FF0020FEF756
:1026A000CFFF0020FEF7CCFF0020FEF7C9FFB420CB
:1026B000FEF7D2FF8B20FEF7C3FF0020FEF7C0FF1E
:1026C0009620FEF7BDFF0020FEF7BAFFA120FEF71F
:1026D000B7FF0020FEF7B4FFB520FEF7BDFF0220D4
:1026E000FEF7AEFF0020FEF7ABFF0320FEF7A8FFCA
:1026F0000020FEF7A5FF0420FEF7A2FF0020FEF752
:102700009FFFB620FEF7A8FF0020FEF799FF0020EC
:10271000FEF796FFB720FEF79FFF0020FEF790FF21
:102720000020FEF78DFF3F20FEF78AFF0020FEF716
:1027300087FF5E20FEF784FF0020FEF781FF642004
:10274000FEF77EFF0020FEF77BFF8C20FEF778FF70
:102750000020FEF775FFAC20FEF772FF0020FEF7A9
:102760006FFFDC20FEF76CFF0020FEF769FF702092
:10277000FEF766FF0020FEF763FF9020FEF760FF84
:102780000020FEF75DFFEB20FEF75AFF0020FEF76A
:1027900057FFDC20FEF754FF0020FEF751FFB82062
:1027A000FEF75AFF0020FEF74BFF0020FEF748FF20
:1027B0000020FEF745FF0020FEF742FF0020FEF755
:1027C0003FFF0020FEF73CFF0020FEF739FF00200E
:1027D000FEF736FFBA20FEF73FFF2420FEF730FF5A
:1027E0000020FEF72DFF0020FEF72AFF0020FEF755
:1027F00027FFC120FEF730FF2020FEF721FF002039
:10280000FEF71EFF5420FEF71BFF0020FEF718FF07
:10281000FF20FEF715FF0020FEF712FFC220FEF793
:102820001BFF0A20FEF70CFF0020FEF709FF042023
:10283000FEF706FF0020FEF703FFC320FEF70CFFA4
:102840003C20FEF7FDFE0020FEF7FAFE3A20FEF7E0
:10285000F7FE0020FEF7F4FE3920FEF7F1FE00201F
:10286000FEF7EEFE3720FEF7EBFE0020FEF7E8FE57
:102870003C20FEF7E5FE0020FEF7E2FE3620FEF7E4
:10288000DFFE0020FEF7DCFE3220FEF7D9FE00203E
:10289000FEF7D6FE2F20FEF7D3FE0020FEF7D0FE77
:1028A0002C20FEF7CDFE0020FEF7CAFE2920FEF701
:1028B000C7FE0020FEF7C4FE2620FEF7C1FE002062
:1028C000FEF7BEFE2420FEF7BBFE0020FEF7B8FE9A
:1028D0002420FEF7B5FE0020FEF7B2FE2320FEF70F
:1028E000AFFE0020FEF7ACFE3C20FEF7A9FE002064
:1028F000FEF7A6FE3620FEF7A3FE0020FEF7A0FEA0
:102900003220FEF79DFE0020FEF79AFE2F20FEF7F4
:1029100097FE0020FEF794FE2C20FEF791FE00208B
:10292000FEF78EFE2920FEF78BFE0020FEF788FEC4
:102930002620FEF785FE0020FEF782FE2420FEF70B
:102940007FFE0020FEF77CFE2420FEF779FE0020AB
:10295000FEF776FE2320FEF773FE0020FEF770FEE2
:10296000C420FEF779FE6220FEF76AFE0020FEF723
:1029700067FE0520FEF764FE0020FEF761FE84205E
:10298000FEF75EFE0020FEF75BFEF020FEF758FE2D
:102990000020FEF755FE1820FEF752FE0020FEF73D
:1029A0004FFEA420FEF74CFE0020FEF749FE182043
:1029B000FEF746FE0020FEF743FE5020FEF740FEE5
:1029C0000020FEF73DFE0C20FEF73AFE0020FEF749
:1029D00037FE1720FEF734FE0020FEF731FE95206B
:1029E000FEF72EFE0020FEF72BFEF320FEF728FE5A
:1029F0000020FEF725FEE620FEF722FE0020FEF76F
:102A00001FFEC520FEF728FE3220FEF719FE00202B
:102A1000FEF716FE4420FEF713FE0020FEF710FE20
:102A20006520FEF70DFE0020FEF70AFE7620FEF779
:102A300007FE0020FEF704FE8820FEF701FE0020BE
:102A4000FEF7FEFDC620FEF707FE2020FEF7F8FD8C
:102A50000020FEF7F5FD1720FEF7F2FD0020FEF73F
:102A6000EFFD0120FEF7ECFD0020FEF7E9FDC72099
:102A7000FEF7F2FD0020FEF7E3FD0020FEF7E0FD8B
:102A80000020FEF7DDFD0020FEF7DAFDC820FEF78E
:102A9000E3FD0020FEF7D4FD0020FEF7D1FD00206D
:102AA000FEF7CEFD0020FEF7CBFDC920FEF7D4FDDA
:102AB0000020FEF7C5FD0020FEF7C2FD0020FEF756
:102AC000BFFD0020FEF7BCFD0020FEF7B9FD002091
:102AD000FEF7B6FD0020FEF7B3FD0020FEF7B0FDC7
:102AE0000020FEF7ADFD0020FEF7AAFD0020FEF756
:102AF000A7FD0020FEF7A4FD0020FEF7A1FD0020A9
:102B0000FEF79EFD0020FEF79BFD0020FEF798FDDE
:102B1000E020FEF7A1FD1620FEF792FD0020FEF753
:102B20008FFD1C20FEF78CFD0020FEF789FD212083
:102B3000FEF786FD0020FEF783FD3620FEF780FDC0
:102B40000020FEF77DFD4620FEF77AFD0020FEF70F
:102B500077FD5220FEF774FD0020FEF771FD642022
:102B6000FEF76EFD0020FEF76BFD7A20FEF768FD94
:102B70000020FEF765FD8B20FEF762FD0020FEF7CA
:102B80005FFD9920FEF75CFD0020FEF759FDA820AF
:102B9000FEF756FD0020FEF753FDB920FEF750FD6D
:102BA0000020FEF74DFDC420FEF74AFD0020FEF791
:102BB00047FDCA20FEF744FD0020FEF741FDD2206C
:102BC000FEF73EFD0020FEF73BFDD920FEF738FD65
:102BD0000020FEF735FDE020FEF732FD0020FEF775
:102BE0002FFDF320FEF72CFD0020FEF729FDE1204C
:102BF000FEF732FD1620FEF723FD0020FEF720FD34
:102C00001C20FEF71DFD0020FEF71AFD2220FEF716
:102C100017FD0020FEF714FD3620FEF711FD002001
:102C2000FEF70EFD4520FEF70BFD0020FEF708FD28
:102C30005220FEF705FD0020FEF702FD6420FEF79E
:102C4000FFFC0020FEF7FCFC7A20FEF7F9FC0020D8
:102C5000FEF7F6FC8B20FEF7F3FC0020FEF7F0FCFD
:102C60009920FEF7EDFC0020FEF7EAFCA820FEF715
:102C7000E7FC0020FEF7E4FCB920FEF7E1FC0020B1
:102C8000FEF7DEFCC420FEF7DBFC0020FEF7D8FCDC
:102C9000CA20FEF7D5FC0020FEF7D2FCD220FEF7BA
:102CA000CFFC0020FEF7CCFCD820FEF7C9FC0020AA
:102CB000FEF7C6FCE020FEF7C3FC0020FEF7C0FCD8
:102CC000F320FEF7BDFC0020FEF7BAFCE220FEF781
:102CD000C3FC0520FEF7B4FC0020FEF7B1FC0B207E
:102CE000FEF7AEFC0020FEF7ABFC1B20FEF7A8FCB5
:102CF0000020FEF7A5FC3420FEF7A2FC0020FEF722
:102D00009FFC4420FEF79CFC0020FEF799FC4F201E
:102D1000FEF796FC0020FEF793FC6120FEF790FC86
:102D20000020FEF78DFC7920FEF78AFC0020FEF7DC
:102D300087FC8820FEF784FC0020FEF781FC9720AA
:102D4000FEF77EFC0020FEF77BFCA620FEF778FC59
:102D50000020FEF775FCB720FEF772FC0020FEF79E
:102D60006FFCC220FEF76CFC0020FEF769FCC72058
:102D7000FEF766FC0020FEF763FCD120FEF760FC46
:102D80000020FEF75DFCD620FEF75AFC0020FEF77F
:102D900057FCDD20FEF754FC0020FEF751FCF32029
:102DA000FEF74EFC0020FEF74BFCE320FEF754FC40
:102DB0000520FEF745FC0020FEF742FC0A20FEF746
:102DC0003FFC0020FEF73CFC1C20FEF739FC0020F5
:102DD000FEF736FC3320FEF733FC0020FEF730FC14
:102DE0004420FEF72DFC0020FEF72AFC5020FEF7C1
:102DF00027FC0020FEF724FC6220FEF721FC0020C7
:102E0000FEF71EFC7820FEF71BFC0020FEF718FCE6
:102E10008820FEF715FC0020FEF712FC9720FEF735
:102E20000FFC0020FEF70CFCA620FEF709FC00209A
:102E3000FEF706FCB720FEF703FC0020FEF700FCBF
:102E4000C220FEF7FDFB0020FEF7FAFBC720FEF7CD
:102E5000F7FB0020FEF7F4FBD120FEF7F1FB00208A
:102E6000FEF7EEFBD520FEF7EBFB0020FEF7E8FBBC
:102E7000DD20FEF7E5FB0020FEF7E2FBF320FEF786
:102E8000DFFB0020FEF7DCFBE420FEF7E5FB012082
:102E9000FEF7D6FB0020FEF7D3FB0120FEF7D0FBA8
:102EA0000020FEF7CDFB0220FEF7CAFB0020FEF754
:102EB000C7FB2A20FEF7C4FB0020FEF7C1FB3C2025
:102EC000FEF7BEFB0020FEF7BBFB4B20FEF7B8FB76
:102ED0000020FEF7B5FB5D20FEF7B2FB0020FEF7F9
:102EE000AFFB7420FEF7ACFB0020FEF7A9FB8420AB
:102EF000FEF7A6FB0020FEF7A3FB9320FEF7A0FB46
:102F00000020FEF79DFBA220FEF79AFB0020FEF7B3
:102F100097FBB320FEF794FB0020FEF791FBBE2049
:102F2000FEF78EFB0020FEF78BFBC420FEF788FB2C
:102F30000020FEF785FBCD20FEF782FB0020FEF788
:102F40007FFBD320FEF77CFB0020FEF779FBDD2022
:102F5000FEF776FB0020FEF773FBF320FEF770FB15
:102F60000020FEF76DFBE520FEF776FB0020FEF764
:102F700067FB0020FEF764FB0020FEF761FB0020EA
:102F8000FEF75EFB0220FEF75BFB0020FEF758FB1E
:102F90002920FEF755FB0020FEF752FB3C20FEF7F0
:102FA0004FFB0020FEF74CFB4B20FEF749FB0020B7
:102FB000FEF746FB5D20FEF743FB0020FEF740FBDB
:102FC0007420FEF73DFB0020FEF73AFB8420FEF75D
:102FD00037FB0020FEF734FB9320FEF731FB002087
:102FE000FEF72EFBA220FEF72BFB0020FEF728FBAE
:102FF000B320FEF725FB0020FEF722FBBE20FEF7E4
:103000001FFB0020FEF71CFBC420FEF719FB00206D
:10301000FEF716FBCD20FEF713FB0020FEF710FB9A
:10302000D320FEF70DFB0020FEF70AFBDC20FEF7A5
:1030300007FB0020FEF704FBF320FEF701FB002056
:10304000FEF7FEFAE620FEF707FB1120FEF7F8FA7E
:103050000020FEF7F5FA3420FEF7F2FA0020FEF722
:10306000EFFA5620FEF7ECFA0020FEF7E9FA762098
:10307000FEF7E6FA0020FEF7E3FA7720FEF7E0FA23
:103080000020FEF7DDFA6620FEF7DAFA0020FEF7F0
:10309000D7FA8820FEF7D4FA0020FEF7D1FA99205B
:1030A000FEF7CEFA0020FEF7CBFABB20FEF7C8FAF7
:1030B0000020FEF7C5FA9920FEF7C2FA0020FEF7BD
:1030C000BFFA6620FEF7BCFA0020FEF7B9FA5520D9
:1030D000FEF7B6FA0020FEF7B3FA5520FEF7B0FA75
:1030E0000020FEF7ADFA4520FEF7AAFA0020FEF711
:1030F000A7FA4320FEF7A4FA0020FEF7A1FA442025
:10310000FEF79EFA0020FEF79BFAE720FEF7A4FAEE
:103110003220FEF795FA0020FEF792FA5520FEF7CE
:103120008FFA0020FEF78CFA7620FEF789FA00204D
:10313000FEF786FA6620FEF783FA0020FEF780FA93
:103140006720FEF77DFA0020FEF77AFA6720FEF787
:1031500077FA0020FEF774FA8720FEF771FA002054
:10316000FEF76EFA9920FEF76BFA0020FEF768FA78
:10317000BB20FEF765FA0020FEF762FA9920FEF701
:103180005FFA0020FEF75CFA7720FEF759FA00207C
:10319000FEF756FA4420FEF753FA0020FEF750FAE5
:1031A0005620FEF74DFA0020FEF74AFA2320FEF7DC
:1031B00047FA0020FEF744FA3320FEF741FA0020D8
:1031C000FEF73EFA4520FEF73BFA0020FEF738FAFC
:1031D000E820FEF741FA0020FEF732FA0020FEF761
:1031E0002FFA9920FEF72CFA0020FEF729FA872003
:1031F000FEF726FA0020FEF723FA8820FEF720FAD1
:103200000020FEF71DFA7720FEF71AFA0020FEF7DD
:1032100017FA6620FEF714FA0020FEF711FA88204C
:10322000FEF70EFA0020FEF70BFAAA20FEF708FAC6
:103230000020FEF705FABB20FEF702FA0020FEF799
:10324000FFF99920FEF7FCF90020FEF7F9F9662056
:10325000FEF7F6F90020FEF7F3F95520FEF7F0F936
:103260000020FEF7EDF95520FEF7EAF90020FEF701
:10327000E7F94420FEF7E4F90020FEF7E1F94420E5
:10328000FEF7DEF90020FEF7DBF95520FEF7D8F94E
:103290000020FEF7D5F9E920FEF7DEF9AA20FEF7B7
:1032A000CFF90020FEF7CCF90020FEF7C9F9002085
:1032B000FEF7C6F90020FEF7CFF9AA20FEF7C0F905
:1032C000CF20FEF7C9F90020FEF7BAF90020FEF77B
:1032D000B7F90020FEF7B4F90020FEF7B1F900209D
:1032E000FEF7AEF90020FEF7ABF90020FEF7A8F9D3
:1032F0000020FEF7A5F90020FEF7A2F90020FEF756
:103300009FF90020FEF79CF90020FEF799F90020B4
:10331000FEF796F90020FEF793F90020FEF790F9EA
:103320000020FEF78DF90020FEF78AF9F020FEF765
:1033300093F90020FEF784F95020FEF781F9002070
:10334000FEF77EF90020FEF77BF90020FEF778F902
:10335000F320FEF781F90020FEF772F9F920FEF75D
:103360007BF90620FEF76CF91020FEF769F9292099
:10337000FEF766F90020FEF763F93A20FEF76CF9D4
:103380005520FEF75DF91120FEF766F96420FDF780
:10339000F9FA2920FEF760F93520FEF75DF90020E3
:1033A000FEF74EF95120FEF757F9FF20FEF748F9D6
:1033B0005320FEF751F92C20FEF742F95520FEF775
:1033C0004BF98220FEF73CF92C20FEF745F902F07C
:1033D000E8B8FE48808845F2105188427ED15521D8
:1033E0004FF47040FEF74EF9AA214FF20100FEF7AC
:1033F00049F952214FF20200FEF744F908214FF239
:103400000300FEF73FF901214FF20400FEF73AF9FD
:103410000D214FF43040FEF735F90D214BF201003C
:10342000FEF730F90D214BF20200FEF72BF93421A3
:103430004FF43640FEF726F934214BF20160FEF7D7
:1034400021F934214BF20260FEF71CF90D214FF4F3
:103450003140FEF717F90D214BF20110FEF712F97A
:103460000D214BF20210FEF70DF934214FF43740D5
:10347000FEF708F934214BF20170FEF703F934210D
:103480004BF20270FEF7FEF800214FF43240FEF7D7
:10349000F9F800214BF20120FEF7F4F800214BF27D
:1034A0000220FEF7EFF824214FF43840FEF7EAF847
:1034B00024214BF60100FEF7E5F824214BF602002B
:1034C000FEF7E0F801214FF43F40FEF7DBF80F2153
:1034D0004FF43340FEF7D6F80F2100E0FEE34BF245
:1034E0000130FEF7CFF80F214BF20230FEF7CAF899
:1034F00034214FF43940FEF7C5F834214BF6011062
:10350000FEF7C0F834214BF60210FEF7BBF8082195
:103510004FF43540FEF7B6F808214BF20150FEF7A4
:10352000B1F808214BF20250FEF7ACF803214FF43A
:103530004240FEF7A7F824214FF43A40FEF7A2F8E4
:1035400024214BF60120FEF79DF824214BF60220A2
:10355000FEF798F800214FF43C40FEF793F87821ED
:103560004BF60140FEF78EF800214BF60240FEF7C5
:1035700089F800214FF43D40FEF784F878214BF69E
:103580000150FEF77FF800214BF60250FEF77AF863
:1035900000214FF43E40FEF775F864214BF60160C0
:1035A000FEF770F800214FF45140FEF76BF833211D
:1035B0004DF20110FEF766F800214DF20210FEF701
:1035C00061F834214DF20310FEF75CF800214DF252
:1035D0000410FEF757F83A214DF20510FEF752F8A5
:1035E00000214DF20610FEF74DF84A214DF207106A
:1035F000FEF748F800214DF20810FEF743F85C2171
:103600004DF20910FEF73EF800214DF20A10FEF7C8
:1036100039F881214DF20B10FEF734F800214DF2FC
:103620000C10FEF72FF8A6214DF20D10FEF72AF828
:1036300000214DF20E10FEF725F8E5214DF20F1096
:10364000FEF720F801214DF21010FEF71BF81321B0
:103650004DF21110FEF716F801214DF21210FEF78F
:1036600011F854214DF21310FEF70CF801214DF220
:103670001410FEF707F882214DF21510FEF702F83C
:1036800001214DF21610FDF7FDFFCA214DF2171072
:10369000FDF7F8FF02214DF21810FDF7F3FF0021AE
:1036A0004DF21910FDF7EEFF02214DF21A10FDF751
:1036B000E9FF01214DF21B10FDF7E4FF02214DF25D
:1036C0001C10FDF7DFFF34214DF21D10FDF7DAFF6E
:1036D00002214DF21E10FDF7D5FF67214DF21F109C
:1036E000FDF7D0FF02214DF22010FDF7CBFF842122
:1036F0004DF22110FDF7C6FF02214DF22210FDF719
:10370000C1FFA4214DF22310FDF7BCFF02214DF2B1
:103710002410FDF7B7FFB7214DF22510FDF7B2FFDA
:1037200002214DF22610FDF7ADFFCF214DF22710FB
:10373000FDF7A8FF02214DF22810FDF7A3FFDE21BF
:103740004DF22910FDF79EFF02214DF22A10FDF7E0
:1037500099FFF2214DF22B10FDF794FF02214DF25B
:103760002C10FDF78FFFFE214DF22D10FDF78AFF83
:1037700003214DF22E10FDF785FF10214DF22F1081
:10378000FDF780FF03214DF23010FDF77BFF332161
:103790004DF23110FDF776FF03214DF23210FDF7A7
:1037A00071FF6D214DF23310FDF76CFF00214FF4D6
:1037B0005240FDF767FF33214DF20120FDF762FF14
:1037C00000214DF20220FDF75DFF01E038000020EE
:1037D00034214DF20320FDF755FF00214DF2042066
:1037E000FDF750FF3A214DF20520FDF74BFF002178
:1037F0004DF20620FDF746FF4A214DF20720FDF766
:1038000041FF00214DF20820FDF73CFF5C214DF205
:103810000920FDF737FF00214DF20A20FDF732FFA6
:1038200081214DF20B20FDF72DFF00214DF20C20E0
:10383000FDF728FFA6214DF20D20FDF723FF002103
:103840004DF20E20FDF71EFFE5214DF20F20FDF792
:1038500019FF01214DF21020FDF714FF13214DF245
:103860001120FDF70FFF01214DF21220FDF70AFF95
:1038700054214DF21320FDF705FF01214DF21420D4
:10388000FDF700FF82214DF21520FDF7FBFE01211F
:103890004DF21620FDF7F6FECA214DF21720FDF776
:1038A000F1FE02214DF21820FDF7ECFE00214DF251
:1038B0001920FDF7E7FE02214DF21A20FDF7E2FE86
:1038C00001214DF21B20FDF7DDFE02214DF21C20EF
:1038D000FDF7D8FE34214DF21D20FDF7D3FE022165
:1038E0004DF21E20FDF7CEFE67214DF21F20FDF7A1
:1038F000C9FE02214DF22020FDF7C4FE84214DF2C5
:103900002120FDF7BFFE02214DF22220FDF7BAFE75
:10391000A4214DF22320FDF7B5FE02214DF2242013
:10392000FDF7B0FEB7214DF22520FDF7ABFE0221D9
:103930004DF22620FDF7A6FECF214DF22720FDF700
:10394000A1FE02214DF22820FDF79CFEDE214DF262
:103950002920FDF797FE02214DF22A20FDF792FE65
:10396000F2214DF22B20FDF78DFE02214DF22C208D
:10397000FDF788FEFE214DF22D20FDF783FE032189
:103980004DF22E20FDF77EFE10214DF22F20FDF787
:1039900079FE03214DF23020FDF774FE33214DF204
:1039A0003120FDF76FFE03214DF23220FDF76AFE54
:1039B0006D214DF23320FDF765FE00214FF4534099
:1039C000FDF760FE33214DF20130FDF75BFE002173
:1039D0004DF20230FDF756FE34214DF20330FDF773
:1039E00051FE00214DF20430FDF74CFE3A214DF21C
:1039F0000530FDF747FE00214DF20630FDF742FE8F
:103A00004A214DF20730FDF73DFE00214DF208300E
:103A1000FDF738FE5C214DF20930FDF733FE002141
:103A20004DF20A30FDF72EFE81214DF20B30FDF7ED
:103A300029FE00214DF20C30FDF724FEA6214DF2A7
:103A40000D30FDF71FFE00214DF20E30FDF71AFE7E
:103A5000E5214DF20F30FDF715FE01214DF210303A
:103A6000FDF710FE13214DF21130FDF70BFE012181
:103A70004DF21230FDF706FE54214DF21330FDF7E2
:103A800001FE01214DF21430FDF7FCFD82214DF2C3
:103A90001530FDF7F7FD01214DF21630FDF7F2FD6F
:103AA000CA214DF21730FDF7EDFD02214DF218301D
:103AB000FDF7E8FD00214DF21930FDF7E3FD02218D
:103AC0004DF21A30FDF7DEFD01214DF21B30FDF7FE
:103AD000D9FD02214DF21C30FDF7D4FD34214DF209
:103AE0001D30FDF7CFFD02214DF21E30FDF7CAFD5E
:103AF00067214DF21F30FDF7C5FD02214DF2203048
:103B0000FDF7C0FD84214DF22130FDF7BBFD022100
:103B10004DF22230FDF7B6FDA4214DF22330FDF722
:103B2000B1FD02214DF22430FDF7ACFDB7214DF27D
:103B30002530FDF7A7FD02214DF22630FDF7A2FD4D
:103B4000CF214DF22730FDF79DFD02214DF22830A7
:103B5000FDF798FDDE214DF22930FDF793FD02219E
:103B60004DF22A30FDF78EFDF2214DF22B30FDF79C
:103B700089FD02214DF22C30FDF784FDFE214DF22E
:103B80002D30FDF77FFD03214DF22E30FDF77AFD3C
:103B900010214DF22F30FDF775FD03214DF230302D
:103BA000FDF770FD33214DF23130FDF76BFD032140
:103BB0004DF23230FDF766FD6D214DF23330FDF7E9
:103BC00061FD00214FF45440FDF75CFD33214DF2BF
:103BD0000140FDF757FD00214DF20240FDF752FD77
:103BE00034214DF20340FDF74DFD00214DF204401C
:103BF000FDF748FD3A214DF20540FDF743FD002158
:103C00004DF20640FDF73EFD4A214DF20740FDF71B
:103C100039FD00214DF20840FDF734FD5C214DF2E5
:103C20000940FDF72FFD00214DF20A40FDF72AFD66
:103C300081214DF20B40FDF725FD00214DF20C4096
:103C4000FDF720FDA6214DF20D40FDF71BFD0021E3
:103C50004DF20E40FDF716FDE5214DF20F40FDF748
:103C600011FD01214DF21040FDF70CFD13214DF225
:103C70001140FDF707FD01214DF21240FDF702FD55
:103C800054214DF21340FDF7FDFC01214DF214408B
:103C9000FDF7F8FC82214DF21540FDF7F3FC012100
:103CA0004DF21640FDF7EEFCCA214DF21740FDF72C
:103CB000E9FC02214DF21840FDF7E4FC00214DF231
:103CC0001940FDF7DFFC02214DF21A40FDF7DAFC46
:103CD00001214DF21B40FDF7D5FC00E004E3022179
:103CE0004DF21C40FDF7CEFC34214DF21D40FDF796
:103CF000C9FC02214DF21E40FDF7C4FC67214DF2C4
:103D00001F40FDF7BFFC02214DF22040FDF7BAFC39
:103D100084214DF22140FDF7B5FC02214DF22240F5
:103D2000FDF7B0FCA4214DF22340FDF7ABFC0221CE
:103D30004DF22440FDF7A6FCB7214DF22540FDF7DA
:103D4000A1FC02214DF22640FDF79CFCCF214DF253
:103D50002740FDF797FC02214DF22840FDF792FC29
:103D6000DE214DF22940FDF78DFC02214DF22A4063
:103D7000FDF788FCF2214DF22B40FDF783FC022178
:103D80004DF22C40FDF77EFCFE214DF22D40FDF75B
:103D900079FC03214DF22E40FDF774FC10214DF209
:103DA0002F40FDF76FFC03214DF23040FDF76AFC18
:103DB00033214DF23140FDF765FC03214DF23240D5
:103DC000FDF760FC6D214DF23340FDF75BFC0021F7
:103DD0004FF45540FDF756FC33214DF20150FDF7ED
:103DE00051FC00214DF20250FDF74CFC34214DF204
:103DF0000350FDF747FC00214DF20450FDF742FC53
:103E00003A214DF20550FDF73DFC00214DF20650E0
:103E1000FDF738FC4A214DF20750FDF733FC002135
:103E20004DF20850FDF72EFC5C214DF20950FDF7D4
:103E300029FC00214DF20A50FDF724FC81214DF2AE
:103E40000B50FDF71FFC00214DF20C50FDF71AFC42
:103E5000A6214DF20D50FDF715FC00214DF20E503C
:103E6000FDF710FCE5214DF20F50FDF70BFC012191
:103E70004DF21050FDF706FC13214DF21150FDF7E5
:103E800001FC01214DF21250FDF7FCFB54214DF2D3
:103E90001350FDF7F7FB01214DF21450FDF7F2FB33
:103EA00082214DF21550FDF7EDFB01214DF2165028
:103EB000FDF7E8FBCA214DF21750FDF7E3FB0221A5
:103EC0004DF21850FDF7DEFB00214DF21950FDF7C1
:103ED000D9FB02214DF21A50FDF7D4FB01214DF21E
:103EE0001B50FDF7CFFB02214DF21C50FDF7CAFB22
:103EF00034214DF21D50FDF7C5FB02214DF21E503D
:103F0000FDF7C0FB67214DF21F50FDF7BBFB0221FF
:103F10004DF22050FDF7B6FB84214DF22150FDF704
:103F2000B1FB02214DF22250FDF7ACFBA4214DF272
:103F30002350FDF7A7FB02214DF22450FDF7A2FB11
:103F4000B7214DF22550FDF79DFB02214DF2265081
:103F5000FDF798FBCF214DF22750FDF793FB02218F
:103F60004DF22850FDF78EFBDE214DF22950FDF772
:103F700089FB02214DF22A50FDF784FBF2214DF21C
:103F80002B50FDF77FFB02214DF22C50FDF77AFB01
:103F9000FE214DF22D50FDF775FB03214DF22E5001
:103FA000FDF770FB10214DF22F50FDF76BFB032145
:103FB0004DF23050FDF766FB33214DF23150FDF7E5
:103FC00061FB03214DF23250FDF75CFB6D214DF298
:103FD0003350FDF757FB00214FF45640FDF752FBDD
:103FE00033214DF20160FDF74DFB00214DF20260DF
:103FF000FDF748FB34214DF20360FDF743FB002140
:104000004DF20460FDF73EFB3A214DF20560FDF7ED
:1040100039FB00214DF20660FDF734FB4A214DF2D9
:104020000760FDF72FFB00214DF20860FDF72AFB2A
:104030005C214DF20960FDF725FB00214DF20A607D
:10404000FDF720FB81214DF20B60FDF71BFB0021EA
:104050004DF20C60FDF716FBA6214DF20D60FDF749
:1040600011FB00214DF20E60FDF70CFBE5214DF236
:104070000F60FDF707FB01214DF21060FDF702FB19
:1040800013214DF21160FDF7FDFA01214DF212608E
:10409000FDF7F8FA54214DF21360FDF7F3FA012110
:1040A0004DF21460FDF7EEFA82214DF21560FDF736
:1040B000E9FA01214DF21660FDF7E4FACA214DF24A
:1040C0001760FDF7DFFA02214DF21860FDF7DAFA0A
:1040D00000214DF21960FDF7D5FA02214DF21A6068
:1040E000FDF7D0FA01214DF21B60FDF7CBFA02215A
:1040F0004DF21C60FDF7C6FA34214DF21D60FDF74C
:10410000C1FA02214DF21E60FDF7BCFA67214DF2A3
:104110001F60FDF7B7FA02214DF22060FDF7B2FAF9
:1041200084214DF22160FDF7ADFA02214DF22260AB
:10413000FDF7A8FAA4214DF22360FDF7A3FA0221AE
:104140004DF22460FDF79EFAB7214DF22560FDF790
:1041500099FA02214DF22660FDF794FACF214DF233
:104160002760FDF78FFA02214DF22860FDF78AFAE9
:10417000DE214DF22960FDF785FA02214DF22A6019
:10418000FDF780FAF2214DF22B60FDF77BFA022158
:104190004DF22C60FDF776FAFE214DF22D60FDF711
:1041A00071FA03214DF22E60FDF76CFA10214DF2E9
:1041B0002F60FDF767FA03214DF23060FDF762FAD8
:1041C00033214DF23160FDF75DFA03214DF232608B
:1041D000FDF758FA6D214DF23360FDF753FA552182
:1041E0004FF47040FDF74EFAAA214FF20100FDF79F
:1041F00049FA52214FF20200FDF744FA08214FF22A
:104200000300FDF73FFA00214FF20400FDF73AFAF0
:10421000CC214FF43140FDF735FA00214BF201106B
:10422000FDF730FA05214FF43640FDF72BFA7021E7
:104230004FF43740FDF726FA70214BF20170FDF77D
:1042400021FA01214FF43840FDF71CFA03214BF607
:104250000100FDF717FA03214BF60200FDF712FAF1
:1042600003214BF60300FDF70DFA02214FF43C4009
:10427000FDF708FA00214BF60140FDF703FA002193
:104280004BF60240FDF7FEF9D0214FF44940FDF70F
:10429000F9F902214CF60110FDF7F4F950214CF622
:1042A0000210FDF7EFF950214CF60310FDF7EAF983
:1042B00050214CF60410FDF7E5F900214FF454505D
:1042C000FDF7E0F955214FF46850FDF7DBF94FF4A5
:1042D0008850FDF7C1F97820FCF760FB4FF42450BB
:1042E000FDF7BAF901F05DB9FE48808849F2253141
:1042F00088427DD147F6F001E520FDF7C3F94FF480
:1043000080710120FDF7BEF94FF4E0610220FDF756
:10431000B9F941F230010320FDF7B4F9002104207E
:10432000FDF7B0F940F202210820FDF7ABF90021BA
:104330000920FDF7A7F900210A20FDF7A3F90021C4
:104340000C20FDF79FF900210D20FDF79BF90021BE
:104350000F20FDF797F900211020FDF793F90721B1
:104360001120FDF78FF900211220FDF78BF90021B4
:104370001320FDF787F900210720FDF783F941F2AB
:1043800090611020FDF77EF940F227211120FDF702
:1043900079F99D211220FDF775F94FF4C8511320CA
:1043A000FDF770F925212920FDF76CF90D212B204F
:1043B000FDF768F907213020FDF764F940F2033179
:1043C0003120FDF75FF903213220FDF75BF940F260
:1043D00006213520FDF756F908213620FDF752F960
:1043E00040F206413720FDF74DF94FF4417100E0EE
:1043F00058E03820FDF746F907213920FDF742F94A
:1044000040F202613C20FDF73DF908213D20FDF717
:1044100039F900215020FDF735F9EF215120FDF742
:1044200031F900215220FDF72DF940F23F115320C0
:10443000FDF728F94FF427416020FDF723F901210A
:104440006120FDF71FF900216A20FDF71BF900210B
:104450008020FDF717F900218120FDF713F90021D5
:104460008220FDF70FF900218320FDF70BF90021D1
:104470008420FDF707F900218520FDF703F91021BD
:104480009020FDF7FFF84FF4C0619220FDF7FAF895
:1044900040F233110720FDF7F5F822210020FDF747
:1044A000F1F81FE78F48808849F2283188427DD192
:1044B00041F28F01EC20FDF7E5F841F23421EF20C5
:1044C000FDF7E0F84FF480710120FDF7DBF84FF4C1
:1044D000E0610220FDF7D6F841F230010320FDF73C
:1044E000D1F800210420FDF7CDF840F20221082088
:1044F000FDF7C8F800210920FDF7C4F800210A20C3
:10450000FDF7C0F801210C20FDF7BCF800210D20BB
:10451000FDF7B8F800210F20FDF7B4F800211020B6
:10452000FDF7B0F807211120FDF7ACF800211220AB
:10453000FDF7A8F800211320FDF7A4F801210720BA
:10454000FDF7A0F83220FCF71DFA41F2904110204F
:10455000FDF798F840F227211120FDF793F832205B
:10456000FCF710FA8A211220FDF78CF83220FCF7B4
:1045700009FA4FF4D0511320FDF784F806212920C1
:10458000FDF780F80D212B20FDF77CF83220FCF799
:10459000F9F900212020FDF775F800212120FDF711
:1045A00071F83220FCF7EEF9002100E075E03020D0
:1045B000FDF768F840F204613120FDF763F840F23E
:1045C00005313220FDF75EF800213520FDF75AF85D
:1045D00040F609413620FDF755F84FF401713720B8
:1045E000FDF750F840F201313820FDF74BF840F26A
:1045F00007713920FDF746F800213C20FDF742F80D
:1046000040F60A213D20FDF73DF83220FCF7BAF9CB
:1046100000215020FDF736F8EF215120FDF732F848
:1046200000215220FDF72EF840F23F115320FDF7F4
:1046300029F84FF427416020FDF724F8012161207B
:10464000FDF720F800216A20FDF71CF800218020EA
:10465000FDF718F800218120FDF714F800218220D1
:10466000FDF710F800218320FDF70CF800218420CD
:10467000FDF708F800218520FDF704F810219020AF
:10468000FDF700F84FF4C0619220FCF7FBFF40F209
:1046900033110720FCF7F6FF24E61248808849F220
:1046A000203188427ED100210846FCF7EBFF4FF411
:1046B00080710120FCF7E6FF4FF4E0610220FCF777
:1046C000E1FF41F230010320FCF7DCFF0021042070
:1046D000FCF7D8FF40F202210820FCF7D3FF0021AD
:1046E000092001E038000020FCF7CCFF00210A205F
:1046F000FCF7C8FF01210C20FCF7C4FF00210D20AE
:10470000FCF7C0FF00210F20FCF7BCFF3220FCF7B4
:1047100039F940F201110720FCF7B4FF3220FCF711
:1047200031F94FF486511020FCF7ACFF072111201E
:10473000FCF7A8FF4FF488711220FCF7A3FF4FF499
:1047400030611320FCF79EFF00212920FCF79AFF1F
:1047500044F210012B20FCF795FF00215020FCF7BC
:1047600091FFEF215120FCF78DFF00215220FCF733
:1047700089FF40F23F115320FCF784FF4FF41C5196
:104780006020FCF77FFF01216120FCF77BFF002107
:104790006A20FCF777FF00218020FCF773FF0021DF
:1047A000812000E030E0FCF76DFF00218220FCF763
:1047B00069FF00218320FCF765FF00218420FCF7BE
:1047C00061FF00218520FCF75DFF10219020FCF7A0
:1047D00059FF00219220FCF755FF01219320FCF79F
:1047E00051FF4FF488719520FCF74CFF0021972072
:1047F000FCF748FF00219820FCF744FF40F27311BA
:104800000720FCF73FFF6DE5FE48808849F2313113
:1048100088427DD141F21401E720FCF733FF4FF4C9
:1048200080710120FCF72EFF4FF400710220FCF78D
:1048300029FF41F238010320FCF724FF40F2022156
:104840000820FCF71FFF00210920FCF71BFF0021B7
:104850000A20FCF717FF00210C20FCF713FF0021B2
:104860000D20FCF70FFF00210F20FCF70BFF0021AC
:104870001020FCF707FF07211120FCF703FF0021A0
:104880001220FCF7FFFE00211320FCF7FBFEC820DE
:10489000FCF778F841F290611020FCF7F3FE40F24B
:1048A00027211120FCF7EEFE3220FCF76BF80C21DB
:1048B0001220FCF7E7FE3220FCF764F84FF40061A9
:1048C0001320FCF7DFFE11212920FCF7DBFE0B2172
:1048D0002B20FCF7D7FE3220FCF754F800212020D3
:1048E000FCF7D0FE40F23F112120FCF7CBFE002167
:1048F0003020FCF7C7FE4FF483713120FCF7C2FE75
:1049000000213220FCF7BEFE4FF40171352000E09B
:1049100064E0FCF7B7FE41F20A613620FCF7B2FE14
:1049200040F207713720FCF7ADFE4FF48371382059
:10493000FCF7A8FE40F207713920FCF7A3FE40F215
:1049400002413C20FCF79EFE40F60F413D20FCF763
:1049500099FE00215020FCF795FEEF215120FCF735
:1049600091FE00215220FCF78DFE40F23F115320B2
:10497000FCF788FE4FF41C516020FCF783FE0121F8
:104980006120FCF77FFE00216A20FCF77BFE0021FE
:104990008020FCF777FE00218120FCF773FE0021C8
:1049A0008220FCF76FFE00218320FCF76BFE0021C4
:1049B0008420FCF767FE00218520FCF763FE1021B0
:1049C0009020FCF75FFE4FF4C0619220FCF75AFE86
:1049D00040F233110720FCF755FE83E489488088B4
:1049E00045F2084188427DD14FF480710120FCF7E7
:1049F00049FE4FF4E0610220FCF744FE41F2300131
:104A00000320FCF73FFE00210420FCF73BFE40F2B0
:104A100007210820FCF736FE00210920FCF732FEB2
:104A200000210A20FCF72EFE00210C20FCF72AFEB4
:104A300000210D20FCF726FE00210F20FCF722FEAE
:104A40001420FBF79FFF41F2B0611020FCF71AFE23
:104A500001211120FCF716FE01211720FCF712FEA0
:104A60004FF49C711220FCF70DFE4FF400611320EF
:104A7000FCF708FE09212920FCF704FE09212A2061
:104A8000FCF700FE0021A420FCF7FCFD00215020D3
:104A9000FCF7F8FDEF215120FCF7F4FD0021522036
:104AA000FCF7F0FD40F23F115320FCF7EBFD4FF413
:104AB0001C516020FCF7E6FD01216120FCF7E2FDBE
:104AC00000216A20FCF7DEFD00218020FCF7DAFDE2
:104AD00000218120FCF7D6FD00218220FCF7D2FDC9
:104AE000002100E024E08320FCF7CCFD002184209D
:104AF000FCF7C8FD00218520FCF7C4FD13219020A0
:104B0000FCF7C0FD00219220FCF7BCFD032193209F
:104B1000FCF7B8FD4FF488719520FCF7B3FD40F227
:104B200073110720FCF7AEFD3220FBF72BFFB8E432
:104B30003448808841F2055188427DD10021072008
:104B4000FCF7A0FD3220FBF71DFF4FF48E71122001
:104B5000FCF798FD0121A420FCF794FD0F2108200B
:104B6000FCF790FD08210A20FCF78CFD08210D20A0
:104B7000FCF788FD40F207713020FCF783FD072128
:104B80003120FCF77FFD40F203613220FCF77AFD13
:104B90004FF4E0613320FCF775FD40F20221342030
:104BA000FCF770FD02213520FCF76CFD41F60F711A
:104BB0003620FCF767FD40F207713720FCF762FDF5
:104BC00000213820FCF75EFD00213920FCF75AFD5A
:104BD00040F207713A20FCF755FD00213B20FCF71D
:104BE00051FD07213C20FCF74DFD00213D20FCF745
:104BF00049FD3220FBF7C6FE01210720FCF742FDEC
:104C0000012101E0380000201720FCF73BFD322095
:104C1000FBF7B8FE4FF4BD511020FCF733FD40F216
:104C200017211120FCF72EFD4FF48F711220FCF795
:104C300029FD4FF4706100E098E01320FCF722FD9D
:104C400000212A20FCF71EFD0A212920FCF71AFD6D
:104C50004FF49F711220FCF715FD00215020FCF746
:104C600011FDEF215120FCF70DFD00215220FCF732
:104C700009FD40F23F115320FCF704FD4FF41C5195
:104C80006020FCF7FFFC01216120FCF7FBFC002108
:104C90006A20FCF7F7FC00218020FCF7F3FC0021E0
:104CA0008120FCF7EFFC00218220FCF7EBFC0021C7
:104CB0008320FCF7E7FC00218420FCF7E3FC0021C3
:104CC0008520FCF7DFFC13219020FCF7DBFC4FF480
:104CD00040719220FCF7D6FC05219320FCF7D2FC12
:104CE00000219520FCF7CEFC00219720FCF7CAFCA0
:104CF00000219820FCF7C6FC4FF480710120FCF7DE
:104D0000C1FC4FF4E0610220FCF7BCFC41F2380129
:104D10000320FCF7B7FC00210420FCF7B3FC0021C2
:104D20000C20FCF7AFFC00210F20FCF7ABFC0021AE
:104D30002020FCF7A7FC00212120FCF7A3FC212167
:104D40000720FCF79FFC1420FBF71CFE61210720C5
:104D5000FCF798FC1420FBF715FE40F273110720B6
:104D6000FCF790FC1420FBF70DFE95E4FE488088CC
:104D70004BF2055188427CD100210846FCF782FCA9
:104D800000210846FCF77EFC00210846FCF77AFC6F
:104D900000210846FCF776FC0121A420FCF772FCF8
:104DA0001420FBF7EFFD4FF41C516020FCF76AFC68
:104DB00040F202210820FCF765FC4FF40571302019
:104DC000FCF760FC43F215713120FCF75BFC40F20C
:104DD00004613220FCF756FC40F616613320FCF7E4
:104DE00051FC42F211213420FCF74CFC4FF4A85145
:104DF0003520FCF747FC48F207513620FCF742FC0F
:104E000041F207413720FCF73DFC41F203413820D5
:104E1000FCF738FC20213920FCF734FC1A219020C3
:104E2000FCF730FC00211020FCF72CFC072111209E
:104E3000FCF728FC00211220FCF724FC00211320A1
:104E4000FCF720FC1420FBF79DFD4FF4E6611020D9
:104E5000FCF718FC40F237111120FCF713FC14206A
:104E6000FBF790FD4FF4DC711220FCF70BFC1420D3
:104E700000E085E0FBF786FD4FF470611320FCF73E
:104E800001FC80212A20FCF7FDFB48212920FCF7AA
:104E9000F9FB1420FBF776FD4FF480710120FCF73D
:104EA000F1FB4FF4E0610220FCF7ECFB41F238012A
:104EB0000320FCF7E7FB40F202210820FCF7E2FBAD
:104EC00000210A20FCF7DEFB00210C20FCF7DAFBB6
:104ED00000210D20FCF7D6FB30210E20FCF7D2FB81
:104EE00000215020FCF7CEFBEF215120FCF7CAFB3C
:104EF00000215220FCF7C6FB40F23F115320FCF783
:104F0000C1FB4FF41C516020FCF7BCFB0121612068
:104F1000FCF7B8FB00216A20FCF7B4FB11219020BC
:104F2000FCF7B0FB4FF4C0619220FCF7ABFB40F202
:104F300002419320FCF7A6FB02219420FCF7A2FB80
:104F40001420FBF71FFD01210720FCF79BFB142019
:104F5000FBF718FD61210720FCF794FB40F2731169
:104F60000720FCF78FFB00212020FCF78BFB0021A2
:104F70002120FCF787FB22210020FCF783FB10E3B4
:104F8000794880884CF2055188427CD1002108463E
:104F9000FCF778FB00210846FCF774FB1420FBF7B4
:104FA000F1FC00210846FCF76DFB00210846FCF7E8
:104FB00069FB00210846FCF765FB00210846FCF769
:104FC00061FB0121A420FCF75DFB1420FBF7DAFC58
:104FD0004FF41C516020FCF755FB40F606010820F9
:104FE000FCF750FB40F203713020FCF74BFB012132
:104FF0003120FCF747FB04213220FCF743FB4FF440
:1050000081713320FCF73EFB4FF440713420FCF7F4
:1050100039FB40F203113520FCF734FB1F21362009
:10502000FCF730FB40F203713720FCF72BFB01212A
:105030003820FCF727FB04213920FCF723FB15213E
:105040009020FCF71FFB4FF482611020FCF71AFB45
:1050500040F247211120FCF715FB4FF4DE711220BE
:10506000FCF710FB4FF460611320FCF70BFB78207A
:10507000FBF788FC4FF480710120FCF703FB4FF431
:105080000071022000E052E0FCF7FCFA41F230012E
:105090000320FCF7F7FA08210A20FCF7F3FA0021B5
:1050A0000C20FCF7EFFA20210E20FCF7EBFA002190
:1050B0000F20FCF7E7FA00212020FCF7E3FA00219B
:1050C0002120FCF7DFFA3D212A20FCF7DBFA14202F
:1050D000FBF758FC2D212920FCF7D4FA00215020A1
:1050E000FCF7D0FA4DF2EF015120FCF7CBFA00218A
:1050F0005220FCF7C7FA40F23F115320FCF7C2FAE6
:1051000000216120FCF7BEFA00216A20FCF7BAFA00
:105110004FF440719220FCF7B5FA05219320FCF77B
:10512000B1FA4FF480710720FCF7ACFA39E20E486F
:10513000808844F2315188427ED101210020FCF761
:10514000A1FA0A20FBF71EFC41F228611020FCF7AF
:1051500099FA0E211220FCF795FA40F63921132016
:10516000FCF790FA0A2001E038000020FBF70AFC67
:1051700040211120FCF786FA50211520FCF782FA15
:105180000A20FBF7FFFB1E211220FCF77BFA0A2006
:10519000FBF7F8FB4FF4B1511020FCF773FA42F61D
:1051A00039211320FCF76EFA0A20FBF7EBFB4FF4D2
:1051B00080710120FCF766FA4FF440710220FCF781
:1051C00061FA41F238010320FCF75CFA40F2022157
:1051D0000820FCF757FA08210A20FCF753FA0021AF
:1051E0003020FCF74FFA40F202413120FCF74AFA36
:1051F0004FF483713220FCF745FA40F2035133201B
:10520000FCF740FA4FF482713420FCF73BFA40F28D
:1052100001313520FCF736FA40F207713620FCF7F1
:1052200031FA40F205313720FCF72CFA4FF40271C5
:105230003820FCF727FA00E03EE040F60B713920F9
:10524000FCF720FA02214120FCF71CFA4FF41C5114
:105250006020FCF717FA01216120FCF713FA4FF4E4
:1052600004719020FCF70EFA4FF485719220FCF740
:1052700009FA04219320FCF705FA4FF48071A0206D
:10528000FCF700FA01210720FCF7FCF92121072097
:10529000FCF7F8F923210720FCF7F4F93321072064
:1052A000FCF7F0F940F233110720FCF7EBF900218D
:1052B000A020FCF7E7F974E1C048808844F235513A
:1052C00088427CD130211520FCF7DCF910219A208E
:1052D000FCF7D8F920211120FCF7D4F943F228413A
:1052E0001020FCF7CFF902211220FCF7CBF941F294
:1052F00038011320FCF7C6F92820FBF743FB1221E5
:105300000846FCF7BFF92820FBF73CFB43F220419D
:105310001020FCF7B7F943F238011320FCF7B2F97B
:105320004620FBF72FFB00213020FCF7ABF940F2C1
:1053300002413120FCF7A6F940F207313220FCF798
:10534000A1F94FF441713320FCF79CF9042134207A
:10535000FCF798F940F201413520FCF793F940F24F
:1053600007713620FCF78EF940F205313720FCF743
:1053700089F94FF4C2613820FCF784F94FF4C26117
:105380003920FCF77FF94FF480710120FCF77AF99E
:105390004FF440710220FCF775F941F2300103200F
:1053A000FCF770F940F608010820FCF76BF90821BA
:1053B0000A20FCF767F94FF41C51602000E033E04D
:1053C000FCF760F901216120FCF75CF94FF49F7153
:1053D0009020FCF757F94FF480719220FCF752F9B6
:1053E0004FF480719320FCF74DF94FF44051A02009
:1053F000FCF748F91021A320FCF744F9012107200C
:10540000FCF740F921210720FCF73CF92321072074
:10541000FCF738F933210720FCF734F940F2331157
:105420000720FCF72FF9BCE06448808841F663113F
:105430008842F8D1E220FCF70FF91D20FCF700F9B3
:105440000220FCF7FDF80420FCF7FAF86420FBF7D3
:10545000A5FAE020FCF700F90120FCF7F1F80A209A
:10546000FBF790FAE020FCF7F7F80320FCF7E8F8E8
:105470000C20FBF787FA0120FCF7EEF80A20FBF777
:1054800081FAE620FCF7E8F82F20FCF7D9F8FF2096
:10549000FCF7D6F8FF20FCF7D3F8B020FCF7DCF8D7
:1054A0002020FCF7CDF80020FCF7CAF80020FCF71C
:1054B000C7F8EF20FCF7C4F80120FCF7C1F840F270
:1054C0003F10FCF7BDF80020FCF7BAF8B420FCF759
:1054D000C3F80120FCF7B4F840F2EF10FCF7B0F885
:1054E0000020FCF7ADF82E20FCF7AAF80020FCF70E
:1054F000A7F80020FCF7A4F80020FCF7A1F8002092
:10550000FCF79EF8B620FCF7A7F80120FCF798F806
:105510004FF4B670FCF794F80020FCF791F81720D0
:10552000FCF78EF81520FCF78BF80020FCF788F8C4
:105530000020FCF785F8F020FCF78EF80320FCF73C
:105540007FF82920FCF788F8D020FCF785F80020A8
:10555000FCF776F8BE20FCF77FF80520FCF770F822
:10556000FE20FCF76DF80120FCF76AF80020FCF73C
:1055700067F80020FCF764F80020FCF761F8B82019
:10558000FCF76AF80320FCF75BF80120FCF758F8F9
:10559000BA20FCF761F80120FCF752F86420FBF711
:1055A0006DFD0020FBF790FB01210548FBF721FB77
:1055B0004FF6FF70FBF752FB1FB000BD3800002014
:1055C000000C014010B586B0044601210420FCF710
:1055D000FBF818208DF817004FF40070ADF8140098
:1055E00003208DF8160005A91E48FBF76EFA04206B
:1055F0008DF817000002ADF8140005A91948FBF753
:1056000064FA01218803FCF7DFF801940020ADF86B
:1056100010000C20ADF80E000020ADF80C00ADF825
:105620000A00ADF8080001A90F4800F0AFF8012109
:105630000D4800F043F8012240F225510A4800F0DD
:1056400080F825208DF8000001208DF8030000204F
:105650008DF801008DF802006846FCF749F806B0A5
:1056600010BD0000000801400038014010B540F2B4
:105670002551084800F03BF8012809D10548001DD4
:10568000008805490870084600780249091D08800D
:1056900010BD0000003801401400002010B5044681
:1056A00000BF4021044800F015F80028F9D0214639
:1056B000014800F0D7F810BD0038014021B18289BF
:1056C00042F40052828104E082894DF6FF731A4051
:1056D0008281704702460020B1F5007F00D100BFF3
:1056E00013880B400BB1012000E00020704770B51B
:1056F0000246002400230025002040F66A16B1422D
:1057000000D100BFC1F3421501F01F03012606FAC4
:1057100003F3012D02D19689334006E0022D02D118
:10572000168A334001E0968A33400C12012606FAAD
:1057300004F41688344013B10CB1012000E00020BD
:1057400070BDF0B50346002400260025002040F679
:105750006A17B94200D100BF1846C1F3421401F0E4
:105760001F06012707FA06F5012C01D10C3004E0D1
:10577000022C01D1103000E014301AB107682F4319
:10578000076002E00768AF430760F0BD2DE9F0470E
:1057900086B005460E460024A24600BFA14600275B
:1057A000B08900B100BF2F462C8A4CF6FF70044030
:1057B000F08804432C82AC894EF6F3100440B08884
:1057C00031890843718908430443AC81AC8A4FF6A0
:1057D000FF400440B0890443AC8201A8FCF70AF8FA
:1057E0001F48874202D1DDF810A001E0DDF80CA0CF
:1057F000A88900F4004040B10AEBCA0000EB0A108F
:1058000031684900B0FBF1F807E00AEBCA0000EB91
:105810000A1031688900B0FBF1F86420B8FBF0F0A1
:1058200004012009642101FB1089A88900F40040CB
:1058300040B1322000EBC900B0FBF1F000F00700EE
:10584000044308E0322000EB09106421B0FBF1F0C2
:1058500000F00F0004432C8106B0BDE8F087000083
:1058600000380140C1F308028280704700BFFEE7A4
:105870000FB4054B10B503A9044A029800F052FB7F
:1058800010BC5DF814FB000015610008300000201A
:10589000490050EAC12018BF04204A0D18BF40F04B
:1058A000010040F2FF72B2EB515F08BF40F002000E
:1058B000012808BF052070472DE9F74F144694B022
:1058C0000021C4E902111599079121F00045C94949
:1058D0008D4206DC1599C4E9000117B00020BDE82F
:1058E000F08FC549DFF814A3A9423CDD0799C44EE7
:1058F0000029C44FC44A1599534619DDFAF7F9FC3B
:10590000554506D0C14AC24BFAF7F3FCC4E9000181
:105910000AE04FF0D352BE4BFAF7EBFC32463B465F
:10592000FAF7E7FCC4E9000117B00120BDE8F08FE9
:10593000FAF73EFC554506D0B44AB54BFAF738FCA9
:10594000C4E900010AE04FF0D352B14BFAF730FC42
:1059500032463B46FAF72CFCC4E9000117B04FF081
:10596000FF30BDE8F08FAB49A942159978DB21F0F3
:10597000004183468846A84AA84BFAF7C0FC00229B
:10598000A74BFAF715FCFAF7B9FD0990FAF798FD5D
:1059900006460F469C4A5346FAF7B1FC43465A4620
:1059A000FAF7AAFC80468A46984A994B304639460F
:1059B000FAF7A5FC2A0D01250B9242465346FAF749
:1059C0009BFC032DC4E9000139D00B98C1F30A51A7
:1059D000401A05EB45111139814230DA9148C3462E
:1059E000784400EB0510CDF80CA00C90D0E9002312
:1059F00030463946FAF783FC02460B46049106907E
:105A000058460399FAF775FC80468A4602460B46CB
:105A100058460399FAF76DFC049B069AFAF769FC5D
:105A200083460C9803913946D0E902233046FAF7B1
:105A300066FC5A46039BFAF75CFC6D1CBDE70798B1
:105A40000028A2BF099817B0BDE8F08F616881F007
:105A500000416160099817B04042BDE8F08FFFE750
:105A600084461598C1F31301C0F30A50A0F2F53033
:105A70004FEA601800F01F06C6F1200013900020C6
:105A80000690079041F4801E05206D4676B1664A67
:105A900008EB00017A4452F8213002EB8101B34057
:105AA0004A68139922FA01F1194305E05F4908EBAE
:105AB0000002794451F82210A1FB0E27A1FB0C1320
:105AC0001A449A4234BF0123002303EB070A05EB73
:105AD0008003D3E901B70F448F4234BF0121002175
