:020000040800F2
:10000000080500204501000821180008A50A00087D
:100010001D18000891070008155E00080000000088
:10002000000000000000000000000000F51B0008B8
:100030009507000800000000B5180008451D0008DD
:100040005F0100085F0100085F0100085F01000810
:100050005F0100085F0100085F0100085F01000800
:100060005F0100085F0100085F0100085F010008F0
:100070005F0100085F0100085F0100085F010008E0
:100080005F0100085F0100085F0100085F010008D0
:100090005F0100085F0100085F0100085F010008C0
:1000A0005F0100085F0100085F0100085F010008B0
:1000B0005F010008015800085F0100085F010008A7
:1000C0005F0100085F0100085F0100085F01000890
:1000D0005F010008555C00085F0100085F0100082F
:1000E0005F0100085F0100085F0100085F01000870
:1000F0005F0100085F0100085F0100085F01000860
:100100005F0100085F0100085F0100085F0100084F
:100110005F0100085F0100085F0100085F0100083F
:100120005F0100085F0100085F0100085F0100082F
:10013000DFF80CD000F08CF900480047395E000869
:10014000080500200648804706480047FEE7FEE70E
:10015000FEE7FEE7FEE7FEE7FEE7FEE7FEE7FEE777
:10016000C51D00083101000840EA01039B0703D0C8
:1001700009E008C9121F08C0042AFAD203E011F8E6
:10018000013B00F8013B521EF9D270472DE9FE4FAA
:1001900081EA030404F0004421F0004100944FF090
:1001A000000B23F0004350EA01045ED052EA03043E
:1001B0005BD0C3F30A54C1F30A552C44A4F2F334C0
:1001C0000194A0FB0254C1F3130141F48011C3F365
:1001D000130343F4801301FB024400FB034E840A23
:1001E000970A44EA815447EA8357A4FB07680295BB
:1001F0008D0A05FB07854FEA932C04FB0C54270559
:10020000029D4FEA065847EA1637B5EB08056EEB34
:10021000070C870E920E47EA811742EA8312A7FB6A
:100220000201B6EB0B0164EB00042B0D43EA0C3327
:100230005E1844EB1C50DA465146E7FB0201C5F359
:1002400013044FEA0B3343EA14534FEA0432019C80
:1002500043EA0603A4F10C040294009CCDE900B427
:1002600000F0A7F803B0BDE8F08F00200146F9E7E1
:100270000EB540F2334102910021CDE900110A464A
:100280000B4600F096F803B000BDC1F30A5210B55A
:10029000C1F3130140F2FF3341F480119A4201DAB5
:1002A000002010BD40F233439A42A2F2334203DCF5
:1002B000524200F012F810BD904010BD202A04DB1D
:1002C000203A00FA02F1002070479140C2F1200369
:1002D00020FA03F3194390407047202A04DB203AA8
:1002E00021FA02F00021704721FA02F3D040C2F156
:1002F000200291400843194670470000014900F070
:1003000003B80000D800002010B500683C22B0FB04
:10031000F2F302FB1303B0FBF2F00B60B0FBF2F35D
:1003200002FB1303B0FBF2F018224B60B0FBF2F3B8
:1003300002FB1303B0FBF2F0021D8B600723B2FB3C
:10034000F3F403FB1422800040F2B55300F66C3046
:100350008A61B0FBF3F2B0FBF3F403FB1400443208
:1003600080084A61C8613B2802D3920700D0401C34
:100370000022074C13460A61E25C824203D8801ACD
:100380005B1C0B61F8E7401CC860084610BD00000C
:100390006CCD000810B5141E73F1000408DA401C7F
:1003A00041F1000192185B411A4301D120F0010094
:1003B00010BD2DE9F04D92469B4611B1B1FA81F284
:1003C00002E0B0FA80F220329046FFF777FF044651
:1003D0000F4640EA0A0041EA0B0153465A460843D9
:1003E00013D0114653EA010019D0C8F1400250461B
:1003F000FFF773FF05460E46504659464246FFF743
:100400005DFF084305D0012004E020463946BDE8E1
:10041000F08D0020054346EAE0762C4337430A98E6
:100420006305E40AA0EB08000022FD0A44EA4754F1
:100430000A3002D500200146E9E70105101969419B
:10044000DDE9084500196941BDE8F04DA2E700006B
:10045000064C074D06E0E06840F0010394E8070011
:1004600098471034AC42F6D3FFF766FE78CD00080B
:1004700098CD000800B587B00121042001F048FAAA
:1004800000208DF81B002020ADF8180003208DF807
:100490001A0006A91A4800F06AFA0121880201F040
:1004A00037FA4FF4004001F007FA00208DF80900F8
:1004B00004904FF4602003900020019001208DF8FB
:1004C000140000208DF8080001A90E4800F07AF809
:1004D00001210C4800F018F80A4800F0F7F800BFB6
:1004E000084800F064F80128FAD0064800F0F3F854
:1004F00000BF044800F04DF80128FAD007B000BD55
:10050000000801400028014021B1826842F0010248
:10051000826003E0826822F001028260704700007E
:1005200010B504461248844208D10121401501F05B
:10053000FFF90021601501F0FBF917E00D48844236
:1005400008D10121001501F0F3F90021201501F077
:10055000EFF90BE00848844208D10121C80301F0FB
:10056000E7F900214FF4004001F0E2F910BD00006E
:100570000024014000280140003C014021B1826874
:1005800042F48012826003E0826822F4801282606A
:100590007047014600208A6802F004020AB1012077
:1005A00000E0002070470146C86C80B270470146E9
:1005B00000208A6802F008020AB1012000E0002051
:1005C0007047000030B502460020002350680F4CF1
:1005D00020400D790C6844EA05242043506090685F
:1005E0000B4C2040D1E902542C434D7944EA450498
:1005F00020439060D06A20F470000C7C641EE4B24A
:10060000234340EA0350D06230BD0000FFFEF0FFFC
:10061000FDF7F1FFF0B504460D4600200021092D3D
:1006200011DDE068A5F10A0606EB4607072606FA83
:1006300007F18843A5F10A0606EB460603FA06F120
:100640000843E0600CE0206905EB4507072606FA41
:1006500007F1884305EB450603FA06F108432061DC
:10066000072A0FDA606B561E06EB86071F2606FA6E
:1006700007F18843561E06EB860605FA06F1084385
:10068000606322E00D2A0FDA206BD61F06EB860787
:100690001F2606FA07F18843D61F06EB860605FAE1
:1006A00006F10843206310E0E06AA2F10D0606EBB4
:1006B00086071F2606FA07F18843A2F10D0606EB0E
:1006C000860605FA06F10843E062F0BD816841F054
:1006D000080181607047816841F0040181607047C2
:1006E00000B587B001214FF4017001F011F94FF40A
:1006F000404001F0E1F80220ADF8040000208DF840
:10070000070001A91C4800F032F91C48FFF708FF58
:10071000002002908DF80C008DF80D004FF40020A1
:1007200004900020059001208DF8180002A91348BC
:10073000FFF748FF01211148FFF720FF00230122A6
:1007400011460E48FFF766FF01210C48FFF7DCFE5B
:100750000A48FFF7BBFF00BF0848FFF728FF002843
:10076000FAD10648FFF7B7FF00BF0448FFF711FFB3
:100770000028FAD107B000BD000801400024014064
:1007800010B5012001F0E4F8002001F0E1F810BDFF
:1007900000BFFEE7704700BF00BF00BF00BF00BF43
:1007A00000BF00BF00BF00BF00BF00BF00BF00BF51
:1007B00000BF00BF00BF00BF00BF00BF00BF00BF41
:1007C00000BF00BF00BF00BF00BF00BF00BF00BF31
:1007D00000BF00BF00BF00BF00BF00BF00BF00BF21
:1007E00000BF00BF00BF00BF00BF00BF00BF00BF11
:1007F00000BF00BF00BF00BF00BF00BF00BF00BF01
:1008000000BF00BF00BF00BF00BF00BF00BF00BFF0
:1008100000BF00BF00BF00BF00BF00BF00BF00BFE0
:1008200000BF00BF00BF704700B5034603E04FF4B0
:100830007A7000F005F8181EA3F10103F7D100BD8E
:1008400000B501E0FFF7A7FF011EA0F10100F9D1FB
:1008500000BD000051B18200A2F1C042126842F016
:1008600001038200A2F1C042136009E08200A2F1FC
:10087000C0421268034B1A408300A3F1C0431A60C0
:1008800070470000FEFF0F00D0E901121143C2685B
:100890001143026911434269114382691143C269DC
:1008A0001143026A1143426A1143826A1143C26AC8
:1008B0001143026B114302689200A2F1C042116021
:1008C000816808290BD101688900A1F1C04109683C
:1008D00041F0400201688900A1F1C0410A60416B0A
:1008E0000968426B526841EA0211426B926841EA20
:1008F0000221426B928941EA0241426B128A41EA2B
:100900000251426B127D41EA0261426B92691143CE
:100910000268521C9200A2F1C0421160C16AB1F596
:10092000804F1BD1816B0968826B526841EA0211CA
:10093000826B926841EA0221826B128A41EA02517B
:10094000826B127D41EA0261826B926911430268F7
:100950009200A2F1C042C2F8041107E06FF07042A9
:1009600001688900A1F1C041C1F8042170472DE957
:10097000F041024600250026002000230024002725
:1009800091F803C00CF00F0591F803C00CF0100CA7
:10099000BCF1000F03D091F802C04CEA050591F8B4
:1009A00000C0BCF1000F31D0146800202BE04FF0E4
:1009B000010C0CFA00F3B1F800C00CEA03069E42E9
:1009C00020D183004FF00F0C0CFA03F7BC4305FA5B
:1009D00003FC4CEA040491F803C0BCF1280F06D1D3
:1009E0004FF0010C0CFA00FCC2F814C00AE091F8B8
:1009F00003C0BCF1480F05D14FF0010C0CFA00FC0C
:100A0000C2F810C0401C0828D1D31460B1F800C04F
:100A1000BCF1FF0F34DD546800202EE000F1080C1B
:100A20004FF0010808FA0CF3B1F800C00CEA030615
:100A30009E4221D183004FF00F0C0CFA03F7BC4308
:100A400005FA03FC4CEA040491F803C0BCF1280F3A
:100A500005D100F1080C08FA0CF8C2F8148091F8DE
:100A600003C0BCF1480F07D100F1080C4FF001089A
:100A700008FA0CF8C2F81080401C0828CED3546045
:100A8000BDE8F0810246002093680B400BB10120C5
:100A900000E000207047016170470AB1016100E089
:100AA0004161704700BFFEE708B50121442000F016
:100AB0002FFF04208DF803000120ADF80000032073
:100AC0008DF8020069460548FFF751FF7020ADF828
:100AD000000069460248FFF74AFF08BD00080140D0
:100AE0000010014010B501211248FFF7CBFF01288B
:100AF00006D111480068401C0F490860002010BD55
:100B00000D480068B0F57A7F04D300200A490860D8
:100B10000520F4E708480068B0F5FA7F04D8002003
:100B2000054908600320EAE700200349086000BF88
:100B3000E5E70000000801402800002070B50446E9
:100B4000002617480588408845431548808846F6A2
:100B50000401884216D112488079012812D1002060
:100B60000F4988712A2048812B208881002108465E
:100B700000F0E0FA01200A4988712B2048812A20E0
:100B8000888103E00021084600F0D4FA00F00AFE54
:100B9000002602E003480480761CAE42FAD370BD02
:100BA000740000200008006C10B50446002C73D1BE
:100BB00079498871F02008804FF4A0704880084679
:100BC000808849F24131884211D07348808849F2C7
:100BD000864188420BD07048808846F604018842DE
:100BE00005D06D48808845F21031884220D12C20F4
:100BF000694908812A2048812B20888108468088FD
:100C000046F6040188420BD06348808845F21031D3
:100C1000884205D06048808849F28641884206D1E2
:100C20004FF4A0705C4908804FF4F0704880AEE04B
:100C30005948808845F21051884210D14FF4305005
:100C4000554908814FF4285048814FF42C50888131
:100C50004FF4F07008804FF44870488097E04E4899
:100C6000808841F6631188420DD12C204A490881C1
:100C70002B2048812A2088814FF4F07008804FF49F
:100C80004870488083E02220434908812020488121
:100C9000212088817BE0FFE701203F4988714FF4E4
:100CA000A0700880F02048800846808849F24131D1
:100CB00088420BD03848808849F28641884205D066
:100CC0003548808845F21031884207D12C203249BE
:100CD00008812A2048812B2088813FE02E48808887
:100CE00046F60401884207D12C202B4908812B208D
:100CF00048812A20888131E02748808845F21051B8
:100D0000884210D14FF43050234908814FF42850C5
:100D100048814FF42C5088814FF4487008804FF47C
:100D2000F07048801AE01C48808841F663118842C0
:100D30000DD12C20184908812A2048812B20888138
:100D40004FF4487008804FF4F070488006E022208D
:100D50001149088121204881202088810E488088FF
:100D600046F6040188420BD00B48808845F21031CA
:100D7000884205D00848808849F28641884206D1D9
:100D80004FF4F070044908804FF4A07048800020B0
:100D900000F054F810BD00007400002070B5054646
:100DA0000E4614463146284600F0C4F900F0FAFC1D
:100DB0000148048070BD00000008006C08B50348BD
:100DC00000880090BDF8000008BD00000008006C1D
:100DD00010B50446204600F0D9FC0520FFF730FD91
:100DE000FFF7ECFF10BD00002DE9F0470446BE20E0
:100DF00000F0CCFC052000F0BDFC2046FFF738FADF
:100E000007464FF066320C4BFFF7C0F90546FFF777
:100E10003CFA1FFA80F9484600F0ACFC012000F0D3
:100E2000A9FCFF2000F0A6FC002000F0A3FC00209D
:100E300000F0A0FCBDE8F08766660440F0B505460A
:100E400000240027BA48807901280BD1B84880884F
:100E500046F60401884205D0B548808841F6631102
:100E6000884208D1B2488079F0B9B148808841F60B
:100E70006311884218D1082D15D2DFE805F0040669
:100E8000080A0C0E101206250DE007250BE00425BC
:100E900009E0052507E0012505E0002503E003251D
:100EA00001E0022500BF00BFA148808849F241311E
:100EB00088421DD09E48808849F28641884217D0DA
:100EC0009B48808846F60401884211D09848808863
:100ED00045F2103188420BD09548808845F2105178
:100EE000884205D09248808841F6631188427DD1BE
:100EF000082D1CD2DFE805F00406090C0F121518A6
:100F000000BF14E044F0800411E044F040040EE01F
:100F100044F0C0040BE044F0200408E044F0600416
:100F200005E044F0A00402E044F0E00400BF00BF8C
:100F30007F48808845F21051884202D14FF45857BB
:100F400000E036277A48808845F2103188420DD07B
:100F50007748808845F21051884207D074488088CD
:100F600041F66311884201D044F00804704880883B
:100F700046F60401884201D144F002042146384675
:100F800000F01AFC6A48808841F6631188421DD03F
:100F900004F0200068B166480088654949888842A5
:100FA00014DA63480688408861490880084646800C
:100FB0000CE05F4800885E494988884206DD5C484D
:100FC000068840885A4908800846468058488088E4
:100FD00045F21051884254D15549488900F0D6FB5A
:100FE000002000F0C7FB5249498900E078E0491C25
:100FF00088B200F0CBFB002000F0BCFB4C494989D3
:10100000891C88B200F0C2FB49490988491EC1F316
:101010000F2000F0AFFB46494989C91C88B200F097
:10102000B5FB43490978491EC8B200F0A3FB40490B
:10103000888900F0ABFB002000F09CFB3C498989CB
:10104000491C88B200F0A2FB002000F093FB384955
:101050008989891C88B200F099FB35494988491E65
:10106000C1F30F2000F086FB31498989C91C88B281
:1010700000F08CFB2E498978491EC8B200F07AFB3B
:1010800055E02B49488900F081FB002000F072FBFD
:10109000002000F06FFB26490988491EC1F30F208C
:1010A00000F068FB22490978491EC8B200F062FBD3
:1010B0001F49888900F06AFB002000F05BFB0020DC
:1010C00000F058FB1A494988491EC1F30F2000F06F
:1010D00051FB17498978491EC8B200F04BFB26E046
:1010E000082D1CD2DFE805F004070A0D0F121518B1
:1010F00044F0300413E044F0100410E044F0200405
:101100000DE000BF0BE044F0380408E044F0280490
:1011100005E044F0180402E044F0080400BF00BFFA
:10112000032744F480542146384600F045FBF0BDC7
:101130007400002030B504460D468148808849F28D
:101140004131884205D07E48808845F2103188427E
:1011500014D17B49488900F019FB201200F00AFBEA
:10116000E0B200F007FB7649888900F00FFB2812F7
:1011700000F000FBE8B200F0FDFAE0E07048808883
:1011800049F2864188422ED16D49488900F0FEFA25
:10119000201200F0EFFAE0B200F0ECFA684909889A
:1011A000491EC1F30F2000F0E5FA65490978491E90
:1011B000C8B200F0DFFA6249888900F0E7FA281225
:1011C00000F0D8FAE8B200F0D5FA5D494988491E26
:1011D000C1F30F2000F0CEFA59498978491EC8B2F0
:1011E00000F0C8FAABE05648808846F60401884211
:1011F0001DD153488079012804D151480088401EF0
:10120000001B84B24E49488900F0C0FA201200F059
:10121000B1FAE0B200F0AEFA4949888900F0B6FAB6
:10122000281200F0A7FAE8B200F0A4FA87E04448D8
:10123000808841F66311884247D141488079A8B936
:101240003F480088401E001B84B23D49488900F099
:101250009DFA002000F08EFA002000F08BFA201298
:1012600000F088FAE0B200F085FA16E034494889C7
:1012700000F08CFA201200F07DFAE0B200F07AFA69
:101280002F490988491EC1F30F2000F073FA2C4939
:101290000978491EC8B200F06DFA2949888900F022
:1012A00075FA281200F066FAE8B200F063FA2449F1
:1012B0004988491EC1F30F2000F05CFA2049897863
:1012C000491EC8B200F056FA39E01D48808845F240
:1012D0001051884220D11A49488900F057FA20124B
:1012E00000F048FA16494989491C88B200F04EFAC4
:1012F000E0B200F03FFA1249888900F047FA28125C
:1013000000F038FA0E498989491C88B200F03EFA8B
:10131000E8B200F02FFA12E009488079012804D1E0
:1013200007480088401E001B84B2054948892146B1
:1013300000F042FA02498889294600F03DFA30BDA2
:10134000740000202DE9FF4F81B080460E46DDE994
:101350000E74B3462046E31704EB5373DB102146AB
:101360004FEAE47C04EB5C7C4FEAEC0CA4EBCC0C85
:10137000BCF1000F02D04FF0010C01E04FF0000C67
:101380006344224604EBD27C4FEA6C0C03FB0CF363
:10139000DBB20093A7F12000C7B2002555E00C2C6A
:1013A00007D107EB47002B4901EB800010F80590AF
:1013B00014E0102C05D1284800EB071010F8059018
:1013C0000CE0182C07D107EBC700244901EB800083
:1013D00010F8059002E005B0BDE8F08F4FF0000A6C
:1013E0002DE009F0800028B131464046049AFFF70D
:1013F000D5FC06E0109820B931464046039AFFF725
:10140000CDFC4FEA49604FEA1069701C86B214485F
:101410004088B04200DCDEE7A6EB0B00A0420AD118
:101420005E4608F101001FFA80F80D48008840452B
:1014300000DCD0E706E00AF1010000F0FF0ABAF193
:10144000080FCEDB00BF681CC5B200988542A6DB42
:1014500000BFC0E7BC5F000830640008206A0008D5
:10146000740000202DE9FF4F84B080468946DDE9F5
:10147000117A08F0FF0003900698404480B206906D
:101480000798484480B2079062E19AF80000A028CB
:101490006FDD0698804505DBDDF80C8009EB070061
:1014A0001FFA80F90798814500DB56E10C2F5CD1CB
:1014B000002557E005EB850000EBC500A94911F8B0
:1014C00010009AF8001088424AD105EB850000EB25
:1014D000C500A44901EB400040789AF80110884209
:1014E0003ED1002439E005EB850000EBC5009D49A5
:1014F00001EB4000801C6100491C415C05EB85004C
:1015000000EBC500974A02EB4000801C10F8140065
:1015100041EA002B00261CE00BFA06F000F4004024
:1015200048B109EB040291B208EB060290B2149A9A
:10153000FFF734FC0BE0139848B909EB040291B2B1
:1015400008EB060290B2884A1288FFF727FC701C4D
:10155000C6B2BE42E0DB601CC4B2BC42C3DB03E0E7
:10156000681C85B2322DA5DBC8E0102F56D10025AE
:1015700050E0CAE005EB05107C4911F810009AF81C
:101580000010884244D105EB0510784901EB40007A
:1015900040789AF8011088423AD1002435E005EBF2
:1015A0000510724901EB4000801C6100491C415C40
:1015B00005EB05106D4A02EB4000801C10F814008A
:1015C00041EA002B00261CE00BFA06F000F4004074
:1015D00048B109EB040291B208EB060290B2149AEA
:1015E000FFF7DCFB0BE0139848B909EB040291B25A
:1015F00008EB060290B25C4A1288FFF7CFFB701C22
:10160000C6B2BE42E0DB601CC4B2BC42C7DB04E031
:10161000681C85B2B5F5FA7FACDB6FE0182F6DD191
:10162000002568E005EB850000EB4510504911F8F6
:1016300010009AF8001088425BD105EB850000EBA2
:1016400045104B4901EB400040789AF80110884260
:101650004FD100244AE005EB850000EB45104449DA
:1016600001EB4000801C04EB4401405C020405EBEC
:10167000850000EB45103E4901EB4001891C04EB5D
:101680004400401C085C42EA002005EB850101EBA8
:101690004511374A02EB4101891C04EB4402921CBC
:1016A000895C40EA010B00261CE00BFA06F000F40E
:1016B000000048B109EB040291B208EB060290B2B7
:1016C000149AFFF76BFB0BE0139848B909EB04027F
:1016D00091B208EB060290B2234A1288FFF75EFB34
:1016E000701CC6B2BE42E0DB601CC4B2BC42B2DBBE
:1016F00003E0681C85B2322D94DB00BF08EB0700C5
:101700001FFA80F80AF1020A22E00698804505DBFC
:10171000DDF80C8009EB07001FFA80F90798814576
:1017200000DB1AE09AF800101398CDE90017029038
:101730000D48028849464046149BFFF703FE384691
:1017400007EBD07108EB61011FFA81F80AF1010A79
:101750009AF8000000287FF498AE00BF08B0BDE8FA
:10176000F08F00007C77000830000020907C00089B
:10177000F8BE000801B5BDF800000090BDF80000FB
:101780000149088008BD00000008006C01B5BDF8E3
:1017900000000090BDF800000149088008BD00006D
:1017A000FE07006C0248008902490880704700006B
:1017B00074000020FE07006C024A1080921C118009
:1017C00070470000FE07006C08B50121402000F0C2
:1017D0009FF810208DF803003C20ADF80000032096
:1017E0008DF8020069460C48FFF7C1F80122042178
:1017F0000948FFF752F9012208210748FFF74DF980
:10180000012210210448FFF748F901222021024853
:10181000FFF743F908BD00000018014000BFFEE7D4
:101820007047000070B5002100230F22C47804B374
:10183000154C246804F4E064C4F5E064210AC1F1A5
:101840000403CA40447804FA03F184781440214325
:1018500009010E4C0678A155047804F01F050124F7
:10186000AC4005786D11AD0005F1E025C5F80041EB
:1018700009E0047804F01F050124AC40044D06780B
:10188000761145F8264070BD0CED00E000E400E064
:1018900080E100E002490143024A11607047000004
:1018A0000000FA050CED00E00149086270470000F5
:1018B00000000E427047000001460020034A5068B5
:1018C00020F4404008435060704700000010024080
:1018D00029B1064A52690243044B5A6104E0034AA3
:1018E00052698243014B5A61704700000010024068
:1018F00029B1064AD2690243044BDA6104E0034A83
:10190000D2698243014BDA61704700000010024047
:1019100029B1064A92690243044B9A6104E0034AE2
:1019200092698243014B9A617047000000100240A7
:1019300029B1064AD2680243044BDA6004E0034A44
:10194000D2688243014BDA60704700000010024009
:1019500001490860704700004004424230B5002150
:101960000022002400232D4D6D6805F00C0121B1EB
:10197000042905D0082923D105E0294D056022E07E
:10198000274D05601FE0254D6D6805F47012234D4D
:101990006D6805F48034022505EB92421CB9214D97
:1019A000554305600BE01D4D6D6805F400351DB114
:1019B0001C4D5543056002E0194D5543056002E09A
:1019C000174D056000BF00BF144D6D6805F0F001B4
:1019D0000909154D6B5C0568DD4045600F4D6D686C
:1019E00005F4E061090A104D6B5C4568DD408560D7
:1019F0000A4D6D6805F46051C90A0B4D6B5C456872
:101A0000DD40C560054D6D6805F44041890B074D0B
:101A10006B5CC568B5FBF3F5056130BD0010024095
:101A200000127A0000093D005E0000206E000020D8
:101A300010B501460022002300204A11012A02D1DC
:101A4000094C236806E0022A02D1074C236A01E010
:101A5000054C636A01F01F02012494401C400CB144
:101A6000012000E0002010BD0010024000210B4AC0
:101A700011700A4A203A82F82010012802D0042866
:101A800008D103E00121054A117004E00521034A51
:101A9000117000E000BF00BF70470000201002403E
:101AA00001490860704700003C0442420249096A4B
:101AB0000143014A116270470010024008B501213C
:101AC0000420FFF725FF10208DF803004FF4E0708D
:101AD000ADF8000003208DF8020069460148FEF7CA
:101AE00046FF08BD0008014010B501214FF0C0506D
:101AF000FFF7FEFE0120FFF7D7FEFEF741FE0120B3
:101B0000FFF7B4FF00BF4120FFF792FF0028FAD093
:101B10004FF48070FFF7CAFF0120FFF7C1FF00F00C
:101B200057F800F04BF80121084600F027F800F0C4
:101B300045F847F6FF7000F031F800F03FF810BDAF
:101B40000348008840F010000149088070470000F9
:101B500004280040034800884FF6EF71084001490F
:101B60000880704704280040002103480188001FB6
:101B7000008841EA004070471C28004029B1064A0D
:101B800012880243044B1A8004E0034A12888243FD
:101B9000014B1A80704700000028004000B5024643
:101BA000FFF7CEFFC2F3034003490880091D0A80F6
:101BB000FFF7D0FF00BD00000828004000BF034829
:101BC000008800F020000028F9D070470428004069
:101BD000074800884FF6F77108400549088000BFA4
:101BE0000348008800F008000028F9D07047000082
:101BF00004280040704710B5FEF772FD00F012F99E
:101C0000472140F2CF7003F009FF00F079F801217D
:101C10000220FFF76DFE10BD10B500F001F810BDF9
:101C20000CB50020019000903348006840F48030EB
:101C30003149086000BF3048006800F4003000906F
:101C40000198401C0190009818B90198B0F5A06F58
:101C5000F1D12948006800F4003010B10120009053
:101C600001E0002000900098012843D1234800683B
:101C700040F01000214908600846006820F0030089
:101C800008600846006840F0020008601A48406892
:101C9000194948600846406848600846406840F472
:101CA000806048600846406820F47C104860084620
:101CB000406840F4E81048600846006840F08070D2
:101CC000086000BF0C48006800F000700028F9D0E0
:101CD0000948406820F0030007494860084640680A
:101CE00040F00200486000BF0348406800F00C006C
:101CF0000828F9D10CBD000000100240002002406D
:101D00001FB500200BA21023CDE901203822962117
:101D1000009303903C20FFF7A5FB002007A21023AF
:101D2000CDE901203822AA21009303903C20FFF73F
:101D300099FB1FBD2A2042504D3A20002A204942DB
:101D40004900000010B516480068401C144908609E
:101D500014480068401C1349086013480068401C80
:101D60001149086011480068401C1049086010487B
:101D70000068401C0E4908600E480068401C0D4970
:101D800008600D480068401C0B4908600B4800685B
:101D9000401C0A490860FEF7A5FE0949087010BDFD
:101DA00000000020080000200C000020100000208F
:101DB0001400002020000020240000201C0000202F
:101DC0000400002010B51348006840F001001149DC
:101DD000086008464068104908400E4948600846B7
:101DE00000680E4908400B4908600846006820F466
:101DF000802008600846406820F4FE0048604FF4E8
:101E00001F008860FFF708FF4FF00060044908607A
:101E100010BD0000001002400000FFF8FFFFF6FEBA
:101E200008ED00E000B59FB000201E9001210802DF
:101E3000FFF74EFD01214FF4B470FFF769FD01205B
:101E4000ADF8740010208DF8770003208DF876002F
:101E50001DA9FE48FEF78BFD4CF23370ADF87400FF
:101E600018208DF8770003208DF876001DA9F8481A
:101E7000FEF77DFD4FF68070ADF8740018208DF8E8
:101E8000770003208DF876001DA9F248FEF76FFD5C
:101E900041F20100ADF8740018208DF8770003209E
:101EA0008DF876001DA9EC48FEF761FD0120079032
:101EB000002008900F20099000200A900B900C90B1
:101EC0000D90009001900320029000200390049058
:101ED0000590069006200E9000200F901090102084
:101EE00011900020129014901390159016904FF4BA
:101EF00080501790002018904FF4804019900020D7
:101F00001A9007A81B90CDF870D00EA8FEF7BCFC65
:101F100001210620FEF79EFC3220FEF785FC012100
:101F20000020FFF749FC3220FEF77EFC0020FEF780
:101F30004FFFCA49888008468088FF280FDB084683
:101F400080884FF6FF71884209D0C4488088B0F578
:101F5000134F04D0C1488088B0F5144F7ED1D320F0
:101F6000FFF714FCFEF72AFFBC498880FEF726FF26
:101F7000BA498880FEF722FFB849888008468088E1
:101F80004FF6FF7101EA0020B4498880FEF716FF82
:101F9000B24989880843B14988800846808849F257
:101FA000413188425AD0AD48808849F28641884202
:101FB000F8D0BF20FFF7EAFBFEF700FFA7498880B3
:101FC000FEF7FCFEA5498880FEF7F8FEA34988804D
:101FD000FEF7F4FEA1498880084680884FF6FF711D
:101FE00001EA00209D498880FEF7E8FE9B49898828
:101FF00008439A4988800846808846F6040188424A
:102000007AD0D420FFF7C2FBFEF7D8FE9349888030
:10201000FEF7D4FE91498880FEF7D0FE8F49888074
:10202000084680884FF6FF7101EA00208B498880BE
:10203000FEF7C4FE89498988084388498880084694
:10204000808845F21031884256D04FF45A40FFF74D
:102050009DFBFEF7B3FE8149888000E04CE04FF421
:102060005B40FFF793FBFEF7A9FE7C49888008469A
:1020700080884FF6FF7101EA0020784988804FF48C
:102080005C40FFF783FBFEF799FE7449898808439B
:102090007249888008468088B0F5004F02D145F229
:1020A000105088806D48808845F21051884223D0B6
:1020B000A120FFF76BFBFEF781FE68498880FEF7E1
:1020C0007DFE66498880084680884FF6FF7101EAE8
:1020D000002062498880FEF771FE604989880843C4
:1020E0005E4988800846808845F26171884203D144
:1020F00041F66310594988805848808849F2413137
:10210000884211D05548808845F2103188420BD062
:102110005248808845F21051884205D04F48808847
:1021200041F6631188421DD14D48006820F00F0030
:102130004FF02041C1F81C010846D0F81C0120F4E2
:102140007060C1F81C010846D0F81C0140F0030083
:10215000C1F81C010846D0F81C0140F40070C1F819
:102160001C0128E03D48808846F60401884205D0DD
:102170003A4880884CF2055188421CD138480068A2
:1021800020F00F004FF02041C1F81C010846D0F8A4
:102190001C0120F47060C1F81C010846D0F81C0135
:1021A00040F00A00C1F81C010846D0F81C0140F4B8
:1021B0004060C1F81C012948808849F241318842B9
:1021C0007ED1CF20FFF7E2FA0020FFF7D3FAC1203B
:1021D000FFF7D0FA3020FFF7CDFAED20FFF7D6FA5F
:1021E0006420FFF7C7FA0320FFF7C4FA1220FFF7B5
:1021F000C1FA8120FFF7BEFAE820FFF7C7FA852071
:10220000FFF7B8FA1020FFF7B5FA7A20FFF7B2FA15
:10221000CB20FFF7BBFA3920FFF7ACFA2C20FFF7F1
:10222000A9FA0020FFF7A6FA3420FFF7A3FA02204C
:10223000FFF7A0FAF720FFF7A9FA2020FFF79AFA94
:10224000EA20FFF7A3FA00200CE00000000C014098
:1022500000140140001801400020014074000020DB
:102260001C0100A0FFF786FA0020FFF783FAC020C8
:10227000FFF78CFA1B20FFF77DFAC120FFF786FAE3
:102280000120FFF777FAC520FFF780FA3020FFF72B
:1022900071FA3020FFF76EFAC720FFF777FAB72000
:1022A000FFF768FA3620FFF771FA4820FFF762FA65
:1022B0003A20FFF76BFA5520FFF75CFAB12000E0F7
:1022C000A5E0FFF763FA0020FFF754FA1A20FFF7A2
:1022D00051FAB620FFF75AFA0A20FFF74BFAA2206C
:1022E000FFF748FAF220FFF751FA0020FFF742FA11
:1022F0002620FFF74BFA0120FFF73CFAE020FFF71A
:1023000045FA0F20FFF736FA2A20FFF733FA282084
:10231000FFF730FA0820FFF72DFA0E20FFF72AFA10
:102320000820FFF727FA5420FFF724FAA920FFF727
:1023300021FA4320FFF71EFA0A20FFF71BFA0F20AD
:10234000FFF718FA0020FFF715FA0020FFF712FA3E
:102350000020FFF70FFA0020FFF70CFAE120FFF74B
:1023600015FA0020FFF706FA1520FFF703FA1720E9
:10237000FFF700FA0720FFF7FDF91120FFF7FAF940
:102380000620FFF7F7F92B20FFF7F4F95620FFF7A7
:10239000F1F93C20FFF7EEF90520FFF7EBF91020EB
:1023A000FFF7E8F90F20FFF7E5F93F20FFF7E2F923
:1023B0003F20FFF7DFF90F20FFF7DCF92B20FFF7B5
:1023C000E5F90020FFF7D6F90020FFF7D3F9012047
:1023D000FFF7D0F93F20FFF7CDF92A20FFF7D6F914
:1023E0000020FFF7C7F90020FFF7C4F90020FFF72E
:1023F000C1F9EF20FFF7BEF91120FFF7C7F97820E8
:10240000FEF712FA2920FFF7C1F903F0E8B9FE48F8
:10241000808849F2864188427ED1F220FFF7B6F9E2
:102420001820FFF7A7F9A320FFF7A4F91220FFF760
:10243000A1F90220FFF79EF9B220FFF79BF91220C5
:10244000FFF798F9FF20FFF795F91020FFF792F9B1
:102450000020FFF78FF9F820FFF798F92120FFF708
:1024600089F90420FFF786F9F920FFF78FF900209A
:10247000FFF780F90820FFF77DF93620FFF786F98E
:102480000820FFF777F93A20FFF780F90520FFF7DA
:1024900071F9B420FFF77AF90120FFF76BF9B62044
:1024A000FFF774F90220FFF765F92220FFF762F9C0
:1024B000C120FFF76BF94120FFF75CF9C520FFF75A
:1024C00065F90020FFF756F90720FFF753F9E020E0
:1024D000FFF75CF90F20FFF74DF91F20FFF74AF9CE
:1024E0001C20FFF747F90C20FFF744F90F20FFF7F6
:1024F00041F90820FFF73EF94820FFF73BF9982003
:10250000FFF738F93720FFF735F90A20FFF732F9DE
:102510001320FFF72FF900E045E00420FFF72AF928
:102520001120FFF727F90D20FFF724F90020FFF70E
:1025300021F9E120FFF72AF90F20FFF71BF93220DC
:10254000FFF718F92E20FFF715F90B20FFF712F906
:102550000D20FFF70FF90520FFF70CF94720FFF7D3
:1025600009F97520FFF706F93720FFF703F9062070
:10257000FFF700F91020FFF7FDF80320FFF7FAF846
:102580002420FFF7F7F82020FFF7F4F80020FFF7EA
:10259000F1F81120FFF7FAF87820FEF745F9292025
:1025A000FFF7F4F831E79848808846F6040188423E
:1025B0007ED11120FFF7EAF81420FEF735F9D0207C
:1025C000FFF7E4F80720FFF7D5F84220FFF7D2F82D
:1025D0001D20FFF7CFF8D120FFF7D8F80020FFF734
:1025E000C9F81A20FFF7C6F80920FFF7C3F8D22070
:1025F000FFF7CCF80120FFF7BDF82220FFF7BAF86B
:10260000C020FFF7C3F81020FFF7B4F83B20FFF716
:10261000B1F80020FFF7AEF80220FFF7ABF8112069
:10262000FFF7A8F8C520FFF7B1F80320FFF7A2F8DD
:10263000C820FFF7ABF80020FFF79CF82520FFF734
:1026400099F82120FFF796F80520FFF793F800206E
:10265000FFF790F80A20FFF78DF86520FFF78AF85A
:102660002520FFF787F87720FFF784F85020FFF741
:1026700081F80F20FFF77EF80020FFF77BF8F820A5
:10268000FFF784F80120FFF775F8FE20FFF77EF8CA
:102690000020FFF76FF80220FFF76CF82020FFF70B
:1026A00075F83620FFF772F80820FFF763F800E0AE
:1026B0002AE03A20FFF76AF85520FFF75BF82B2055
:1026C000FFF764F80020FFF755F80020FFF752F8F5
:1026D0000120FFF74FF83F20FFF74CF82A20FFF7C3
:1026E00055F80020FFF746F80020FFF743F80120D7
:1026F000FFF740F8DF20FFF73DF87820FEF794F869
:102700002920FFF743F880E63F48808845F21031E2
:10271000884240F07C87ED20FFF738F80120FFF772
:1027200029F8FE20FFF726F8EE20FFF72FF8DE202D
:10273000FFF720F82120FFF71DF8F120FFF726F81A
:102740000120FFF717F8DF20FFF720F81020FFF730
:1027500011F8C420FFF71AF88F20FFF70BF8C620F6
:10276000FFF714F80020FFF705F8E220FFF702F862
:10277000E220FEF7FFFFE220FEF7FCFFBF20FFF79D
:1027800005F8AA20FEF7F6FFB020FEF7FFFF0D20A8
:10279000FEF7F0FF0020FEF7EDFF0D20FEF7EAFF49
:1027A0000020FEF7E7FF1120FEF7E4FF0020FEF710
:1027B000E1FF1920FEF7DEFF0020FEF7DBFF2120FE
:1027C000FEF7D8FF0020FEF7D5FF2D20FEF7D2FF41
:1027D0000020FEF7CFFF3D20FEF7CCFF0020FEF7E4
:1027E000C9FF5D20FEF7C6FF0020FEF7C3FF5D2096
:1027F000FEF7C0FF0020FEF7BDFFB120FEF7C6FFC9
:102800008020FEF7B7FF01E0740000200020FEF7F3
:10281000B1FF8B20FEF7AEFF0020FEF7ABFF962046
:10282000FEF7A8FF0020FEF7A5FFB220FEF7AEFFDF
:102830000020FEF79FFF0020FEF79CFF0220FEF71E
:1028400099FF0020FEF796FF0320FEF793FF00207C
:10285000FEF790FFB320FEF799FF0020FEF78AFFF6
:102860000020FEF787FF0020FEF784FF0020FEF720
:1028700081FF0020FEF77EFF0020FEF77BFF002097
:10288000FEF778FF0020FEF775FF0020FEF772FFCD
:102890000020FEF76FFF0020FEF76CFF0020FEF720
:1028A00069FF0020FEF766FF0020FEF763FF0020AF
:1028B000FEF760FF0020FEF75DFF0020FEF75AFFE5
:1028C0000020FEF757FF0020FEF754FF0020FEF720
:1028D00051FF0020FEF74EFF0020FEF74BFF0020C7
:1028E000FEF748FF0020FEF745FFB420FEF74EFF3D
:1028F0008B20FEF73FFF0020FEF73CFF9620FEF7FF
:1029000039FF0020FEF736FFA120FEF733FF00203D
:10291000FEF730FFB520FEF739FF0220FEF72AFF51
:102920000020FEF727FF0320FEF724FF0020FEF71C
:1029300021FF0420FEF71EFF0020FEF71BFFB6203C
:10294000FEF724FF0020FEF715FF0020FEF712FF20
:10295000B720FEF71BFF0020FEF70CFF0020FEF75C
:1029600009FF3F20FEF706FF0020FEF703FF5E2071
:10297000FEF700FF0020FEF7FDFE6420FEF7FAFEE2
:102980000020FEF7F7FE8C20FEF7F4FE0020FEF795
:10299000F1FEAC20FEF7EEFE0020FEF7EBFEDC20A1
:1029A000FEF7E8FE0020FEF7E5FE7020FEF7E2FEEF
:1029B0000020FEF7DFFE9020FEF7DCFE0020FEF791
:1029C000D9FEEB20FEF7D6FE0020FEF7D3FEDC207A
:1029D000FEF7D0FE0020FEF7CDFEB820FEF7D6FEB3
:1029E0000020FEF7C7FE0020FEF7C4FE0020FEF721
:1029F000C1FE0020FEF7BEFE0020FEF7BBFE002059
:102A0000FEF7B8FE0020FEF7B5FE0020FEF7B2FE8E
:102A1000BA20FEF7BBFE2420FEF7ACFE0020FEF736
:102A2000A9FE0020FEF7A6FE0020FEF7A3FEC120AF
:102A3000FEF7ACFE2020FEF79DFE0020FEF79AFE7A
:102A40005420FEF797FE0020FEF794FEFF20FEF7CD
:102A500091FE0020FEF78EFEC220FEF797FE0A20B0
:102A6000FEF788FE0020FEF785FE0420FEF782FEBA
:102A70000020FEF77FFEC320FEF788FE3C20FEF715
:102A800079FE0020FEF776FE3A20FEF773FE002066
:102A9000FEF770FE3920FEF76DFE0020FEF76AFE9D
:102AA0003720FEF767FE0020FEF764FE3C20FEF7AD
:102AB00061FE0020FEF75EFE3620FEF75BFE002082
:102AC000FEF758FE3220FEF755FE0020FEF752FEBC
:102AD0002F20FEF74FFE0020FEF74CFE2C20FEF7C5
:102AE00049FE0020FEF746FE2920FEF743FE0020A7
:102AF000FEF740FE2620FEF73DFE0020FEF73AFEE0
:102B00002420FEF737FE0020FEF734FE2420FEF7D7
:102B100031FE0020FEF72EFE2320FEF72BFE0020C4
:102B2000FEF728FE3C20FEF725FE0020FEF722FEE1
:102B30003620FEF71FFE0020FEF71CFE3220FEF7B7
:102B400019FE0020FEF716FE2F20FEF713FE0020D0
:102B5000FEF710FE2C20FEF70DFE0020FEF70AFE09
:102B60002920FEF707FE0020FEF704FE2620FEF7D0
:102B700001FE0020FEF7FEFD2420FEF7FBFD0020F5
:102B8000FEF7F8FD2420FEF7F5FD0020FEF7F2FD2C
:102B90002320FEF7EFFD0020FEF7ECFDC420FEF73A
:102BA000F5FD6220FEF7E6FD0020FEF7E3FD0520BF
:102BB000FEF7E0FD0020FEF7DDFD8420FEF7DAFDE4
:102BC0000020FEF7D7FDF020FEF7D4FD0020FEF731
:102BD000D1FD1820FEF7CEFD0020FEF7CBFDA4208E
:102BE000FEF7C8FD0020FEF7C5FD1820FEF7C2FD68
:102BF0000020FEF7BFFD5020FEF7BCFD0020FEF7D1
:102C0000B9FD0C20FEF7B6FD0020FEF7B3FD17203E
:102C1000FEF7B0FD0020FEF7ADFD9520FEF7AAFD02
:102C20000020FEF7A7FDF320FEF7A4FD0020FEF72D
:102C3000A1FDE620FEF79EFD0020FEF79BFDC520CE
:102C4000FEF7A4FD3220FEF795FD0020FEF792FD71
:102C50004420FEF78FFD0020FEF78CFD6520FEF777
:102C600089FD0020FEF786FD7620FEF783FD00201B
:102C7000FEF780FD8820FEF77DFD0020FEF77AFD3F
:102C8000C620FEF783FD2020FEF774FD0020FEF72E
:102C900071FD1720FEF76EFD0020FEF76BFD012091
:102CA000FEF768FD0020FEF765FDC720FEF76EFD0C
:102CB0000020FEF75FFD0020FEF75CFD0020FEF720
:102CC00059FD0020FEF756FDC820FEF75FFD0020ED
:102CD000FEF750FD0020FEF74DFD0020FEF74AFDF7
:102CE0000020FEF747FDC920FEF750FD0020FEF74B
:102CF00041FD0020FEF73EFD0020FEF73BFD0020D9
:102D0000FEF738FD0020FEF735FD0020FEF732FD0E
:102D10000020FEF72FFD0020FEF72CFD0020FEF71F
:102D200029FD0020FEF726FD0020FEF723FD0020F0
:102D3000FEF720FD0020FEF71DFD0020FEF71AFD26
:102D40000020FEF717FD0020FEF714FDE020FEF73F
:102D50001DFD1620FEF70EFD0020FEF70BFD1C20CA
:102D6000FEF708FD0020FEF705FD2120FEF702FD1D
:102D70000020FEF7FFFC3620FEF7FCFC0020FEF7EB
:102D8000F9FC4620FEF7F6FC0020FEF7F3FC52208B
:102D9000FEF7F0FC0020FEF7EDFC6420FEF7EAFCF5
:102DA0000020FEF7E7FC7A20FEF7E4FC0020FEF7A7
:102DB000E1FC8B20FEF7DEFC0020FEF7DBFC992017
:102DC000FEF7D8FC0020FEF7D5FCA820FEF7D2FCC9
:102DD0000020FEF7CFFCB920FEF7CCFC0020FEF768
:102DE000C9FCC420FEF7C6FC0020FEF7C3FCCA20C5
:102DF000FEF7C0FC0020FEF7BDFCD220FEF7BAFCB7
:102E00000020FEF7B7FCD920FEF7B4FC0020FEF747
:102E1000B1FCE020FEF7AEFC0020FEF7ABFCF32097
:102E2000FEF7A8FC0020FEF7A5FCE120FEF7AEFCB3
:102E30001620FEF79FFC0020FEF79CFC1C20FEF7EE
:102E400099FC0020FEF796FC2220FEF793FC002060
:102E5000FEF790FC3620FEF78DFC0020FEF78AFC82
:102E60004520FEF787FC0020FEF784FC5220FEF789
:102E700081FC0020FEF77EFC6420FEF77BFC002036
:102E8000FEF778FC7A20FEF775FC0020FEF772FC56
:102E90008B20FEF76FFC0020FEF76CFC9920FEF7FC
:102EA00069FC0020FEF766FCA820FEF763FC00200A
:102EB000FEF760FCB920FEF75DFC0020FEF75AFC2F
:102EC000C420FEF757FC0020FEF754FCCA20FEF792
:102ED00051FC0020FEF74EFCD220FEF74BFC0020F8
:102EE000FEF748FCD820FEF745FC0020FEF742FC28
:102EF000E020FEF73FFC0020FEF73CFCF320FEF74D
:102F000039FC0020FEF736FCE220FEF73FFC0520EE
:102F1000FEF730FC0020FEF72DFC0B20FEF72AFC0C
:102F20000020FEF727FC1B20FEF724FC0020FEF704
:102F300021FC3420FEF71EFC0020FEF71BFC442081
:102F4000FEF718FC0020FEF715FC4F20FEF712FCE0
:102F50000020FEF70FFC6120FEF70CFC0020FEF7BE
:102F600009FC7920FEF706FC0020FEF703FC882010
:102F7000FEF700FC0020FEF7FDFB9720FEF7FAFBB2
:102F80000020FEF7F7FBA620FEF7F4FB0020FEF77B
:102F9000F1FBB720FEF7EEFB0020FEF7EBFBC220B3
:102FA000FEF7E8FB0020FEF7E5FBC720FEF7E2FB9B
:102FB0000020FEF7DFFBD120FEF7DCFB0020FEF750
:102FC000D9FBD620FEF7D6FB0020FEF7D3FBDD2091
:102FD000FEF7D0FB0020FEF7CDFBF320FEF7CAFB87
:102FE0000020FEF7C7FBE320FEF7D0FB0520FEF72D
:102FF000C1FB0020FEF7BEFB0A20FEF7BBFB002052
:10300000FEF7B8FB1C20FEF7B5FB0020FEF7B2FB75
:103010003320FEF7AFFB0020FEF7ACFB4420FEF7A9
:10302000A9FB0020FEF7A6FB5020FEF7A3FB002023
:10303000FEF7A0FB6220FEF79DFB0020FEF79AFB47
:103040007820FEF797FB0020FEF794FB8820FEF720
:1030500091FB0020FEF78EFB9720FEF78BFB0020F4
:10306000FEF788FBA620FEF785FB0020FEF782FB1B
:10307000B720FEF77FFB0020FEF77CFBC220FEF7A7
:1030800079FB0020FEF776FBC720FEF773FB0020DC
:10309000FEF770FBD120FEF76DFB0020FEF76AFB08
:1030A000D520FEF767FB0020FEF764FBDD20FEF76E
:1030B00061FB0020FEF75EFBF320FEF75BFB0020C8
:1030C000FEF758FBE420FEF761FB0120FEF752FB00
:1030D0000020FEF74FFB0120FEF74CFB0020FEF71F
:1030E00049FB0220FEF746FB0020FEF743FB2A20A7
:1030F000FEF740FB0020FEF73DFB3C20FEF73AFBCD
:103100000020FEF737FB4B20FEF734FB0020FEF7D4
:1031100031FB5D20FEF72EFB0020FEF72BFB742019
:10312000FEF728FB0020FEF725FB8420FEF722FB9C
:103130000020FEF71FFB9320FEF71CFB0020FEF78C
:1031400019FBA220FEF716FB0020FEF713FBB320AD
:10315000FEF710FB0020FEF70DFBBE20FEF70AFB7A
:103160000020FEF707FBC420FEF704FB0020FEF75B
:1031700001FBCD20FEF7FEFA0020FEF7FBFAD3207C
:10318000FEF7F8FA0020FEF7F5FADD20FEF7F2FA76
:103190000020FEF7EFFAF320FEF7ECFA0020FEF72E
:1031A000E9FAE520FEF7F2FA0020FEF7E3FA002044
:1031B000FEF7E0FA0020FEF7DDFA0020FEF7DAFA6B
:1031C0000220FEF7D7FA0020FEF7D4FA2920FEF7F6
:1031D000D1FA0020FEF7CEFA3C20FEF7CBFA002011
:1031E000FEF7C8FA4B20FEF7C5FA0020FEF7C2FA38
:1031F0005D20FEF7BFFA0020FEF7BCFA7420FEF750
:10320000B9FA0020FEF7B6FA8420FEF7B3FA0020E0
:10321000FEF7B0FA9320FEF7ADFA0020FEF7AAFA07
:10322000A220FEF7A7FA0020FEF7A4FAB320FEF7CB
:10323000A1FA0020FEF79EFABE20FEF79BFA0020BE
:10324000FEF798FAC420FEF795FA0020FEF792FAEE
:10325000CD20FEF78FFA0020FEF78CFAD320FEF780
:1032600089FA0020FEF786FADC20FEF783FA0020B8
:10327000FEF780FAF320FEF77DFA0020FEF77AFAD7
:10328000E620FEF783FA1120FEF774FA0020FEF71D
:1032900071FA3420FEF76EFA0020FEF76BFA562022
:1032A000FEF768FA0020FEF765FA7620FEF762FA6C
:1032B0000020FEF75FFA7720FEF75CFA0020FEF7A9
:1032C00059FA6620FEF756FA0020FEF753FA8820D6
:1032D000FEF750FA0020FEF74DFA9920FEF74AFA61
:1032E0000020FEF747FABB20FEF744FA0020FEF765
:1032F00041FA9920FEF73EFA0020FEF73BFA6620DD
:10330000FEF738FA0020FEF735FA5520FEF732FABC
:103310000020FEF72FFA5520FEF72CFA0020FEF7CA
:1033200029FA4520FEF726FA0020FEF723FA43206B
:10333000FEF720FA0020FEF71DFA4420FEF71AFAE5
:103340000020FEF717FAE720FEF720FA3220FEF7FA
:1033500011FA0020FEF70EFA5520FEF70BFA0020B6
:10336000FEF708FA7620FEF705FA0020FEF702FACB
:103370006620FEF7FFF90020FEF7FCF96720FEF754
:10338000F9F90020FEF7F6F96720FEF7F3F90020BF
:10339000FEF7F0F98720FEF7EDF90020FEF7EAF9D5
:1033A0009920FEF7E7F90020FEF7E4F9BB20FEF7CD
:1033B000E1F90020FEF7DEF99920FEF7DBF90020A5
:1033C000FEF7D8F97720FEF7D5F90020FEF7D2F9FD
:1033D0004420FEF7CFF90020FEF7CCF95620FEF787
:1033E000C9F90020FEF7C6F92320FEF7C3F9002033
:1033F000FEF7C0F93320FEF7BDF90020FEF7BAF959
:103400004520FEF7B7F90020FEF7B4F9E820FEF7F3
:10341000BDF90020FEF7AEF90020FEF7ABF99920C8
:10342000FEF7A8F90020FEF7A5F98720FEF7A2F91C
:103430000020FEF79FF98820FEF79CF90020FEF798
:1034400099F97720FEF796F90020FEF793F96620A8
:10345000FEF790F90020FEF78DF98820FEF78AF933
:103460000020FEF787F9AA20FEF784F90020FEF776
:1034700081F9BB20FEF77EF90020FEF77BF9992049
:10348000FEF778F90020FEF775F96620FEF772F96D
:103490000020FEF76FF95520FEF76CF90020FEF7CB
:1034A00069F95520FEF766F90020FEF763F944201C
:1034B000FEF760F90020FEF75DF94420FEF75AF9A7
:1034C0000020FEF757F95520FEF754F90020FEF7CB
:1034D00051F9E920FEF75AF9AA20FEF74BF900202E
:1034E000FEF748F90020FEF745F90020FEF742F903
:1034F0000020FEF74BF9AA20FEF73CF9CF20FEF79B
:1035000045F90020FEF736F90020FEF733F90020D8
:10351000FEF730F90020FEF72DF90020FEF72AF91A
:103520000020FEF727F90020FEF724F90020FEF71F
:1035300021F90020FEF71EF90020FEF71BF90020FC
:10354000FEF718F90020FEF715F90020FEF712F932
:103550000020FEF70FF90020FEF70CF90020FEF71F
:1035600009F90020FEF706F9F020FEF70FF9002018
:10357000FEF700F95020FEF7FDF80020FEF7FAF8FC
:103580000020FEF7F7F80020FEF7F4F8F320FEF72E
:10359000FDF80020FEF7EEF8F920FEF7F7F8062018
:1035A000FEF7E8F81020FEF7E5F82920FEF7E2F82C
:1035B0000020FEF7DFF83A20FEF7E8F85520FEF786
:1035C000D9F81120FEF7E2F86420FDF72DF9292043
:1035D000FEF7DCF83520FEF7D9F80020FEF7CAF830
:1035E0005120FEF7D3F8FF20FEF7C4F85320FEF772
:1035F000CDF82C20FEF7BEF85520FEF7C7F8822044
:10360000FEF7B8F82C20FEF7C1F802F0E8B8FE4843
:10361000808845F2105188427ED155214FF4704088
:10362000FEF7CAF8AA214FF20100FEF7C5F85221B1
:103630004FF20200FEF7C0F808214FF20300FEF738
:10364000BBF801214FF20400FEF7B6F80D214FF44C
:103650003040FEF7B1F80D214BF20100FEF7ACF857
:103660000D214BF20200FEF7A7F834214FF436404B
:10367000FEF7A2F834214BF20160FEF79DF83421E9
:103680004BF20260FEF798F80D214FF43140FEF73F
:1036900093F80D214BF20110FEF78EF80D214BF23D
:1036A0000210FEF789F834214FF43740FEF784F812
:1036B00034214BF20170FEF77FF834214BF2027097
:1036C000FEF77AF800214FF43240FEF775F800213A
:1036D0004BF20120FEF770F800214BF20220FEF7BA
:1036E0006BF824214FF43840FEF766F824214BF69E
:1036F0000100FEF761F824214BF60200FEF75CF8AA
:1037000001214FF43F40FEF757F80F214FF43340AB
:10371000FEF752F80F2100E0FEE34BF20130FEF716
:103720004BF80F214BF20230FEF746F834214FF4EC
:103730003940FEF741F834214BF60110FEF73CF812
:1037400034214BF60210FEF737F808214FF43540CC
:10375000FEF732F808214BF20150FEF72DF8082150
:103760004BF20250FEF728F803214FF44240FEF7D7
:1037700023F824214FF43A40FEF71EF824214BF69B
:103780000120FEF719F824214BF60220FEF714F869
:1037900000214FF43C40FEF70FF878214BF6014032
:1037A000FEF70AF800214BF60240FEF705F800216B
:1037B0004FF43D40FEF700F878214BF60150FDF73D
:1037C000FBFF00214BF60250FDF7F6FF00214FF4FE
:1037D0003E40FDF7F1FF64214BF60160FDF7ECFF81
:1037E00000214FF45140FDF7E7FF33214DF2011066
:1037F000FDF7E2FF00214DF20210FDF7DDFF34215D
:103800004DF20310FDF7D8FF00214DF20410FDF733
:10381000D3FF3A214DF20510FDF7CEFF00214DF206
:103820000610FDF7C9FF4A214DF20710FDF7C4FF4E
:1038300000214DF20810FDF7BFFF5C214DF2091089
:10384000FDF7BAFF00214DF20A10FDF7B5FF812107
:103850004DF20B10FDF7B0FF00214DF20C10FDF7FB
:10386000ABFFA6214DF20D10FDF7A6FF00214DF292
:103870000E10FDF7A1FFE5214DF20F10FDF79CFFA3
:1038800001214DF21010FDF797FF13214DF2111099
:10389000FDF792FF01214DF21210FDF78DFF54212B
:1038A0004DF21310FDF788FF01214DF21410FDF7C2
:1038B00083FF82214DF21510FDF77EFF01214DF2AD
:1038C0001610FDF779FFCA214DF21710FDF774FFAE
:1038D00002214DF21810FDF76FFF00214DF2191073
:1038E000FDF76AFF02214DF21A10FDF765FF012175
:1038F0004DF21B10FDF760FF02214DF21C10FDF789
:103900005BFF34214DF21D10FDF756FF02214DF2F1
:103910001E10FDF751FF67214DF21F10FDF74CFF00
:1039200002214DF22010FDF747FF84214DF22110B6
:10393000FDF742FF02214DF22210FDF73DFFA421C9
:103940004DF22310FDF738FF02214DF22410FDF750
:1039500033FFB7214DF22510FDF72EFF02214DF266
:103960002610FDF729FFCF214DF22710FDF724FF88
:1039700002214DF22810FDF71FFFDE214DF2291024
:10398000FDF71AFF02214DF22A10FDF715FFF22173
:103990004DF22B10FDF710FF02214DF22C10FDF718
:1039A0000BFFFE214DF22D10FDF706FF03214DF216
:1039B0002E10FDF701FF10214DF22F10FDF7FCFE38
:1039C00003214DF23010FDF7F7FE33214DF2311097
:1039D000FDF7F2FE03214DF23210FDF7EDFE6D21F1
:1039E0004DF23310FDF7E8FE00214FF45240FDF791
:1039F000E3FE33214DF20120FDF7DEFE00214DF202
:103A00000220FDF7D9FE01E07400002034214DF2C0
:103A10000320FDF7D1FE00214DF20420FDF7CCFE7E
:103A20003A214DF20520FDF7C7FE00214DF2062098
:103A3000FDF7C2FE4A214DF20720FDF7BDFE002131
:103A40004DF20820FDF7B8FE5C214DF20920FDF78C
:103A5000B3FE00214DF20A20FDF7AEFE81214DF2AA
:103A60000B20FDF7A9FE00214DF20C20FDF7A4FE6E
:103A7000A6214DF20D20FDF79FFE00214DF20E20F4
:103A8000FDF79AFEE5214DF20F20FDF795FE01218D
:103A90004DF21020FDF790FE13214DF21120FDF79D
:103AA0008BFE01214DF21220FDF786FE54214DF2CE
:103AB0001320FDF781FE01214DF21420FDF77CFE5D
:103AC00082214DF21520FDF777FE01214DF21620DF
:103AD000FDF772FECA214DF21720FDF76DFE02219F
:103AE0004DF21820FDF768FE00214DF21920FDF778
:103AF00063FE02214DF21A20FDF75EFE01214DF218
:103B00001B20FDF759FE02214DF21C20FDF754FE4B
:103B100034214DF21D20FDF74FFE02214DF21E20F3
:103B2000FDF74AFE67214DF21F20FDF745FE0221F9
:103B30004DF22020FDF740FE84214DF22120FDF7BB
:103B40003BFE02214DF22220FDF736FEA4214DF26C
:103B50002320FDF731FE02214DF22420FDF72CFE3B
:103B6000B7214DF22520FDF727FE02214DF2262038
:103B7000FDF722FECF214DF22720FDF71DFE022189
:103B80004DF22820FDF718FEDE214DF22920FDF729
:103B900013FE02214DF22A20FDF70EFEF2214DF216
:103BA0002B20FDF709FE02214DF22C20FDF704FE2B
:103BB000FE214DF22D20FDF7FFFD03214DF22E20B9
:103BC000FDF7FAFD10214DF22F20FDF7F5FD032141
:103BD0004DF23020FDF7F0FD33214DF23120FDF79D
:103BE000EBFD03214DF23220FDF7E6FD6D214DF294
:103BF0003320FDF7E1FD00214FF45340FDF7DCFDDC
:103C000033214DF20130FDF7D7FD00214DF2023096
:103C1000FDF7D2FD34214DF20330FDF7CDFD00213B
:103C20004DF20430FDF7C8FD3A214DF20530FDF7A5
:103C3000C3FD00214DF20630FDF7BEFD4A214DF2D5
:103C40000730FDF7B9FD00214DF20830FDF7B4FD56
:103C50005C214DF20930FDF7AFFD00214DF20A3035
:103C6000FDF7AAFD81214DF20B30FDF7A5FD0021E6
:103C70004DF20C30FDF7A0FDA6214DF20D30FDF701
:103C80009BFD00214DF20E30FDF796FDE5214DF232
:103C90000F30FDF791FD01214DF21030FDF78CFD45
:103CA00013214DF21130FDF787FD01214DF2123045
:103CB000FDF782FD54214DF21330FDF77DFD01210A
:103CC0004DF21430FDF778FD82214DF21530FDF7ED
:103CD00073FD01214DF21630FDF76EFDCA214DF244
:103CE0001730FDF769FD02214DF21830FDF764FD34
:103CF00000214DF21930FDF75FFD02214DF21A301F
:103D0000FDF75AFD01214DF21B30FDF755FD022153
:103D10004DF21C30FDF750FD34214DF21D30FDF702
:103D20004BFD02214DF21E30FDF746FD67214DF29D
:103D30001F30FDF741FD02214DF22030FDF73CFD23
:103D400084214DF22130FDF737FD02214DF2223062
:103D5000FDF732FDA4214DF22330FDF72DFD0221A8
:103D60004DF22430FDF728FDB7214DF22530FDF747
:103D700023FD02214DF22630FDF71EFDCF214DF22D
:103D80002730FDF719FD02214DF22830FDF714FD13
:103D9000DE214DF22930FDF70FFD02214DF22A30D0
:103DA000FDF70AFDF2214DF22B30FDF705FD022152
:103DB0004DF22C30FDF700FDFE214DF22D30FDF7C8
:103DC000FBFC03214DF22E30FDF7F6FC10214DF2E5
:103DD0002F30FDF7F1FC03214DF23030FDF7ECFC04
:103DE00033214DF23130FDF7E7FC03214DF2323043
:103DF000FDF7E2FC6D214DF23330FDF7DDFC0021D3
:103E00004FF45440FDF7D8FC33214DF20140FDF74B
:103E1000D3FC00214DF20240FDF7CEFC34214DF2DF
:103E20000340FDF7C9FC00214DF20440FDF7C4FC3E
:103E30003A214DF20540FDF7BFFC00214DF206404E
:103E4000FDF7BAFC4A214DF20740FDF7B5FC002111
:103E50004DF20840FDF7B0FC5C214DF20940FDF742
:103E6000ABFC00214DF20A40FDF7A6FC81214DF28A
:103E70000B40FDF7A1FC00214DF20C40FDF79CFC2E
:103E8000A6214DF20D40FDF797FC00214DF20E40AA
:103E9000FDF792FCE5214DF20F40FDF78DFC01216D
:103EA0004DF21040FDF788FC13214DF21140FDF753
:103EB00083FC01214DF21240FDF77EFC54214DF2AE
:103EC0001340FDF779FC01214DF21440FDF774FC1D
:103ED00082214DF21540FDF76FFC01214DF2164095
:103EE000FDF76AFCCA214DF21740FDF765FC02217F
:103EF0004DF21840FDF760FC00214DF21940FDF72E
:103F00005BFC02214DF21A40FDF756FC01214DF2F7
:103F10001B40FDF751FC00E004E302214DF21C4080
:103F2000FDF74AFC34214DF21D40FDF745FC02210E
:103F30004DF21E40FDF740FC67214DF21F40FDF79A
:103F40003BFC02214DF22040FDF736FC84214DF26E
:103F50002140FDF731FC02214DF22240FDF72CFCFF
:103F6000A4214DF22340FDF727FC02214DF224400D
:103F7000FDF722FCB7214DF22540FDF71DFC022183
:103F80004DF22640FDF718FCCF214DF22740FDF7FA
:103F900013FC02214DF22840FDF70EFCDE214DF20C
:103FA0002940FDF709FC02214DF22A40FDF704FCEF
:103FB000F2214DF22B40FDF7FFFB02214DF22C4088
:103FC000FDF7FAFBFE214DF22D40FDF7F5FB032135
:103FD0004DF22E40FDF7F0FB10214DF22F40FDF782
:103FE000EBFB03214DF23040FDF7E6FB33214DF2B0
:103FF0003140FDF7E1FB03214DF23240FDF7DCFBE0
:104000006D214DF23340FDF7D7FB00214FF45540B1
:10401000FDF7D2FB33214DF20150FDF7CDFB00211E
:104020004DF20250FDF7C8FB34214DF20350FDF76D
:10403000C3FB00214DF20450FDF7BEFB3A214DF2C7
:104040000550FDF7B9FB00214DF20650FDF7B4FB1A
:104050004A214DF20750FDF7AFFB00214DF2085009
:10406000FDF7AAFB5C214DF20950FDF7A5FB0021ED
:104070004DF20A50FDF7A0FB81214DF20B50FDF7E8
:104080009BFB00214DF20C50FDF796FBA6214DF253
:104090000D50FDF791FB00214DF20E50FDF78CFB0A
:1040A000E5214DF20F50FDF787FB01214DF2105035
:1040B000FDF782FB13214DF21150FDF77DFB01212D
:1040C0004DF21250FDF778FB54214DF21350FDF7DD
:1040D00073FB01214DF21450FDF76EFB82214DF26E
:1040E0001550FDF769FB01214DF21650FDF764FBF9
:1040F000CA214DF21750FDF75FFB02214DF2185017
:10410000FDF75AFB00214DF21950FDF755FB022136
:104110004DF21A50FDF750FB01214DF21B50FDF7F7
:104120004BFB02214DF21C50FDF746FB34214DF2B2
:104130001D50FDF741FB02214DF21E50FDF73CFBE7
:1041400067214DF21F50FDF737FB02214DF2205041
:10415000FDF732FB84214DF22150FDF72DFB0221AA
:104160004DF22250FDF728FBA4214DF22350FDF71C
:1041700023FB02214DF22450FDF71EFBB7214DF227
:104180002550FDF719FB02214DF22650FDF714FBD7
:10419000CF214DF22750FDF70FFB02214DF22850A1
:1041A000FDF70AFBDE214DF22950FDF705FB022148
:1041B0004DF22A50FDF700FBF2214DF22B50FDF796
:1041C000FBFA02214DF22C50FDF7F6FAFE214DF2DA
:1041D0002D50FDF7F1FA03214DF22E50FDF7ECFAC8
:1041E00010214DF22F50FDF7E7FA03214DF2305028
:1041F000FDF7E2FA33214DF23150FDF7DDFA0321EC
:104200004DF23250FDF7D8FA6D214DF23350FDF7E3
:10421000D3FA00214FF45640FDF7CEFA33214DF288
:104220000160FDF7C9FA00214DF20260FDF7C4FA02
:1042300034214DF20360FDF7BFFA00214DF2046016
:10424000FDF7BAFA3A214DF20560FDF7B5FA002103
:104250004DF20660FDF7B0FA4A214DF20760FDF716
:10426000ABFA00214DF20860FDF7A6FA5C214DF291
:104270000960FDF7A1FA00214DF20A60FDF79CFAF2
:1042800081214DF20B60FDF797FA00214DF20C6091
:10429000FDF792FAA6214DF20D60FDF78DFA00218F
:1042A0004DF20E60FDF788FAE5214DF20F60FDF743
:1042B00083FA01214DF21060FDF77EFA13214DF2D1
:1042C0001160FDF779FA01214DF21260FDF774FAE1
:1042D00054214DF21360FDF76FFA01214DF2146085
:1042E000FDF76AFA82214DF21560FDF765FA0121AA
:1042F0004DF21660FDF760FACA214DF21760FDF726
:104300005BFA02214DF21860FDF756FA00214DF2DA
:104310001960FDF751FA02214DF21A60FDF74CFACF
:1043200001214DF21B60FDF747FA02214DF21C609E
:10433000FDF742FA34214DF21D60FDF73DFA0221EE
:104340004DF21E60FDF738FA67214DF21F60FDF750
:1043500033FA02214DF22060FDF72EFA84214DF24E
:104360002160FDF729FA02214DF22260FDF724FABF
:10437000A4214DF22360FDF71FFA02214DF22460C3
:10438000FDF71AFAB7214DF22560FDF715FA022163
:104390004DF22660FDF710FACF214DF22760FDF7B0
:1043A0000BFA02214DF22860FDF706FADE214DF2EC
:1043B0002960FDF701FA02214DF22A60FDF7FCF9B0
:1043C000F2214DF22B60FDF7F7F902214DF22C603E
:1043D000FDF7F2F9FE214DF22D60FDF7EDF9032115
:1043E0004DF22E60FDF7E8F910214DF22F60FDF738
:1043F000E3F903214DF23060FDF7DEF933214DF290
:104400003160FDF7D9F903214DF23260FDF7D4F99F
:104410006D214DF23360FDF7CFF955214FF4704017
:10442000FDF7CAF9AA214FF20100FDF7C5F95221A3
:104430004FF20200FDF7C0F908214FF20300FDF72B
:10444000BBF900214FF20400FDF7B6F9CC214FF47F
:104450003140FDF7B1F900214BF20110FDF7ACF945
:1044600005214FF43640FDF7A7F970214FF437408E
:10447000FDF7A2F970214BF20170FDF79DF90121C2
:104480004FF43840FDF798F903214BF60100FDF792
:1044900093F903214BF60200FDF78EF903214BF649
:1044A0000300FDF789F902214FF43C40FDF784F940
:1044B00000214BF60140FDF77FF900214BF6024049
:1044C000FDF77AF9D0214FF44940FDF775F9022143
:1044D0004CF60110FDF770F950214CF60210FDF773
:1044E0006BF950214CF60310FDF766F950214CF69C
:1044F0000410FDF761F900214FF45450FDF75CF909
:1045000055214FF46850FDF757F94FF48850FDF7E7
:104510003DF97820FCF794F94FF42450FDF736F973
:1045200001F05DB9FE48808849F2253188427DD18D
:1045300047F6F001E520FDF73FF94FF480710120C7
:10454000FDF73AF94FF4E0610220FDF735F941F249
:1045500030010320FDF730F900210420FDF72CF98C
:1045600040F202210820FDF727F900210920FDF77C
:1045700023F900210A20FDF71FF900210C20FDF787
:104580001BF900210D20FDF717F900210F20FDF781
:1045900013F900211020FDF70FF907211120FDF775
:1045A0000BF900211220FDF707F900211320FDF778
:1045B00003F900210720FDF7FFF841F29061102078
:1045C000FDF7FAF840F227211120FDF7F5F89D21BB
:1045D0001220FDF7F1F84FF4C8511320FDF7ECF865
:1045E00025212920FDF7E8F80D212B20FDF7E4F81F
:1045F00007213020FDF7E0F840F203313120FDF7CC
:10460000DBF803213220FDF7D7F840F206213520F0
:10461000FDF7D2F808213620FDF7CEF840F206412A
:104620003720FDF7C9F84FF4417100E058E0382019
:10463000FDF7C2F807213920FDF7BEF840F202610C
:104640003C20FDF7B9F808213D20FDF7B5F8002121
:104650005020FDF7B1F8EF215120FDF7ADF8002112
:104660005220FDF7A9F840F23F115320FDF7A4F8BE
:104670004FF427416020FDF79FF801216120FDF7ED
:104680009BF800216A20FDF797F800218020FDF7B4
:1046900093F800218120FDF78FF800218220FDF79B
:1046A0008BF800218320FDF787F800218420FDF797
:1046B00083F800218520FDF77FF810219020FDF779
:1046C0007BF84FF4C0619220FDF776F840F2331189
:1046D0000720FDF771F822210020FDF76DF81FE794
:1046E0008F48808849F2283188427DD141F28F017C
:1046F000EC20FDF761F841F23421EF20FDF75CF882
:104700004FF480710120FDF757F84FF4E06102206B
:10471000FDF752F841F230010320FDF74DF800217A
:104720000420FDF749F840F202210820FDF744F883
:1047300000210920FDF740F800210A20FDF73CF890
:1047400001210C20FDF738F800210D20FDF734F889
:1047500000210F20FDF730F800211020FDF72CF884
:1047600007211120FDF728F800211220FDF724F879
:1047700000211320FDF720F801210720FDF71CF888
:104780003220FCF751F841F290411020FDF714F867
:1047900040F227211120FDF70FF83220FCF744F8F2
:1047A0008A211220FDF708F83220FCF73DF84FF47B
:1047B000D0511320FDF700F806212920FCF7FCFF5B
:1047C0000D212B20FCF7F8FF3220FCF72DF80021FB
:1047D0002020FCF7F1FF00212120FCF7EDFF322023
:1047E000FCF722F8002100E075E03020FCF7E4FF40
:1047F00040F204613120FCF7DFFF40F20531322046
:10480000FCF7DAFF00213520FCF7D6FF40F609411E
:104810003620FCF7D1FF4FF401713720FCF7CCFFB5
:1048200040F201313820FCF7C7FF40F20771392010
:10483000FCF7C2FF00213C20FCF7BEFF40F60A2136
:104840003D20FCF7B9FF3220FBF7EEFF002150209E
:10485000FCF7B2FFEF215120FCF7AEFF0021522000
:10486000FCF7AAFF40F23F115320FCF7A5FF4FF4DD
:1048700027416020FCF7A0FF01216120FCF79CFF8D
:1048800000216A20FCF798FF00218020FCF794FFAC
:1048900000218120FCF790FF00218220FCF78CFF93
:1048A00000218320FCF788FF00218420FCF784FF8F
:1048B00000218520FCF780FF10219020FCF77CFF71
:1048C0004FF4C0619220FCF777FF40F233110720CC
:1048D000FCF772FF24E61248808849F220318842B2
:1048E0007ED100210846FCF767FF4FF4807101205C
:1048F000FCF762FF4FF4E0610220FCF75DFF41F23C
:1049000030010320FCF758FF00210420FCF754FF7E
:1049100040F202210820FCF74FFF0021092001E0AE
:1049200074000020FCF748FF00210A20FCF744FF38
:1049300001210C20FCF740FF00210D20FCF73CFF7B
:1049400000210F20FCF738FF3220FBF76DFF40F20B
:1049500001110720FCF730FF3220FBF765FF4FF411
:1049600086511020FCF728FF07211120FCF724FFB7
:104970004FF488711220FCF71FFF4FF430611320B1
:10498000FCF71AFF00212920FCF716FF44F2100162
:104990002B20FCF711FF00215020FCF70DFFEF2129
:1049A0005120FCF709FF00215220FCF705FF40F2DF
:1049B0003F115320FCF700FF4FF41C516020FCF71F
:1049C000FBFE01216120FCF7F7FE00216A20FCF7C5
:1049D000F3FE00218020FCF7EFFE0021812000E0A3
:1049E00030E0FCF7E9FE00218220FCF7E5FE002123
:1049F0008320FCF7E1FE00218420FCF7DDFE00218E
:104A00008520FCF7D9FE10219020FCF7D5FE00216F
:104A10009220FCF7D1FE01219320FCF7CDFE4FF44C
:104A200088719520FCF7C8FE00219720FCF7C4FE92
:104A300000219820FCF7C0FE40F273110720FCF71C
:104A4000BBFE6DE5FE48808849F2313188427DD158
:104A500041F21401E720FCF7AFFE4FF48071012012
:104A6000FCF7AAFE4FF400710220FCF7A5FE41F20C
:104A700038010320FCF7A0FE40F202210820FCF7D9
:104A80009BFE00210920FCF797FE00210A20FCF77D
:104A900093FE00210C20FCF78FFE00210D20FCF777
:104AA0008BFE00210F20FCF787FE00211020FCF771
:104AB00083FE07211120FCF77FFE00211220FCF766
:104AC0007BFE00211320FCF777FEC820FBF7ACFE2D
:104AD00041F290611020FCF76FFE40F22721112077
:104AE000FCF76AFE3220FBF79FFE0C211220FCF738
:104AF00063FE3220FBF798FE4FF400611320FCF7B1
:104B00005BFE11212920FCF757FE0B212B20FCF71F
:104B100053FE3220FBF788FE00212020FCF74CFEDC
:104B200040F23F112120FCF747FE00213020FCF726
:104B300043FE4FF483713120FCF73EFE002132200A
:104B4000FCF73AFE4FF40171352000E064E0FCF719
:104B500033FE41F20A613620FCF72EFE40F2077167
:104B60003720FCF729FE4FF483713820FCF724FE30
:104B700040F207713920FCF71FFE40F202413C2051
:104B8000FCF71AFE40F60F413D20FCF715FE002110
:104B90005020FCF711FEEF215120FCF70DFE002103
:104BA0005220FCF709FE40F23F115320FCF704FEAF
:104BB0004FF41C516020FCF7FFFD01216120FCF740
:104BC000FBFD00216A20FCF7F7FD00218020FCF7A7
:104BD000F3FD00218120FCF7EFFD00218220FCF78E
:104BE000EBFD00218320FCF7E7FD00218420FCF78A
:104BF000E3FD00218520FCF7DFFD10219020FCF76C
:104C0000DBFD4FF4C0619220FCF7D6FD40F233117A
:104C10000720FCF7D1FD83E48948808845F20841EC
:104C200088427DD14FF480710120FCF7C5FD4FF41F
:104C3000E0610220FCF7C0FD41F230010320FCF7E7
:104C4000BBFD00210420FCF7B7FD40F2072108203E
:104C5000FCF7B2FD00210920FCF7AEFD00210A207F
:104C6000FCF7AAFD00210C20FCF7A6FD00210D2079
:104C7000FCF7A2FD00210F20FCF79EFD1420FBF79E
:104C8000D3FD41F2B0611020FCF796FD0121112007
:104C9000FCF792FD01211720FCF78EFD4FF49C716B
:104CA0001220FCF789FD4FF400611320FCF784FD0E
:104CB00009212920FCF780FD09212A20FCF77CFD31
:104CC0000021A420FCF778FD00215020FCF774FDA2
:104CD000EF215120FCF770FD00215220FCF76CFD04
:104CE00040F23F115320FCF767FD4FF41C51602048
:104CF000FCF762FD01216120FCF75EFD00216A20C6
:104D0000FCF75AFD00218020FCF756FD0021812090
:104D1000FCF752FD00218220FCF74EFD002100E04F
:104D200024E08320FCF748FD00218420FCF744FDAB
:104D300000218520FCF740FD13219020FCF73CFD6D
:104D400000219220FCF738FD03219320FCF734FD6D
:104D50004FF488719520FCF72FFD40F27311072066
:104D6000FCF72AFD3220FBF75FFDB8E43448808869
:104D700041F2055188427DD100210720FCF71CFD3E
:104D80003220FBF751FD4FF48E711220FCF714FD19
:104D90000121A420FCF710FD0F210820FCF70CFDD9
:104DA00008210A20FCF708FD08210D20FCF704FD6E
:104DB00040F207713020FCF7FFFC07213120FCF79F
:104DC000FBFC40F203613220FCF7F6FC4FF4E0619B
:104DD0003320FCF7F1FC40F202213420FCF7ECFC1C
:104DE00002213520FCF7E8FC41F60F713620FCF774
:104DF000E3FC40F207713720FCF7DEFC002138208D
:104E0000FCF7DAFC00213920FCF7D6FC40F20771F0
:104E10003A20FCF7D1FC00213B20FCF7CDFC072118
:104E20003C20FCF7C9FC00213D20FCF7C5FC3220EA
:104E3000FBF7FAFC01210720FCF7BEFC012101E091
:104E4000740000201720FCF7B7FC3220FBF7ECFCC5
:104E50004FF4BD511020FCF7AFFC40F21721112098
:104E6000FCF7AAFC4FF48F711220FCF7A5FC4FF45D
:104E7000706100E098E01320FCF79EFC00212A20DE
:104E8000FCF79AFC0A212920FCF796FC4FF49F714D
:104E90001220FCF791FC00215020FCF78DFCEF2143
:104EA0005120FCF789FC00215220FCF785FC40F2E0
:104EB0003F115320FCF780FC4FF41C516020FCF79D
:104EC0007BFC01216120FCF777FC00216A20FCF7C4
:104ED00073FC00218020FCF76FFC00218120FCF78F
:104EE0006BFC00218220FCF767FC00218320FCF78B
:104EF00063FC00218420FCF75FFC00218520FCF787
:104F00005BFC13219020FCF757FC4FF4407192207A
:104F1000FCF752FC05219320FCF74EFC0021952064
:104F2000FCF74AFC00219720FCF746FC0021982062
:104F3000FCF742FC4FF480710120FCF73DFC4FF47C
:104F4000E0610220FCF738FC41F238010320FCF755
:104F500033FC00210420FCF72FFC00210C20FCF77F
:104F60002BFC00210F20FCF727FC00212020FCF760
:104F700023FC00212120FCF71FFC21210720FCF746
:104F80001BFC1420FBF750FC61210720FCF714FCEC
:104F90001420FBF749FC40F273110720FCF70CFCCE
:104FA0001420FBF741FC95E4FE4880884BF2055144
:104FB00088427CD100210846FCF7FEFB0021084610
:104FC000FCF7FAFB00210846FCF7F6FB0021084637
:104FD000FCF7F2FB0121A420FCF7EEFB1420FBF709
:104FE00023FC4FF41C516020FCF7E6FB40F2022149
:104FF0000820FCF7E1FB4FF405713020FCF7DCFBE7
:1050000043F215713120FCF7D7FB40F204613220E6
:10501000FCF7D2FB40F616613320FCF7CDFB42F2E1
:1050200011213420FCF7C8FB4FF4A8513520FCF7C0
:10503000C3FB48F207513620FCF7BEFB41F20741A3
:105040003720FCF7B9FB41F203413820FCF7B4FBF1
:1050500020213920FCF7B0FB1A219020FCF7ACFB93
:1050600000211020FCF7A8FB07211120FCF7A4FB6E
:1050700000211220FCF7A0FB00211320FCF79CFB71
:105080001420FBF7D1FB4FF4E6611020FCF794FBF2
:1050900040F237111120FCF78FFB1420FBF7C4FB03
:1050A0004FF4DC711220FCF787FB142000E085E050
:1050B000FBF7BAFB4FF470611320FCF77DFB8021F6
:1050C0002A20FCF779FB48212920FCF775FB1420E6
:1050D000FBF7AAFB4FF480710120FCF76DFB4FF446
:1050E000E0610220FCF768FB41F238010320FCF785
:1050F00063FB40F202210820FCF75EFB00210A203E
:10510000FCF75AFB00210C20FCF756FB00210D2078
:10511000FCF752FB30210E20FCF74EFB0021502003
:10512000FCF74AFBEF215120FCF746FB00215220FF
:10513000FCF742FB40F23F115320FCF73DFB4FF4DC
:105140001C516020FCF738FB01216120FCF734FB87
:1051500000216A20FCF730FB11219020FCF72CFB8A
:105160004FF4C0619220FCF727FB40F202419320EC
:10517000FCF722FB02219420FCF71EFB1420FBF716
:1051800053FB01210720FCF717FB1420FBF74CFB16
:1051900061210720FCF710FB40F273110720FCF798
:1051A0000BFB00212020FCF707FB00212120FCF74E
:1051B00003FB22210020FCF7FFFA10E379488088E6
:1051C0004CF2055188427CD100210846FCF7F4FAE4
:1051D00000210846FCF7F0FA1420FBF725FB00211C
:1051E0000846FCF7E9FA00210846FCF7E5FA002139
:1051F0000846FCF7E1FA00210846FCF7DDFA012138
:10520000A420FCF7D9FA1420FBF70EFB4FF41C5135
:105210006020FCF7D1FA40F606010820FCF7CCFA32
:1052200040F203713020FCF7C7FA01213120FCF76E
:10523000C3FA04213220FCF7BFFA4FF48171332006
:10524000FCF7BAFA4FF440713420FCF7B5FA40F29B
:1052500003113520FCF7B0FA1F213620FCF7ACFA19
:1052600040F203713720FCF7A7FA01213820FCF740
:10527000A3FA04213920FCF79FFA15219020FCF7AE
:105280009BFA4FF482611020FCF796FA40F2472116
:105290001120FCF791FA4FF4DE711220FCF78CFA22
:1052A0004FF460611320FCF787FA7820FBF7BCFA13
:1052B0004FF480710120FCF77FFA4FF40071022057
:1052C00000E052E0FCF778FA41F230010320FCF7ED
:1052D00073FA08210A20FCF76FFA00210C20FCF772
:1052E0006BFA20210E20FCF767FA00210F20FCF753
:1052F00063FA00212020FCF75FFA00212120FCF74F
:105300005BFA3D212A20FCF757FA1420FBF78CFAB0
:105310002D212920FCF750FA00215020FCF74CFAEF
:105320004DF2EF015120FCF747FA00215220FCF723
:1053300043FA40F23F115320FCF73EFA002161206E
:10534000FCF73AFA00216A20FCF736FA4FF4407174
:105350009220FCF731FA05219320FCF72DFA4FF447
:1053600080710720FCF728FA39E20E48808844F261
:10537000315188427ED101210020FCF71DFA0A201C
:10538000FBF752FA41F228611020FCF715FA0E21C2
:105390001220FCF711FA40F639211320FCF70CFA21
:1053A0000A2001E074000020FBF73EFA40211120A2
:1053B000FCF702FA50211520FCF7FEF90A20FBF752
:1053C00033FA1E211220FCF7F7F90A20FBF72CFA1A
:1053D0004FF4B1511020FCF7EFF942F639211320B8
:1053E000FCF7EAF90A20FBF71FFA4FF4807101205D
:1053F000FCF7E2F94FF440710220FCF7DDF941F2CD
:1054000038010320FCF7D8F940F202210820FCF70C
:10541000D3F908210A20FCF7CFF900213020FCF74E
:10542000CBF940F202413120FCF7C6F94FF4837109
:105430003220FCF7C1F940F203513320FCF7BCF9EC
:105440004FF482713420FCF7B7F940F20131352076
:10545000FCF7B2F940F207713620FCF7ADF940F2E3
:1054600005313720FCF7A8F94FF402713820FCF71A
:10547000A3F900E03EE040F60B713920FCF79CF9FF
:1054800002214120FCF798F94FF41C516020FCF7F1
:1054900093F901216120FCF78FF94FF404719020FA
:1054A000FCF78AF94FF485719220FCF785F9042105
:1054B0009320FCF781F94FF48071A020FCF77CF970
:1054C00001210720FCF778F921210720FCF774F966
:1054D00023210720FCF770F933210720FCF76CF932
:1054E00040F233110720FCF767F90021A020FCF7F8
:1054F00063F974E1C048808844F2355188427CD118
:1055000030211520FCF758F910219A20FCF754F9A6
:1055100020211120FCF750F943F228411020FCF71C
:105520004BF902211220FCF747F941F23801132010
:10553000FCF742F92820FBF777F912210846FCF71F
:105540003BF92820FBF770F943F220411020FCF7CB
:1055500033F943F238011320FCF72EF94620FBF70C
:1055600063F900213020FCF727F940F20241312095
:10557000FCF722F940F207313220FCF71DF94FF415
:1055800041713320FCF718F904213420FCF714F999
:1055900040F201413520FCF70FF940F20771362047
:1055A000FCF70AF940F205313720FCF705F94FF412
:1055B000C2613820FCF700F94FF4C2613920FCF7D2
:1055C000FBF84FF480710120FCF7F6F84FF44071BE
:1055D0000220FCF7F1F841F230010320FCF7ECF86F
:1055E00040F608010820FCF7E7F808210A20FCF73C
:1055F000E3F84FF41C51602000E033E0FCF7DCF8E6
:1056000001216120FCF7D8F84FF49F719020FCF73E
:10561000D3F84FF480719220FCF7CEF84FF48071EC
:105620009320FCF7C9F84FF44051A020FCF7C4F8D0
:105630001021A320FCF7C0F801210720FCF7BCF8DB
:1056400021210720FCF7B8F823210720FCF7B4F844
:1056500033210720FCF7B0F840F233110720FCF7A4
:10566000ABF8BCE06448808841F663118842F8D109
:10567000E220FCF78BF81D20FCF77CF80220FCF7F9
:1056800079F80420FCF776F86420FBF7D9F8E020DD
:10569000FCF77CF80120FCF76DF80A20FBF7C4F852
:1056A000E020FCF773F80320FCF764F80C20FBF70C
:1056B000BBF80120FCF76AF80A20FBF7B5F8E620F2
:1056C000FCF764F82F20FCF755F8FF20FCF752F8A0
:1056D000FF20FCF74FF8B020FCF758F82020FCF72B
:1056E00049F80020FCF746F80020FCF743F8EF20CB
:1056F000FCF740F80120FCF73DF840F23F10FCF7C2
:1057000039F80020FCF736F8B420FCF73FF8012008
:10571000FCF730F840F2EF10FCF72CF80020FCF713
:1057200029F82E20FCF726F80020FCF723F80020AB
:10573000FCF720F80020FCF71DF80020FCF71AF811
:10574000B620FCF723F80120FCF714F84FF4B670EC
:10575000FCF710F80020FCF70DF81720FCF70AF80A
:105760001520FCF707F80020FCF704F80020FCF7F0
:1057700001F8F020FCF70AF80320FBF7FBFF2920D3
:10578000FCF704F8D020FCF701F80020FBF7F2FF4B
:10579000BE20FBF7FBFF0520FBF7ECFFFE20FBF72D
:1057A000E9FF0120FBF7E6FF0020FBF7E3FF002005
:1057B000FBF7E0FF0020FBF7DDFFB820FBF7E6FF7B
:1057C0000320FBF7D7FF0120FBF7D4FFBA20FBF73C
:1057D000DDFF0120FBF7CEFF6420FBF705FB002077
:1057E000FBF7E2F901210548FBF755F94FF6FF7089
:1057F000FBF7A4F91FB000BD74000020000C0140AD
:105800002DE9F04100260121744800F059F90028E3
:105810007CD07348FAF7C7FE0746C01707EB9070B5
:1058200080107049086070480068801C6E490860EC
:10583000084600886D490988401A85B269480068A1
:105840006B490968884212DA6A480068052190FBB2
:10585000F1F000EB4000A84209DA624800686649AE
:105860000968884203DA5F480068634908605D4858
:1058700000685F490968884209DD5A4800685F4945
:105880000968884203DD574800685C490860C82DF4
:1058900063DD544800685649096888425DDD584810
:1058A0000078002859D153480068052190FBF1F099
:1058B00000EB4000A84250DA0120514908704A48E4
:1058C00000684A490968401A4A4908604648006821
:1058D000464908604B48007868B100204949087083
:1058E000002406E043480068474941F82400601C52
:1058F000C4B2092CF6DD4548007840B10020434988
:10590000087001203F490870BDE8F08160E0002484
:105910000CE03D49601C51F8200041F82400084685
:1059200030F82400304486B2601CC4B2082CF0DD8C
:1059300030480068344948620846808C304486B25A
:105940000A2096FBF0F086B24EF6602090FBF6F04F
:105950002F49086001202F49087022480068244917
:10596000096888421EDA2648007801281AD10020EA
:1059700023490870214800681F490968401A2649D0
:105980000860086800EBD0711B4A126802EB6101E5
:10599000174A1160104600681849086010460068F0
:1059A0001549086040F6C410854211DD4FF40070BF
:1059B0000F490860114908600F4908600A480068EB
:1059C0000A49086001201149087000200D4908703B
:1059D0000121024800F065F800BF95E7000400408F
:1059E000002401403800002044000020480000202E
:1059F000540000203C000020500000204C000020FB
:105A0000400000205D000020B00000205C0000206D
:105A10003400002041000020580000207FB50546DA
:105A20000C4601210220FBF763FFADF80850ADF8EA
:105A300004400020ADF80A00ADF8060001A91648A0
:105A400000F062F82021144800F054F801211248B7
:105A500000F024F8012211460F4800F042F801211D
:105A60000D4800F021F84FF4A060FBF713FF1D2054
:105A70008DF8000000208DF8010003208DF8020051
:105A800001208DF803006846FBF7CCFE00210220C0
:105A9000FBF72EFF7FBD000000040040CA430282D6
:105AA0007047CA430282704721B1028842F0010266
:105AB000028004E002884FF6FE731A4002807047AD
:105AC00030B50246002000230024158A05EA0103B0
:105AD000958905EA010413B10CB1012000E0002012
