:020000040800F2
:1000000038040020450100089D100008ED06000896
:1000100099100008D9030008E54F0008000000000F
:10002000000000000000000000000000291200088D
:10003000DD0300080000000011110008151300087E
:100040005F0100085F0100085F0100085F01000810
:100050005F0100085F0100085F0100085F01000800
:100060005F0100085F0100085F0100085F010008F0
:100070005F0100085F0100085F0100085F010008E0
:100080005F0100085F0100085F0100085F010008D0
:100090005F0100085F0100085F0100085F010008C0
:1000A0005F0100085F0100085F0100085F010008B0
:1000B0005F0100085F0100085F0100085F010008A0
:1000C0005F0100085F0100085F0100085F01000890
:1000D0005F010008254E00085F0100085F0100086D
:1000E0005F0100085F0100085F0100085F01000870
:1000F0005F0100085F0100085F0100085F01000860
:100100005F0100085F0100085F0100085F0100084F
:100110005F0100085F0100085F0100085F0100083F
:100120005F0100085F0100085F0100085F0100082F
:10013000DFF80CD000F03EF90048004709500008F5
:10014000380400200648804706480047FEE7FEE7DF
:10015000FEE7FEE7FEE7FEE7FEE7FEE7FEE7FEE777
:100160004113000831010008D2B201E000F8012B70
:10017000491EFBD270470022F6E710B513460A4627
:1001800004461946FFF7F0FF204610BD2DE9FE4F4B
:1001900081EA030404F0004421F0004100944FF090
:1001A000000B23F0004350EA01045ED052EA03043E
:1001B0005BD0C3F30A54C1F30A552C44A4F2F334C0
:1001C0000194A0FB0254C1F3130141F48011C3F365
:1001D000130343F4801301FB024400FB034E840A23
:1001E000970A44EA815447EA8357A4FB07680295BB
:1001F0008D0A05FB07854FEA932C04FB0C54270559
:10020000029D4FEA065847EA1637B5EB08056EEB34
:10021000070C870E920E47EA811742EA8312A7FB6A
:100220000201B6EB0B0164EB00042B0D43EA0C3327
:100230005E1844EB1C50DA465146E7FB0201C5F359
:1002400013044FEA0B3343EA14534FEA0432019C80
:1002500043EA0603A4F10C040294009CCDE900B427
:1002600000F05AF803B0BDE8F08F00200146F9E72E
:100270000EB540F2334102910021CDE900110A464A
:100280000B4600F049F803B000BDC1F30A5210B5A7
:10029000C1F3130140F2FF3341F480119A4201DAB5
:1002A000002010BD40F233439A42A2F2334203DCF5
:1002B000524200F012F810BD904010BD202A04DB1D
:1002C000203A00FA02F1002070479140C2F1200369
:1002D00020FA03F3194390407047202A04DB203AA8
:1002E00021FA02F00021704721FA02F3D040C2F156
:1002F0002002914008431946704710B5141E73F14F
:10030000000408DA401C41F1000192185B411A43D5
:1003100001D120F0010010BD2DE9F04D92469B4621
:1003200011B1B1FA81F202E0B0FA80F220329046C7
:10033000FFF7C4FF04460F4640EA0A0041EA0B01FA
:1003400053465A46084313D0114653EA010019D0C8
:10035000C8F140025046FFF7C0FF05460E46504622
:1003600059464246FFF7AAFF084305D0012004E0A2
:1003700020463946BDE8F08D0020054346EAE07688
:100380002C4337430A986305E40AA0EB08000022D7
:10039000FD0A44EA47540A3002D500200146E9E745
:1003A000010510196941DDE9084500196941BDE8F9
:1003B000F04DA2E7064C074D06E0E06840F001036F
:1003C00094E8070098471034AC42F6D3FFF7B4FE28
:1003D000842F0708A42F070800BFFEE7704700BF5F
:1003E00000BF00BF00BF00BF00BF00BF00BF00BF15
:1003F00000BF00BF00BF00BF00BF00BF00BF00BF05
:1004000000BF00BF00BF00BF00BF00BF00BF00BFF4
:1004100000BF00BF00BF00BF00BF00BF00BF00BFE4
:1004200000BF00BF00BF00BF00BF00BF00BF00BFD4
:1004300000BF00BF00BF00BF00BF00BF00BF00BFC4
:1004400000BF00BF00BF00BF00BF00BF00BF00BFB4
:1004500000BF00BF00BF00BF00BF00BF00BF00BFA4
:1004600000BF00BF00BF00BF00BF00BF00BF70479C
:1004700000B5034603E04FF47A7000F005F8181E4B
:10048000A3F10103F7D100BD00B501E0FFF7A7FF1D
:10049000011EA0F10100F9D100BD000051B18200A0
:1004A000A2F1C042126842F001038200A2F1C042F0
:1004B000136009E08200A2F1C0421268034B1A40A7
:1004C0008300A3F1C0431A6070470000FEFF0F00D5
:1004D000D0E901121143C268114302691143426914
:1004E000114382691143C2691143026A1143426A8E
:1004F0001143826A1143C26A1143026B11430268BD
:100500009200A2F1C0421160816808290BD10168F4
:100510008900A1F1C041096841F0400201688900E9
:10052000A1F1C0410A60416B0968426B526841EA1F
:100530000211426B926841EA0221426B928941EAC0
:100540000241426B128A41EA0251426B127D41EA3A
:100550000261426B926911430268521C9200A2F13F
:10056000C0421160C16AB1F5804F1BD1816B09682F
:10057000826B526841EA0211826B926841EA022161
:10058000826B128A41EA0251826B127D41EA02615A
:10059000826B9269114302689200A2F1C042C2F8D4
:1005A000041107E06FF0704201688900A1F1C041B9
:1005B000C1F8042170472DE9F041024600250026CC
:1005C000002000230024002791F803C00CF00F0541
:1005D00091F803C00CF0100CBCF1000F03D091F89F
:1005E00002C04CEA050591F800C0BCF1000F31D003
:1005F000146800202BE04FF0010C0CFA00F3B1F866
:1006000000C00CEA03069E4220D183004FF00F0C7D
:100610000CFA03F7BC4305FA03FC4CEA040491F816
:1006200003C0BCF1280F06D14FF0010C0CFA00FCFE
:10063000C2F814C00AE091F803C0BCF1480F05D11C
:100640004FF0010C0CFA00FCC2F810C0401C082846
:10065000D1D31460B1F800C0BCF1FF0F34DD546891
:1006600000202EE000F1080C4FF0010808FA0CF30E
:10067000B1F800C00CEA03069E4221D183004FF07E
:100680000F0C0CFA03F7BC4305FA03FC4CEA040414
:1006900091F803C0BCF1280F05D100F1080C08FA4D
:1006A0000CF8C2F8148091F803C0BCF1480F07D1D0
:1006B00000F1080C4FF0010808FA0CF8C2F810809D
:1006C000401C0828CED35460BDE8F08102460020CB
:1006D00093680B400BB1012000E0002070470161DE
:1006E00070470AB1016100E04161704700BFFEE759
:1006F00010B501211248FFF7E9FF012806D1114882
:100700000068401C0F490860002010BD0D480068BB
:10071000B0F57A7F04D300200A4908600520F4E789
:1007200008480068B0F5FA7F04D800200549086041
:100730000320EAE700200349086000BFE5E7000066
:10074000000801400C00002070B504460026174840
:100750000588408845431548808846F6040188424C
:1007600016D112488079012812D100200F498871D2
:100770002A2048812B2088810021084600F0FCFABD
:1007800001200A4988712B2048812A20888103E0B2
:100790000021084600F0F0FA00F042FC002602E0DA
:1007A00003480480761CAE42FAD370BD28000020B6
:1007B0000008006C10B50446002C73D1794988718B
:1007C000F02008804FF4A07048800846808849F2E5
:1007D0004131884211D07348808849F2864188426D
:1007E0000BD07048808846F60401884205D06D48D9
:1007F000808845F21031884220D12C206949088137
:100800002A2048812B2088810846808846F60401EA
:1008100088420BD06348808845F21031884205D069
:100820006048808849F28641884206D14FF4A07022
:100830005C4908804FF4F0704880AEE059488088E9
:1008400045F21051884210D14FF43050554908817B
:100850004FF4285048814FF42C5088814FF4F070A9
:1008600008804FF44870488097E04E48808841F6F1
:10087000631188420DD12C204A4908812B204881E0
:100880002A2088814FF4F07008804FF44870488027
:1008900083E022204349088120204881212088814B
:1008A0007BE0FFE701203F4988714FF4A07008808A
:1008B000F02048800846808849F2413188420BD0B8
:1008C0003848808849F28641884205D0354880887A
:1008D00045F21031884207D12C20324908812A2064
:1008E00048812B2088813FE02E48808846F604010D
:1008F000884207D12C202B4908812B2048812A20AF
:10090000888131E02748808845F21051884210D113
:100910004FF43050234908814FF4285048814FF458
:100920002C5088814FF4487008804FF4F070488054
:100930001AE01C48808841F6631188420DD12C20B2
:10094000184908812A2048812B2088814FF448705B
:1009500008804FF4F070488006E022201149088199
:1009600021204881202088810E48808846F6040195
:1009700088420BD00B48808845F21031884205D060
:100980000848808849F28641884206D14FF4F070C9
:10099000044908804FF4A0704880002000F070F8EF
:1009A00010BD00002800002070B505460E46144614
:1009B0003146284600F0E0F900F032FB014804809F
:1009C00070BD00000008006C2DE9F04F06460F4690
:1009D00090469946C346CA463C460CE0354606E07A
:1009E00021462846099AFFF7DFFF681C85B25D455E
:1009F000F6DB601C84B25445F0DBBDE8F08F0000EC
:100A000008B5034800880090BDF8000008BD00004C
:100A10000008006C10B50446204600F0F5FA0520E9
:100A2000FFF732FDFFF7ECFF10BD00002DE9F047A6
:100A30000446BE2000F0E8FA052000F0D9FA20466E
:100A4000FFF716FC07464FF066320C4BFFF79EFB94
:100A50000546FFF71AFC1FFA80F9484600F0C8FA6D
:100A6000012000F0C5FAFF2000F0C2FA002000F0DB
:100A7000BFFA002000F0BCFABDE8F08766660440CB
:100A8000F0B5054600240027BA48807901280BD12B
:100A9000B848808846F60401884205D0B548808869
:100AA00041F66311884208D1B2488079F0B9B14863
:100AB000808841F66311884218D1082D15D2DFE8ED
:100AC00005F00406080A0C0E101206250DE0072595
:100AD0000BE0042509E0052507E0012505E00025D8
:100AE00003E0032501E0022500BF00BFA148808884
:100AF00049F2413188421DD09E48808849F28641A2
:100B0000884217D09B48808846F60401884211D05D
:100B10009848808845F2103188420BD095488088EB
:100B200045F21051884205D09248808841F6631101
:100B300088427DD1082D1CD2DFE805F00406090C9F
:100B40000F12151800BF14E044F0800411E044F0C7
:100B500040040EE044F0C0040BE044F0200408E040
:100B600044F0600405E044F0A00402E044F0E00436
:100B700000BF00BF7F48808845F21051884202D1F3
:100B80004FF4585700E036277A48808845F21031F4
:100B900088420DD07748808845F21051884207D0AE
:100BA0007448808841F66311884201D044F00804FB
:100BB0007048808846F60401884201D144F002045E
:100BC0002146384600F036FA6A48808841F66311BB
:100BD00088421DD004F0200068B16648008865494D
:100BE0004988884214DA6348068840886149088049
:100BF000084646800CE05F4800885E494988884284
:100C000006DD5C48068840885A49088008464680C8
:100C10005848808845F21051884254D15549488936
:100C200000F0F2F9002000F0E3F95249498900E0B0
:100C300078E0491C88B200F0E7F9002000F0D8F90C
:100C40004C494989891C88B200F0DEF94949098874
:100C5000491EC1F30F2000F0CBF946494989C91C50
:100C600088B200F0D1F943490978491EC8B200F0B2
:100C7000BFF94049888900F0C7F9002000F0B8F9B1
:100C80003C498989491C88B200F0BEF9002000F077
:100C9000AFF938498989891C88B200F0B5F935491E
:100CA0004988491EC1F30F2000F0A2F93149898912
:100CB000C91C88B200F0A8F92E498978491EC8B22B
:100CC00000F096F955E02B49488900F09DF9002085
:100CD00000F08EF9002000F08BF926490988491EA2
:100CE000C1F30F2000F084F922490978491EC8B2E7
:100CF00000F07EF91F49888900F086F9002000F095
:100D000077F9002000F074F91A494988491EC1F3A7
:100D10000F2000F06DF917498978491EC8B200F01C
:100D200067F926E0082D1CD2DFE805F004070A0D5C
:100D30000F12151844F0300413E044F0100410E0D2
:100D400044F020040DE000BF0BE044F0380408E05C
:100D500044F0280405E044F0180402E044F00804DC
:100D600000BF00BF032744F480542146384600F0FA
:100D700061F9F0BD2800002030B504460D468148D9
:100D8000808849F24131884205D07E48808845F20A
:100D90001031884214D17B49488900F035F920127E
:100DA00000F026F9E0B200F023F97649888900F0D6
:100DB0002BF9281200F01CF9E8B200F019F9E0E074
:100DC0007048808849F2864188422ED16D49488911
:100DD00000F01AF9201200F00BF9E0B200F008F967
:100DE00068490988491EC1F30F2000F001F96549DF
:100DF0000978491EC8B200F0FBF86249888900F002
:100E000003F9281200F0F4F8E8B200F0F1F85D49B7
:100E10004988491EC1F30F2000F0EAF85949897842
:100E2000491EC8B200F0E4F8ABE05648808846F6A8
:100E3000040188421DD153488079012804D15148CA
:100E40000088401E001B84B24E49488900F0DCF83F
:100E5000201200F0CDF8E0B200F0CAF849498889C4
:100E600000F0D2F8281200F0C3F8E8B200F0C0F8A1
:100E700087E04448808841F66311884247D1414861
:100E80008079A8B93F480088401E001B84B23D49C4
:100E9000488900F0B9F8002000F0AAF8002000F01E
:100EA000A7F8201200F0A4F8E0B200F0A1F816E0D4
:100EB0003449488900F0A8F8201200F099F8E0B20F
:100EC00000F096F82F490988491EC1F30F2000F061
:100ED0008FF82C490978491EC8B200F089F82949D1
:100EE000888900F091F8281200F082F8E8B200F04A
:100EF0007FF824494988491EC1F30F2000F078F893
:100F000020498978491EC8B200F072F839E01D48BE
:100F1000808845F21051884220D11A49488900F052
:100F200073F8201200F064F816494989491C88B208
:100F300000F06AF8E0B200F05BF81249888900F02E
:100F400063F8281200F054F80E498989491C88B2C8
:100F500000F05AF8E8B200F04BF812E00948807946
:100F6000012804D107480088401E001B84B20549AF
:100F70004889214600F05EF802498889294600F038
:100F800059F830BD280000202DE9F84F04460F46DF
:100F9000154698460A9E4FF00009CA46A34600200F
:100FA000009000BF20E04FF0000917E07078317822
:100FB00040EA0120009039462046009AFFF7F4FCF1
:100FC000601C84B20BEB0500A04202DC5C46781C7E
:100FD00087B2B61C09F101001FFA80F9A945E5DBCB
:100FE0000AF101001FFA80FAC245DCDBBDE8F88F88
:100FF00001B5BDF800000090BDF80000014908806F
:1010000008BD00000008006C01B5BDF800000090AC
:10101000BDF800000149088008BD0000FE07006C13
:10102000024800890249088070470000280000201B
:10103000FE07006C024A1080921C1180704700006D
:10104000FE07006C08B50121402000F073F8102065
:101050008DF803003C20ADF8000003208DF802005D
:1010600069460C48FFF7A7FA012204210948FFF757
:1010700038FB012208210748FFF733FB012210212A
:101080000448FFF72EFB012220210248FFF729FB2D
:1010900008BD00000018014000BFFEE770470000D7
:1010A00070B5002100230F22C47804B3154C2468C6
:1010B00004F4E064C4F5E064210AC1F10403CA4009
:1010C000447804FA03F184781440214309010E4C5A
:1010D0000678A155047804F01F050124AC4005787A
:1010E0006D11AD0005F1E025C5F8004109E0047877
:1010F00004F01F050124AC40044D0678761145F834
:10110000264070BD0CED00E000E400E080E100E06E
:101110007047000029B1064A52690243044B5A61E4
:1011200004E0034A52698243014B5A617047000050
:101130000010024029B1064A92690243044B9A61A9
:1011400004E0034A92698243014B9A6170470000B0
:101150000010024030B500210022002400232D4D54
:101160006D6805F00C0121B1042905D0082923D1AF
:1011700005E0294D056022E0274D05601FE0254D63
:101180006D6805F47012234D6D6805F480340225F6
:1011900005EB92421CB9214D554305600BE01D4DF6
:1011A0006D6805F400351DB11C4D5543056002E026
:1011B000194D5543056002E0174D056000BF00BFA3
:1011C000144D6D6805F0F0010909154D6B5C05685B
:1011D000DD4045600F4D6D6805F4E061090A104D72
:1011E0006B5C4568DD4085600A4D6D6805F46051B3
:1011F000C90A0B4D6B5C4568DD40C560054D6D68E7
:1012000005F44041890B074D6B5CC568B5FBF3F5F0
:10121000056130BD0010024000127A0000093D0057
:101220001100002021000020704710B500F002F8E6
:1012300010BD00000CB500200190009033480068FC
:1012400040F480303149086000BF3048006800F445
:10125000003000900198401C0190009818B9019846
:10126000B0F5A06FF1D12948006800F4003010B14A
:101270000120009001E0002000900098012843D157
:101280002348006840F010002149086008460068C3
:1012900020F0030008600846006840F00200086083
:1012A0001A4840681949486008464068486008463E
:1012B000406840F4806048600846406820F47C1034
:1012C00048600846406840F4E810486008460068F6
:1012D00040F08070086000BF0C48006800F00070AB
:1012E0000028F9D00948406820F003000749486009
:1012F0000846406840F00200486000BF034840686C
:1013000000F00C000828F9D10CBD000000100240CC
:101310000020024010B507480068401C05490860DD
:1013200005480068401C04490860FFF7E1F90349DB
:10133000087010BD000000200800002004000020FC
:1013400010B51348006840F00100114908600846D4
:101350004068104908400E494860084600680E4938
:1013600008400B4908600846006820F480200860A7
:101370000846406820F4FE0048604FF41F00886073
:10138000FFF753FF4FF000600449086010BD0000F4
:10139000001002400000FFF8FFFFF6FE08ED00E03D
:1013A00000B59FB000201E9001210802FFF7B2FE99
:1013B00001214FF4B470FFF7BDFE0120ADF87400B9
:1013C00010208DF8770003208DF876001DA9FE48C7
:1013D000FFF7F1F84CF23370ADF8740018208DF877
:1013E000770003208DF876001DA9F848FFF7E3F891
:1013F0004FF68070ADF8740018208DF87700032048
:101400008DF876001DA9F248FFF7D5F841F20100EA
:10141000ADF8740018208DF8770003208DF8760061
:101420001DA9EC48FFF7C7F801200790002008909D
:101430000F20099000200A900B900C900D900090C6
:1014400001900320029000200390049005900690E4
:1014500006200E9000200F90109010201190002078
:10146000129014901390159016904FF4805017908E
:10147000002018904FF48040199000201A9007A87F
:101480001B90CDF870D00EA8FFF722F8012106209E
:10149000FFF704F83220FEF7EBFF01210020FFF7F1
:1014A000C9FD3220FEF7E4FF0020FFF7B3FACA4976
:1014B000888008468088FF280FDB084680884FF622
:1014C000FF71884209D0C4488088B0F5134F04D01A
:1014D000C1488088B0F5144F7ED1D320FFF794FD2A
:1014E000FFF78EFABC498880FFF78AFABA498880EC
:1014F000FFF786FAB8498880084680884FF6FF7162
:1015000001EA0020B4498880FFF77AFAB249898855
:101510000843B14988800846808849F241318842B1
:101520005AD0AD48808849F286418842F8D0BF2021
:10153000FFF76AFDFFF764FAA7498880FFF760FAB2
:10154000A5498880FFF75CFAA3498880FFF758FA1D
:10155000A1498880084680884FF6FF7101EA002083
:101560009D498880FFF74CFA9B49898808439A492E
:1015700088800846808846F6040188427AD0D420C4
:10158000FFF742FDFFF73CFA93498880FFF738FAEE
:1015900091498880FFF734FA8F498880084680880F
:1015A0004FF6FF7101EA00208B498880FFF728FA87
:1015B000894989880843884988800846808845F297
:1015C0001031884256D04FF45A40FFF71DFDFFF707
:1015D00017FA8149888000E04CE04FF45B40FFF748
:1015E00013FDFFF70DFA7C498880084680884FF686
:1015F000FF7101EA0020784988804FF45C40FFF7D2
:1016000003FDFFF7FDF97449898808437249888012
:1016100008468088B0F5004F02D145F2105088800E
:101620006D48808845F21051884223D0A120FFF7F1
:10163000EBFCFFF7E5F968498880FFF7E1F96649B7
:101640008880084680884FF6FF7101EA00206249D1
:101650008880FFF7D5F96049898808435E4988800A
:101660000846808845F26171884203D141F66310D3
:10167000594988805848808849F24131884211D0C0
:101680005548808845F2103188420BD052488088F6
:1016900045F21051884205D04F48808841F66311C9
:1016A00088421DD14D48006820F00F004FF02041C6
:1016B000C1F81C010846D0F81C0120F47060C1F884
:1016C0001C010846D0F81C0140F00300C1F81C01C1
:1016D0000846D0F81C0140F40070C1F81C0128E055
:1016E0003D48808846F60401884205D03A48808803
:1016F0004CF2055188421CD13848006820F00F0098
:101700004FF02041C1F81C010846D0F81C0120F41C
:101710007060C1F81C010846D0F81C0140F00A00B6
:10172000C1F81C010846D0F81C0140F44060C1F823
:101730001C012948808849F2413188427ED1CF205E
:10174000FFF762FC0020FFF753FCC120FFF750FCBD
:101750003020FFF74DFCED20FFF756FC6420FFF72B
:1017600047FC0320FFF744FC1220FFF741FC8120D7
:10177000FFF73EFCE820FFF747FC8520FFF738FC29
:101780001020FFF735FC7A20FFF732FCCB20FFF763
:101790003BFC3920FFF72CFC2C20FFF729FC002014
:1017A000FFF726FC3420FFF723FC0220FFF720FC84
:1017B000F720FFF729FC2020FFF71AFCEA20FFF7AB
:1017C00023FC00200CE00000000C0140001401404C
:1017D0000018014000200140280000201C0100A04A
:1017E000FFF706FC0020FFF703FCC020FFF70CFC0E
:1017F0001B20FFF7FDFBC120FFF706FC0120FFF7D0
:10180000F7FBC520FFF700FC3020FFF7F1FB30208D
:10181000FFF7EEFBC720FFF7F7FBB720FFF7E8FB6A
:101820003620FFF7F1FB4820FFF7E2FB3A20FFF7F5
:10183000EBFB5520FFF7DCFBB12000E0A5E0FFF754
:10184000E3FB0020FFF7D4FB1A20FFF7D1FBB62003
:10185000FFF7DAFB0A20FFF7CBFBA220FFF7C8FB5C
:10186000F220FFF7D1FB0020FFF7C2FB2620FFF795
:10187000CBFB0120FFF7BCFBE020FFF7C5FB0F20EF
:10188000FFF7B6FB2A20FFF7B3FB2820FFF7B0FBDA
:101890000820FFF7ADFB0E20FFF7AAFB0820FFF79B
:1018A000A7FB5420FFF7A4FBA920FFF7A1FB4320CF
:1018B000FFF79EFB0A20FFF79BFB0F20FFF798FB2B
:1018C0000020FFF795FB0020FFF792FB0020FFF7B9
:1018D0008FFB0020FFF78CFBE120FFF795FB00203A
:1018E000FFF786FB1520FFF783FB1720FFF780FB30
:1018F0000720FFF77DFB1120FFF77AFB0620FFF79B
:1019000077FB2B20FFF774FB5620FFF771FB3C2081
:10191000FFF76EFB0520FFF76BFB1020FFF768FB5E
:101920000F20FFF765FB3F20FFF762FB3F20FFF72B
:101930005FFB0F20FFF75CFB2B20FFF765FB002010
:10194000FFF756FB0020FFF753FB0120FFF750FB8A
:101950003F20FFF74DFB2A20FFF756FB0020FFF743
:1019600047FB0020FFF744FB0020FFF741FBEF207F
:10197000FFF73EFB1120FFF747FB7820FEF778FDCD
:101980002920FFF741FB03F0E8B9FE48808849F2BF
:10199000864188427ED1F220FFF736FB1820FFF700
:1019A00027FBA320FFF724FB1220FFF721FB0220D7
:1019B000FFF71EFBB220FFF71BFB1220FFF718FBFF
:1019C000FF20FFF715FB1020FFF712FB0020FFF7A9
:1019D0000FFBF820FFF718FB2120FFF709FB04207D
:1019E000FFF706FBF920FFF70FFB0020FFF700FBD6
:1019F0000820FFF7FDFA3620FFF706FB0820FFF767
:101A0000F7FA3A20FFF700FB0520FFF7F1FAB420C0
:101A1000FFF7FAFA0120FFF7EBFAB620FFF7F4FA26
:101A20000220FFF7E5FA2220FFF7E2FAC120FFF7D4
:101A3000EBFA4120FFF7DCFAC520FFF7E5FA0020BA
:101A4000FFF7D6FA0720FFF7D3FAE020FFF7DCFA1A
:101A50000F20FFF7CDFA1F20FFF7CAFA1C20FFF76F
:101A6000C7FA0C20FFF7C4FA0F20FFF7C1FA0820CD
:101A7000FFF7BEFA4820FFF7BBFA9820FFF7B8FA45
:101A80003720FFF7B5FA0A20FFF7B2FA1320FFF765
:101A9000AFFA00E045E00420FFF7AAFA1120FFF7B3
:101AA000A7FA0D20FFF7A4FA0020FFF7A1FAE12022
:101AB000FFF7AAFA0F20FFF79BFA3220FFF798FAF8
:101AC0002E20FFF795FA0B20FFF792FA0D20FFF773
:101AD0008FFA0520FFF78CFA4720FFF789FA752067
:101AE000FFF786FA3720FFF783FA0620FFF780FA20
:101AF0001020FFF77DFA0320FFF77AFA2420FFF782
:101B000077FA2020FFF774FA0020FFF771FA11200E
:101B1000FFF77AFA7820FEF7ABFC2920FFF774FA7A
:101B200031E79848808846F6040188427ED111202A
:101B3000FFF76AFA1420FEF79BFCD020FFF764FA47
:101B40000720FFF755FA4220FFF752FA1D20FFF752
:101B50004FFAD120FFF758FA0020FFF749FA1A2070
:101B6000FFF746FA0920FFF743FAD220FFF74CFAB5
:101B70000120FFF73DFA2220FFF73AFAC020FFF7D5
:101B800043FA1020FFF734FA3B20FFF731FA002028
:101B9000FFF72EFA0220FFF72BFA1120FFF728FAA1
:101BA000C520FFF731FA0320FFF722FAC820FFF71C
:101BB0002BFA0020FFF71CFA2520FFF719FA212045
:101BC000FFF716FA0520FFF713FA0020FFF710FAC7
:101BD0000A20FFF70DFA6520FFF70AFA2520FFF724
:101BE00007FA7720FFF704FA5020FFF701FA0F20D9
:101BF000FFF7FEF90020FFF7FBF9F820FFF704FAE2
:101C00000120FFF7F5F9FE20FFF7FEF90020FFF7AE
:101C1000EFF90220FFF7ECF92020FFF7F5F9362065
:101C2000FFF7F2F90820FFF7E3F900E02AE03A2095
:101C3000FFF7EAF95520FFF7DBF92B20FFF7E4F96E
:101C40000020FFF7D5F90020FFF7D2F90120FFF7B8
:101C5000CFF93F20FFF7CCF92A20FFF7D5F9002074
:101C6000FFF7C6F90020FFF7C3F90120FFF7C0F91D
:101C7000DF20FFF7BDF97820FEF7FAFB2920FFF7F8
:101C8000C3F980E63F48808845F21031884240F031
:101C90007C87ED20FFF7B8F90120FFF7A9F9FE20B6
:101CA000FFF7A6F9EE20FFF7AFF9DE20FFF7A0F966
:101CB0002120FFF79DF9F120FFF7A6F90120FFF79A
:101CC00097F9DF20FFF7A0F91020FFF791F9C42062
:101CD000FFF79AF98F20FFF78BF9C620FFF794F9E9
:101CE0000020FFF785F9E220FFF782F9E220FFF7F5
:101CF0007FF9E220FFF77CF9BF20FFF785F9AA20E2
:101D0000FFF776F9B020FFF77FF90D20FFF770F9A4
:101D10000020FFF76DF90D20FFF76AF90020FFF7AB
:101D200067F91120FFF764F90020FFF761F9192026
:101D3000FFF75EF90020FFF75BF92120FFF758F964
:101D40000020FFF755F92D20FFF752F90020FFF78B
:101D50004FF93D20FFF74CF90020FFF749F95D20CE
:101D6000FFF746F90020FFF743F95D20FFF740F940
:101D70000020FFF73DF9B120FFF746F98020FFF77B
:101D800037F901E0280000200020FFF731F98B200F
:101D9000FFF72EF90020FFF72BF99620FFF728F91F
:101DA0000020FFF725F9B220FFF72EF90020FFF7FA
:101DB0001FF90020FFF71CF90220FFF719F9002096
:101DC000FFF716F90320FFF713F90020FFF710F9CA
:101DD000B320FFF719F90020FFF70AF90020FFF7F9
:101DE00007F90020FFF704F90020FFF701F90020B0
:101DF000FFF7FEF80020FFF7FBF80020FFF7F8F8E8
:101E00000020FFF7F5F80020FFF7F2F80020FFF7B9
:101E1000EFF80020FFF7ECF80020FFF7E9F80020CA
:101E2000FFF7E6F80020FFF7E3F80020FFF7E0F8FF
:101E30000020FFF7DDF80020FFF7DAF80020FFF7B9
:101E4000D7F80020FFF7D4F80020FFF7D1F80020E2
:101E5000FFF7CEF80020FFF7CBF80020FFF7C8F817
:101E60000020FFF7C5F8B420FFF7CEF88B20FFF76E
:101E7000BFF80020FFF7BCF89620FFF7B9F8002064
:101E8000FFF7B6F8A120FFF7B3F80020FFF7B0F88E
:101E9000B520FFF7B9F80220FFF7AAF80020FFF7F6
:101EA000A7F80320FFF7A4F80020FFF7A1F804200B
:101EB000FFF79EF80020FFF79BF8B620FFF7A4F885
:101EC0000020FFF795F80020FFF792F8B720FFF702
:101ED0009BF80020FFF78CF80020FFF789F83F20DF
:101EE000FFF786F80020FFF783F85E20FFF780F801
:101EF0000020FFF77DF86420FFF77AF80020FFF755
:101F000077F88C20FFF774F80020FFF771F8AC2009
:101F1000FFF76EF80020FFF76BF8DC20FFF768F89A
:101F20000020FFF765F87020FFF762F80020FFF748
:101F30005FF89020FFF75CF80020FFF759F8EB20DE
:101F4000FFF756F80020FFF753F8DC20FFF750F8B2
:101F50000020FFF74DF8B820FFF756F80020FFF7F4
:101F600047F80020FFF744F80020FFF741F8002071
:101F7000FFF73EF80020FFF73BF80020FFF738F8A6
:101F80000020FFF735F80020FFF732F8BA20FFF7FE
:101F90003BF82420FFF72CF80020FFF729F8002059
:101FA000FFF726F80020FFF723F8C120FFF72CF8F1
:101FB0002020FFF71DF80020FFF71AF85420FFF744
:101FC00017F80020FFF714F8FF20FFF711F80020A2
:101FD000FFF70EF8C220FFF717F80A20FFF708F8FE
:101FE0000020FFF705F80420FFF702F80020FEF7B5
:101FF000FFFFC320FFF708F83C20FEF7F9FF0020A1
:10200000FEF7F6FF3A20FEF7F3FF0020FEF7F0FFA1
:102010003920FEF7EDFF0020FEF7EAFF3720FEF73C
:10202000E7FF0020FEF7E4FF3C20FEF7E1FF002081
:10203000FEF7DEFF3620FEF7DBFF0020FEF7D8FFBD
:102040003220FEF7D5FF0020FEF7D2FF2F20FEF74B
:10205000CFFF0020FEF7CCFF2C20FEF7C9FF0020A9
:10206000FEF7C6FF2920FEF7C3FF0020FEF7C0FFE2
:102070002620FEF7BDFF0020FEF7BAFF2420FEF762
:10208000B7FF0020FEF7B4FF2420FEF7B1FF0020C9
:10209000FEF7AEFF2320FEF7ABFF0020FEF7A8FF00
:1020A0003C20FEF7A5FF0020FEF7A2FF3620FEF73A
:1020B0009FFF0020FEF79CFF3220FEF799FF0020D3
:1020C000FEF796FF2F20FEF793FF0020FEF790FF0C
:1020D0002C20FEF78DFF0020FEF78AFF2920FEF757
:1020E00087FF0020FEF784FF2620FEF781FF0020F7
:1020F000FEF77EFF2420FEF77BFF0020FEF778FF2F
:102100002420FEF775FF0020FEF772FF2320FEF764
:102110006FFF0020FEF76CFFC420FEF775FF622002
:10212000FEF766FF0020FEF763FF0520FEF760FF65
:102130000020FEF75DFF8420FEF75AFF0020FEF727
:1021400057FFF020FEF754FF0020FEF751FF182044
:10215000FEF74EFF0020FEF74BFFA420FEF748FFDE
:102160000020FEF745FF1820FEF742FF0020FEF793
:102170003FFF5020FEF73CFF0020FEF739FF0C2008
:10218000FEF736FF0020FEF733FF1720FEF730FF83
:102190000020FEF72DFF9520FEF72AFF0020FEF716
:1021A00027FFF320FEF724FF0020FEF721FFE620A3
:1021B000FEF71EFF0020FEF71BFFC520FEF724FFE1
:1021C0003220FEF715FF0020FEF712FF4420FEF735
:1021D0000FFF0020FEF70CFF6520FEF709FF00202F
:1021E000FEF706FF7620FEF703FF0020FEF700FF54
:1021F0008820FEF7FDFE0020FEF7FAFEC620FEF75F
:1022000003FF2020FEF7F4FE0020FEF7F1FE17206A
:10221000FEF7EEFE0020FEF7EBFE0120FEF7E8FEE3
:102220000020FEF7E5FEC720FEF7EEFE0020FEF7D9
:10223000DFFE0020FEF7DCFE0020FEF7D9FE0020C6
:10224000FEF7D6FEC820FEF7DFFE0020FEF7D0FE28
:102250000020FEF7CDFE0020FEF7CAFE0020FEF7AC
:10226000C7FEC920FEF7D0FE0020FEF7C1FE002009
:10227000FEF7BEFE0020FEF7BBFE0020FEF7B8FE14
:102280000020FEF7B5FE0020FEF7B2FE0020FEF7AC
:10229000AFFE0020FEF7ACFE0020FEF7A9FE0020F6
:1022A000FEF7A6FE0020FEF7A3FE0020FEF7A0FE2C
:1022B0000020FEF79DFE0020FEF79AFE0020FEF7AC
:1022C00097FE0020FEF794FEE020FEF79DFE16200C
:1022D000FEF78EFE0020FEF78BFE1C20FEF788FE28
:1022E0000020FEF785FE2120FEF782FE0020FEF78B
:1022F0007FFE3620FEF77CFE0020FEF779FE4620AA
:10230000FEF776FE0020FEF773FE5220FEF770FE09
:102310000020FEF76DFE6420FEF76AFE0020FEF747
:1023200067FE7A20FEF764FE0020FEF761FE8B2038
:10233000FEF75EFE0020FEF75BFE9920FEF758FEDA
:102340000020FEF755FEA820FEF752FE0020FEF703
:102350004FFEB920FEF74CFE0020FEF749FEC420D8
:10236000FEF746FE0020FEF743FECA20FEF740FEC1
:102370000020FEF73DFED220FEF73AFE0020FEF7D9
:1023800037FED920FEF734FE0020FEF731FEE020B4
:10239000FEF72EFE0020FEF72BFEF320FEF728FEB0
:1023A0000020FEF725FEE120FEF72EFE1620FEF7A8
:1023B0001FFE0020FEF71CFE1C20FEF719FE002069
:1023C000FEF716FE2220FEF713FE0020FEF710FE99
:1023D0003620FEF70DFE0020FEF70AFE4520FEF730
:1023E00007FE0020FEF704FE5220FEF701FE00204B
:1023F000FEF7FEFD6420FEF7FBFD0020FEF7F8FD72
:102400007A20FEF7F5FD0020FEF7F2FD8B20FEF7A7
:10241000EFFD0020FEF7ECFD9920FEF7E9FD00201E
:10242000FEF7E6FDA820FEF7E3FD0020FEF7E0FD45
:10243000B920FEF7DDFD0020FEF7DAFDC420FEF72F
:10244000D7FD0020FEF7D4FDCA20FEF7D1FD002005
:10245000FEF7CEFDD220FEF7CBFD0020FEF7C8FD33
:10246000D820FEF7C5FD0020FEF7C2FDE020FEF7F4
:10247000BFFD0020FEF7BCFDF320FEF7B9FD0020F4
:10248000FEF7B6FDE220FEF7BFFD0520FEF7B0FD2A
:102490000020FEF7ADFD0B20FEF7AAFD0020FEF7A1
:1024A000A7FD1B20FEF7A4FD0020FEF7A1FD3420B0
:1024B000FEF79EFD0020FEF79BFD4420FEF798FDF1
:1024C0000020FEF795FD4F20FEF792FD0020FEF75D
:1024D0008FFD6120FEF78CFD0020FEF789FD79203D
:1024E000FEF786FD0020FEF783FD8820FEF780FDC5
:1024F0000020FEF77DFD9720FEF77AFD0020FEF715
:1025000077FDA620FEF774FD0020FEF771FDB720D1
:10251000FEF76EFD0020FEF76BFDC220FEF768FDA2
:102520000020FEF765FDC720FEF762FD0020FEF7E4
:102530005FFDD120FEF75CFD0020FEF759FDD6209F
:10254000FEF756FD0020FEF753FDDD20FEF750FD9F
:102550000020FEF74DFDF320FEF74AFD0020FEF7B8
:1025600047FDE320FEF750FD0520FEF741FD00206A
:10257000FEF73EFD0A20FEF73BFD0020FEF738FD8A
:102580001C20FEF735FD0020FEF732FD3320FEF75C
:102590002FFD0020FEF72CFD4420FEF729FD002032
:1025A000FEF726FD5020FEF723FD0020FEF720FD5C
:1025B0006220FEF71DFD0020FEF71AFD7820FEF7D1
:1025C00017FD0020FEF714FD8820FEF711FD002006
:1025D000FEF70EFD9720FEF70BFD0020FEF708FD2D
:1025E000A620FEF705FD0020FEF702FDB720FEF74E
:1025F000FFFC0020FEF7FCFCC220FEF7F9FC0020E7
:10260000FEF7F6FCC720FEF7F3FC0020FEF7F0FC17
:10261000D120FEF7EDFC0020FEF7EAFCD520FEF706
:10262000E7FC0020FEF7E4FCDD20FEF7E1FC0020E3
:10263000FEF7DEFCF320FEF7DBFC0020FEF7D8FC03
:10264000E420FEF7E1FC0120FEF7D2FC0020FEF7BB
:10265000CFFC0120FEF7CCFC0020FEF7C9FC0220D5
:10266000FEF7C6FC0020FEF7C3FC2A20FEF7C0FCE4
:102670000020FEF7BDFC3C20FEF7BAFC0020FEF770
:10268000B7FC4B20FEF7B4FC0020FEF7B1FC5D2048
:10269000FEF7AEFC0020FEF7ABFC7420FEF7A8FCB2
:1026A0000020FEF7A5FC8420FEF7A2FC0020FEF728
:1026B0009FFC9320FEF79CFC0020FEF799FCA220D3
:1026C000FEF796FC0020FEF793FCB320FEF790FC8B
:1026D0000020FEF78DFCBE20FEF78AFC0020FEF7EE
:1026E00087FCC420FEF784FC0020FEF781FCCD208F
:1026F000FEF77EFC0020FEF77BFCD320FEF778FC83
:102700000020FEF775FCDD20FEF772FC0020FEF7CE
:102710006FFCF320FEF76CFC0020FEF769FCE5205F
:10272000FEF772FC0020FEF763FC0020FEF760FC61
:102730000020FEF75DFC0020FEF75AFC0220FEF7A9
:1027400057FC0020FEF754FC2920FEF751FC002026
:10275000FEF74EFC3C20FEF74BFC0020FEF748FC49
:102760004B20FEF745FC0020FEF742FC5D20FEF703
:102770003FFC0020FEF73CFC7420FEF739FC0020F3
:10278000FEF736FC8420FEF733FC0020FEF730FC19
:102790009320FEF72DFC0020FEF72AFCA220FEF776
:1027A00027FC0020FEF724FCB320FEF721FC0020CC
:1027B000FEF71EFCBE20FEF71BFC0020FEF718FCF7
:1027C000C420FEF715FC0020FEF712FCCD20FEF71A
:1027D0000FFC0020FEF70CFCD320FEF709FC0020C4
:1027E000FEF706FCDC20FEF703FC0020FEF700FCF1
:1027F000F320FEF7FDFB0020FEF7FAFBE620FEF7D4
:1028000003FC1120FEF7F4FB0020FEF7F1FB34205F
:10281000FEF7EEFB0020FEF7EBFB5620FEF7E8FB91
:102820000020FEF7E5FB7620FEF7E2FB0020FEF736
:10283000DFFB7720FEF7DCFB0020FEF7D9FB6620EC
:10284000FEF7D6FB0020FEF7D3FB8820FEF7D0FB77
:102850000020FEF7CDFB9920FEF7CAFB0020FEF713
:10286000C7FBBB20FEF7C4FB0020FEF7C1FB99208D
:10287000FEF7BEFB0020FEF7BBFB6620FEF7B8FBB1
:102880000020FEF7B5FB5520FEF7B2FB0020FEF757
:10289000AFFB5520FEF7ACFB0020FEF7A9FB45205F
:1028A000FEF7A6FB0020FEF7A3FB4320FEF7A0FBEC
:1028B0000020FEF79DFB4420FEF79AFB0020FEF768
:1028C00097FBE720FEF7A0FB3220FEF791FB0020EC
:1028D000FEF78EFB5520FEF78BFB0020FEF788FBF2
:1028E0007620FEF785FB0020FEF782FB6620FEF7D0
:1028F0007FFB0020FEF77CFB6720FEF779FB0020C2
:10290000FEF776FB6720FEF773FB0020FEF770FBF7
:102910008720FEF76DFB0020FEF76AFB9920FEF78B
:1029200067FB0020FEF764FBBB20FEF761FB002085
:10293000FEF75EFB9920FEF75BFB0020FEF758FBDD
:102940007720FEF755FB0020FEF752FB4420FEF7F0
:102950004FFB0020FEF74CFB5620FEF749FB002002
:10296000FEF746FB2320FEF743FB0020FEF740FB6B
:102970003320FEF73DFB0020FEF73AFB4520FEF733
:1029800037FB0020FEF734FBE820FEF73DFB00207C
:10299000FEF72EFB0020FEF72BFB9920FEF728FB0D
:1029A0000020FEF725FB8720FEF722FB0020FEF724
:1029B0001FFB8820FEF71CFB0020FEF719FB772089
:1029C000FEF716FB0020FEF713FB6620FEF710FB58
:1029D0000020FEF70DFB8820FEF70AFB0020FEF723
:1029E00007FBAA20FEF704FB0020FEF701FBBB203B
:1029F000FEF7FEFA0020FEF7FBFA9920FEF7F8FA40
:102A00000020FEF7F5FA6620FEF7F2FA0020FEF746
:102A1000EFFA5520FEF7ECFA0020FEF7E9FA552010
:102A2000FEF7E6FA0020FEF7E3FA4420FEF7E0FAAC
:102A30000020FEF7DDFA4420FEF7DAFA0020FEF768
:102A4000D7FA5520FEF7D4FA0020FEF7D1FAE92094
:102A5000FEF7DAFAAA20FEF7CBFA0020FEF7C8FA52
:102A60000020FEF7C5FA0020FEF7C2FA0020FEF7AC
:102A7000CBFAAA20FEF7BCFACF20FEF7C5FA002059
:102A8000FEF7B6FA0020FEF7B3FA0020FEF7B0FA20
:102A90000020FEF7ADFA0020FEF7AAFA0020FEF7AC
:102AA000A7FA0020FEF7A4FA0020FEF7A1FA002002
:102AB000FEF79EFA0020FEF79BFA0020FEF798FA38
:102AC0000020FEF795FA0020FEF792FA0020FEF7AC
:102AD0008FFA0020FEF78CFA0020FEF789FA00201A
:102AE000FEF786FAF020FEF78FFA0020FEF780FA54
:102AF0005020FEF77DFA0020FEF77AFA0020FEF75C
:102B000077FA0020FEF774FAF320FEF77DFA002032
:102B1000FEF76EFAF920FEF777FA0620FEF768FA5C
:102B20001020FEF765FA2920FEF762FA0020FEF772
:102B30005FFA3A20FEF768FA5520FEF759FA11209D
:102B4000FEF762FA6420FDF793FC2920FEF75CFA99
:102B50003520FEF759FA0020FEF74AFA5120FEF719
:102B600053FAFF20FEF744FA5320FEF74DFA2C20CB
:102B7000FEF73EFA5520FEF747FA8220FEF738FAB4
:102B80002C20FEF741FA02F0E8B8FE48808845F2B2
:102B9000105188427ED155214FF47040FEF74AFA19
:102BA000AA214FF20100FEF745FA52214FF202002E
:102BB000FEF740FA08214FF20300FEF73BFA01212D
:102BC0004FF20400FEF736FA0D214FF43040FEF7C5
:102BD00031FA0D214BF20100FEF72CFA0D214BF2D8
:102BE0000200FEF727FA34214FF43640FEF722FAAE
:102BF00034214BF20160FEF71DFA34214BF20260E2
:102C0000FEF718FA0D214FF43140FEF713FA0D21AB
:102C10004BF20110FEF70EFA0D214BF20210FEF7F7
:102C200009FA34214FF43740FEF704FA34214BF20D
:102C30000170FEF7FFF934214BF20270FEF7FAF94A
:102C400000214FF43240FEF7F5F900214BF201204C
:102C5000FEF7F0F900214BF20220FEF7EBF92421F8
:102C60004FF43840FEF7E6F924214BF60100FEF759
:102C7000E1F924214BF60200FEF7DCF901214FF4C3
:102C80003F40FEF7D7F90F214FF43340FEF7D2F95A
:102C90000F2100E0FEE34BF20130FEF7CBF90F21EC
:102CA0004BF20230FEF7C6F934214FF43940FEF7FB
:102CB000C1F934214BF60110FEF7BCF934214BF673
:102CC0000210FEF7B7F908214FF43540FEF7B2F9CC
:102CD00008214BF20150FEF7ADF908214BF20250EA
:102CE000FEF7A8F903214FF44240FEF7A3F924218F
:102CF0004FF43A40FEF79EF924214BF60120FEF7EF
:102D000099F924214BF60220FEF794F900214FF4A3
:102D10003C40FEF78FF978214BF60140FEF78AF927
:102D200000214BF60240FEF785F900214FF43D40AB
:102D3000FEF780F978214BF60150FEF77BF9002170
:102D40004BF60250FEF776F900214FF43E40FEF7B5
:102D500071F964214BF60160FEF76CF900214FF424
:102D60005140FEF767F933214DF20110FEF762F989
:102D700000214DF20210FEF75DF934214DF20310EF
:102D8000FEF758F900214DF20410FEF753F93A21ED
:102D90004DF20510FEF74EF900214DF20610FEF738
:102DA00049F94A214DF20710FEF744F900214DF28E
:102DB0000810FEF73FF95C214DF20910FEF73AF9D1
:102DC00000214DF20A10FEF735F981214DF20B106A
:102DD000FEF730F900214DF20C10FEF72BF9A62179
:102DE0004DF20D10FEF726F900214DF20E10FEF700
:102DF00021F9E5214DF20F10FEF71CF901214DF2EA
:102E00001010FEF717F913214DF21110FEF712F909
:102E100001214DF21210FEF70DF954214DF213105D
:102E2000FEF708F901214DF21410FEF703F9822193
:102E30004DF21510FEF7FEF801214DF21610FEF7C7
:102E4000F9F8CA214DF21710FEF7F4F802214DF2FD
:102E50001810FEF7EFF800214DF21910FEF7EAF80E
:102E600002214DF21A10FEF7E5F801214DF21B1078
:102E7000FEF7E0F802214DF21C10FEF7DBF83421DA
:102E80004DF21D10FEF7D6F802214DF21E10FEF78E
:102E9000D1F867214DF21F10FEF7CCF802214DF258
:102EA0002010FEF7C7F884214DF22110FEF7C2F87A
:102EB00002214DF22210FEF7BDF8A4214DF223109D
:102EC000FEF7B8F802214DF22410FEF7B3F8B7214F
:102ED0004DF22510FEF7AEF802214DF22610FEF756
:102EE000A9F8CF214DF22710FEF7A4F802214DF2E8
:102EF0002810FEF79FF8DE214DF22910FEF79AF810
:102F000002214DF22A10FEF795F8F2214DF22B1016
:102F1000FEF790F802214DF22C10FEF78BF8FE21FF
:102F20004DF22D10FEF786F803214DF22E10FEF71C
:102F300081F810214DF22F10FEF77CF803214DF29D
:102F40003010FEF777F833214DF23110FEF772F8AA
:102F500003214DF23210FEF76DF86D214DF2331062
:102F6000FEF768F800214FF45240FEF763F8332172
:102F70004DF20120FEF75EF800214DF20220FEF72F
:102F800059F801E02800002034214DF20320FEF71B
:102F900051F800214DF20420FEF74CF83A214DF291
:102FA0000520FEF747F800214DF20620FEF742F813
:102FB0004A214DF20720FEF73DF800214DF208208E
:102FC000FEF738F85C214DF20920FEF733F80021B6
:102FD0004DF20A20FEF72EF881214DF20B20FEF76C
:102FE00029F800214DF20C20FEF724F8A6214DF21D
:102FF0000D20FEF71FF800214DF20E20FEF71AF803
:10300000E5214DF20F20FEF715F801214DF21020B9
:10301000FEF710F813214DF21120FEF70BF80121F5
:103020004DF21220FEF706F854214DF21320FEF760
:1030300001F801214DF21420FDF7FCFF82214DF231
:103040001520FDF7F7FF01214DF21620FDF7F2FFE5
:10305000CA214DF21720FDF7EDFF02214DF2182095
:10306000FDF7E8FF00214DF21920FDF7E3FF0221F3
:103070004DF21A20FDF7DEFF01214DF21B20FDF776
:10308000D9FF02214DF21C20FDF7D4FF34214DF26F
:103090001D20FDF7CFFF02214DF21E20FDF7CAFFD4
:1030A00067214DF21F20FDF7C5FF02214DF22020C0
:1030B000FDF7C0FF84214DF22120FDF7BBFF022167
:1030C0004DF22220FDF7B6FFA4214DF22320FDF79B
:1030D000B1FF02214DF22420FDF7ACFFB7214DF2E4
:1030E0002520FDF7A7FF02214DF22620FDF7A2FFC4
:1030F000CF214DF22720FDF79DFF02214DF2282020
:10310000FDF798FFDE214DF22920FDF793FF022104
:103110004DF22A20FDF78EFFF2214DF22B20FDF714
:1031200089FF02214DF22C20FDF784FFFE214DF294
:103130002D20FDF77FFF03214DF22E20FDF77AFFB2
:1031400010214DF22F20FDF775FF03214DF23020A5
:10315000FDF770FF33214DF23120FDF76BFF0321A6
:103160004DF23220FDF766FF6D214DF23320FDF761
:1031700061FF00214FF45340FDF75CFF33214DF216
:103180000130FDF757FF00214DF20230FDF752FFED
:1031900034214DF20330FDF74DFF00214DF2043094
:1031A000FDF748FF3A214DF20530FDF743FF0021BE
:1031B0004DF20630FDF73EFF4A214DF20730FDF794
:1031C00039FF00214DF20830FDF734FF5C214DF24C
:1031D0000930FDF72FFF00214DF20A30FDF72AFFDD
:1031E00081214DF20B30FDF725FF00214DF20C300F
:1031F000FDF720FFA6214DF20D30FDF71BFF00214A
:103200004DF20E30FDF716FFE5214DF20F30FDF7C0
:1032100011FF01214DF21030FDF70CFF13214DF28B
:103220001130FDF707FF01214DF21230FDF702FFCB
:1032300054214DF21330FDF7FDFE01214DF2143003
:10324000FDF7F8FE82214DF21530FDF7F3FE012166
:103250004DF21630FDF7EEFECA214DF21730FDF7A4
:10326000E9FE02214DF21830FDF7E4FE00214DF297
:103270001930FDF7DFFE02214DF21A30FDF7DAFEBC
:1032800001214DF21B30FDF7D5FE02214DF21C301D
:10329000FDF7D0FE34214DF21D30FDF7CBFE0221AB
:1032A0004DF21E30FDF7C6FE67214DF21F30FDF7CF
:1032B000C1FE02214DF22030FDF7BCFE84214DF20B
:1032C0002130FDF7B7FE02214DF22230FDF7B2FEAC
:1032D000A4214DF22330FDF7ADFE02214DF2243042
:1032E000FDF7A8FEB7214DF22530FDF7A3FE022120
:1032F0004DF22630FDF79EFECF214DF22730FDF72F
:1033000099FE02214DF22830FDF794FEDE214DF2A8
:103310002930FDF78FFE02214DF22A30FDF78AFE9B
:10332000F2214DF22B30FDF785FE02214DF22C30BB
:10333000FDF780FEFE214DF22D30FDF77BFE0321CF
:103340004DF22E30FDF776FE10214DF22F30FDF7B5
:1033500071FE03214DF23030FDF76CFE33214DF24A
:103360003130FDF767FE03214DF23230FDF762FE8A
:103370006D214DF23330FDF75DFE00214FF45440D6
:10338000FDF758FE33214DF20140FDF753FE0021B9
:103390004DF20240FDF74EFE34214DF20340FDF7A1
:1033A00049FE00214DF20440FDF744FE3A214DF262
:1033B0000540FDF73FFE00214DF20640FDF73AFEC5
:1033C0004A214DF20740FDF735FE00214DF208403D
:1033D000FDF730FE5C214DF20940FDF72BFE002188
:1033E0004DF20A40FDF726FE81214DF20B40FDF71C
:1033F00021FE00214DF20C40FDF71CFEA6214DF2EE
:103400000D40FDF717FE00214DF20E40FDF712FEB4
:10341000E5214DF20F40FDF70DFE01214DF2104068
:10342000FDF708FE13214DF21140FDF703FE0121C7
:103430004DF21240FDF7FEFD54214DF21340FDF711
:10344000F9FD01214DF21440FDF7F4FD82214DF20A
:103450001540FDF7EFFD01214DF21640FDF7EAFDA5
:10346000CA214DF21740FDF7E5FD02214DF218404B
:10347000FDF7E0FD00214DF21940FDF7DBFD0221D3
:103480004DF21A40FDF7D6FD01214DF21B40FDF72C
:10349000D1FD00E004E302214DF21C40FDF7CAFD1E
:1034A00034214DF21D40FDF7C5FD02214DF21E40B5
:1034B000FDF7C0FD67214DF21F40FDF7BBFD022166
:1034C0004DF22040FDF7B6FD84214DF22140FDF77D
:1034D000B1FD02214DF22240FDF7ACFDA4214DF2D9
:1034E0002340FDF7A7FD02214DF22440FDF7A2FD88
:1034F000B7214DF22540FDF79DFD02214DF22640FA
:10350000FDF798FDCF214DF22740FDF793FD0221F5
:103510004DF22840FDF78EFDDE214DF22940FDF7EA
:1035200089FD02214DF22A40FDF784FDF2214DF282
:103530002B40FDF77FFD02214DF22C40FDF77AFD77
:10354000FE214DF22D40FDF775FD03214DF22E4079
:10355000FDF770FD10214DF22F40FDF76BFD0321AB
:103560004DF23040FDF766FD33214DF23140FDF75D
:1035700061FD03214DF23240FDF75CFD6D214DF2FE
:103580003340FDF757FD00214FF45540FDF752FD44
:1035900033214DF20150FDF74DFD00214DF2025057
:1035A000FDF748FD34214DF20350FDF743FD0021A6
:1035B0004DF20450FDF73EFD3A214DF20550FDF766
:1035C00039FD00214DF20650FDF734FD4A214DF240
:1035D0000750FDF72FFD00214DF20850FDF72AFDA1
:1035E0005C214DF20950FDF725FD00214DF20A50F6
:1035F000FDF720FD81214DF20B50FDF71BFD002151
:103600004DF20C50FDF716FDA6214DF20D50FDF7C1
:1036100011FD00214DF20E50FDF70CFDE5214DF29C
:103620000F50FDF707FD01214DF21050FDF702FD8F
:1036300013214DF21150FDF7FDFC01214DF2125006
:10364000FDF7F8FC54214DF21350FDF7F3FC012176
:103650004DF21450FDF7EEFC82214DF21550FDF7AE
:10366000E9FC01214DF21650FDF7E4FCCA214DF2B0
:103670001750FDF7DFFC02214DF21850FDF7DAFC80
:1036800000214DF21950FDF7D5FC02214DF21A50E0
:10369000FDF7D0FC01214DF21B50FDF7CBFC0221C0
:1036A0004DF21C50FDF7C6FC34214DF21D50FDF7C4
:1036B000C1FC02214DF21E50FDF7BCFC67214DF20A
:1036C0001F50FDF7B7FC02214DF22050FDF7B2FC70
:1036D00084214DF22150FDF7ADFC02214DF2225024
:1036E000FDF7A8FCA4214DF22350FDF7A3FC022115
:1036F0004DF22450FDF79EFCB7214DF22550FDF709
:1037000099FC02214DF22650FDF794FCCF214DF299
:103710002750FDF78FFC02214DF22850FDF78AFC5F
:10372000DE214DF22950FDF785FC02214DF22A5091
:10373000FDF780FCF2214DF22B50FDF77BFC0221BE
:103740004DF22C50FDF776FCFE214DF22D50FDF789
:1037500071FC03214DF22E50FDF76CFC10214DF24F
:103760002F50FDF767FC03214DF23050FDF762FC4E
:1037700033214DF23150FDF75DFC03214DF2325003
:10378000FDF758FC6D214DF23350FDF753FC00213D
:103790004FF45640FDF74EFC33214DF20160FDF72A
:1037A00049FC00214DF20260FDF744FC34214DF24A
:1037B0000360FDF73FFC00214DF20460FDF73AFC89
:1037C0003A214DF20560FDF735FC00214DF206600F
:1037D000FDF730FC4A214DF20760FDF72BFC00217C
:1037E0004DF20860FDF726FC5C214DF20960FDF703
:1037F00021FC00214DF20A60FDF71CFC81214DF2F5
:103800000B60FDF717FC00214DF20C60FDF712FC78
:10381000A6214DF20D60FDF70DFC00214DF20E606A
:10382000FDF708FCE5214DF20F60FDF703FC0121D7
:103830004DF21060FDF7FEFB13214DF21160FDF714
:10384000F9FB01214DF21260FDF7F4FB54214DF21A
:103850001360FDF7EFFB01214DF21460FDF7EAFB69
:1038600082214DF21560FDF7E5FB01214DF2166056
:10387000FDF7E0FBCA214DF21760FDF7DBFB0221EB
:103880004DF21860FDF7D6FB00214DF21960FDF7EF
:10389000D1FB02214DF21A60FDF7CCFB01214DF264
:1038A0001B60FDF7C7FB02214DF21C60FDF7C2FB58
:1038B00034214DF21D60FDF7BDFB02214DF21E606B
:1038C000FDF7B8FB67214DF21F60FDF7B3FB022146
:1038D0004DF22060FDF7AEFB84214DF22160FDF733
:1038E000A9FB02214DF22260FDF7A4FBA4214DF2B9
:1038F0002360FDF79FFB02214DF22460FDF79AFB48
:10390000B7214DF22560FDF795FB02214DF22660AF
:10391000FDF790FBCF214DF22760FDF78BFB0221D5
:103920004DF22860FDF786FBDE214DF22960FDF7A0
:1039300081FB02214DF22A60FDF77CFBF2214DF262
:103940002B60FDF777FB02214DF22C60FDF772FB37
:10395000FE214DF22D60FDF76DFB03214DF22E602F
:10396000FDF768FB10214DF22F60FDF763FB03218B
:103970004DF23060FDF75EFB33214DF23160FDF713
:1039800059FB03214DF23260FDF754FB6D214DF2DE
:103990003360FDF74FFB55214FF47040FDF74AFBB4
:1039A000AA214FF20100FDF745FB52214FF2020020
:1039B000FDF740FB08214FF20300FDF73BFB002120
:1039C0004FF20400FDF736FBCC214FF43140FDF7F8
:1039D00031FB00214BF20110FDF72CFB05214FF4C8
:1039E0003640FDF727FB70214FF43740FDF722FBEF
:1039F00070214BF20170FDF71DFB01214FF438409F
:103A0000FDF718FB03214BF60100FDF713FB032123
:103A10004BF60200FDF70EFB03214BF60300FDF70A
:103A200009FB02214FF43C40FDF704FB00214BF65B
:103A30000140FDF7FFFA00214BF60240FDF7FAFACC
:103A4000D0214FF44940FDF7F5FA02214CF6011060
:103A5000FDF7F0FA50214CF60210FDF7EBFA502179
:103A60004CF60310FDF7E6FA50214CF60410FDF772
:103A7000E1FA00214FF45450FDF7DCFA55214FF4E0
:103A80006850FDF7D7FA4FF48850FDF7BDFA78205B
:103A9000FCF7FAFC4FF42450FDF7B6FA01F05DB9DB
:103AA000FE48808849F2253188427DD147F6F001F1
:103AB000E520FDF7BFFA4FF480710120FDF7BAFA57
:103AC0004FF4E0610220FDF7B5FA41F23001032026
:103AD000FDF7B0FA00210420FDF7ACFA40F2022114
:103AE0000820FDF7A7FA00210920FDF7A3FA00211D
:103AF0000A20FDF79FFA00210C20FDF79BFA002118
:103B00000D20FDF797FA00210F20FDF793FA002111
:103B10001020FDF78FFA07211120FDF78BFA002105
:103B20001220FDF787FA00211320FDF783FA002108
:103B30000720FDF77FFA41F290611020FDF77AFA35
:103B400040F227211120FDF775FA9D211220FDF783
:103B500071FA4FF4C8511320FDF76CFA2521292082
:103B6000FDF768FA0D212B20FDF764FA07213020BC
:103B7000FDF760FA40F203313120FDF75BFA0321D3
:103B80003220FDF757FA40F206213520FDF752FAB0
:103B900008213620FDF74EFA40F206413720FDF7A6
:103BA00049FA4FF4417100E058E03820FDF742FA3D
:103BB00007213920FDF73EFA40F202613C20FDF773
:103BC00039FA08213D20FDF735FA00215020FDF794
:103BD00031FAEF215120FDF72DFA00215220FDF797
:103BE00029FA40F23F115320FDF724FA4FF4274100
:103BF0006020FDF71FFA01216120FDF71BFA00216B
:103C00006A20FDF717FA00218020FDF713FA002142
:103C10008120FDF70FFA00218220FDF70BFA002129
:103C20008320FDF707FA00218420FDF703FA002125
:103C30008520FDF7FFF910219020FDF7FBF94FF4E7
:103C4000C0619220FDF7F6F940F233110720FDF72D
:103C5000F1F922210020FDF7EDF91FE78F48808858
:103C600049F2283188427DD141F28F01EC20FDF7E5
:103C7000E1F941F23421EF20FDF7DCF94FF48071D6
:103C80000120FDF7D7F94FF4E0610220FDF7D2F9EA
:103C900041F230010320FDF7CDF900210420FDF7AA
:103CA000C9F940F202210820FDF7C4F900210920DA
:103CB000FDF7C0F900210A20FDF7BCF901210C2015
:103CC000FDF7B8F900210D20FDF7B4F900210F2010
:103CD000FDF7B0F900211020FDF7ACF90721112004
:103CE000FDF7A8F900211220FDF7A4F90021132007
:103CF000FDF7A0F901210720FDF79CF93220FCF720
:103D0000B7FB41F290411020FDF794F940F22721D2
:103D10001120FDF78FF93220FCF7AAFB8A2112202F
:103D2000FDF788F93220FCF7A3FB4FF4D0511320A4
:103D3000FDF780F906212920FDF77CF90D212B20C4
:103D4000FDF778F93220FCF793FB00212020FDF7E6
:103D500071F900212120FDF76DF93220FCF788FB75
:103D6000002100E075E03020FDF764F940F20461C5
:103D70003120FDF75FF940F205313220FDF75AF9A5
:103D800000213520FDF756F940F609413620FDF7B0
:103D900051F94FF401713720FDF74CF940F2013130
:103DA0003820FDF747F940F207713920FDF742F955
:103DB00000213C20FDF73EF940F60A213D20FDF7A9
:103DC00039F93220FCF754FB00215020FDF732F97D
:103DD000EF215120FDF72EF900215220FDF72AF99D
:103DE00040F23F115320FDF725F94FF427416020A1
:103DF000FDF720F901216120FDF71CF900216A205F
:103E0000FDF718F900218020FDF714F90021812029
:103E1000FDF710F900218220FDF70CF90021832025
:103E2000FDF708F900218420FDF704F90021852021
:103E3000FDF700F910219020FDF7FCF84FF4C06168
:103E40009220FDF7F7F840F233110720FDF7F2F862
:103E500024E61248808849F2203188427ED1002130
:103E60000846FDF7E7F84FF480710120FDF7E2F80E
:103E70004FF4E0610220FDF7DDF841F2300103204C
:103E8000FDF7D8F800210420FDF7D4F840F2022114
:103E90000820FDF7CFF80021092001E028000020CC
:103EA000FDF7C8F800210A20FDF7C4F801210C2015
:103EB000FDF7C0F800210D20FDF7BCF800210F2010
:103EC000FDF7B8F83220FCF7D3FA40F201110720D1
:103ED000FDF7B0F83220FCF7CBFA4FF486511020F2
:103EE000FDF7A8F807211120FDF7A4F84FF4887119
:103EF0001220FDF79FF84FF430611320FDF79AF878
:103F000000212920FDF796F844F210012B20FDF73F
:103F100091F800215020FDF78DF8EF215120FDF799
:103F200089F800215220FDF785F840F23F11532017
:103F3000FDF780F84FF41C516020FDF77BF801215C
:103F40006120FDF777F800216A20FDF773F8002162
:103F50008020FDF76FF80021812000E030E0FDF7C0
:103F600069F800218220FDF765F800218320FDF724
:103F700061F800218420FDF75DF800218520FDF720
:103F800059F810219020FDF755F800219220FDF7F7
:103F900051F801219320FDF74DF84FF488719520D9
:103FA000FDF748F800219720FDF744F800219820FC
:103FB000FDF740F840F273110720FDF73BF86DE57F
:103FC000FE48808849F2313188427DD141F21401A6
:103FD000E720FDF72FF84FF480710120FDF72AF854
:103FE0004FF400710220FDF725F841F2380103205B
:103FF000FDF720F840F202210820FDF71BF8002110
:104000000920FDF717F800210A20FDF713F8002119
:104010000C20FDF70FF800210D20FDF70BF8002113
:104020000F20FDF707F800211020FDF703F8072106
:104030001120FCF7FFFF00211220FCF7FBFF0021FD
:104040001320FCF7F7FFC820FCF712FA41F2906149
:104050001020FCF7EFFF40F227211120FCF7EAFFC8
:104060003220FCF705FA0C211220FCF7E3FF322086
:10407000FCF7FEF94FF400611320FCF7DBFF112180
:104080002920FCF7D7FF0B212B20FCF7D3FF322090
:10409000FCF7EEF900212020FCF7CCFF40F23F11A5
:1040A0002120FCF7C7FF00213020FCF7C3FF4FF4AD
:1040B00083713120FCF7BEFF00213220FCF7BAFFEC
:1040C0004FF40171352000E064E0FCF7B3FF41F2EA
:1040D0000A613620FCF7AEFF40F207713720FCF78B
:1040E000A9FF4FF483713820FCF7A4FF40F2077159
:1040F0003920FCF79FFF40F202413C20FCF79AFF79
:1041000040F60F413D20FCF795FF00215020FCF7C1
:1041100091FFEF215120FCF78DFF00215220FCF789
:1041200089FF40F23F115320FCF784FF4FF41C51EC
:104130006020FCF77FFF01216120FCF77BFF00215D
:104140006A20FCF777FF00218020FCF773FF002135
:104150008120FCF76FFF00218220FCF76BFF00211C
:104160008320FCF767FF00218420FCF763FF002118
:104170008520FCF75FFF10219020FCF75BFF4FF4D8
:10418000C0619220FCF756FF40F233110720FCF784
:1041900051FF83E48948808845F2084188427DD1F7
:1041A0004FF480710120FCF745FF4FF4E0610220DD
:1041B000FCF740FF41F230010320FCF73BFF0021F8
:1041C0000420FCF737FF40F207210820FCF732FFFC
:1041D00000210920FCF72EFF00210A20FCF72AFF0E
:1041E00000210C20FCF726FF00210D20FCF722FF08
:1041F00000210F20FCF71EFF1420FCF739F941F2D3
:10420000B0611020FCF716FF01211120FCF712FF0E
:1042100001211720FCF70EFF4FF49C711220FCF7D0
:1042200009FF4FF400611320FCF704FF0921292046
:10423000FCF700FF09212A20FCF7FCFE0021A42046
:10424000FCF7F8FE00215020FCF7F4FEEF2151208E
:10425000FCF7F0FE00215220FCF7ECFE40F23F118B
:104260005320FCF7E7FE4FF41C516020FCF7E2FE00
:1042700001216120FCF7DEFE00216A20FCF7DAFE56
:1042800000218020FCF7D6FE00218120FCF7D2FE21
:1042900000218220FCF7CEFE002100E024E08320F4
:1042A000FCF7C8FE00218420FCF7C4FE0021852015
:1042B000FCF7C0FE13219020FCF7BCFE00219220E9
:1042C000FCF7B8FE03219320FCF7B4FE4FF488718D
:1042D0009520FCF7AFFE40F273110720FCF7AAFE11
:1042E0003220FCF7C5F8B8E43448808841F2055123
:1042F00088427DD100210720FCF79CFE3220FCF78C
:10430000B7F84FF48E711220FCF794FE0121A4201F
:10431000FCF790FE0F210820FCF78CFE08210A20F4
:10432000FCF788FE08210D20FCF784FE40F207719F
:104330003020FCF77FFE07213120FCF77BFE40F2A6
:1043400003613220FCF776FE4FF4E0613320FCF786
:1043500071FE40F202213420FCF76CFE0221352070
:10436000FCF768FE41F60F713620FCF763FE40F261
:1043700007713720FCF75EFE00213820FCF75AFE5B
:1043800000213920FCF756FE40F207713A20FCF775
:1043900051FE00213B20FCF74DFE07213C20FCF79D
:1043A00049FE00213D20FCF745FE3220FCF760F875
:1043B00001210720FCF73EFE012101E0280000203A
:1043C0001720FCF737FE3220FCF752F84FF4BD51AE
:1043D0001020FCF72FFE40F217211120FCF72AFED7
:1043E0004FF48F711220FCF725FE4FF4706100E04E
:1043F00098E01320FCF71EFE00212A20FCF71AFE8D
:104400000A212920FCF716FE4FF49F711220FCF7B9
:1044100011FE00215020FCF70DFEEF215120FCF78A
:1044200009FE00215220FCF705FE40F23F11532007
:10443000FCF700FE4FF41C516020FCF7FBFD01214E
:104440006120FCF7F7FD00216A20FCF7F3FD002155
:104450008020FCF7EFFD00218120FCF7EBFD00211F
:104460008220FCF7E7FD00218320FCF7E3FD00211B
:104470008420FCF7DFFD00218520FCF7DBFD132104
:104480009020FCF7D7FD4FF440719220FCF7D2FD4D
:1044900005219320FCF7CEFD00219520FCF7CAFDF5
:1044A00000219720FCF7C6FD00219820FCF7C2FDF3
:1044B0004FF480710120FCF7BDFD4FF4E061022054
:1044C000FCF7B8FD41F238010320FCF7B3FD0021F1
:1044D0000420FCF7AFFD00210C20FCF7ABFD002110
:1044E0000F20FCF7A7FD00212020FCF7A3FD0021F1
:1044F0002120FCF79FFD21210720FCF79BFD1420C4
:10450000FBF7B6FF61210720FCF794FD1420FBF7B1
:10451000AFFF40F273110720FCF78CFD1420FBF76E
:10452000A7FF95E4FE4880884BF2055188427CD174
:1045300000210846FCF77EFD00210846FCF77AFDC5
:1045400000210846FCF776FD00210846FCF772FDC5
:104550000121A420FCF76EFD1420FBF789FF4FF426
:104560001C516020FCF766FD40F202210820FCF798
:1045700061FD4FF405713020FCF75CFD43F21571CD
:104580003120FCF757FD40F204613220FCF752FD68
:1045900040F616613320FCF74DFD42F21121342024
:1045A000FCF748FD4FF4A8513520FCF743FD48F2D5
:1045B00007513620FCF73EFD41F207413720FCF75A
:1045C00039FD41F203413820FCF734FD2021392028
:1045D000FCF730FD1A219020FCF72CFD0021102063
:1045E000FCF728FD07211120FCF724FD00211220F3
:1045F000FCF720FD00211320FCF71CFD1420FBF725
:1046000037FF4FF4E6611020FCF714FD40F237113C
:104610001120FCF70FFD1420FBF72AFF4FF4DC718B
:104620001220FCF707FD142000E085E0FBF720FFD7
:104630004FF470611320FCF7FDFC80212A20FCF769
:10464000F9FC48212920FCF7F5FC1420FBF710FFAA
:104650004FF480710120FCF7EDFC4FF4E061022083
:10466000FCF7E8FC41F238010320FCF7E3FC40F2E0
:1046700002210820FCF7DEFC00210A20FCF7DAFC0E
:1046800000210C20FCF7D6FC00210D20FCF7D2FC09
:1046900030210E20FCF7CEFC00215020FCF7CAFC94
:1046A000EF215120FCF7C6FC00215220FCF7C2FC90
:1046B00040F23F115320FCF7BDFC4FF41C51602029
:1046C000FCF7B8FC01216120FCF7B4FC00216A2052
:1046D000FCF7B0FC11219020FCF7ACFC4FF4C0615A
:1046E0009220FCF7A7FC40F202419320FCF7A2FCC9
:1046F00002219420FCF79EFC1420FBF7B9FE012157
:104700000720FCF797FC1420FBF7B2FE612107207D
:10471000FCF790FC40F273110720FCF78BFC0021A2
:104720002020FCF787FC00212120FCF783FC2221BC
:104730000020FCF77FFC10E3794880884CF205519B
:1047400088427CD100210846FCF774FC0021084611
:10475000FCF770FC1420FBF78BFE00210846FCF7E9
:1047600069FC00210846FCF765FC00210846FCF7BF
:1047700061FC00210846FCF75DFC0121A420FCF748
:1047800059FC1420FBF774FE4FF41C516020FCF719
:1047900051FC40F606010820FCF74CFC40F2037186
:1047A0003020FCF747FC01213120FCF743FC0421B9
:1047B0003220FCF73FFC4FF481713320FCF73AFCC8
:1047C0004FF440713420FCF735FC40F203113520E2
:1047D000FCF730FC1F213620FCF72CFC40F2037163
:1047E0003720FCF727FC01213820FCF723FC0421AB
:1047F0003920FCF71FFC15219020FCF71BFC4FF41F
:1048000082611020FCF716FC40F247211120FCF7D2
:1048100011FC4FF4DE711220FCF70CFC4FF46061C8
:104820001320FCF707FC7820FBF722FE4FF4807181
:104830000120FCF7FFFB4FF40071022000E052E082
:10484000FCF7F8FB41F230010320FCF7F3FB0821F1
:104850000A20FCF7EFFB00210C20FCF7EBFB2021EA
:104860000E20FCF7E7FB00210F20FCF7E3FB002103
:104870002020FCF7DFFB00212120FCF7DBFB3D21A2
:104880002A20FCF7D7FB1420FBF7F2FD2D2129206D
:10489000FCF7D0FB00215020FCF7CCFB4DF2EF01E0
:1048A0005120FCF7C7FB00215220FCF7C3FB40F26C
:1048B0003F115320FCF7BEFB00216120FCF7BAFB3F
:1048C00000216A20FCF7B6FB4FF440719220FCF700
:1048D000B1FB05219320FCF7ADFB4FF4807107205D
:1048E000FCF7A8FB39E20E48808844F23151884237
:1048F0007ED101210020FCF79DFB0A20FBF7B8FDCB
:1049000041F228611020FCF795FB0E211220FCF7E4
:1049100091FB40F639211320FCF78CFB0A2001E0C3
:1049200028000020FBF7A4FD40211120FCF782FBAA
:1049300050211520FCF77EFB0A20FBF799FD1E2174
:104940001220FCF777FB0A20FBF792FD4FF4B151E0
:104950001020FCF76FFB42F639211320FCF76AFBAD
:104960000A20FBF785FD4FF480710120FCF762FB04
:104970004FF440710220FCF75DFB41F23801032047
:10498000FCF758FB40F202210820FCF753FB0821FA
:104990000A20FCF74FFB00213020FCF74BFB40F2D4
:1049A00002413120FCF746FB4FF483713220FCF7C3
:1049B00041FB40F203513320FCF73CFB4FF4827182
:1049C0003420FCF737FB40F201313520FCF732FB95
:1049D00040F207713620FCF72DFB40F205313720FD
:1049E000FCF728FB4FF402713820FCF723FB00E0B2
:1049F0003EE040F60B713920FCF71CFB0221412000
:104A0000FCF718FB4FF41C516020FCF713FB01214D
:104A10006120FCF70FFB4FF404719020FCF70AFBB8
:104A20004FF485719220FCF705FB04219320FCF7DD
:104A300001FB4FF48071A020FCF7FCFA0121072054
:104A4000FCF7F8FA21210720FCF7F4FA23210720CC
:104A5000FCF7F0FA33210720FCF7ECFA40F23311AF
:104A60000720FCF7E7FA0021A020FCF7E3FA74E145
:104A7000C048808844F2355188427CD130211520CD
:104A8000FCF7D8FA10219A20FCF7D4FA2021112043
:104A9000FCF7D0FA43F228411020FCF7CBFA0221B0
:104AA0001220FCF7C7FA41F238011320FCF7C2FAD2
:104AB0002820FBF7DDFC12210846FCF7BBFA282072
:104AC000FBF7D6FC43F220411020FCF7B3FA43F287
:104AD00038011320FCF7AEFA4620FBF7C9FC002191
:104AE0003020FCF7A7FA40F202413120FCF7A2FA8D
:104AF00040F207313220FCF79DFA4FF44171332028
:104B0000FCF798FA04213420FCF794FA40F20141B2
:104B10003520FCF78FFA40F207713620FCF78AFA4D
:104B200040F205313720FCF785FA4FF4C261382096
:104B3000FCF780FA4FF4C2613920FCF77BFA4FF49E
:104B400080710120FCF776FA4FF440710220FCF7E7
:104B500071FA41F230010320FCF76CFA40F60801CB
:104B60000820FCF767FA08210A20FCF763FA4FF4E3
:104B70001C51602000E033E0FCF75CFA0121612069
:104B8000FCF758FA4FF49F719020FCF753FA4FF45A
:104B900080719220FCF74EFA4FF480719320FCF75D
:104BA00049FA4FF44051A020FCF744FA1021A32009
:104BB000FCF740FA01210720FCF73CFA21210720ED
:104BC000FCF738FA23210720FCF734FA33210720B9
:104BD000FCF730FA40F233110720FCF72BFABCE067
:104BE0006448808841F663118842F8D1E220FCF7DE
:104BF0000BFA1D20FCF7FCF90220FCF7F9F9042060
:104C0000FCF7F6F96420FBF73FFCE020FCF7FCF929
:104C10000120FCF7EDF90A20FBF72AFCE020FCF765
:104C2000F3F90320FCF7E4F90C20FBF721FC012049
:104C3000FCF7EAF90A20FBF71BFCE620FCF7E4F995
:104C40002F20FCF7D5F9FF20FCF7D2F9FF20FCF765
:104C5000CFF9B020FCF7D8F92020FCF7C9F90020E3
:104C6000FCF7C6F90020FCF7C3F9EF20FCF7C0F908
:104C70000120FCF7BDF940F23F10FCF7B9F9002024
:104C8000FCF7B6F9B420FCF7BFF90120FCF7B0F946
:104C900040F2EF10FCF7ACF90020FCF7A9F92E2048
:104CA000FCF7A6F90020FCF7A3F90020FCF7A0F917
:104CB0000020FCF79DF90020FCF79AF9B620FCF7DC
:104CC000A3F90120FCF794F94FF4B670FCF790F9C2
:104CD0000020FCF78DF91720FCF78AF91520FCF766
:104CE00087F90020FCF784F90020FCF781F9F02017
:104CF000FCF78AF90320FCF77BF92920FCF784F9FB
:104D0000D020FCF781F90020FCF772F9BE20FCF7F7
:104D10007BF90520FCF76CF9FE20FCF769F901200E
:104D2000FCF766F90020FCF763F90020FCF760F956
:104D30000020FCF75DF9B820FCF766F90320FCF7CA
:104D400057F90120FCF754F9BA20FCF75DF901206E
:104D5000FCF74EF96420FBF769FE0020FBF72AFD03
:104D600001210548FBF7BBFC4FF6FF70FBF7ECFC9D
:104D70001FB000BD28000020000C014010B586B017
:104D8000044601210420FCF7D5F918208DF81700FE
:104D90004FF40070ADF8140003208DF8160005A93B
:104DA0001E48FBF708FC04208DF817000002ADF840
:104DB000140005A91948FBF7FEFB01218803FCF745
:104DC000B9F901940020ADF810000C20ADF80E00E8
:104DD0000020ADF80C00ADF80A00ADF8080001A9FC
:104DE0000F4800F093F801210D4800F033F801223C
:104DF00040F225510A4800F063F825208DF80000A4
:104E000001208DF8030000208DF801008DF80200CC
:104E10006846FCF745F906B010BD000000080140E7
:104E20000038014010B540F22551084800F01EF846
:104E3000012809D10548001D008805490870084669
:104E400000780249091D088010BD000000380140AB
:104E50001000002021B1828942F40052828104E0D6
:104E600082894DF6FF731A408281704770B5024601
:104E7000002400230025002040F66A16B14200D12C
:104E800000BFC1F3421501F01F03012606FA03F328
:104E9000012D02D19689334006E0022D02D1168AF7
:104EA000334001E0968A33400C12012606FA04F4DE
:104EB0001688344013B10CB1012000E0002070BD11
:104EC000F0B50346002400260025002040F66A17AE
:104ED000B94200D100BF1846C1F3421401F01F06C9
:104EE000012707FA06F5012C01D10C3004E0022C51
:104EF00001D1103000E014301AB107682F43076069
:104F000002E00768AF430760F0BD00002DE9F047FD
:104F100086B005460E460024A24600BFA1460027E3
:104F2000B08900B100BF2F462C8A4CF6FF700440B8
:104F3000F08804432C82AC894EF6F3100440B0880C
:104F400031890843718908430443AC81AC8A4FF628
:104F5000FF400440B0890443AC8201A8FCF7FAF892
:104F60001F48874202D1DDF810A001E0DDF80CA057
:104F7000A88900F4004040B10AEBCA0000EB0A1017
:104F800031684900B0FBF1F807E00AEBCA0000EB1A
:104F90000A1031688900B0FBF1F86420B8FBF0F02A
:104FA00004012009642101FB1089A88900F4004054
:104FB00040B1322000EBC900B0FBF1F000F0070077
:104FC000044308E0322000EB09106421B0FBF1F04B
:104FD00000F00F0004432C8106B0BDE8F08700000C
:104FE0000038014000BFFEE702E008C8121F08C1F8
:104FF000002AFAD170477047002001E001C1121F5A
:10500000002AFBD17047000088B0FCF71BF8FCF7C2
:10501000C7F90120FBF7CEFB5749481EB0F1807F4E
:1050200000D31BE0481E4FF0E022506150170F22C2
:10503000002804DB13071C0E504B1C5406E013071A
:105040001D0E4F4B00F00F04241F1D5500BF002004
:105050004FF0E02290610720106100BF4FF4E13073
:10506000FFF78CFE182102A8FBF785F80020F0233B
:105070004FF4A07201460090FBF7A6FC7BE041488C
:105080000068B0F5FA7F08D33F48006880F004005C
:105090003D49086000203B4908603C4896231A4679
:1050A0002D2100905520FBF76FFF0420FBF7E0F95E
:1050B000374896231A462D2100905520FBF764FFB0
:1050C0000420FBF7D5F9334896231A462D2100908A
:1050D0005520FBF759FF0420FBF7CAF92E48962309
:1050E0001A462D2100905520FBF74EFF0420FBF7B8
:1050F000BFF92A4896231A462D2100905520FBF728
:1051000043FF0420FBF7B4F9254896231A462D21C6
:1051100000905520FBF738FF0420FBF7A9F9214840
:1051200096231A462D2100905520FBF72DFF0420D1
:10513000FBF79EF91C4896231A462D210090552016
:10514000FBF722FF0420FBF793F9184896231A4631
:105150002D2100905520FBF717FF0420FBF788F95D
:10516000134896231A462D2100905520FBF70CFF7B
:105170000420FBF77DF982E74019010000E400E01C
:1051800018ED00E0000000200C180140B4510008A8
:105190007C01010844B101080C610208D410030825
:1051A0009CC00308647004082C200508F4CF05088F
:1051B000BC7F0608104110411041104110400840CA
:1051C000104010401040104010411041104110415B
:1051D0001861186118611862186218621862186202
:1051E00018621862186218621862186218621862EF
:1051F000186218621862186218621882188218827F
:1052000018831883188420A420C620C620C520E750
:1052100020E9210B4251318D20E920E820E820E7E8
:1052200020C620C520C420C420C428C420C420C354
:1052300038E56A6ABC52ED35ED15E432E34FE32FF1
:10524000EB2EE32FE32EEB2EEB6FD2CC89E851044B
:105250003102310230E230E230E330E330E230E379
:1052600030E3310330E230A230A230A230A230A2CB
:1052700030C230A230812881308238C24103496572
:1052800069C8724A82CB932D8AAB69E94985390393
:105290002881306230A230C228A238E3410430A213
:1052A00028A228A230A228A228C220C228C228A24E
:1052B00028C228C2208128C28B0A9B8C936C936CD5
:1052C000936C936C936C936C936C936C936C936CE6
:1052D000936C936C9B6C9B6C8B2C3924082008403E
:1052E0001040104110411041104110411041104038
:1052F0001040104110411041104118411041184117
:1053000018611862186218621862186218621862CE
:1053100018621862186218621862186218621862BD
:10532000186218621862186218621882188318844A
:1053300020A520A520C520E620C520E720E820E8FC
:1053400020C820E920E820E720E720E720C620C584
:1053500020C520C428C428C320A328C4934ED4F554
:10536000E4D4ECD4F473EB70E34FEB2EEAEDE30EF0
:10537000EACDEAACEAEDE32EEB70BACC61243881D9
:1053800030C2310230E330E330C230E230E230E3A9
:1053900030E230C230C230C230C228A128A138E386
:1053A000596672499B6EABF0C451DCF4E516ED36DC
:1053B000E536ED57ED36E536DCF4ABB0720850E378
:1053C000308228C26228B472C4D4728B304130A2B9
:1053D00030C230A230A228A228A228A228C220A22D
:1053E00020A128E2830A9B8C936C936C936C936C42
:1053F000934C934C9B6C936C936C936C936C934C0D
:10540000936C9B6C934C3924082010411040104140
:105410001041104110411041104010401040104008
:105420001041104110411861186218621862186228
:10543000186218621862186218621862186118619E
:10544000186218621862206220821862188218821C
:1054500018621882188218821883188420A420A544
:1054600020C520C620E720E820E820E920E920E840
:1054700028E720C720C620E620C528E520E520C46F
:1054800028C428E420A459C8DCF5F515ECD4ECB404
:10549000F432E36FEB0EEACDEACDEAACEACDE2ED11
:1054A000EAEDEAEDEAEDEB70CAAC8905308130E255
:1054B00030E330E3310330E330E230C230E230E257
:1054C00030E230C239046A2882CBAC10D4F3ED3517
:1054D000ED76F596F556F597F556F536ED15ED366C
:1054E000ED36F556ED56F536ED36C47272498AEC56
:1054F000D536EDD8EDD8DD566A0928A228C228A2F3
:1055000028A228C228A228A220A228C220A128C2FC
:105510008B0A9B8C9B6C936C936C936C936C934CED
:10552000934C936C936C936C936C936C934C9B6CBB
:10553000934C392408201040104010411041104075
:1055400010411041104110411041104110401041D4
:10555000186118621862186218621862186218627C
:1055600018621882188318621882188218822082A2
:105570001882208220822082188218821882188243
:10558000188318821883188420A420C420C420C63D
:1055900020E8292A316A210A20E920E728E628E7BD
:1055A00028E720E620C528C528E428E528C428C423
:1055B00028E4930DECD5F4F5F493F493F432E32E50
:1055C000E30EEACDEAACEAACEAACEA8CEA8CEAACEF
:1055D000EAACEAEDF34FEB0E816638813944414481
:1055E0003923392341433923310230E2308261C803
:1055F000ABAFE535ED76F596F576ED36ED35ED3676
:10560000ED15ED15F515F4F5ECF5ED15ED15ED15BC
:10561000ECF5F515F536DC73C473EDB6ED96ED5685
:10562000ED96F5D7BC73414428C228A228A228A22F
:1056300028C228A228A228A228A228E2830A9B8C9A
:10564000A36C9B6C936C936C936C936C936C934C6A
:10565000934C936C936C936C9B6C9B6C934C390444
:1056600008201041104110411041104110411040DC
:105670001041104110411040104010411861186154
:10568000186218621862186218621862188420A5DD
:1056900020A418831883188318622061208120A217
:1056A00020A220A220A218831883208218821883A7
:1056B000188320A420A428E420C520C63129398BD2
:1056C00039AD316B210920C828E7310628E620C40E
:1056D00028E530E530E430E628E430E539058B2D67
:1056E000DC73ECD5F4B4F493F432E32EEAEDEA8CF7
:1056F000EA8CE26CE26BDA4BE26BEA8CEA8CEAACA5
:10570000EAACEB4FE30E890448A241033923490375
:1057100040E238E2390249249B2EDCB4F516ED76DE
:10572000ED35ED15ED35F535ED15ED15ED15ECF522
:10573000ECF5ECF5F515F515ED15ED16ED15F53661
:10574000DCB4CC12ED76ED96F596ED76F576F57641
:10575000ED7682AB308230A228A330A228A228C2E4
:1057600028C228A220A228C2830B9B8C9B6C9B6C16
:10577000936C9B6C9B6C936C936C936C936C936C21
:10578000936C936C934C9B6C934C310408001040C9
:105790001041104110411861184110411041104151
:1057A00010411041104018611862186218621862A6
:1057B000186218621882188420C620C620E620C508
:1057C00018841882208128C230E228A128A228C289
:1057D00020A2188320A220A218821883188318A45C
:1057E00020A420C528E528E6312739AC39CE39ACCC
:1057F000316A290829072907310728E631063107C8
:1058000028E631063105310538E46A2AC432E493CA
:10581000EC93F493F432EB6FEAACD1E9C20AC26BB9
:10582000CA8CCA8CDAACE28CDA4BE26BEAACEAAC3A
:10583000F32FDACC792540A340A240E2514472080C
:10584000AB8ECC73F576ED15F515F515F515ED1553
:10585000ED36ED15ED36ED15F515ED16ED15ED15ED
:10586000F515F535F515ED36ED15ED15ECD4ED56D0
:10587000F596ED76F576ED76ED76F576FD97CC93AB
:1058800040E430E2310230E230E230C228C228C2C5
:1058900020A230C2830A9B8D9B6C936C936C9B6D92
:1058A0009B6C936C936C936C9B6C936C936C936CF0
:1058B000934C9B6C934C31040800104010401041F5
:1058C0001041104118411041104110411041104148
:1058D0001041186128A2208218821862186218628A
:1058E000188320C620E720E720C620E620C42082B7
:1058F00020607AC9BC4F4143188028C220A228C228
:1059000028C220A220821883208420A328C420C576
:1059100028E531052908318C39CE39AD398B31294B
:1059200031072907310731073106310631073106C2
:105930003106390528E54166BBD1DC73DC73F4938D
:10594000FC52F3B0E2CD998760C3696569867987B7
:1059500091C8AA2ACA8CDAACE28CE26CE2EDEB0EBA
:10596000CACD710471E89B4DBC11DCD4F576F57697
:10597000ED36ED35ED35ED15ED15ED15ED35ED1596
:10598000ED15ED35F535ED16ED16F515ED15ED15B5
:10599000F515F535ED15ED15F535ED56ED76F57694
:1059A000F576ED76ED76F576F576ED7669E83061AB
:1059B00030E228E330E328C328A228A228A230E25C
:1059C000830A9B8D9B6C9B6C936C9B6C9B6C936C08
:1059D000936C9B6C9B6C936C936C9B6C9B6C9B6CA7
:1059E0008B2B3904080010411041104110411861FF
:1059F00018411041104110411040104010411861F1
:105A0000208220821882186218621862188320E6A9
:105A100020E820E820E820E720A528814124C5517E
:105A2000FF15AC8E51C528A1208228A228A228A249
:105A300028A220A3208328A328C428E428E428E659
:105A40003928396B398C39CD316B29283107312709
:105A50003127310731063106390531063905390656
:105A600028E530E4826ADC53EC93F473F473F411A8
:105A7000E32E9166406140A251446945690568C3BF
:105A800079459987B1C8CA6BE2ACE2EEE2EDCAACE7
:105A9000D432ED36F535ECF5ED15ED36ED36ED3568
:105AA000ED15ED35ED15ED35ED15ED16ED36ED3564
:105AB000ED35ED15ED16ED15ED16ED36ED15ED1593
:105AC000F515ED15ED16ED56F577F597F576F576B6
:105AD000F596F576F576F5D8A3AF48C3308130C298
